{"contracts/DocumentRegistry.sol":{"DocumentRegistry":{"abi":[{"inputs":[],"stateMutability":"nonpayable","type":"constructor"},{"anonymous":false,"inputs":[{"indexed":true,"internalType":"bytes32","name":"documentId","type":"bytes32"},{"indexed":true,"internalType":"bytes32","name":"entityId","type":"bytes32"},{"indexed":true,"internalType":"enum DocumentRegistry.DocumentType","name":"docType","type":"uint8"},{"indexed":false,"internalType":"address","name":"issuer","type":"address"},{"indexed":false,"internalType":"bytes32","name":"documentHash","type":"bytes32"}],"name":"DocumentIssued","type":"event"},{"anonymous":false,"inputs":[{"indexed":true,"internalType":"bytes32","name":"documentId","type":"bytes32"},{"indexed":false,"internalType":"address","name":"revokedBy","type":"address"},{"indexed":false,"internalType":"string","name":"reason","type":"string"}],"name":"DocumentRevoked","type":"event"},{"anonymous":false,"inputs":[{"indexed":true,"internalType":"bytes32","name":"documentId","type":"bytes32"},{"indexed":false,"internalType":"enum DocumentRegistry.DocumentStatus","name":"oldStatus","type":"uint8"},{"indexed":false,"internalType":"enum DocumentRegistry.DocumentStatus","name":"newStatus","type":"uint8"},{"indexed":false,"internalType":"address","name":"changedBy","type":"address"}],"name":"DocumentStatusChanged","type":"event"},{"anonymous":false,"inputs":[{"indexed":true,"internalType":"bytes32","name":"documentId","type":"bytes32"},{"indexed":true,"internalType":"address","name":"verifier","type":"address"},{"indexed":false,"internalType":"uint256","name":"verifiedDate","type":"uint256"}],"name":"DocumentVerified","type":"event"},{"anonymous":false,"inputs":[{"indexed":false,"internalType":"address","name":"account","type":"address"}],"name":"Paused","type":"event"},{"anonymous":false,"inputs":[{"indexed":true,"internalType":"bytes32","name":"role","type":"bytes32"},{"indexed":true,"internalType":"bytes32","name":"previousAdminRole","type":"bytes32"},{"indexed":true,"internalType":"bytes32","name":"newAdminRole","type":"bytes32"}],"name":"RoleAdminChanged","type":"event"},{"anonymous":false,"inputs":[{"indexed":true,"internalType":"bytes32","name":"role","type":"bytes32"},{"indexed":true,"internalType":"address","name":"account","type":"address"},{"indexed":true,"internalType":"address","name":"sender","type":"address"}],"name":"RoleGranted","type":"event"},{"anonymous":false,"inputs":[{"indexed":true,"internalType":"bytes32","name":"role","type":"bytes32"},{"indexed":true,"internalType":"address","name":"account","type":"address"},{"indexed":true,"internalType":"address","name":"sender","type":"address"}],"name":"RoleRevoked","type":"event"},{"anonymous":false,"inputs":[{"indexed":false,"internalType":"address","name":"account","type":"address"}],"name":"Unpaused","type":"event"},{"inputs":[],"name":"DEFAULT_ADMIN_ROLE","outputs":[{"internalType":"bytes32","name":"","type":"bytes32"}],"stateMutability":"view","type":"function"},{"inputs":[],"name":"ISSUER_ROLE","outputs":[{"internalType":"bytes32","name":"","type":"bytes32"}],"stateMutability":"view","type":"function"},{"inputs":[],"name":"OPERATOR_ROLE","outputs":[{"internalType":"bytes32","name":"","type":"bytes32"}],"stateMutability":"view","type":"function"},{"inputs":[],"name":"VERIFIER_ROLE","outputs":[{"internalType":"bytes32","name":"","type":"bytes32"}],"stateMutability":"view","type":"function"},{"inputs":[{"internalType":"bytes32[]","name":"_entityIds","type":"bytes32[]"},{"internalType":"enum DocumentRegistry.DocumentType[]","name":"_docTypes","type":"uint8[]"},{"internalType":"string[]","name":"_documentNames","type":"string[]"},{"internalType":"bytes32[]","name":"_documentHashes","type":"bytes32[]"},{"internalType":"string[]","name":"_ipfsHashes","type":"string[]"},{"internalType":"uint256[]","name":"_expiryDates","type":"uint256[]"},{"internalType":"string[]","name":"_metadatas","type":"string[]"}],"name":"batchIssueDocuments","outputs":[{"internalType":"bytes32[]","name":"","type":"bytes32[]"}],"stateMutability":"nonpayable","type":"function"},{"inputs":[{"internalType":"enum DocumentRegistry.DocumentStatus","name":"","type":"uint8"}],"name":"documentCountByStatus","outputs":[{"internalType":"uint256","name":"","type":"uint256"}],"stateMutability":"view","type":"function"},{"inputs":[{"internalType":"enum DocumentRegistry.DocumentType","name":"","type":"uint8"}],"name":"documentCountByType","outputs":[{"internalType":"uint256","name":"","type":"uint256"}],"stateMutability":"view","type":"function"},{"inputs":[{"internalType":"bytes32","name":"","type":"bytes32"}],"name":"documents","outputs":[{"internalType":"bytes32","name":"documentId","type":"bytes32"},{"internalType":"bytes32","name":"entityId","type":"bytes32"},{"internalType":"enum DocumentRegistry.DocumentType","name":"docType","type":"uint8"},{"internalType":"string","name":"documentName","type":"string"},{"internalType":"bytes32","name":"documentHash","type":"bytes32"},{"internalType":"string","name":"ipfsHash","type":"string"},{"internalType":"address","name":"issuer","type":"address"},{"internalType":"address","name":"verifier","type":"address"},{"internalType":"uint256","name":"issuedDate","type":"uint256"},{"internalType":"uint256","name":"verifiedDate","type":"uint256"},{"internalType":"uint256","name":"expiryDate","type":"uint256"},{"internalType":"enum DocumentRegistry.DocumentStatus","name":"status","type":"uint8"},{"internalType":"string","name":"metadata","type":"string"},{"internalType":"bool","name":"exists","type":"bool"}],"stateMutability":"view","type":"function"},{"inputs":[{"internalType":"bytes32","name":"","type":"bytes32"},{"internalType":"uint256","name":"","type":"uint256"}],"name":"documentsByEntity","outputs":[{"internalType":"bytes32","name":"","type":"bytes32"}],"stateMutability":"view","type":"function"},{"inputs":[{"internalType":"bytes32","name":"","type":"bytes32"},{"internalType":"uint256","name":"","type":"uint256"}],"name":"documentsByHash","outputs":[{"internalType":"bytes32","name":"","type":"bytes32"}],"stateMutability":"view","type":"function"},{"inputs":[{"internalType":"address","name":"","type":"address"},{"internalType":"uint256","name":"","type":"uint256"}],"name":"documentsByIssuer","outputs":[{"internalType":"bytes32","name":"","type":"bytes32"}],"stateMutability":"view","type":"function"},{"inputs":[{"internalType":"enum DocumentRegistry.DocumentType","name":"","type":"uint8"},{"internalType":"uint256","name":"","type":"uint256"}],"name":"documentsByType","outputs":[{"internalType":"bytes32","name":"","type":"bytes32"}],"stateMutability":"view","type":"function"},{"inputs":[{"internalType":"bytes32","name":"_documentId","type":"bytes32"}],"name":"getDocument","outputs":[{"internalType":"bytes32","name":"entityId","type":"bytes32"},{"internalType":"enum DocumentRegistry.DocumentType","name":"docType","type":"uint8"},{"internalType":"string","name":"documentName","type":"string"},{"internalType":"bytes32","name":"documentHash","type":"bytes32"},{"internalType":"string","name":"ipfsHash","type":"string"},{"internalType":"address","name":"issuer","type":"address"},{"internalType":"address","name":"verifier","type":"address"},{"internalType":"uint256","name":"issuedDate","type":"uint256"},{"internalType":"uint256","name":"verifiedDate","type":"uint256"},{"internalType":"uint256","name":"expiryDate","type":"uint256"},{"internalType":"enum DocumentRegistry.DocumentStatus","name":"status","type":"uint8"},{"internalType":"string","name":"metadata","type":"string"}],"stateMutability":"view","type":"function"},{"inputs":[],"name":"getDocumentStats","outputs":[{"internalType":"uint256","name":"_totalDocuments","type":"uint256"},{"internalType":"uint256","name":"issuedCount","type":"uint256"},{"internalType":"uint256","name":"verifiedCount","type":"uint256"},{"internalType":"uint256","name":"rejectedCount","type":"uint256"},{"internalType":"uint256","name":"revokedCount","type":"uint256"}],"stateMutability":"view","type":"function"},{"inputs":[{"internalType":"bytes32","name":"_entityId","type":"bytes32"}],"name":"getDocumentsByEntity","outputs":[{"internalType":"bytes32[]","name":"","type":"bytes32[]"}],"stateMutability":"view","type":"function"},{"inputs":[{"internalType":"address","name":"_issuer","type":"address"}],"name":"getDocumentsByIssuer","outputs":[{"internalType":"bytes32[]","name":"","type":"bytes32[]"}],"stateMutability":"view","type":"function"},{"inputs":[{"internalType":"enum DocumentRegistry.DocumentType","name":"_docType","type":"uint8"}],"name":"getDocumentsByType","outputs":[{"internalType":"bytes32[]","name":"","type":"bytes32[]"}],"stateMutability":"view","type":"function"},{"inputs":[{"internalType":"uint256","name":"_daysBeforeExpiry","type":"uint256"}],"name":"getExpiringDocuments","outputs":[{"internalType":"bytes32[]","name":"","type":"bytes32[]"}],"stateMutability":"view","type":"function"},{"inputs":[{"internalType":"bytes32","name":"role","type":"bytes32"}],"name":"getRoleAdmin","outputs":[{"internalType":"bytes32","name":"","type":"bytes32"}],"stateMutability":"view","type":"function"},{"inputs":[{"internalType":"bytes32","name":"role","type":"bytes32"},{"internalType":"address","name":"account","type":"address"}],"name":"grantRole","outputs":[],"stateMutability":"nonpayable","type":"function"},{"inputs":[{"internalType":"bytes32","name":"_entityId","type":"bytes32"},{"internalType":"enum DocumentRegistry.DocumentType[]","name":"_requiredTypes","type":"uint8[]"}],"name":"hasRequiredDocuments","outputs":[{"internalType":"bool","name":"","type":"bool"}],"stateMutability":"view","type":"function"},{"inputs":[{"internalType":"bytes32","name":"role","type":"bytes32"},{"internalType":"address","name":"account","type":"address"}],"name":"hasRole","outputs":[{"internalType":"bool","name":"","type":"bool"}],"stateMutability":"view","type":"function"},{"inputs":[{"internalType":"bytes32","name":"_documentId","type":"bytes32"}],"name":"isDocumentValid","outputs":[{"internalType":"bool","name":"","type":"bool"}],"stateMutability":"view","type":"function"},{"inputs":[{"internalType":"bytes32","name":"_entityId","type":"bytes32"},{"internalType":"enum DocumentRegistry.DocumentType","name":"_docType","type":"uint8"},{"internalType":"string","name":"_documentName","type":"string"},{"internalType":"bytes32","name":"_documentHash","type":"bytes32"},{"internalType":"string","name":"_ipfsHash","type":"string"},{"internalType":"uint256","name":"_expiryDate","type":"uint256"},{"internalType":"string","name":"_metadata","type":"string"}],"name":"issueDocument","outputs":[{"internalType":"bytes32","name":"","type":"bytes32"}],"stateMutability":"nonpayable","type":"function"},{"inputs":[],"name":"pause","outputs":[],"stateMutability":"nonpayable","type":"function"},{"inputs":[],"name":"paused","outputs":[{"internalType":"bool","name":"","type":"bool"}],"stateMutability":"view","type":"function"},{"inputs":[{"internalType":"bytes32","name":"_documentId","type":"bytes32"},{"internalType":"string","name":"_reason","type":"string"}],"name":"rejectDocument","outputs":[],"stateMutability":"nonpayable","type":"function"},{"inputs":[{"internalType":"bytes32","name":"role","type":"bytes32"},{"internalType":"address","name":"account","type":"address"}],"name":"renounceRole","outputs":[],"stateMutability":"nonpayable","type":"function"},{"inputs":[{"internalType":"bytes32","name":"_documentId","type":"bytes32"},{"internalType":"string","name":"_reason","type":"string"}],"name":"revokeDocument","outputs":[],"stateMutability":"nonpayable","type":"function"},{"inputs":[{"internalType":"bytes32","name":"role","type":"bytes32"},{"internalType":"address","name":"account","type":"address"}],"name":"revokeRole","outputs":[],"stateMutability":"nonpayable","type":"function"},{"inputs":[{"internalType":"bytes4","name":"interfaceId","type":"bytes4"}],"name":"supportsInterface","outputs":[{"internalType":"bool","name":"","type":"bool"}],"stateMutability":"view","type":"function"},{"inputs":[],"name":"totalDocuments","outputs":[{"internalType":"uint256","name":"","type":"uint256"}],"stateMutability":"view","type":"function"},{"inputs":[],"name":"unpause","outputs":[],"stateMutability":"nonpayable","type":"function"},{"inputs":[{"internalType":"bytes32","name":"_documentId","type":"bytes32"}],"name":"verifyDocument","outputs":[],"stateMutability":"nonpayable","type":"function"},{"inputs":[{"internalType":"bytes32","name":"_documentId","type":"bytes32"},{"internalType":"bytes32","name":"_providedHash","type":"bytes32"}],"name":"verifyDocumentIntegrity","outputs":[{"internalType":"bool","name":"","type":"bool"}],"stateMutability":"view","type":"function"}],"evm":{"bytecode":{"linkReferences":{},"object":"6080604081815234620001e157600180805560ff198060025416600255600091828052602093838552808420338552855260ff818520541615620001ac575b7f97667070c54ef182b0f5858b034beac1b6f3089aa2d3188bb1e8929f4fa9b929808552848652818520338652865260ff82862054161562000175575b507f114e74f6ea3bd819998f78687bfcb11b140da08e9b7d222fa9c1f1ba1f2aa122808552848652818520338652865260ff8286205416156200013e575b507f0ce23c3e399818cfee81a7ab0880f714e53d7672b08df0fa62f2843416e1ea0994858552848152818520338652815260ff82862054161562000105575b612cd48781620001e78239f35b8585528481528185209033865252832091825416179055339160008051602062002ebb833981519152339280a4388080808080620000f8565b808552848652818520338652865281852083858254161790553390339060008051602062002ebb8339815191528780a438620000b9565b808552848652818520338652865281852083858254161790553390339060008051602062002ebb8339815191528780a4386200007b565b8380528385528084203385528552808420828482541617905533338560008051602062002ebb8339815191528180a46200003e565b600080fdfe608080604052600436101561001357600080fd5b60003560e01c90816301ffc9a714611d535750806303dedb8414611ce3578063248a9ca314611cb4578063269fbc4014611c835780632b2805db14611b585780632f2ff15d14611aa557806336568abe14611a135780633f4ba83a1461197f5780634ee0c0a714611757578063553181ec146117395780635c975abb146117165780636088cda2146116d257806381450e5b146116b457806382aefa24146116795780638456cb591461161f5780638b1d2c6f1461155357806391d1485414611506578063a217fddf146114ea578063abbd6cc1146114a0578063acb2926514611478578063b10d6b411461135c578063bd038c2b14611019578063c6061dff14610fd7578063c9e2176d14610fa6578063d4d3b2bb14610f75578063d547741f14610f34578063e7705db614610ef9578063e7a6a24f14610eb2578063ec2a213214610e3a578063f2539c7c14610d35578063f5b541a614610cfa578063f79d2e2e14610c80578063f9ab247514610c34578063fb93f6111461034b5763fe35089f146101a057600080fd5b3461034657602080600319360112610346576004356101bd612531565b6101c5612975565b806000526003825260406000206101e260ff600d830154166129b9565b60ff600b820154166004811015610330576101fd9015612a05565b600a8101548015908115610326575b50156102ee5760078101336bffffffffffffffffffffffff60a01b8254161790556009429101558060005260038252807f233d935b7c02fb70eebed1de7459091f403c8726266d0c1da6140a1dfa783b906060600b60406000200160ff8154169061027682612057565b61028081546127ef565b90556001600052600a8752604060002061029a815461290b565b9055600160ff198254161790556102b46040518092611f96565b600186820152336040820152a27fd2e2c7816326189dcc69e034828acc6b5e35016c2327497c62adee4d7aaf1532604051924284523393a3005b60405162461bcd60e51b815260048101849052601060248201526f111bd8dd5b595b9d08195e1c1a5c995960821b6044820152606490fd5b905042103861020c565b634e487b7160e01b600052602160045260246000fd5b600080fd5b346103465760e03660031901126103465760096024351015610346576044356001600160401b03811161034657610386903690600401611fcf565b60849081356001600160401b038111610346576103a7903690600401611fcf565b9060c4356001600160401b038111610346576103c7903690600401611fcf565b916103d06123f7565b6103d8612975565b60043515610bfb5760643515610bbe57815115610b805760643560005260076020526040600020916040518084602082965493848152019060005260206000209260005b818110610b6757505061043192500384611e7a565b60005b83518110156104fc57610447818561291a565b51600052600380602052604060002090600435600183015414918215926104e1575b50501561047e576104799061290b565b610434565b60405162461bcd60e51b815260206004820152603660248201527f446f63756d656e7420776974682073616d65206861736820616c72656164792060448201527565786973747320666f72207468697320656e7469747960501b60648201528690fd5b60ff919250600b015416600481101561033057148780610469565b50836008549260405193600435602086015260643560408601523360601b60608601524260748601526094850152609484528360c08101106001600160401b0360c08601111761098f5760c08401604052835160208501209384600052600360205260ff600d6040600020015416610b27575060405192836101c08101106001600160401b036101c08601111761098f576101c08401604052848452600435602085015260243560408501526060840152606435608084015260a08301523360c0830152600060e083015242610100830152600061012083015260a435610140830152600061016083015261018082015260016101a082015281600052600360205260406000208151815560208201516001820155604082015160098110156103305760ff8019600284015416911617600282015560608201519283516001600160401b03811161098f576106546003840154611e25565b601f8111610ae0575b506020601f8211600114610a71578192939495600092610a66575b50508160011b916000199060031b1c19161760038301555b6080830151600483015560a08301519283516001600160401b03811161098f576106bd6005850154611e25565b601f8111610a1f575b506020601f82116001146109b05781929394956000926109a5575b50508160011b916000199060031b1c19161760058401555b60c08101516006840180546001600160a01b039283166001600160a01b03199182161790915560e083015160078601805491909316911617905561010081015160088401556101208101516009840155610140810151600a840155610160810151600b84019060048110156103305760ff801983541691161790556101808101519283516001600160401b03811161098f57610798600c830154611e25565b94601f8611610948575b602095508590601f83116001146108d45791806101a09492600d946000926108c9575b50508160011b916000199060031b1c191617600c8201555b01910151151560ff801983541691161790556004356000526004825261080781604060002061293b565b336000526005825261081d81604060002061293b565b6108318161082c6024356121cc565b61293b565b6064356000526007825261084981604060002061293b565b61085460085461290b565b6008556108626024356121e5565b61086c815461290b565b905560008052600a82526040600020610885815461290b565b90556040513381526064358382015260243590827fbd946340a493ea25245bcac31bc08baf64779c573659d744a658b049e664afa1604060043593a4604051908152f35b0151905088806107c5565b90600c8401600052866000209160005b601f19851681106109315750926101a09492600192600d9583601f19811610610918575b505050811b01600c8201556107dd565b015160001960f88460031b161c19169055888080610908565b9192886001819286850151815501940192016108e4565b600c83016000526020600020601f830160051c810160208410610988575b601f880160051c8201811061097c5750506107a2565b60008155600101610966565b5080610966565b634e487b7160e01b600052604160045260246000fd5b0151905085806106e1565b6005850160005260206000209060005b601f1984168110610a07575060019394959683601f198116106109ee575b505050811b0160058401556106f9565b015160001960f88460031b161c191690558580806109de565b9091602060018192858b0151815501930191016109c0565b600585016000526020600020601f830160051c810160208410610a5f575b601f830160051c82018110610a535750506106c6565b60008155600101610a3d565b5080610a3d565b015190508580610678565b6003840160005260206000209060005b601f1984168110610ac8575060019394959683601f19811610610aaf575b505050811b016003830155610690565b015160001960f88460031b161c19169055858080610a9f565b9091602060018192858b015181550193019101610a81565b600384016000526020600020601f830160051c810160208410610b20575b601f830160051c82018110610b1457505061065d565b60008155600101610afe565b5080610afe565b60c060649162461bcd60e51b82820152602060c4820152601560e4820152742237b1bab6b2b73a1024a21031b7b63634b9b4b7b760591b61010482015201fd5b845483526001948501948894506020909301920161041c565b60405162461bcd60e51b8152602060048201526016602482015275111bd8dd5b595b9d081b985b59481c995c5d5a5c995960521b6044820152606490fd5b60405162461bcd60e51b8152602060048201526015602482015274092dcecc2d8d2c840c8dec6eadacadce840d0c2e6d605b1b6044820152606490fd5b60405162461bcd60e51b8152602060048201526011602482015270125b9d985b1a5908195b9d1a5d1e481251607a1b6044820152606490fd5b3461034657604036600319011261034657600435600981101561034657610c5d602435916121cc565b805482101561034657602091610c7291611df7565b90546040519160031b1c8152f35b34610346576020806003193601126103465760043560005260048152604060002090604051908181845491828152019360005281600020916000905b828210610ce357610cdf85610cd381890382611e7a565b60405191829182611da6565b0390f35b835486529485019460019384019390910190610cbc565b346103465760003660031901126103465760206040517f97667070c54ef182b0f5858b034beac1b6f3089aa2d3188bb1e8929f4fa9b9298152f35b3461034657610d4336612025565b50610d4c612531565b610d54612975565b80600052600360205260ff600b6040600020610d7583600d830154166129b9565b015416600481101561033057610d8b9015612a05565b8060005260036020527f233d935b7c02fb70eebed1de7459091f403c8726266d0c1da6140a1dfa783b906060600b60406000200160ff81541690610dce82612057565b610dd881546127ef565b90556002600052600a6020527fbff4442b8ed600beeb8e26b1279a0f0d14c6edfaec26d968ee13c86f7d4c2ba88054610e109061290b565b9055600260ff19825416179055610e2a6040518092611f96565b60026020820152336040820152a2005b3461034657602080600319360112610346576001600160a01b03610e5c611fb9565b1660005260058152604060002090604051908181845491828152019360005281600020916000905b828210610e9b57610cdf85610cd381890382611e7a565b835486529485019460019384019390910190610e84565b34610346576040366003190112610346576024356001600160401b03811161034657610eef610ee760209236906004016120e5565b600435612ad5565b6040519015158152f35b346103465760003660031901126103465760206040517f0ce23c3e399818cfee81a7ab0880f714e53d7672b08df0fa62f2843416e1ea098152f35b3461034657604036600319011261034657610f73600435610f53611fa3565b90806000526000602052610f6e60016040600020015461266b565b61276a565b005b3461034657610f8336611de1565b9060005260046020526040600020805482101561034657602091610c7291611df7565b3461034657602036600319011261034657600435600981101561034657610fce6020916121e5565b54604051908152f35b346103465760203660031901126103465760405160208101908082106001600160401b0383111761098f57610cdf916040526000815260405191829182611da6565b346103465760e0366003190112610346576004356001600160401b03811161034657611049903690600401612087565b6024356001600160401b038111610346576110689036906004016120e5565b906044356001600160401b0381116103465761108890369060040161214c565b916064356001600160401b038111610346576110a8903690600401612087565b926084356001600160401b038111610346576110c890369060040161214c565b6001600160401b0360a435116103465736602360a435011215610346576110f460a43560040135612070565b946111026040519687611e7a565b60a4356004013586526020860136602460a4356004013560051b60a43501011161034657602460a43501905b602460a4356004013560051b60a4350101821061134c5750506001600160401b0360c43511610346576111663660c43560040161214c565b9261116f6123f7565b611177612975565b6111848651865114612c5a565b6111918651825114612c5a565b61119e8651835114612c5a565b6111ab8651845114612c5a565b6111b88651885114612c5a565b6111c58651855114612c5a565b8551946111d186612070565b956111df6040519788611e7a565b8087526111ee601f1991612070565b0136602088013760005b875181101561133e5761120b818961291a565b5190611217818461291a565b6112209061292e565b9161122b828661291a565b51611236838861291a565b51838d611243828c61291a565b519161124e9161291a565b519161125a868d61291a565b519360405197889663fb93f61160e01b885260048801526024870161127e91611f41565b6044860160e0905260e4860161129391611f71565b9060648601526003198582030160848601526112ae91611f71565b9060a48401526003198382030160c48401526112c991611f71565b03823091815a602094600091f18015611332576000906112fe575b6112f992506112f3828a61291a565b5261290b565b6111f8565b506020823d60201161132a575b8161131860209383611e7a565b81010312610346576112f991516112e4565b3d915061130b565b6040513d6000823e3d90fd5b60405180610cdf8982611da6565b813581526020918201910161112e565b346103465760203660031901126103465760043560005260036020526040600020600d81015460ff1661138e906129b9565b6001810154600282015460ff1691600481015490600160a01b600190039081600682015416916007820154166008820154600983015490600a84015492600b85015460ff1694600381016113e190611e9b565b976113ee60058301611e9b565b91600c016113fb90611e9b565b986040519b8c9b8c5260208c0161141191611f41565b6101808060408d01528b0161142591611f71565b9060608b015289810360808b015261143c91611f71565b9560a089015260c088015260e0870152610100860152610120850152610140840161146691611f96565b828103610160840152610cdf91611f71565b3461034657602036600319011261034657600435600481101561034657610fce602091612057565b34610346576040366003190112610346576114b9611fb9565b6001600160a01b031660009081526005602052604090208054602435919082101561034657602091610c7291611df7565b3461034657600036600319011261034657602060405160008152f35b346103465760403660031901126103465761151f611fa3565b600435600052600060205260406000209060018060a01b0316600052602052602060ff604060002054166040519015158152f35b3461034657600036600319011261034657600854600a60209081527f13da86008ba1c6922daee3e07db95305ef49ebced9f5467a0b8613fcc6b343e3547fbbc70db1b6c7afd11e79c0fb0051300458f1a3acb8ee9789d9b6b26c61ad9bc7547fbff4442b8ed600beeb8e26b1279a0f0d14c6edfaec26d968ee13c86f7d4c2ba85460036000527fa856840544dc26124927add067d799967eac11be13e14d82cc281ea46fa39759546040805196875294860193909352928401526060830191909152608082015260a090f35b34610346576000366003190112610346576116386121fe565b611640612975565b600160ff1960025416176002557f62e78cea01bee320cd4e420270b5ea74000d11b0c9f74754ebdbfc544b05a2586020604051338152a1005b346103465760003660031901126103465760206040517f114e74f6ea3bd819998f78687bfcb11b140da08e9b7d222fa9c1f1ba1f2aa1228152f35b34610346576020366003190112610346576020610eef600435612a51565b346103465760403660031901126103465760043560005260036020526020604060002061170560ff600d830154166129b9565b600460243591015414604051908152f35b3461034657600036600319011261034657602060ff600254166040519015158152f35b34610346576000366003190112610346576020600854604051908152f35b346103465761176536612025565b61176d612975565b81600052600390602091808352604060002061178f60ff600d830154166129b9565b60068101546001600160a01b03163314801561193d575b801561191b575b156118d657600b015460ff166004811015610330578114611891579161188c604092857f233d935b7c02fb70eebed1de7459091f403c8726266d0c1da6140a1dfa783b9060607f664cf7d0751e82eefc46ed717a1ab228d0287a6acf6767abcd9532b4f5cafb5b9783600052808752600b88600020019060ff8254169161183383612057565b61183d81546127ef565b905581600052600a895289600020611855815461290b565b90558160ff1982541617905561186d89518093611f96565b878201523388820152a283519384933385528401526040830190611f71565b0390a2005b60405162461bcd60e51b815260048101849052601860248201527f446f63756d656e7420616c7265616479207265766f6b656400000000000000006044820152606490fd5b60405162461bcd60e51b815260048101859052601860248201527f4e6f7420617574686f72697a656420746f207265766f6b6500000000000000006044820152606490fd5b506000805260008452604060002033600052845260ff604060002054166117ad565b507f97667070c54ef182b0f5858b034beac1b6f3089aa2d3188bb1e8929f4fa9b92960005260008452604060002033600052845260ff604060002054166117a6565b34610346576000366003190112610346576119986121fe565b60025460ff8116156119d75760ff19166002557f5db9ee0a495bf2e6ff9c91a7834c1ba4fdd244a5e8aa4e537bd38aeae4b073aa6020604051338152a1005b60405162461bcd60e51b815260206004820152601460248201527314185d5cd8589b194e881b9bdd081c185d5cd95960621b6044820152606490fd5b3461034657604036600319011261034657611a2c611fa3565b336001600160a01b03821603611a4857610f739060043561276a565b60405162461bcd60e51b815260206004820152602f60248201527f416363657373436f6e74726f6c3a2063616e206f6e6c792072656e6f756e636560448201526e103937b632b9903337b91039b2b63360891b6064820152608490fd5b3461034657604036600319011261034657600435611ac1611fa3565b816000526000602052611adb60016040600020015461266b565b81600052600060205260406000209060018060a01b0316908160005260205260ff6040600020541615611b0a57005b8160005260006020526040600020816000526020526040600020600160ff1982541617905533917f2f8788117e7eff1d82e926ec794901d17c78024a50270940304540a733656f0d600080a4005b3461034657602036600319011261034657600435600052600360205260406000208054600182015491600281015460ff169060038101611b9790611e9b565b600482015490611ba960058401611e9b565b91600160a01b60019003928360068601541693600786015416600886015490600987015492600a88015494600b89015460ff1696600c8a01611bea90611e9b565b99600d015460ff169a6040519d8e809e81526020015260408d01611c0d91611f41565b8b6101c06060819201528c01611c2291611f71565b9060808c01528a810360a08c0152611c3991611f71565b9560c08a015260e08901526101008801526101208701526101408601526101608501611c6491611f96565b838103610180850152611c7691611f71565b9015156101a08301520390f35b3461034657611c9136611de1565b9060005260076020526040600020805482101561034657602091610c7291611df7565b346103465760203660031901126103465760043560005260006020526020600160406000200154604051908152f35b346103465760208060031936011261034657600435600981101561034657611d0a906121cc565b90604051908181845491828152019360005281600020916000905b828210611d3c57610cdf85610cd381890382611e7a565b835486529485019460019384019390910190611d25565b34610346576020366003190112610346576004359063ffffffff60e01b821680920361034657602091637965db0b60e01b8114908115611d95575b5015158152f35b6301ffc9a760e01b14905083611d8e565b6020908160408183019282815285518094520193019160005b828110611dcd575050505090565b835185529381019392810192600101611dbf565b6040906003190112610346576004359060243590565b8054821015611e0f5760005260206000200190600090565b634e487b7160e01b600052603260045260246000fd5b90600182811c92168015611e55575b6020831014611e3f57565b634e487b7160e01b600052602260045260246000fd5b91607f1691611e34565b608081019081106001600160401b0382111761098f57604052565b90601f801991011681019081106001600160401b0382111761098f57604052565b9060405191826000825492611eaf84611e25565b908184526001948581169081600014611f1e5750600114611edb575b5050611ed992500383611e7a565b565b9093915060005260209081600020936000915b818310611f06575050611ed993508201013880611ecb565b85548884018501529485019487945091830191611eee565b915050611ed994506020925060ff191682840152151560051b8201013880611ecb565b9060098210156103305752565b60005b838110611f615750506000910152565b8181015183820152602001611f51565b90602091611f8a81518092818552858086019101611f4e565b601f01601f1916010190565b9060048210156103305752565b602435906001600160a01b038216820361034657565b600435906001600160a01b038216820361034657565b81601f82011215610346578035906001600160401b03821161098f5760405192612003601f8401601f191660200185611e7a565b8284526020838301011161034657816000926020809301838601378301015290565b9060406003198301126103465760043591602435906001600160401b0382116103465761205491600401611fcf565b90565b600481101561033057600052600a602052604060002090565b6001600160401b03811161098f5760051b60200190565b81601f820112156103465780359161209e83612070565b926120ac6040519485611e7a565b808452602092838086019260051b820101928311610346578301905b8282106120d6575050505090565b813581529083019083016120c8565b81601f82011215610346578035916120fc83612070565b9261210a6040519485611e7a565b808452602092838086019260051b820101928311610346578301905b828210612134575050505090565b81356009811015610346578152908301908301612126565b9080601f830112156103465781359061216482612070565b926121726040519485611e7a565b828452602092838086019160051b8301019280841161034657848301915b8483106121a05750505050505090565b82356001600160401b0381116103465786916121c184848094890101611fcf565b815201920191612190565b6009811015610330576000526006602052604060002090565b6009811015610330576000526009602052604060002090565b3360009081527fad3228b676f7d3cd4284a5443f17f1962b36e491b30a40b2405849e597ba5fb5602090815260408083205490929060ff161561224057505050565b61224933612812565b908084519061225782611e5f565b604282528482019260603685378251156123e3576030845382516001908110156123cf5790607860218501536041915b8083116123755750505061233357604861232f93869361231393612304985198899376020b1b1b2b9b9a1b7b73a3937b61d1030b1b1b7bab73a1604d1b8a8601526122db815180928c603789019101611f4e565b8401917001034b99036b4b9b9b4b733903937b6329607d1b603784015251809386840190611f4e565b01036028810187520185611e7a565b5192839262461bcd60e51b845260048401526024830190611f71565b0390fd5b60648486519062461bcd60e51b825280600483015260248201527f537472696e67733a20686578206c656e67746820696e73756666696369656e746044820152fd5b909192600f811660108110156123bb576123b491906f181899199a1a9b1b9c1cb0b131b232b360811b901a6123aa86886127de565b5360041c936127ef565b9190612287565b634e487b7160e01b84526032600452602484fd5b634e487b7160e01b82526032600452602482fd5b634e487b7160e01b81526032600452602490fd5b3360009081527ff9c002f57bb53b4d861ae1ef1369a8087d06c8210e4846f897918d0e534663ce602090815260408083205490927f114e74f6ea3bd819998f78687bfcb11b140da08e9b7d222fa9c1f1ba1f2aa1229160ff161561245b5750505050565b61246433612812565b9184519061247182611e5f565b604282528482019260603685378251156123e3576030845382516001908110156123cf5790607860218501536041915b8083116124f55750505061233357604861232f93869361231393612304985198899376020b1b1b2b9b9a1b7b73a3937b61d1030b1b1b7bab73a1604d1b8a8601526122db815180928c603789019101611f4e565b909192600f811660108110156123bb5761252a91906f181899199a1a9b1b9c1cb0b131b232b360811b901a6123aa86886127de565b91906124a1565b3360009081527f1da0b5176dfe03406af5a6eed66ca01dda9b45ac4da671c3fa379cb93717ef81602090815260408083205490927f0ce23c3e399818cfee81a7ab0880f714e53d7672b08df0fa62f2843416e1ea099160ff16156125955750505050565b61259e33612812565b918451906125ab82611e5f565b604282528482019260603685378251156123e3576030845382516001908110156123cf5790607860218501536041915b80831161262f5750505061233357604861232f93869361231393612304985198899376020b1b1b2b9b9a1b7b73a3937b61d1030b1b1b7bab73a1604d1b8a8601526122db815180928c603789019101611f4e565b909192600f811660108110156123bb5761266491906f181899199a1a9b1b9c1cb0b131b232b360811b901a6123aa86886127de565b91906125db565b600090808252602090828252604092838120338252835260ff8482205416156126945750505050565b61269d33612812565b918451906126aa82611e5f565b604282528482019260603685378251156123e3576030845382516001908110156123cf5790607860218501536041915b80831161272e5750505061233357604861232f93869361231393612304985198899376020b1b1b2b9b9a1b7b73a3937b61d1030b1b1b7bab73a1604d1b8a8601526122db815180928c603789019101611f4e565b909192600f811660108110156123bb5761276391906f181899199a1a9b1b9c1cb0b131b232b360811b901a6123aa86886127de565b91906126da565b9060009180835282602052604083209160018060a01b03169182845260205260ff60408420541661279a57505050565b80835282602052604083208284526020526040832060ff1981541690557ff6391f5c32d9c69d2a47ea670b442974b53935d1edc7fd64eb21e047a839171b339380a4565b908151811015611e0f570160200190565b80156127fc576000190190565b634e487b7160e01b600052601160045260246000fd5b60405190606082018281106001600160401b0382111761098f57604052602a8252602082016040368237825115611e0f57603090538151600190811015611e0f57607860218401536029905b8082116128b257505061286e5790565b606460405162461bcd60e51b815260206004820152602060248201527f537472696e67733a20686578206c656e67746820696e73756666696369656e746044820152fd5b9091600f81169060108210156128f6576128f0916f181899199a1a9b1b9c1cb0b131b232b360811b901a6128e685876127de565b5360041c926127ef565b9061285e565b60246000634e487b7160e01b81526032600452fd5b60001981146127fc5760010190565b8051821015611e0f5760209160051b010190565b5160098110156103305790565b80546801000000000000000081101561098f5761295d91600182018155611df7565b819291549060031b91821b91600019901b1916179055565b60ff6002541661298157565b60405162461bcd60e51b815260206004820152601060248201526f14185d5cd8589b194e881c185d5cd95960821b6044820152606490fd5b156129c057565b60405162461bcd60e51b815260206004820152601760248201527f446f63756d656e7420646f6573206e6f742065786973740000000000000000006044820152606490fd5b15612a0c57565b60405162461bcd60e51b815260206004820152601d60248201527f446f63756d656e74206e6f7420696e20697373756564207374617475730000006044820152606490fd5b600090815260036020526040812060ff600d8201541615612ab25760ff600b820154166004811015612ac15760038114908115612ab6575b50612ab257600a01548015159081612aa7575b506120545750600190565b905042101538612a9c565b5090565b600291501438612a89565b634e487b7160e01b83526021600452602483fd5b906000918252600491602091838352604093848320948051808787829954938481520190875287872092875b89828210612c4457505050612b1892500387611e7a565b83945b8351861015612c38578496855b8151811015612c2e57612b3b818361291a565b5187526003835283872060ff9081600282015416612b61612b5c8c8b61291a565b61292e565b90600980831015612c1b57811015612c0857149182612bda575b5081612bba575b50612b9557612b909061290b565b612b28565b5096509460015b15612bb057612baa9061290b565b94612b1b565b5050505091505090565b600a0154801591508115612bd0575b5038612b82565b9050421038612bc9565b909150600b8201541686811015612bf5576001149038612b7b565b634e487b7160e01b895260218752602489fd5b634e487b7160e01b8b526021895260248bfd5b634e487b7160e01b8c5260218a5260248cfd5b5096959095612b9c565b50505050505050600190565b855484526001958601958c955093019201612b01565b15612c6157565b60405162461bcd60e51b8152602060048201526015602482015274082e4e4c2f240d8cadccee8d040dad2e6dac2e8c6d605b1b6044820152606490fdfea26469706673582212208289be1b618ff5a84b5d70f7d234b54623721140617d1ed4d7b407c53f0af66d64736f6c634300081300332f8788117e7eff1d82e926ec794901d17c78024a50270940304540a733656f0d","opcodes":"PUSH1 0x80 PUSH1 0x40 DUP2 DUP2 MSTORE CALLVALUE PUSH3 0x1E1 JUMPI PUSH1 0x1 DUP1 DUP1 SSTORE PUSH1 0xFF NOT DUP1 PUSH1 0x2 SLOAD AND PUSH1 0x2 SSTORE PUSH1 0x0 SWAP2 DUP3 DUP1 MSTORE PUSH1 0x20 SWAP4 DUP4 DUP6 MSTORE DUP1 DUP5 KECCAK256 CALLER DUP6 MSTORE DUP6 MSTORE PUSH1 0xFF DUP2 DUP6 KECCAK256 SLOAD AND ISZERO PUSH3 0x1AC JUMPI JUMPDEST PUSH32 0x97667070C54EF182B0F5858B034BEAC1B6F3089AA2D3188BB1E8929F4FA9B929 DUP1 DUP6 MSTORE DUP5 DUP7 MSTORE DUP2 DUP6 KECCAK256 CALLER DUP7 MSTORE DUP7 MSTORE PUSH1 0xFF DUP3 DUP7 KECCAK256 SLOAD AND ISZERO PUSH3 0x175 JUMPI JUMPDEST POP PUSH32 0x114E74F6EA3BD819998F78687BFCB11B140DA08E9B7D222FA9C1F1BA1F2AA122 DUP1 DUP6 MSTORE DUP5 DUP7 MSTORE DUP2 DUP6 KECCAK256 CALLER DUP7 MSTORE DUP7 MSTORE PUSH1 0xFF DUP3 DUP7 KECCAK256 SLOAD AND ISZERO PUSH3 0x13E JUMPI JUMPDEST POP PUSH32 0xCE23C3E399818CFEE81A7AB0880F714E53D7672B08DF0FA62F2843416E1EA09 SWAP5 DUP6 DUP6 MSTORE DUP5 DUP2 MSTORE DUP2 DUP6 KECCAK256 CALLER DUP7 MSTORE DUP2 MSTORE PUSH1 0xFF DUP3 DUP7 KECCAK256 SLOAD AND ISZERO PUSH3 0x105 JUMPI JUMPDEST PUSH2 0x2CD4 DUP8 DUP2 PUSH3 0x1E7 DUP3 CODECOPY RETURN JUMPDEST DUP6 DUP6 MSTORE DUP5 DUP2 MSTORE DUP2 DUP6 KECCAK256 SWAP1 CALLER DUP7 MSTORE MSTORE DUP4 KECCAK256 SWAP2 DUP3 SLOAD AND OR SWAP1 SSTORE CALLER SWAP2 PUSH1 0x0 DUP1 MLOAD PUSH1 0x20 PUSH3 0x2EBB DUP4 CODECOPY DUP2 MLOAD SWAP2 MSTORE CALLER SWAP3 DUP1 LOG4 CODESIZE DUP1 DUP1 DUP1 DUP1 DUP1 PUSH3 0xF8 JUMP JUMPDEST DUP1 DUP6 MSTORE DUP5 DUP7 MSTORE DUP2 DUP6 KECCAK256 CALLER DUP7 MSTORE DUP7 MSTORE DUP2 DUP6 KECCAK256 DUP4 DUP6 DUP3 SLOAD AND OR SWAP1 SSTORE CALLER SWAP1 CALLER SWAP1 PUSH1 0x0 DUP1 MLOAD PUSH1 0x20 PUSH3 0x2EBB DUP4 CODECOPY DUP2 MLOAD SWAP2 MSTORE DUP8 DUP1 LOG4 CODESIZE PUSH3 0xB9 JUMP JUMPDEST DUP1 DUP6 MSTORE DUP5 DUP7 MSTORE DUP2 DUP6 KECCAK256 CALLER DUP7 MSTORE DUP7 MSTORE DUP2 DUP6 KECCAK256 DUP4 DUP6 DUP3 SLOAD AND OR SWAP1 SSTORE CALLER SWAP1 CALLER SWAP1 PUSH1 0x0 DUP1 MLOAD PUSH1 0x20 PUSH3 0x2EBB DUP4 CODECOPY DUP2 MLOAD SWAP2 MSTORE DUP8 DUP1 LOG4 CODESIZE PUSH3 0x7B JUMP JUMPDEST DUP4 DUP1 MSTORE DUP4 DUP6 MSTORE DUP1 DUP5 KECCAK256 CALLER DUP6 MSTORE DUP6 MSTORE DUP1 DUP5 KECCAK256 DUP3 DUP5 DUP3 SLOAD AND OR SWAP1 SSTORE CALLER CALLER DUP6 PUSH1 0x0 DUP1 MLOAD PUSH1 0x20 PUSH3 0x2EBB DUP4 CODECOPY DUP2 MLOAD SWAP2 MSTORE DUP2 DUP1 LOG4 PUSH3 0x3E JUMP JUMPDEST PUSH1 0x0 DUP1 REVERT INVALID PUSH1 0x80 DUP1 PUSH1 0x40 MSTORE PUSH1 0x4 CALLDATASIZE LT ISZERO PUSH2 0x13 JUMPI PUSH1 0x0 DUP1 REVERT JUMPDEST PUSH1 0x0 CALLDATALOAD PUSH1 0xE0 SHR SWAP1 DUP2 PUSH4 0x1FFC9A7 EQ PUSH2 0x1D53 JUMPI POP DUP1 PUSH4 0x3DEDB84 EQ PUSH2 0x1CE3 JUMPI DUP1 PUSH4 0x248A9CA3 EQ PUSH2 0x1CB4 JUMPI DUP1 PUSH4 0x269FBC40 EQ PUSH2 0x1C83 JUMPI DUP1 PUSH4 0x2B2805DB EQ PUSH2 0x1B58 JUMPI DUP1 PUSH4 0x2F2FF15D EQ PUSH2 0x1AA5 JUMPI DUP1 PUSH4 0x36568ABE EQ PUSH2 0x1A13 JUMPI DUP1 PUSH4 0x3F4BA83A EQ PUSH2 0x197F JUMPI DUP1 PUSH4 0x4EE0C0A7 EQ PUSH2 0x1757 JUMPI DUP1 PUSH4 0x553181EC EQ PUSH2 0x1739 JUMPI DUP1 PUSH4 0x5C975ABB EQ PUSH2 0x1716 JUMPI DUP1 PUSH4 0x6088CDA2 EQ PUSH2 0x16D2 JUMPI DUP1 PUSH4 0x81450E5B EQ PUSH2 0x16B4 JUMPI DUP1 PUSH4 0x82AEFA24 EQ PUSH2 0x1679 JUMPI DUP1 PUSH4 0x8456CB59 EQ PUSH2 0x161F JUMPI DUP1 PUSH4 0x8B1D2C6F EQ PUSH2 0x1553 JUMPI DUP1 PUSH4 0x91D14854 EQ PUSH2 0x1506 JUMPI DUP1 PUSH4 0xA217FDDF EQ PUSH2 0x14EA JUMPI DUP1 PUSH4 0xABBD6CC1 EQ PUSH2 0x14A0 JUMPI DUP1 PUSH4 0xACB29265 EQ PUSH2 0x1478 JUMPI DUP1 PUSH4 0xB10D6B41 EQ PUSH2 0x135C JUMPI DUP1 PUSH4 0xBD038C2B EQ PUSH2 0x1019 JUMPI DUP1 PUSH4 0xC6061DFF EQ PUSH2 0xFD7 JUMPI DUP1 PUSH4 0xC9E2176D EQ PUSH2 0xFA6 JUMPI DUP1 PUSH4 0xD4D3B2BB EQ PUSH2 0xF75 JUMPI DUP1 PUSH4 0xD547741F EQ PUSH2 0xF34 JUMPI DUP1 PUSH4 0xE7705DB6 EQ PUSH2 0xEF9 JUMPI DUP1 PUSH4 0xE7A6A24F EQ PUSH2 0xEB2 JUMPI DUP1 PUSH4 0xEC2A2132 EQ PUSH2 0xE3A JUMPI DUP1 PUSH4 0xF2539C7C EQ PUSH2 0xD35 JUMPI DUP1 PUSH4 0xF5B541A6 EQ PUSH2 0xCFA JUMPI DUP1 PUSH4 0xF79D2E2E EQ PUSH2 0xC80 JUMPI DUP1 PUSH4 0xF9AB2475 EQ PUSH2 0xC34 JUMPI DUP1 PUSH4 0xFB93F611 EQ PUSH2 0x34B JUMPI PUSH4 0xFE35089F EQ PUSH2 0x1A0 JUMPI PUSH1 0x0 DUP1 REVERT JUMPDEST CALLVALUE PUSH2 0x346 JUMPI PUSH1 0x20 DUP1 PUSH1 0x3 NOT CALLDATASIZE ADD SLT PUSH2 0x346 JUMPI PUSH1 0x4 CALLDATALOAD PUSH2 0x1BD PUSH2 0x2531 JUMP JUMPDEST PUSH2 0x1C5 PUSH2 0x2975 JUMP JUMPDEST DUP1 PUSH1 0x0 MSTORE PUSH1 0x3 DUP3 MSTORE PUSH1 0x40 PUSH1 0x0 KECCAK256 PUSH2 0x1E2 PUSH1 0xFF PUSH1 0xD DUP4 ADD SLOAD AND PUSH2 0x29B9 JUMP JUMPDEST PUSH1 0xFF PUSH1 0xB DUP3 ADD SLOAD AND PUSH1 0x4 DUP2 LT ISZERO PUSH2 0x330 JUMPI PUSH2 0x1FD SWAP1 ISZERO PUSH2 0x2A05 JUMP JUMPDEST PUSH1 0xA DUP2 ADD SLOAD DUP1 ISZERO SWAP1 DUP2 ISZERO PUSH2 0x326 JUMPI JUMPDEST POP ISZERO PUSH2 0x2EE JUMPI PUSH1 0x7 DUP2 ADD CALLER PUSH12 0xFFFFFFFFFFFFFFFFFFFFFFFF PUSH1 0xA0 SHL DUP3 SLOAD AND OR SWAP1 SSTORE PUSH1 0x9 TIMESTAMP SWAP2 ADD SSTORE DUP1 PUSH1 0x0 MSTORE PUSH1 0x3 DUP3 MSTORE DUP1 PUSH32 0x233D935B7C02FB70EEBED1DE7459091F403C8726266D0C1DA6140A1DFA783B90 PUSH1 0x60 PUSH1 0xB PUSH1 0x40 PUSH1 0x0 KECCAK256 ADD PUSH1 0xFF DUP2 SLOAD AND SWAP1 PUSH2 0x276 DUP3 PUSH2 0x2057 JUMP JUMPDEST PUSH2 0x280 DUP2 SLOAD PUSH2 0x27EF JUMP JUMPDEST SWAP1 SSTORE PUSH1 0x1 PUSH1 0x0 MSTORE PUSH1 0xA DUP8 MSTORE PUSH1 0x40 PUSH1 0x0 KECCAK256 PUSH2 0x29A DUP2 SLOAD PUSH2 0x290B JUMP JUMPDEST SWAP1 SSTORE PUSH1 0x1 PUSH1 0xFF NOT DUP3 SLOAD AND OR SWAP1 SSTORE PUSH2 0x2B4 PUSH1 0x40 MLOAD DUP1 SWAP3 PUSH2 0x1F96 JUMP JUMPDEST PUSH1 0x1 DUP7 DUP3 ADD MSTORE CALLER PUSH1 0x40 DUP3 ADD MSTORE LOG2 PUSH32 0xD2E2C7816326189DCC69E034828ACC6B5E35016C2327497C62ADEE4D7AAF1532 PUSH1 0x40 MLOAD SWAP3 TIMESTAMP DUP5 MSTORE CALLER SWAP4 LOG3 STOP JUMPDEST PUSH1 0x40 MLOAD PUSH3 0x461BCD PUSH1 0xE5 SHL DUP2 MSTORE PUSH1 0x4 DUP2 ADD DUP5 SWAP1 MSTORE PUSH1 0x10 PUSH1 0x24 DUP3 ADD MSTORE PUSH16 0x111BD8DD5B595B9D08195E1C1A5C9959 PUSH1 0x82 SHL PUSH1 0x44 DUP3 ADD MSTORE PUSH1 0x64 SWAP1 REVERT JUMPDEST SWAP1 POP TIMESTAMP LT CODESIZE PUSH2 0x20C JUMP JUMPDEST PUSH4 0x4E487B71 PUSH1 0xE0 SHL PUSH1 0x0 MSTORE PUSH1 0x21 PUSH1 0x4 MSTORE PUSH1 0x24 PUSH1 0x0 REVERT JUMPDEST PUSH1 0x0 DUP1 REVERT JUMPDEST CALLVALUE PUSH2 0x346 JUMPI PUSH1 0xE0 CALLDATASIZE PUSH1 0x3 NOT ADD SLT PUSH2 0x346 JUMPI PUSH1 0x9 PUSH1 0x24 CALLDATALOAD LT ISZERO PUSH2 0x346 JUMPI PUSH1 0x44 CALLDATALOAD PUSH1 0x1 PUSH1 0x1 PUSH1 0x40 SHL SUB DUP2 GT PUSH2 0x346 JUMPI PUSH2 0x386 SWAP1 CALLDATASIZE SWAP1 PUSH1 0x4 ADD PUSH2 0x1FCF JUMP JUMPDEST PUSH1 0x84 SWAP1 DUP2 CALLDATALOAD PUSH1 0x1 PUSH1 0x1 PUSH1 0x40 SHL SUB DUP2 GT PUSH2 0x346 JUMPI PUSH2 0x3A7 SWAP1 CALLDATASIZE SWAP1 PUSH1 0x4 ADD PUSH2 0x1FCF JUMP JUMPDEST SWAP1 PUSH1 0xC4 CALLDATALOAD PUSH1 0x1 PUSH1 0x1 PUSH1 0x40 SHL SUB DUP2 GT PUSH2 0x346 JUMPI PUSH2 0x3C7 SWAP1 CALLDATASIZE SWAP1 PUSH1 0x4 ADD PUSH2 0x1FCF JUMP JUMPDEST SWAP2 PUSH2 0x3D0 PUSH2 0x23F7 JUMP JUMPDEST PUSH2 0x3D8 PUSH2 0x2975 JUMP JUMPDEST PUSH1 0x4 CALLDATALOAD ISZERO PUSH2 0xBFB JUMPI PUSH1 0x64 CALLDATALOAD ISZERO PUSH2 0xBBE JUMPI DUP2 MLOAD ISZERO PUSH2 0xB80 JUMPI PUSH1 0x64 CALLDATALOAD PUSH1 0x0 MSTORE PUSH1 0x7 PUSH1 0x20 MSTORE PUSH1 0x40 PUSH1 0x0 KECCAK256 SWAP2 PUSH1 0x40 MLOAD DUP1 DUP5 PUSH1 0x20 DUP3 SWAP7 SLOAD SWAP4 DUP5 DUP2 MSTORE ADD SWAP1 PUSH1 0x0 MSTORE PUSH1 0x20 PUSH1 0x0 KECCAK256 SWAP3 PUSH1 0x0 JUMPDEST DUP2 DUP2 LT PUSH2 0xB67 JUMPI POP POP PUSH2 0x431 SWAP3 POP SUB DUP5 PUSH2 0x1E7A JUMP JUMPDEST PUSH1 0x0 JUMPDEST DUP4 MLOAD DUP2 LT ISZERO PUSH2 0x4FC JUMPI PUSH2 0x447 DUP2 DUP6 PUSH2 0x291A JUMP JUMPDEST MLOAD PUSH1 0x0 MSTORE PUSH1 0x3 DUP1 PUSH1 0x20 MSTORE PUSH1 0x40 PUSH1 0x0 KECCAK256 SWAP1 PUSH1 0x4 CALLDATALOAD PUSH1 0x1 DUP4 ADD SLOAD EQ SWAP2 DUP3 ISZERO SWAP3 PUSH2 0x4E1 JUMPI JUMPDEST POP POP ISZERO PUSH2 0x47E JUMPI PUSH2 0x479 SWAP1 PUSH2 0x290B JUMP JUMPDEST PUSH2 0x434 JUMP JUMPDEST PUSH1 0x40 MLOAD PUSH3 0x461BCD PUSH1 0xE5 SHL DUP2 MSTORE PUSH1 0x20 PUSH1 0x4 DUP3 ADD MSTORE PUSH1 0x36 PUSH1 0x24 DUP3 ADD MSTORE PUSH32 0x446F63756D656E7420776974682073616D65206861736820616C726561647920 PUSH1 0x44 DUP3 ADD MSTORE PUSH22 0x65786973747320666F72207468697320656E74697479 PUSH1 0x50 SHL PUSH1 0x64 DUP3 ADD MSTORE DUP7 SWAP1 REVERT JUMPDEST PUSH1 0xFF SWAP2 SWAP3 POP PUSH1 0xB ADD SLOAD AND PUSH1 0x4 DUP2 LT ISZERO PUSH2 0x330 JUMPI EQ DUP8 DUP1 PUSH2 0x469 JUMP JUMPDEST POP DUP4 PUSH1 0x8 SLOAD SWAP3 PUSH1 0x40 MLOAD SWAP4 PUSH1 0x4 CALLDATALOAD PUSH1 0x20 DUP7 ADD MSTORE PUSH1 0x64 CALLDATALOAD PUSH1 0x40 DUP7 ADD MSTORE CALLER PUSH1 0x60 SHL PUSH1 0x60 DUP7 ADD MSTORE TIMESTAMP PUSH1 0x74 DUP7 ADD MSTORE PUSH1 0x94 DUP6 ADD MSTORE PUSH1 0x94 DUP5 MSTORE DUP4 PUSH1 0xC0 DUP2 ADD LT PUSH1 0x1 PUSH1 0x1 PUSH1 0x40 SHL SUB PUSH1 0xC0 DUP7 ADD GT OR PUSH2 0x98F JUMPI PUSH1 0xC0 DUP5 ADD PUSH1 0x40 MSTORE DUP4 MLOAD PUSH1 0x20 DUP6 ADD KECCAK256 SWAP4 DUP5 PUSH1 0x0 MSTORE PUSH1 0x3 PUSH1 0x20 MSTORE PUSH1 0xFF PUSH1 0xD PUSH1 0x40 PUSH1 0x0 KECCAK256 ADD SLOAD AND PUSH2 0xB27 JUMPI POP PUSH1 0x40 MLOAD SWAP3 DUP4 PUSH2 0x1C0 DUP2 ADD LT PUSH1 0x1 PUSH1 0x1 PUSH1 0x40 SHL SUB PUSH2 0x1C0 DUP7 ADD GT OR PUSH2 0x98F JUMPI PUSH2 0x1C0 DUP5 ADD PUSH1 0x40 MSTORE DUP5 DUP5 MSTORE PUSH1 0x4 CALLDATALOAD PUSH1 0x20 DUP6 ADD MSTORE PUSH1 0x24 CALLDATALOAD PUSH1 0x40 DUP6 ADD MSTORE PUSH1 0x60 DUP5 ADD MSTORE PUSH1 0x64 CALLDATALOAD PUSH1 0x80 DUP5 ADD MSTORE PUSH1 0xA0 DUP4 ADD MSTORE CALLER PUSH1 0xC0 DUP4 ADD MSTORE PUSH1 0x0 PUSH1 0xE0 DUP4 ADD MSTORE TIMESTAMP PUSH2 0x100 DUP4 ADD MSTORE PUSH1 0x0 PUSH2 0x120 DUP4 ADD MSTORE PUSH1 0xA4 CALLDATALOAD PUSH2 0x140 DUP4 ADD MSTORE PUSH1 0x0 PUSH2 0x160 DUP4 ADD MSTORE PUSH2 0x180 DUP3 ADD MSTORE PUSH1 0x1 PUSH2 0x1A0 DUP3 ADD MSTORE DUP2 PUSH1 0x0 MSTORE PUSH1 0x3 PUSH1 0x20 MSTORE PUSH1 0x40 PUSH1 0x0 KECCAK256 DUP2 MLOAD DUP2 SSTORE PUSH1 0x20 DUP3 ADD MLOAD PUSH1 0x1 DUP3 ADD SSTORE PUSH1 0x40 DUP3 ADD MLOAD PUSH1 0x9 DUP2 LT ISZERO PUSH2 0x330 JUMPI PUSH1 0xFF DUP1 NOT PUSH1 0x2 DUP5 ADD SLOAD AND SWAP2 AND OR PUSH1 0x2 DUP3 ADD SSTORE PUSH1 0x60 DUP3 ADD MLOAD SWAP3 DUP4 MLOAD PUSH1 0x1 PUSH1 0x1 PUSH1 0x40 SHL SUB DUP2 GT PUSH2 0x98F JUMPI PUSH2 0x654 PUSH1 0x3 DUP5 ADD SLOAD PUSH2 0x1E25 JUMP JUMPDEST PUSH1 0x1F DUP2 GT PUSH2 0xAE0 JUMPI JUMPDEST POP PUSH1 0x20 PUSH1 0x1F DUP3 GT PUSH1 0x1 EQ PUSH2 0xA71 JUMPI DUP2 SWAP3 SWAP4 SWAP5 SWAP6 PUSH1 0x0 SWAP3 PUSH2 0xA66 JUMPI JUMPDEST POP POP DUP2 PUSH1 0x1 SHL SWAP2 PUSH1 0x0 NOT SWAP1 PUSH1 0x3 SHL SHR NOT AND OR PUSH1 0x3 DUP4 ADD SSTORE JUMPDEST PUSH1 0x80 DUP4 ADD MLOAD PUSH1 0x4 DUP4 ADD SSTORE PUSH1 0xA0 DUP4 ADD MLOAD SWAP3 DUP4 MLOAD PUSH1 0x1 PUSH1 0x1 PUSH1 0x40 SHL SUB DUP2 GT PUSH2 0x98F JUMPI PUSH2 0x6BD PUSH1 0x5 DUP6 ADD SLOAD PUSH2 0x1E25 JUMP JUMPDEST PUSH1 0x1F DUP2 GT PUSH2 0xA1F JUMPI JUMPDEST POP PUSH1 0x20 PUSH1 0x1F DUP3 GT PUSH1 0x1 EQ PUSH2 0x9B0 JUMPI DUP2 SWAP3 SWAP4 SWAP5 SWAP6 PUSH1 0x0 SWAP3 PUSH2 0x9A5 JUMPI JUMPDEST POP POP DUP2 PUSH1 0x1 SHL SWAP2 PUSH1 0x0 NOT SWAP1 PUSH1 0x3 SHL SHR NOT AND OR PUSH1 0x5 DUP5 ADD SSTORE JUMPDEST PUSH1 0xC0 DUP2 ADD MLOAD PUSH1 0x6 DUP5 ADD DUP1 SLOAD PUSH1 0x1 PUSH1 0x1 PUSH1 0xA0 SHL SUB SWAP3 DUP4 AND PUSH1 0x1 PUSH1 0x1 PUSH1 0xA0 SHL SUB NOT SWAP2 DUP3 AND OR SWAP1 SWAP2 SSTORE PUSH1 0xE0 DUP4 ADD MLOAD PUSH1 0x7 DUP7 ADD DUP1 SLOAD SWAP2 SWAP1 SWAP4 AND SWAP2 AND OR SWAP1 SSTORE PUSH2 0x100 DUP2 ADD MLOAD PUSH1 0x8 DUP5 ADD SSTORE PUSH2 0x120 DUP2 ADD MLOAD PUSH1 0x9 DUP5 ADD SSTORE PUSH2 0x140 DUP2 ADD MLOAD PUSH1 0xA DUP5 ADD SSTORE PUSH2 0x160 DUP2 ADD MLOAD PUSH1 0xB DUP5 ADD SWAP1 PUSH1 0x4 DUP2 LT ISZERO PUSH2 0x330 JUMPI PUSH1 0xFF DUP1 NOT DUP4 SLOAD AND SWAP2 AND OR SWAP1 SSTORE PUSH2 0x180 DUP2 ADD MLOAD SWAP3 DUP4 MLOAD PUSH1 0x1 PUSH1 0x1 PUSH1 0x40 SHL SUB DUP2 GT PUSH2 0x98F JUMPI PUSH2 0x798 PUSH1 0xC DUP4 ADD SLOAD PUSH2 0x1E25 JUMP JUMPDEST SWAP5 PUSH1 0x1F DUP7 GT PUSH2 0x948 JUMPI JUMPDEST PUSH1 0x20 SWAP6 POP DUP6 SWAP1 PUSH1 0x1F DUP4 GT PUSH1 0x1 EQ PUSH2 0x8D4 JUMPI SWAP2 DUP1 PUSH2 0x1A0 SWAP5 SWAP3 PUSH1 0xD SWAP5 PUSH1 0x0 SWAP3 PUSH2 0x8C9 JUMPI JUMPDEST POP POP DUP2 PUSH1 0x1 SHL SWAP2 PUSH1 0x0 NOT SWAP1 PUSH1 0x3 SHL SHR NOT AND OR PUSH1 0xC DUP3 ADD SSTORE JUMPDEST ADD SWAP2 ADD MLOAD ISZERO ISZERO PUSH1 0xFF DUP1 NOT DUP4 SLOAD AND SWAP2 AND OR SWAP1 SSTORE PUSH1 0x4 CALLDATALOAD PUSH1 0x0 MSTORE PUSH1 0x4 DUP3 MSTORE PUSH2 0x807 DUP2 PUSH1 0x40 PUSH1 0x0 KECCAK256 PUSH2 0x293B JUMP JUMPDEST CALLER PUSH1 0x0 MSTORE PUSH1 0x5 DUP3 MSTORE PUSH2 0x81D DUP2 PUSH1 0x40 PUSH1 0x0 KECCAK256 PUSH2 0x293B JUMP JUMPDEST PUSH2 0x831 DUP2 PUSH2 0x82C PUSH1 0x24 CALLDATALOAD PUSH2 0x21CC JUMP JUMPDEST PUSH2 0x293B JUMP JUMPDEST PUSH1 0x64 CALLDATALOAD PUSH1 0x0 MSTORE PUSH1 0x7 DUP3 MSTORE PUSH2 0x849 DUP2 PUSH1 0x40 PUSH1 0x0 KECCAK256 PUSH2 0x293B JUMP JUMPDEST PUSH2 0x854 PUSH1 0x8 SLOAD PUSH2 0x290B JUMP JUMPDEST PUSH1 0x8 SSTORE PUSH2 0x862 PUSH1 0x24 CALLDATALOAD PUSH2 0x21E5 JUMP JUMPDEST PUSH2 0x86C DUP2 SLOAD PUSH2 0x290B JUMP JUMPDEST SWAP1 SSTORE PUSH1 0x0 DUP1 MSTORE PUSH1 0xA DUP3 MSTORE PUSH1 0x40 PUSH1 0x0 KECCAK256 PUSH2 0x885 DUP2 SLOAD PUSH2 0x290B JUMP JUMPDEST SWAP1 SSTORE PUSH1 0x40 MLOAD CALLER DUP2 MSTORE PUSH1 0x64 CALLDATALOAD DUP4 DUP3 ADD MSTORE PUSH1 0x24 CALLDATALOAD SWAP1 DUP3 PUSH32 0xBD946340A493EA25245BCAC31BC08BAF64779C573659D744A658B049E664AFA1 PUSH1 0x40 PUSH1 0x4 CALLDATALOAD SWAP4 LOG4 PUSH1 0x40 MLOAD SWAP1 DUP2 MSTORE RETURN JUMPDEST ADD MLOAD SWAP1 POP DUP9 DUP1 PUSH2 0x7C5 JUMP JUMPDEST SWAP1 PUSH1 0xC DUP5 ADD PUSH1 0x0 MSTORE DUP7 PUSH1 0x0 KECCAK256 SWAP2 PUSH1 0x0 JUMPDEST PUSH1 0x1F NOT DUP6 AND DUP2 LT PUSH2 0x931 JUMPI POP SWAP3 PUSH2 0x1A0 SWAP5 SWAP3 PUSH1 0x1 SWAP3 PUSH1 0xD SWAP6 DUP4 PUSH1 0x1F NOT DUP2 AND LT PUSH2 0x918 JUMPI JUMPDEST POP POP POP DUP2 SHL ADD PUSH1 0xC DUP3 ADD SSTORE PUSH2 0x7DD JUMP JUMPDEST ADD MLOAD PUSH1 0x0 NOT PUSH1 0xF8 DUP5 PUSH1 0x3 SHL AND SHR NOT AND SWAP1 SSTORE DUP9 DUP1 DUP1 PUSH2 0x908 JUMP JUMPDEST SWAP2 SWAP3 DUP9 PUSH1 0x1 DUP2 SWAP3 DUP7 DUP6 ADD MLOAD DUP2 SSTORE ADD SWAP5 ADD SWAP3 ADD PUSH2 0x8E4 JUMP JUMPDEST PUSH1 0xC DUP4 ADD PUSH1 0x0 MSTORE PUSH1 0x20 PUSH1 0x0 KECCAK256 PUSH1 0x1F DUP4 ADD PUSH1 0x5 SHR DUP2 ADD PUSH1 0x20 DUP5 LT PUSH2 0x988 JUMPI JUMPDEST PUSH1 0x1F DUP9 ADD PUSH1 0x5 SHR DUP3 ADD DUP2 LT PUSH2 0x97C JUMPI POP POP PUSH2 0x7A2 JUMP JUMPDEST PUSH1 0x0 DUP2 SSTORE PUSH1 0x1 ADD PUSH2 0x966 JUMP JUMPDEST POP DUP1 PUSH2 0x966 JUMP JUMPDEST PUSH4 0x4E487B71 PUSH1 0xE0 SHL PUSH1 0x0 MSTORE PUSH1 0x41 PUSH1 0x4 MSTORE PUSH1 0x24 PUSH1 0x0 REVERT JUMPDEST ADD MLOAD SWAP1 POP DUP6 DUP1 PUSH2 0x6E1 JUMP JUMPDEST PUSH1 0x5 DUP6 ADD PUSH1 0x0 MSTORE PUSH1 0x20 PUSH1 0x0 KECCAK256 SWAP1 PUSH1 0x0 JUMPDEST PUSH1 0x1F NOT DUP5 AND DUP2 LT PUSH2 0xA07 JUMPI POP PUSH1 0x1 SWAP4 SWAP5 SWAP6 SWAP7 DUP4 PUSH1 0x1F NOT DUP2 AND LT PUSH2 0x9EE JUMPI JUMPDEST POP POP POP DUP2 SHL ADD PUSH1 0x5 DUP5 ADD SSTORE PUSH2 0x6F9 JUMP JUMPDEST ADD MLOAD PUSH1 0x0 NOT PUSH1 0xF8 DUP5 PUSH1 0x3 SHL AND SHR NOT AND SWAP1 SSTORE DUP6 DUP1 DUP1 PUSH2 0x9DE JUMP JUMPDEST SWAP1 SWAP2 PUSH1 0x20 PUSH1 0x1 DUP2 SWAP3 DUP6 DUP12 ADD MLOAD DUP2 SSTORE ADD SWAP4 ADD SWAP2 ADD PUSH2 0x9C0 JUMP JUMPDEST PUSH1 0x5 DUP6 ADD PUSH1 0x0 MSTORE PUSH1 0x20 PUSH1 0x0 KECCAK256 PUSH1 0x1F DUP4 ADD PUSH1 0x5 SHR DUP2 ADD PUSH1 0x20 DUP5 LT PUSH2 0xA5F JUMPI JUMPDEST PUSH1 0x1F DUP4 ADD PUSH1 0x5 SHR DUP3 ADD DUP2 LT PUSH2 0xA53 JUMPI POP POP PUSH2 0x6C6 JUMP JUMPDEST PUSH1 0x0 DUP2 SSTORE PUSH1 0x1 ADD PUSH2 0xA3D JUMP JUMPDEST POP DUP1 PUSH2 0xA3D JUMP JUMPDEST ADD MLOAD SWAP1 POP DUP6 DUP1 PUSH2 0x678 JUMP JUMPDEST PUSH1 0x3 DUP5 ADD PUSH1 0x0 MSTORE PUSH1 0x20 PUSH1 0x0 KECCAK256 SWAP1 PUSH1 0x0 JUMPDEST PUSH1 0x1F NOT DUP5 AND DUP2 LT PUSH2 0xAC8 JUMPI POP PUSH1 0x1 SWAP4 SWAP5 SWAP6 SWAP7 DUP4 PUSH1 0x1F NOT DUP2 AND LT PUSH2 0xAAF JUMPI JUMPDEST POP POP POP DUP2 SHL ADD PUSH1 0x3 DUP4 ADD SSTORE PUSH2 0x690 JUMP JUMPDEST ADD MLOAD PUSH1 0x0 NOT PUSH1 0xF8 DUP5 PUSH1 0x3 SHL AND SHR NOT AND SWAP1 SSTORE DUP6 DUP1 DUP1 PUSH2 0xA9F JUMP JUMPDEST SWAP1 SWAP2 PUSH1 0x20 PUSH1 0x1 DUP2 SWAP3 DUP6 DUP12 ADD MLOAD DUP2 SSTORE ADD SWAP4 ADD SWAP2 ADD PUSH2 0xA81 JUMP JUMPDEST PUSH1 0x3 DUP5 ADD PUSH1 0x0 MSTORE PUSH1 0x20 PUSH1 0x0 KECCAK256 PUSH1 0x1F DUP4 ADD PUSH1 0x5 SHR DUP2 ADD PUSH1 0x20 DUP5 LT PUSH2 0xB20 JUMPI JUMPDEST PUSH1 0x1F DUP4 ADD PUSH1 0x5 SHR DUP3 ADD DUP2 LT PUSH2 0xB14 JUMPI POP POP PUSH2 0x65D JUMP JUMPDEST PUSH1 0x0 DUP2 SSTORE PUSH1 0x1 ADD PUSH2 0xAFE JUMP JUMPDEST POP DUP1 PUSH2 0xAFE JUMP JUMPDEST PUSH1 0xC0 PUSH1 0x64 SWAP2 PUSH3 0x461BCD PUSH1 0xE5 SHL DUP3 DUP3 ADD MSTORE PUSH1 0x20 PUSH1 0xC4 DUP3 ADD MSTORE PUSH1 0x15 PUSH1 0xE4 DUP3 ADD MSTORE PUSH21 0x2237B1BAB6B2B73A1024A21031B7B63634B9B4B7B7 PUSH1 0x59 SHL PUSH2 0x104 DUP3 ADD MSTORE ADD REVERT JUMPDEST DUP5 SLOAD DUP4 MSTORE PUSH1 0x1 SWAP5 DUP6 ADD SWAP5 DUP9 SWAP5 POP PUSH1 0x20 SWAP1 SWAP4 ADD SWAP3 ADD PUSH2 0x41C JUMP JUMPDEST PUSH1 0x40 MLOAD PUSH3 0x461BCD PUSH1 0xE5 SHL DUP2 MSTORE PUSH1 0x20 PUSH1 0x4 DUP3 ADD MSTORE PUSH1 0x16 PUSH1 0x24 DUP3 ADD MSTORE PUSH22 0x111BD8DD5B595B9D081B985B59481C995C5D5A5C9959 PUSH1 0x52 SHL PUSH1 0x44 DUP3 ADD MSTORE PUSH1 0x64 SWAP1 REVERT JUMPDEST PUSH1 0x40 MLOAD PUSH3 0x461BCD PUSH1 0xE5 SHL DUP2 MSTORE PUSH1 0x20 PUSH1 0x4 DUP3 ADD MSTORE PUSH1 0x15 PUSH1 0x24 DUP3 ADD MSTORE PUSH21 0x92DCECC2D8D2C840C8DEC6EADACADCE840D0C2E6D PUSH1 0x5B SHL PUSH1 0x44 DUP3 ADD MSTORE PUSH1 0x64 SWAP1 REVERT JUMPDEST PUSH1 0x40 MLOAD PUSH3 0x461BCD PUSH1 0xE5 SHL DUP2 MSTORE PUSH1 0x20 PUSH1 0x4 DUP3 ADD MSTORE PUSH1 0x11 PUSH1 0x24 DUP3 ADD MSTORE PUSH17 0x125B9D985B1A5908195B9D1A5D1E481251 PUSH1 0x7A SHL PUSH1 0x44 DUP3 ADD MSTORE PUSH1 0x64 SWAP1 REVERT JUMPDEST CALLVALUE PUSH2 0x346 JUMPI PUSH1 0x40 CALLDATASIZE PUSH1 0x3 NOT ADD SLT PUSH2 0x346 JUMPI PUSH1 0x4 CALLDATALOAD PUSH1 0x9 DUP2 LT ISZERO PUSH2 0x346 JUMPI PUSH2 0xC5D PUSH1 0x24 CALLDATALOAD SWAP2 PUSH2 0x21CC JUMP JUMPDEST DUP1 SLOAD DUP3 LT ISZERO PUSH2 0x346 JUMPI PUSH1 0x20 SWAP2 PUSH2 0xC72 SWAP2 PUSH2 0x1DF7 JUMP JUMPDEST SWAP1 SLOAD PUSH1 0x40 MLOAD SWAP2 PUSH1 0x3 SHL SHR DUP2 MSTORE RETURN JUMPDEST CALLVALUE PUSH2 0x346 JUMPI PUSH1 0x20 DUP1 PUSH1 0x3 NOT CALLDATASIZE ADD SLT PUSH2 0x346 JUMPI PUSH1 0x4 CALLDATALOAD PUSH1 0x0 MSTORE PUSH1 0x4 DUP2 MSTORE PUSH1 0x40 PUSH1 0x0 KECCAK256 SWAP1 PUSH1 0x40 MLOAD SWAP1 DUP2 DUP2 DUP5 SLOAD SWAP2 DUP3 DUP2 MSTORE ADD SWAP4 PUSH1 0x0 MSTORE DUP2 PUSH1 0x0 KECCAK256 SWAP2 PUSH1 0x0 SWAP1 JUMPDEST DUP3 DUP3 LT PUSH2 0xCE3 JUMPI PUSH2 0xCDF DUP6 PUSH2 0xCD3 DUP2 DUP10 SUB DUP3 PUSH2 0x1E7A JUMP JUMPDEST PUSH1 0x40 MLOAD SWAP2 DUP3 SWAP2 DUP3 PUSH2 0x1DA6 JUMP JUMPDEST SUB SWAP1 RETURN JUMPDEST DUP4 SLOAD DUP7 MSTORE SWAP5 DUP6 ADD SWAP5 PUSH1 0x1 SWAP4 DUP5 ADD SWAP4 SWAP1 SWAP2 ADD SWAP1 PUSH2 0xCBC JUMP JUMPDEST CALLVALUE PUSH2 0x346 JUMPI PUSH1 0x0 CALLDATASIZE PUSH1 0x3 NOT ADD SLT PUSH2 0x346 JUMPI PUSH1 0x20 PUSH1 0x40 MLOAD PUSH32 0x97667070C54EF182B0F5858B034BEAC1B6F3089AA2D3188BB1E8929F4FA9B929 DUP2 MSTORE RETURN JUMPDEST CALLVALUE PUSH2 0x346 JUMPI PUSH2 0xD43 CALLDATASIZE PUSH2 0x2025 JUMP JUMPDEST POP PUSH2 0xD4C PUSH2 0x2531 JUMP JUMPDEST PUSH2 0xD54 PUSH2 0x2975 JUMP JUMPDEST DUP1 PUSH1 0x0 MSTORE PUSH1 0x3 PUSH1 0x20 MSTORE PUSH1 0xFF PUSH1 0xB PUSH1 0x40 PUSH1 0x0 KECCAK256 PUSH2 0xD75 DUP4 PUSH1 0xD DUP4 ADD SLOAD AND PUSH2 0x29B9 JUMP JUMPDEST ADD SLOAD AND PUSH1 0x4 DUP2 LT ISZERO PUSH2 0x330 JUMPI PUSH2 0xD8B SWAP1 ISZERO PUSH2 0x2A05 JUMP JUMPDEST DUP1 PUSH1 0x0 MSTORE PUSH1 0x3 PUSH1 0x20 MSTORE PUSH32 0x233D935B7C02FB70EEBED1DE7459091F403C8726266D0C1DA6140A1DFA783B90 PUSH1 0x60 PUSH1 0xB PUSH1 0x40 PUSH1 0x0 KECCAK256 ADD PUSH1 0xFF DUP2 SLOAD AND SWAP1 PUSH2 0xDCE DUP3 PUSH2 0x2057 JUMP JUMPDEST PUSH2 0xDD8 DUP2 SLOAD PUSH2 0x27EF JUMP JUMPDEST SWAP1 SSTORE PUSH1 0x2 PUSH1 0x0 MSTORE PUSH1 0xA PUSH1 0x20 MSTORE PUSH32 0xBFF4442B8ED600BEEB8E26B1279A0F0D14C6EDFAEC26D968EE13C86F7D4C2BA8 DUP1 SLOAD PUSH2 0xE10 SWAP1 PUSH2 0x290B JUMP JUMPDEST SWAP1 SSTORE PUSH1 0x2 PUSH1 0xFF NOT DUP3 SLOAD AND OR SWAP1 SSTORE PUSH2 0xE2A PUSH1 0x40 MLOAD DUP1 SWAP3 PUSH2 0x1F96 JUMP JUMPDEST PUSH1 0x2 PUSH1 0x20 DUP3 ADD MSTORE CALLER PUSH1 0x40 DUP3 ADD MSTORE LOG2 STOP JUMPDEST CALLVALUE PUSH2 0x346 JUMPI PUSH1 0x20 DUP1 PUSH1 0x3 NOT CALLDATASIZE ADD SLT PUSH2 0x346 JUMPI PUSH1 0x1 PUSH1 0x1 PUSH1 0xA0 SHL SUB PUSH2 0xE5C PUSH2 0x1FB9 JUMP JUMPDEST AND PUSH1 0x0 MSTORE PUSH1 0x5 DUP2 MSTORE PUSH1 0x40 PUSH1 0x0 KECCAK256 SWAP1 PUSH1 0x40 MLOAD SWAP1 DUP2 DUP2 DUP5 SLOAD SWAP2 DUP3 DUP2 MSTORE ADD SWAP4 PUSH1 0x0 MSTORE DUP2 PUSH1 0x0 KECCAK256 SWAP2 PUSH1 0x0 SWAP1 JUMPDEST DUP3 DUP3 LT PUSH2 0xE9B JUMPI PUSH2 0xCDF DUP6 PUSH2 0xCD3 DUP2 DUP10 SUB DUP3 PUSH2 0x1E7A JUMP JUMPDEST DUP4 SLOAD DUP7 MSTORE SWAP5 DUP6 ADD SWAP5 PUSH1 0x1 SWAP4 DUP5 ADD SWAP4 SWAP1 SWAP2 ADD SWAP1 PUSH2 0xE84 JUMP JUMPDEST CALLVALUE PUSH2 0x346 JUMPI PUSH1 0x40 CALLDATASIZE PUSH1 0x3 NOT ADD SLT PUSH2 0x346 JUMPI PUSH1 0x24 CALLDATALOAD PUSH1 0x1 PUSH1 0x1 PUSH1 0x40 SHL SUB DUP2 GT PUSH2 0x346 JUMPI PUSH2 0xEEF PUSH2 0xEE7 PUSH1 0x20 SWAP3 CALLDATASIZE SWAP1 PUSH1 0x4 ADD PUSH2 0x20E5 JUMP JUMPDEST PUSH1 0x4 CALLDATALOAD PUSH2 0x2AD5 JUMP JUMPDEST PUSH1 0x40 MLOAD SWAP1 ISZERO ISZERO DUP2 MSTORE RETURN JUMPDEST CALLVALUE PUSH2 0x346 JUMPI PUSH1 0x0 CALLDATASIZE PUSH1 0x3 NOT ADD SLT PUSH2 0x346 JUMPI PUSH1 0x20 PUSH1 0x40 MLOAD PUSH32 0xCE23C3E399818CFEE81A7AB0880F714E53D7672B08DF0FA62F2843416E1EA09 DUP2 MSTORE RETURN JUMPDEST CALLVALUE PUSH2 0x346 JUMPI PUSH1 0x40 CALLDATASIZE PUSH1 0x3 NOT ADD SLT PUSH2 0x346 JUMPI PUSH2 0xF73 PUSH1 0x4 CALLDATALOAD PUSH2 0xF53 PUSH2 0x1FA3 JUMP JUMPDEST SWAP1 DUP1 PUSH1 0x0 MSTORE PUSH1 0x0 PUSH1 0x20 MSTORE PUSH2 0xF6E PUSH1 0x1 PUSH1 0x40 PUSH1 0x0 KECCAK256 ADD SLOAD PUSH2 0x266B JUMP JUMPDEST PUSH2 0x276A JUMP JUMPDEST STOP JUMPDEST CALLVALUE PUSH2 0x346 JUMPI PUSH2 0xF83 CALLDATASIZE PUSH2 0x1DE1 JUMP JUMPDEST SWAP1 PUSH1 0x0 MSTORE PUSH1 0x4 PUSH1 0x20 MSTORE PUSH1 0x40 PUSH1 0x0 KECCAK256 DUP1 SLOAD DUP3 LT ISZERO PUSH2 0x346 JUMPI PUSH1 0x20 SWAP2 PUSH2 0xC72 SWAP2 PUSH2 0x1DF7 JUMP JUMPDEST CALLVALUE PUSH2 0x346 JUMPI PUSH1 0x20 CALLDATASIZE PUSH1 0x3 NOT ADD SLT PUSH2 0x346 JUMPI PUSH1 0x4 CALLDATALOAD PUSH1 0x9 DUP2 LT ISZERO PUSH2 0x346 JUMPI PUSH2 0xFCE PUSH1 0x20 SWAP2 PUSH2 0x21E5 JUMP JUMPDEST SLOAD PUSH1 0x40 MLOAD SWAP1 DUP2 MSTORE RETURN JUMPDEST CALLVALUE PUSH2 0x346 JUMPI PUSH1 0x20 CALLDATASIZE PUSH1 0x3 NOT ADD SLT PUSH2 0x346 JUMPI PUSH1 0x40 MLOAD PUSH1 0x20 DUP2 ADD SWAP1 DUP1 DUP3 LT PUSH1 0x1 PUSH1 0x1 PUSH1 0x40 SHL SUB DUP4 GT OR PUSH2 0x98F JUMPI PUSH2 0xCDF SWAP2 PUSH1 0x40 MSTORE PUSH1 0x0 DUP2 MSTORE PUSH1 0x40 MLOAD SWAP2 DUP3 SWAP2 DUP3 PUSH2 0x1DA6 JUMP JUMPDEST CALLVALUE PUSH2 0x346 JUMPI PUSH1 0xE0 CALLDATASIZE PUSH1 0x3 NOT ADD SLT PUSH2 0x346 JUMPI PUSH1 0x4 CALLDATALOAD PUSH1 0x1 PUSH1 0x1 PUSH1 0x40 SHL SUB DUP2 GT PUSH2 0x346 JUMPI PUSH2 0x1049 SWAP1 CALLDATASIZE SWAP1 PUSH1 0x4 ADD PUSH2 0x2087 JUMP JUMPDEST PUSH1 0x24 CALLDATALOAD PUSH1 0x1 PUSH1 0x1 PUSH1 0x40 SHL SUB DUP2 GT PUSH2 0x346 JUMPI PUSH2 0x1068 SWAP1 CALLDATASIZE SWAP1 PUSH1 0x4 ADD PUSH2 0x20E5 JUMP JUMPDEST SWAP1 PUSH1 0x44 CALLDATALOAD PUSH1 0x1 PUSH1 0x1 PUSH1 0x40 SHL SUB DUP2 GT PUSH2 0x346 JUMPI PUSH2 0x1088 SWAP1 CALLDATASIZE SWAP1 PUSH1 0x4 ADD PUSH2 0x214C JUMP JUMPDEST SWAP2 PUSH1 0x64 CALLDATALOAD PUSH1 0x1 PUSH1 0x1 PUSH1 0x40 SHL SUB DUP2 GT PUSH2 0x346 JUMPI PUSH2 0x10A8 SWAP1 CALLDATASIZE SWAP1 PUSH1 0x4 ADD PUSH2 0x2087 JUMP JUMPDEST SWAP3 PUSH1 0x84 CALLDATALOAD PUSH1 0x1 PUSH1 0x1 PUSH1 0x40 SHL SUB DUP2 GT PUSH2 0x346 JUMPI PUSH2 0x10C8 SWAP1 CALLDATASIZE SWAP1 PUSH1 0x4 ADD PUSH2 0x214C JUMP JUMPDEST PUSH1 0x1 PUSH1 0x1 PUSH1 0x40 SHL SUB PUSH1 0xA4 CALLDATALOAD GT PUSH2 0x346 JUMPI CALLDATASIZE PUSH1 0x23 PUSH1 0xA4 CALLDATALOAD ADD SLT ISZERO PUSH2 0x346 JUMPI PUSH2 0x10F4 PUSH1 0xA4 CALLDATALOAD PUSH1 0x4 ADD CALLDATALOAD PUSH2 0x2070 JUMP JUMPDEST SWAP5 PUSH2 0x1102 PUSH1 0x40 MLOAD SWAP7 DUP8 PUSH2 0x1E7A JUMP JUMPDEST PUSH1 0xA4 CALLDATALOAD PUSH1 0x4 ADD CALLDATALOAD DUP7 MSTORE PUSH1 0x20 DUP7 ADD CALLDATASIZE PUSH1 0x24 PUSH1 0xA4 CALLDATALOAD PUSH1 0x4 ADD CALLDATALOAD PUSH1 0x5 SHL PUSH1 0xA4 CALLDATALOAD ADD ADD GT PUSH2 0x346 JUMPI PUSH1 0x24 PUSH1 0xA4 CALLDATALOAD ADD SWAP1 JUMPDEST PUSH1 0x24 PUSH1 0xA4 CALLDATALOAD PUSH1 0x4 ADD CALLDATALOAD PUSH1 0x5 SHL PUSH1 0xA4 CALLDATALOAD ADD ADD DUP3 LT PUSH2 0x134C JUMPI POP POP PUSH1 0x1 PUSH1 0x1 PUSH1 0x40 SHL SUB PUSH1 0xC4 CALLDATALOAD GT PUSH2 0x346 JUMPI PUSH2 0x1166 CALLDATASIZE PUSH1 0xC4 CALLDATALOAD PUSH1 0x4 ADD PUSH2 0x214C JUMP JUMPDEST SWAP3 PUSH2 0x116F PUSH2 0x23F7 JUMP JUMPDEST PUSH2 0x1177 PUSH2 0x2975 JUMP JUMPDEST PUSH2 0x1184 DUP7 MLOAD DUP7 MLOAD EQ PUSH2 0x2C5A JUMP JUMPDEST PUSH2 0x1191 DUP7 MLOAD DUP3 MLOAD EQ PUSH2 0x2C5A JUMP JUMPDEST PUSH2 0x119E DUP7 MLOAD DUP4 MLOAD EQ PUSH2 0x2C5A JUMP JUMPDEST PUSH2 0x11AB DUP7 MLOAD DUP5 MLOAD EQ PUSH2 0x2C5A JUMP JUMPDEST PUSH2 0x11B8 DUP7 MLOAD DUP9 MLOAD EQ PUSH2 0x2C5A JUMP JUMPDEST PUSH2 0x11C5 DUP7 MLOAD DUP6 MLOAD EQ PUSH2 0x2C5A JUMP JUMPDEST DUP6 MLOAD SWAP5 PUSH2 0x11D1 DUP7 PUSH2 0x2070 JUMP JUMPDEST SWAP6 PUSH2 0x11DF PUSH1 0x40 MLOAD SWAP8 DUP9 PUSH2 0x1E7A JUMP JUMPDEST DUP1 DUP8 MSTORE PUSH2 0x11EE PUSH1 0x1F NOT SWAP2 PUSH2 0x2070 JUMP JUMPDEST ADD CALLDATASIZE PUSH1 0x20 DUP9 ADD CALLDATACOPY PUSH1 0x0 JUMPDEST DUP8 MLOAD DUP2 LT ISZERO PUSH2 0x133E JUMPI PUSH2 0x120B DUP2 DUP10 PUSH2 0x291A JUMP JUMPDEST MLOAD SWAP1 PUSH2 0x1217 DUP2 DUP5 PUSH2 0x291A JUMP JUMPDEST PUSH2 0x1220 SWAP1 PUSH2 0x292E JUMP JUMPDEST SWAP2 PUSH2 0x122B DUP3 DUP7 PUSH2 0x291A JUMP JUMPDEST MLOAD PUSH2 0x1236 DUP4 DUP9 PUSH2 0x291A JUMP JUMPDEST MLOAD DUP4 DUP14 PUSH2 0x1243 DUP3 DUP13 PUSH2 0x291A JUMP JUMPDEST MLOAD SWAP2 PUSH2 0x124E SWAP2 PUSH2 0x291A JUMP JUMPDEST MLOAD SWAP2 PUSH2 0x125A DUP7 DUP14 PUSH2 0x291A JUMP JUMPDEST MLOAD SWAP4 PUSH1 0x40 MLOAD SWAP8 DUP9 SWAP7 PUSH4 0xFB93F611 PUSH1 0xE0 SHL DUP9 MSTORE PUSH1 0x4 DUP9 ADD MSTORE PUSH1 0x24 DUP8 ADD PUSH2 0x127E SWAP2 PUSH2 0x1F41 JUMP JUMPDEST PUSH1 0x44 DUP7 ADD PUSH1 0xE0 SWAP1 MSTORE PUSH1 0xE4 DUP7 ADD PUSH2 0x1293 SWAP2 PUSH2 0x1F71 JUMP JUMPDEST SWAP1 PUSH1 0x64 DUP7 ADD MSTORE PUSH1 0x3 NOT DUP6 DUP3 SUB ADD PUSH1 0x84 DUP7 ADD MSTORE PUSH2 0x12AE SWAP2 PUSH2 0x1F71 JUMP JUMPDEST SWAP1 PUSH1 0xA4 DUP5 ADD MSTORE PUSH1 0x3 NOT DUP4 DUP3 SUB ADD PUSH1 0xC4 DUP5 ADD MSTORE PUSH2 0x12C9 SWAP2 PUSH2 0x1F71 JUMP JUMPDEST SUB DUP3 ADDRESS SWAP2 DUP2 GAS PUSH1 0x20 SWAP5 PUSH1 0x0 SWAP2 CALL DUP1 ISZERO PUSH2 0x1332 JUMPI PUSH1 0x0 SWAP1 PUSH2 0x12FE JUMPI JUMPDEST PUSH2 0x12F9 SWAP3 POP PUSH2 0x12F3 DUP3 DUP11 PUSH2 0x291A JUMP JUMPDEST MSTORE PUSH2 0x290B JUMP JUMPDEST PUSH2 0x11F8 JUMP JUMPDEST POP PUSH1 0x20 DUP3 RETURNDATASIZE PUSH1 0x20 GT PUSH2 0x132A JUMPI JUMPDEST DUP2 PUSH2 0x1318 PUSH1 0x20 SWAP4 DUP4 PUSH2 0x1E7A JUMP JUMPDEST DUP2 ADD SUB SLT PUSH2 0x346 JUMPI PUSH2 0x12F9 SWAP2 MLOAD PUSH2 0x12E4 JUMP JUMPDEST RETURNDATASIZE SWAP2 POP PUSH2 0x130B JUMP JUMPDEST PUSH1 0x40 MLOAD RETURNDATASIZE PUSH1 0x0 DUP3 RETURNDATACOPY RETURNDATASIZE SWAP1 REVERT JUMPDEST PUSH1 0x40 MLOAD DUP1 PUSH2 0xCDF DUP10 DUP3 PUSH2 0x1DA6 JUMP JUMPDEST DUP2 CALLDATALOAD DUP2 MSTORE PUSH1 0x20 SWAP2 DUP3 ADD SWAP2 ADD PUSH2 0x112E JUMP JUMPDEST CALLVALUE PUSH2 0x346 JUMPI PUSH1 0x20 CALLDATASIZE PUSH1 0x3 NOT ADD SLT PUSH2 0x346 JUMPI PUSH1 0x4 CALLDATALOAD PUSH1 0x0 MSTORE PUSH1 0x3 PUSH1 0x20 MSTORE PUSH1 0x40 PUSH1 0x0 KECCAK256 PUSH1 0xD DUP2 ADD SLOAD PUSH1 0xFF AND PUSH2 0x138E SWAP1 PUSH2 0x29B9 JUMP JUMPDEST PUSH1 0x1 DUP2 ADD SLOAD PUSH1 0x2 DUP3 ADD SLOAD PUSH1 0xFF AND SWAP2 PUSH1 0x4 DUP2 ADD SLOAD SWAP1 PUSH1 0x1 PUSH1 0xA0 SHL PUSH1 0x1 SWAP1 SUB SWAP1 DUP2 PUSH1 0x6 DUP3 ADD SLOAD AND SWAP2 PUSH1 0x7 DUP3 ADD SLOAD AND PUSH1 0x8 DUP3 ADD SLOAD PUSH1 0x9 DUP4 ADD SLOAD SWAP1 PUSH1 0xA DUP5 ADD SLOAD SWAP3 PUSH1 0xB DUP6 ADD SLOAD PUSH1 0xFF AND SWAP5 PUSH1 0x3 DUP2 ADD PUSH2 0x13E1 SWAP1 PUSH2 0x1E9B JUMP JUMPDEST SWAP8 PUSH2 0x13EE PUSH1 0x5 DUP4 ADD PUSH2 0x1E9B JUMP JUMPDEST SWAP2 PUSH1 0xC ADD PUSH2 0x13FB SWAP1 PUSH2 0x1E9B JUMP JUMPDEST SWAP9 PUSH1 0x40 MLOAD SWAP12 DUP13 SWAP12 DUP13 MSTORE PUSH1 0x20 DUP13 ADD PUSH2 0x1411 SWAP2 PUSH2 0x1F41 JUMP JUMPDEST PUSH2 0x180 DUP1 PUSH1 0x40 DUP14 ADD MSTORE DUP12 ADD PUSH2 0x1425 SWAP2 PUSH2 0x1F71 JUMP JUMPDEST SWAP1 PUSH1 0x60 DUP12 ADD MSTORE DUP10 DUP2 SUB PUSH1 0x80 DUP12 ADD MSTORE PUSH2 0x143C SWAP2 PUSH2 0x1F71 JUMP JUMPDEST SWAP6 PUSH1 0xA0 DUP10 ADD MSTORE PUSH1 0xC0 DUP9 ADD MSTORE PUSH1 0xE0 DUP8 ADD MSTORE PUSH2 0x100 DUP7 ADD MSTORE PUSH2 0x120 DUP6 ADD MSTORE PUSH2 0x140 DUP5 ADD PUSH2 0x1466 SWAP2 PUSH2 0x1F96 JUMP JUMPDEST DUP3 DUP2 SUB PUSH2 0x160 DUP5 ADD MSTORE PUSH2 0xCDF SWAP2 PUSH2 0x1F71 JUMP JUMPDEST CALLVALUE PUSH2 0x346 JUMPI PUSH1 0x20 CALLDATASIZE PUSH1 0x3 NOT ADD SLT PUSH2 0x346 JUMPI PUSH1 0x4 CALLDATALOAD PUSH1 0x4 DUP2 LT ISZERO PUSH2 0x346 JUMPI PUSH2 0xFCE PUSH1 0x20 SWAP2 PUSH2 0x2057 JUMP JUMPDEST CALLVALUE PUSH2 0x346 JUMPI PUSH1 0x40 CALLDATASIZE PUSH1 0x3 NOT ADD SLT PUSH2 0x346 JUMPI PUSH2 0x14B9 PUSH2 0x1FB9 JUMP JUMPDEST PUSH1 0x1 PUSH1 0x1 PUSH1 0xA0 SHL SUB AND PUSH1 0x0 SWAP1 DUP2 MSTORE PUSH1 0x5 PUSH1 0x20 MSTORE PUSH1 0x40 SWAP1 KECCAK256 DUP1 SLOAD PUSH1 0x24 CALLDATALOAD SWAP2 SWAP1 DUP3 LT ISZERO PUSH2 0x346 JUMPI PUSH1 0x20 SWAP2 PUSH2 0xC72 SWAP2 PUSH2 0x1DF7 JUMP JUMPDEST CALLVALUE PUSH2 0x346 JUMPI PUSH1 0x0 CALLDATASIZE PUSH1 0x3 NOT ADD SLT PUSH2 0x346 JUMPI PUSH1 0x20 PUSH1 0x40 MLOAD PUSH1 0x0 DUP2 MSTORE RETURN JUMPDEST CALLVALUE PUSH2 0x346 JUMPI PUSH1 0x40 CALLDATASIZE PUSH1 0x3 NOT ADD SLT PUSH2 0x346 JUMPI PUSH2 0x151F PUSH2 0x1FA3 JUMP JUMPDEST PUSH1 0x4 CALLDATALOAD PUSH1 0x0 MSTORE PUSH1 0x0 PUSH1 0x20 MSTORE PUSH1 0x40 PUSH1 0x0 KECCAK256 SWAP1 PUSH1 0x1 DUP1 PUSH1 0xA0 SHL SUB AND PUSH1 0x0 MSTORE PUSH1 0x20 MSTORE PUSH1 0x20 PUSH1 0xFF PUSH1 0x40 PUSH1 0x0 KECCAK256 SLOAD AND PUSH1 0x40 MLOAD SWAP1 ISZERO ISZERO DUP2 MSTORE RETURN JUMPDEST CALLVALUE PUSH2 0x346 JUMPI PUSH1 0x0 CALLDATASIZE PUSH1 0x3 NOT ADD SLT PUSH2 0x346 JUMPI PUSH1 0x8 SLOAD PUSH1 0xA PUSH1 0x20 SWAP1 DUP2 MSTORE PUSH32 0x13DA86008BA1C6922DAEE3E07DB95305EF49EBCED9F5467A0B8613FCC6B343E3 SLOAD PUSH32 0xBBC70DB1B6C7AFD11E79C0FB0051300458F1A3ACB8EE9789D9B6B26C61AD9BC7 SLOAD PUSH32 0xBFF4442B8ED600BEEB8E26B1279A0F0D14C6EDFAEC26D968EE13C86F7D4C2BA8 SLOAD PUSH1 0x3 PUSH1 0x0 MSTORE PUSH32 0xA856840544DC26124927ADD067D799967EAC11BE13E14D82CC281EA46FA39759 SLOAD PUSH1 0x40 DUP1 MLOAD SWAP7 DUP8 MSTORE SWAP5 DUP7 ADD SWAP4 SWAP1 SWAP4 MSTORE SWAP3 DUP5 ADD MSTORE PUSH1 0x60 DUP4 ADD SWAP2 SWAP1 SWAP2 MSTORE PUSH1 0x80 DUP3 ADD MSTORE PUSH1 0xA0 SWAP1 RETURN JUMPDEST CALLVALUE PUSH2 0x346 JUMPI PUSH1 0x0 CALLDATASIZE PUSH1 0x3 NOT ADD SLT PUSH2 0x346 JUMPI PUSH2 0x1638 PUSH2 0x21FE JUMP JUMPDEST PUSH2 0x1640 PUSH2 0x2975 JUMP JUMPDEST PUSH1 0x1 PUSH1 0xFF NOT PUSH1 0x2 SLOAD AND OR PUSH1 0x2 SSTORE PUSH32 0x62E78CEA01BEE320CD4E420270B5EA74000D11B0C9F74754EBDBFC544B05A258 PUSH1 0x20 PUSH1 0x40 MLOAD CALLER DUP2 MSTORE LOG1 STOP JUMPDEST CALLVALUE PUSH2 0x346 JUMPI PUSH1 0x0 CALLDATASIZE PUSH1 0x3 NOT ADD SLT PUSH2 0x346 JUMPI PUSH1 0x20 PUSH1 0x40 MLOAD PUSH32 0x114E74F6EA3BD819998F78687BFCB11B140DA08E9B7D222FA9C1F1BA1F2AA122 DUP2 MSTORE RETURN JUMPDEST CALLVALUE PUSH2 0x346 JUMPI PUSH1 0x20 CALLDATASIZE PUSH1 0x3 NOT ADD SLT PUSH2 0x346 JUMPI PUSH1 0x20 PUSH2 0xEEF PUSH1 0x4 CALLDATALOAD PUSH2 0x2A51 JUMP JUMPDEST CALLVALUE PUSH2 0x346 JUMPI PUSH1 0x40 CALLDATASIZE PUSH1 0x3 NOT ADD SLT PUSH2 0x346 JUMPI PUSH1 0x4 CALLDATALOAD PUSH1 0x0 MSTORE PUSH1 0x3 PUSH1 0x20 MSTORE PUSH1 0x20 PUSH1 0x40 PUSH1 0x0 KECCAK256 PUSH2 0x1705 PUSH1 0xFF PUSH1 0xD DUP4 ADD SLOAD AND PUSH2 0x29B9 JUMP JUMPDEST PUSH1 0x4 PUSH1 0x24 CALLDATALOAD SWAP2 ADD SLOAD EQ PUSH1 0x40 MLOAD SWAP1 DUP2 MSTORE RETURN JUMPDEST CALLVALUE PUSH2 0x346 JUMPI PUSH1 0x0 CALLDATASIZE PUSH1 0x3 NOT ADD SLT PUSH2 0x346 JUMPI PUSH1 0x20 PUSH1 0xFF PUSH1 0x2 SLOAD AND PUSH1 0x40 MLOAD SWAP1 ISZERO ISZERO DUP2 MSTORE RETURN JUMPDEST CALLVALUE PUSH2 0x346 JUMPI PUSH1 0x0 CALLDATASIZE PUSH1 0x3 NOT ADD SLT PUSH2 0x346 JUMPI PUSH1 0x20 PUSH1 0x8 SLOAD PUSH1 0x40 MLOAD SWAP1 DUP2 MSTORE RETURN JUMPDEST CALLVALUE PUSH2 0x346 JUMPI PUSH2 0x1765 CALLDATASIZE PUSH2 0x2025 JUMP JUMPDEST PUSH2 0x176D PUSH2 0x2975 JUMP JUMPDEST DUP2 PUSH1 0x0 MSTORE PUSH1 0x3 SWAP1 PUSH1 0x20 SWAP2 DUP1 DUP4 MSTORE PUSH1 0x40 PUSH1 0x0 KECCAK256 PUSH2 0x178F PUSH1 0xFF PUSH1 0xD DUP4 ADD SLOAD AND PUSH2 0x29B9 JUMP JUMPDEST PUSH1 0x6 DUP2 ADD SLOAD PUSH1 0x1 PUSH1 0x1 PUSH1 0xA0 SHL SUB AND CALLER EQ DUP1 ISZERO PUSH2 0x193D JUMPI JUMPDEST DUP1 ISZERO PUSH2 0x191B JUMPI JUMPDEST ISZERO PUSH2 0x18D6 JUMPI PUSH1 0xB ADD SLOAD PUSH1 0xFF AND PUSH1 0x4 DUP2 LT ISZERO PUSH2 0x330 JUMPI DUP2 EQ PUSH2 0x1891 JUMPI SWAP2 PUSH2 0x188C PUSH1 0x40 SWAP3 DUP6 PUSH32 0x233D935B7C02FB70EEBED1DE7459091F403C8726266D0C1DA6140A1DFA783B90 PUSH1 0x60 PUSH32 0x664CF7D0751E82EEFC46ED717A1AB228D0287A6ACF6767ABCD9532B4F5CAFB5B SWAP8 DUP4 PUSH1 0x0 MSTORE DUP1 DUP8 MSTORE PUSH1 0xB DUP9 PUSH1 0x0 KECCAK256 ADD SWAP1 PUSH1 0xFF DUP3 SLOAD AND SWAP2 PUSH2 0x1833 DUP4 PUSH2 0x2057 JUMP JUMPDEST PUSH2 0x183D DUP2 SLOAD PUSH2 0x27EF JUMP JUMPDEST SWAP1 SSTORE DUP2 PUSH1 0x0 MSTORE PUSH1 0xA DUP10 MSTORE DUP10 PUSH1 0x0 KECCAK256 PUSH2 0x1855 DUP2 SLOAD PUSH2 0x290B JUMP JUMPDEST SWAP1 SSTORE DUP2 PUSH1 0xFF NOT DUP3 SLOAD AND OR SWAP1 SSTORE PUSH2 0x186D DUP10 MLOAD DUP1 SWAP4 PUSH2 0x1F96 JUMP JUMPDEST DUP8 DUP3 ADD MSTORE CALLER DUP9 DUP3 ADD MSTORE LOG2 DUP4 MLOAD SWAP4 DUP5 SWAP4 CALLER DUP6 MSTORE DUP5 ADD MSTORE PUSH1 0x40 DUP4 ADD SWAP1 PUSH2 0x1F71 JUMP JUMPDEST SUB SWAP1 LOG2 STOP JUMPDEST PUSH1 0x40 MLOAD PUSH3 0x461BCD PUSH1 0xE5 SHL DUP2 MSTORE PUSH1 0x4 DUP2 ADD DUP5 SWAP1 MSTORE PUSH1 0x18 PUSH1 0x24 DUP3 ADD MSTORE PUSH32 0x446F63756D656E7420616C7265616479207265766F6B65640000000000000000 PUSH1 0x44 DUP3 ADD MSTORE PUSH1 0x64 SWAP1 REVERT JUMPDEST PUSH1 0x40 MLOAD PUSH3 0x461BCD PUSH1 0xE5 SHL DUP2 MSTORE PUSH1 0x4 DUP2 ADD DUP6 SWAP1 MSTORE PUSH1 0x18 PUSH1 0x24 DUP3 ADD MSTORE PUSH32 0x4E6F7420617574686F72697A656420746F207265766F6B650000000000000000 PUSH1 0x44 DUP3 ADD MSTORE PUSH1 0x64 SWAP1 REVERT JUMPDEST POP PUSH1 0x0 DUP1 MSTORE PUSH1 0x0 DUP5 MSTORE PUSH1 0x40 PUSH1 0x0 KECCAK256 CALLER PUSH1 0x0 MSTORE DUP5 MSTORE PUSH1 0xFF PUSH1 0x40 PUSH1 0x0 KECCAK256 SLOAD AND PUSH2 0x17AD JUMP JUMPDEST POP PUSH32 0x97667070C54EF182B0F5858B034BEAC1B6F3089AA2D3188BB1E8929F4FA9B929 PUSH1 0x0 MSTORE PUSH1 0x0 DUP5 MSTORE PUSH1 0x40 PUSH1 0x0 KECCAK256 CALLER PUSH1 0x0 MSTORE DUP5 MSTORE PUSH1 0xFF PUSH1 0x40 PUSH1 0x0 KECCAK256 SLOAD AND PUSH2 0x17A6 JUMP JUMPDEST CALLVALUE PUSH2 0x346 JUMPI PUSH1 0x0 CALLDATASIZE PUSH1 0x3 NOT ADD SLT PUSH2 0x346 JUMPI PUSH2 0x1998 PUSH2 0x21FE JUMP JUMPDEST PUSH1 0x2 SLOAD PUSH1 0xFF DUP2 AND ISZERO PUSH2 0x19D7 JUMPI PUSH1 0xFF NOT AND PUSH1 0x2 SSTORE PUSH32 0x5DB9EE0A495BF2E6FF9C91A7834C1BA4FDD244A5E8AA4E537BD38AEAE4B073AA PUSH1 0x20 PUSH1 0x40 MLOAD CALLER DUP2 MSTORE LOG1 STOP JUMPDEST PUSH1 0x40 MLOAD PUSH3 0x461BCD PUSH1 0xE5 SHL DUP2 MSTORE PUSH1 0x20 PUSH1 0x4 DUP3 ADD MSTORE PUSH1 0x14 PUSH1 0x24 DUP3 ADD MSTORE PUSH20 0x14185D5CD8589B194E881B9BDD081C185D5CD959 PUSH1 0x62 SHL PUSH1 0x44 DUP3 ADD MSTORE PUSH1 0x64 SWAP1 REVERT JUMPDEST CALLVALUE PUSH2 0x346 JUMPI PUSH1 0x40 CALLDATASIZE PUSH1 0x3 NOT ADD SLT PUSH2 0x346 JUMPI PUSH2 0x1A2C PUSH2 0x1FA3 JUMP JUMPDEST CALLER PUSH1 0x1 PUSH1 0x1 PUSH1 0xA0 SHL SUB DUP3 AND SUB PUSH2 0x1A48 JUMPI PUSH2 0xF73 SWAP1 PUSH1 0x4 CALLDATALOAD PUSH2 0x276A JUMP JUMPDEST PUSH1 0x40 MLOAD PUSH3 0x461BCD PUSH1 0xE5 SHL DUP2 MSTORE PUSH1 0x20 PUSH1 0x4 DUP3 ADD MSTORE PUSH1 0x2F PUSH1 0x24 DUP3 ADD MSTORE PUSH32 0x416363657373436F6E74726F6C3A2063616E206F6E6C792072656E6F756E6365 PUSH1 0x44 DUP3 ADD MSTORE PUSH15 0x103937B632B9903337B91039B2B633 PUSH1 0x89 SHL PUSH1 0x64 DUP3 ADD MSTORE PUSH1 0x84 SWAP1 REVERT JUMPDEST CALLVALUE PUSH2 0x346 JUMPI PUSH1 0x40 CALLDATASIZE PUSH1 0x3 NOT ADD SLT PUSH2 0x346 JUMPI PUSH1 0x4 CALLDATALOAD PUSH2 0x1AC1 PUSH2 0x1FA3 JUMP JUMPDEST DUP2 PUSH1 0x0 MSTORE PUSH1 0x0 PUSH1 0x20 MSTORE PUSH2 0x1ADB PUSH1 0x1 PUSH1 0x40 PUSH1 0x0 KECCAK256 ADD SLOAD PUSH2 0x266B JUMP JUMPDEST DUP2 PUSH1 0x0 MSTORE PUSH1 0x0 PUSH1 0x20 MSTORE PUSH1 0x40 PUSH1 0x0 KECCAK256 SWAP1 PUSH1 0x1 DUP1 PUSH1 0xA0 SHL SUB AND SWAP1 DUP2 PUSH1 0x0 MSTORE PUSH1 0x20 MSTORE PUSH1 0xFF PUSH1 0x40 PUSH1 0x0 KECCAK256 SLOAD AND ISZERO PUSH2 0x1B0A JUMPI STOP JUMPDEST DUP2 PUSH1 0x0 MSTORE PUSH1 0x0 PUSH1 0x20 MSTORE PUSH1 0x40 PUSH1 0x0 KECCAK256 DUP2 PUSH1 0x0 MSTORE PUSH1 0x20 MSTORE PUSH1 0x40 PUSH1 0x0 KECCAK256 PUSH1 0x1 PUSH1 0xFF NOT DUP3 SLOAD AND OR SWAP1 SSTORE CALLER SWAP2 PUSH32 0x2F8788117E7EFF1D82E926EC794901D17C78024A50270940304540A733656F0D PUSH1 0x0 DUP1 LOG4 STOP JUMPDEST CALLVALUE PUSH2 0x346 JUMPI PUSH1 0x20 CALLDATASIZE PUSH1 0x3 NOT ADD SLT PUSH2 0x346 JUMPI PUSH1 0x4 CALLDATALOAD PUSH1 0x0 MSTORE PUSH1 0x3 PUSH1 0x20 MSTORE PUSH1 0x40 PUSH1 0x0 KECCAK256 DUP1 SLOAD PUSH1 0x1 DUP3 ADD SLOAD SWAP2 PUSH1 0x2 DUP2 ADD SLOAD PUSH1 0xFF AND SWAP1 PUSH1 0x3 DUP2 ADD PUSH2 0x1B97 SWAP1 PUSH2 0x1E9B JUMP JUMPDEST PUSH1 0x4 DUP3 ADD SLOAD SWAP1 PUSH2 0x1BA9 PUSH1 0x5 DUP5 ADD PUSH2 0x1E9B JUMP JUMPDEST SWAP2 PUSH1 0x1 PUSH1 0xA0 SHL PUSH1 0x1 SWAP1 SUB SWAP3 DUP4 PUSH1 0x6 DUP7 ADD SLOAD AND SWAP4 PUSH1 0x7 DUP7 ADD SLOAD AND PUSH1 0x8 DUP7 ADD SLOAD SWAP1 PUSH1 0x9 DUP8 ADD SLOAD SWAP3 PUSH1 0xA DUP9 ADD SLOAD SWAP5 PUSH1 0xB DUP10 ADD SLOAD PUSH1 0xFF AND SWAP7 PUSH1 0xC DUP11 ADD PUSH2 0x1BEA SWAP1 PUSH2 0x1E9B JUMP JUMPDEST SWAP10 PUSH1 0xD ADD SLOAD PUSH1 0xFF AND SWAP11 PUSH1 0x40 MLOAD SWAP14 DUP15 DUP1 SWAP15 DUP2 MSTORE PUSH1 0x20 ADD MSTORE PUSH1 0x40 DUP14 ADD PUSH2 0x1C0D SWAP2 PUSH2 0x1F41 JUMP JUMPDEST DUP12 PUSH2 0x1C0 PUSH1 0x60 DUP2 SWAP3 ADD MSTORE DUP13 ADD PUSH2 0x1C22 SWAP2 PUSH2 0x1F71 JUMP JUMPDEST SWAP1 PUSH1 0x80 DUP13 ADD MSTORE DUP11 DUP2 SUB PUSH1 0xA0 DUP13 ADD MSTORE PUSH2 0x1C39 SWAP2 PUSH2 0x1F71 JUMP JUMPDEST SWAP6 PUSH1 0xC0 DUP11 ADD MSTORE PUSH1 0xE0 DUP10 ADD MSTORE PUSH2 0x100 DUP9 ADD MSTORE PUSH2 0x120 DUP8 ADD MSTORE PUSH2 0x140 DUP7 ADD MSTORE PUSH2 0x160 DUP6 ADD PUSH2 0x1C64 SWAP2 PUSH2 0x1F96 JUMP JUMPDEST DUP4 DUP2 SUB PUSH2 0x180 DUP6 ADD MSTORE PUSH2 0x1C76 SWAP2 PUSH2 0x1F71 JUMP JUMPDEST SWAP1 ISZERO ISZERO PUSH2 0x1A0 DUP4 ADD MSTORE SUB SWAP1 RETURN JUMPDEST CALLVALUE PUSH2 0x346 JUMPI PUSH2 0x1C91 CALLDATASIZE PUSH2 0x1DE1 JUMP JUMPDEST SWAP1 PUSH1 0x0 MSTORE PUSH1 0x7 PUSH1 0x20 MSTORE PUSH1 0x40 PUSH1 0x0 KECCAK256 DUP1 SLOAD DUP3 LT ISZERO PUSH2 0x346 JUMPI PUSH1 0x20 SWAP2 PUSH2 0xC72 SWAP2 PUSH2 0x1DF7 JUMP JUMPDEST CALLVALUE PUSH2 0x346 JUMPI PUSH1 0x20 CALLDATASIZE PUSH1 0x3 NOT ADD SLT PUSH2 0x346 JUMPI PUSH1 0x4 CALLDATALOAD PUSH1 0x0 MSTORE PUSH1 0x0 PUSH1 0x20 MSTORE PUSH1 0x20 PUSH1 0x1 PUSH1 0x40 PUSH1 0x0 KECCAK256 ADD SLOAD PUSH1 0x40 MLOAD SWAP1 DUP2 MSTORE RETURN JUMPDEST CALLVALUE PUSH2 0x346 JUMPI PUSH1 0x20 DUP1 PUSH1 0x3 NOT CALLDATASIZE ADD SLT PUSH2 0x346 JUMPI PUSH1 0x4 CALLDATALOAD PUSH1 0x9 DUP2 LT ISZERO PUSH2 0x346 JUMPI PUSH2 0x1D0A SWAP1 PUSH2 0x21CC JUMP JUMPDEST SWAP1 PUSH1 0x40 MLOAD SWAP1 DUP2 DUP2 DUP5 SLOAD SWAP2 DUP3 DUP2 MSTORE ADD SWAP4 PUSH1 0x0 MSTORE DUP2 PUSH1 0x0 KECCAK256 SWAP2 PUSH1 0x0 SWAP1 JUMPDEST DUP3 DUP3 LT PUSH2 0x1D3C JUMPI PUSH2 0xCDF DUP6 PUSH2 0xCD3 DUP2 DUP10 SUB DUP3 PUSH2 0x1E7A JUMP JUMPDEST DUP4 SLOAD DUP7 MSTORE SWAP5 DUP6 ADD SWAP5 PUSH1 0x1 SWAP4 DUP5 ADD SWAP4 SWAP1 SWAP2 ADD SWAP1 PUSH2 0x1D25 JUMP JUMPDEST CALLVALUE PUSH2 0x346 JUMPI PUSH1 0x20 CALLDATASIZE PUSH1 0x3 NOT ADD SLT PUSH2 0x346 JUMPI PUSH1 0x4 CALLDATALOAD SWAP1 PUSH4 0xFFFFFFFF PUSH1 0xE0 SHL DUP3 AND DUP1 SWAP3 SUB PUSH2 0x346 JUMPI PUSH1 0x20 SWAP2 PUSH4 0x7965DB0B PUSH1 0xE0 SHL DUP2 EQ SWAP1 DUP2 ISZERO PUSH2 0x1D95 JUMPI JUMPDEST POP ISZERO ISZERO DUP2 MSTORE RETURN JUMPDEST PUSH4 0x1FFC9A7 PUSH1 0xE0 SHL EQ SWAP1 POP DUP4 PUSH2 0x1D8E JUMP JUMPDEST PUSH1 0x20 SWAP1 DUP2 PUSH1 0x40 DUP2 DUP4 ADD SWAP3 DUP3 DUP2 MSTORE DUP6 MLOAD DUP1 SWAP5 MSTORE ADD SWAP4 ADD SWAP2 PUSH1 0x0 JUMPDEST DUP3 DUP2 LT PUSH2 0x1DCD JUMPI POP POP POP POP SWAP1 JUMP JUMPDEST DUP4 MLOAD DUP6 MSTORE SWAP4 DUP2 ADD SWAP4 SWAP3 DUP2 ADD SWAP3 PUSH1 0x1 ADD PUSH2 0x1DBF JUMP JUMPDEST PUSH1 0x40 SWAP1 PUSH1 0x3 NOT ADD SLT PUSH2 0x346 JUMPI PUSH1 0x4 CALLDATALOAD SWAP1 PUSH1 0x24 CALLDATALOAD SWAP1 JUMP JUMPDEST DUP1 SLOAD DUP3 LT ISZERO PUSH2 0x1E0F JUMPI PUSH1 0x0 MSTORE PUSH1 0x20 PUSH1 0x0 KECCAK256 ADD SWAP1 PUSH1 0x0 SWAP1 JUMP JUMPDEST PUSH4 0x4E487B71 PUSH1 0xE0 SHL PUSH1 0x0 MSTORE PUSH1 0x32 PUSH1 0x4 MSTORE PUSH1 0x24 PUSH1 0x0 REVERT JUMPDEST SWAP1 PUSH1 0x1 DUP3 DUP2 SHR SWAP3 AND DUP1 ISZERO PUSH2 0x1E55 JUMPI JUMPDEST PUSH1 0x20 DUP4 LT EQ PUSH2 0x1E3F JUMPI JUMP JUMPDEST PUSH4 0x4E487B71 PUSH1 0xE0 SHL PUSH1 0x0 MSTORE PUSH1 0x22 PUSH1 0x4 MSTORE PUSH1 0x24 PUSH1 0x0 REVERT JUMPDEST SWAP2 PUSH1 0x7F AND SWAP2 PUSH2 0x1E34 JUMP JUMPDEST PUSH1 0x80 DUP2 ADD SWAP1 DUP2 LT PUSH1 0x1 PUSH1 0x1 PUSH1 0x40 SHL SUB DUP3 GT OR PUSH2 0x98F JUMPI PUSH1 0x40 MSTORE JUMP JUMPDEST SWAP1 PUSH1 0x1F DUP1 NOT SWAP2 ADD AND DUP2 ADD SWAP1 DUP2 LT PUSH1 0x1 PUSH1 0x1 PUSH1 0x40 SHL SUB DUP3 GT OR PUSH2 0x98F JUMPI PUSH1 0x40 MSTORE JUMP JUMPDEST SWAP1 PUSH1 0x40 MLOAD SWAP2 DUP3 PUSH1 0x0 DUP3 SLOAD SWAP3 PUSH2 0x1EAF DUP5 PUSH2 0x1E25 JUMP JUMPDEST SWAP1 DUP2 DUP5 MSTORE PUSH1 0x1 SWAP5 DUP6 DUP2 AND SWAP1 DUP2 PUSH1 0x0 EQ PUSH2 0x1F1E JUMPI POP PUSH1 0x1 EQ PUSH2 0x1EDB JUMPI JUMPDEST POP POP PUSH2 0x1ED9 SWAP3 POP SUB DUP4 PUSH2 0x1E7A JUMP JUMPDEST JUMP JUMPDEST SWAP1 SWAP4 SWAP2 POP PUSH1 0x0 MSTORE PUSH1 0x20 SWAP1 DUP2 PUSH1 0x0 KECCAK256 SWAP4 PUSH1 0x0 SWAP2 JUMPDEST DUP2 DUP4 LT PUSH2 0x1F06 JUMPI POP POP PUSH2 0x1ED9 SWAP4 POP DUP3 ADD ADD CODESIZE DUP1 PUSH2 0x1ECB JUMP JUMPDEST DUP6 SLOAD DUP9 DUP5 ADD DUP6 ADD MSTORE SWAP5 DUP6 ADD SWAP5 DUP8 SWAP5 POP SWAP2 DUP4 ADD SWAP2 PUSH2 0x1EEE JUMP JUMPDEST SWAP2 POP POP PUSH2 0x1ED9 SWAP5 POP PUSH1 0x20 SWAP3 POP PUSH1 0xFF NOT AND DUP3 DUP5 ADD MSTORE ISZERO ISZERO PUSH1 0x5 SHL DUP3 ADD ADD CODESIZE DUP1 PUSH2 0x1ECB JUMP JUMPDEST SWAP1 PUSH1 0x9 DUP3 LT ISZERO PUSH2 0x330 JUMPI MSTORE JUMP JUMPDEST PUSH1 0x0 JUMPDEST DUP4 DUP2 LT PUSH2 0x1F61 JUMPI POP POP PUSH1 0x0 SWAP2 ADD MSTORE JUMP JUMPDEST DUP2 DUP2 ADD MLOAD DUP4 DUP3 ADD MSTORE PUSH1 0x20 ADD PUSH2 0x1F51 JUMP JUMPDEST SWAP1 PUSH1 0x20 SWAP2 PUSH2 0x1F8A DUP2 MLOAD DUP1 SWAP3 DUP2 DUP6 MSTORE DUP6 DUP1 DUP7 ADD SWAP2 ADD PUSH2 0x1F4E JUMP JUMPDEST PUSH1 0x1F ADD PUSH1 0x1F NOT AND ADD ADD SWAP1 JUMP JUMPDEST SWAP1 PUSH1 0x4 DUP3 LT ISZERO PUSH2 0x330 JUMPI MSTORE JUMP JUMPDEST PUSH1 0x24 CALLDATALOAD SWAP1 PUSH1 0x1 PUSH1 0x1 PUSH1 0xA0 SHL SUB DUP3 AND DUP3 SUB PUSH2 0x346 JUMPI JUMP JUMPDEST PUSH1 0x4 CALLDATALOAD SWAP1 PUSH1 0x1 PUSH1 0x1 PUSH1 0xA0 SHL SUB DUP3 AND DUP3 SUB PUSH2 0x346 JUMPI JUMP JUMPDEST DUP2 PUSH1 0x1F DUP3 ADD SLT ISZERO PUSH2 0x346 JUMPI DUP1 CALLDATALOAD SWAP1 PUSH1 0x1 PUSH1 0x1 PUSH1 0x40 SHL SUB DUP3 GT PUSH2 0x98F JUMPI PUSH1 0x40 MLOAD SWAP3 PUSH2 0x2003 PUSH1 0x1F DUP5 ADD PUSH1 0x1F NOT AND PUSH1 0x20 ADD DUP6 PUSH2 0x1E7A JUMP JUMPDEST DUP3 DUP5 MSTORE PUSH1 0x20 DUP4 DUP4 ADD ADD GT PUSH2 0x346 JUMPI DUP2 PUSH1 0x0 SWAP3 PUSH1 0x20 DUP1 SWAP4 ADD DUP4 DUP7 ADD CALLDATACOPY DUP4 ADD ADD MSTORE SWAP1 JUMP JUMPDEST SWAP1 PUSH1 0x40 PUSH1 0x3 NOT DUP4 ADD SLT PUSH2 0x346 JUMPI PUSH1 0x4 CALLDATALOAD SWAP2 PUSH1 0x24 CALLDATALOAD SWAP1 PUSH1 0x1 PUSH1 0x1 PUSH1 0x40 SHL SUB DUP3 GT PUSH2 0x346 JUMPI PUSH2 0x2054 SWAP2 PUSH1 0x4 ADD PUSH2 0x1FCF JUMP JUMPDEST SWAP1 JUMP JUMPDEST PUSH1 0x4 DUP2 LT ISZERO PUSH2 0x330 JUMPI PUSH1 0x0 MSTORE PUSH1 0xA PUSH1 0x20 MSTORE PUSH1 0x40 PUSH1 0x0 KECCAK256 SWAP1 JUMP JUMPDEST PUSH1 0x1 PUSH1 0x1 PUSH1 0x40 SHL SUB DUP2 GT PUSH2 0x98F JUMPI PUSH1 0x5 SHL PUSH1 0x20 ADD SWAP1 JUMP JUMPDEST DUP2 PUSH1 0x1F DUP3 ADD SLT ISZERO PUSH2 0x346 JUMPI DUP1 CALLDATALOAD SWAP2 PUSH2 0x209E DUP4 PUSH2 0x2070 JUMP JUMPDEST SWAP3 PUSH2 0x20AC PUSH1 0x40 MLOAD SWAP5 DUP6 PUSH2 0x1E7A JUMP JUMPDEST DUP1 DUP5 MSTORE PUSH1 0x20 SWAP3 DUP4 DUP1 DUP7 ADD SWAP3 PUSH1 0x5 SHL DUP3 ADD ADD SWAP3 DUP4 GT PUSH2 0x346 JUMPI DUP4 ADD SWAP1 JUMPDEST DUP3 DUP3 LT PUSH2 0x20D6 JUMPI POP POP POP POP SWAP1 JUMP JUMPDEST DUP2 CALLDATALOAD DUP2 MSTORE SWAP1 DUP4 ADD SWAP1 DUP4 ADD PUSH2 0x20C8 JUMP JUMPDEST DUP2 PUSH1 0x1F DUP3 ADD SLT ISZERO PUSH2 0x346 JUMPI DUP1 CALLDATALOAD SWAP2 PUSH2 0x20FC DUP4 PUSH2 0x2070 JUMP JUMPDEST SWAP3 PUSH2 0x210A PUSH1 0x40 MLOAD SWAP5 DUP6 PUSH2 0x1E7A JUMP JUMPDEST DUP1 DUP5 MSTORE PUSH1 0x20 SWAP3 DUP4 DUP1 DUP7 ADD SWAP3 PUSH1 0x5 SHL DUP3 ADD ADD SWAP3 DUP4 GT PUSH2 0x346 JUMPI DUP4 ADD SWAP1 JUMPDEST DUP3 DUP3 LT PUSH2 0x2134 JUMPI POP POP POP POP SWAP1 JUMP JUMPDEST DUP2 CALLDATALOAD PUSH1 0x9 DUP2 LT ISZERO PUSH2 0x346 JUMPI DUP2 MSTORE SWAP1 DUP4 ADD SWAP1 DUP4 ADD PUSH2 0x2126 JUMP JUMPDEST SWAP1 DUP1 PUSH1 0x1F DUP4 ADD SLT ISZERO PUSH2 0x346 JUMPI DUP2 CALLDATALOAD SWAP1 PUSH2 0x2164 DUP3 PUSH2 0x2070 JUMP JUMPDEST SWAP3 PUSH2 0x2172 PUSH1 0x40 MLOAD SWAP5 DUP6 PUSH2 0x1E7A JUMP JUMPDEST DUP3 DUP5 MSTORE PUSH1 0x20 SWAP3 DUP4 DUP1 DUP7 ADD SWAP2 PUSH1 0x5 SHL DUP4 ADD ADD SWAP3 DUP1 DUP5 GT PUSH2 0x346 JUMPI DUP5 DUP4 ADD SWAP2 JUMPDEST DUP5 DUP4 LT PUSH2 0x21A0 JUMPI POP POP POP POP POP POP SWAP1 JUMP JUMPDEST DUP3 CALLDATALOAD PUSH1 0x1 PUSH1 0x1 PUSH1 0x40 SHL SUB DUP2 GT PUSH2 0x346 JUMPI DUP7 SWAP2 PUSH2 0x21C1 DUP5 DUP5 DUP1 SWAP5 DUP10 ADD ADD PUSH2 0x1FCF JUMP JUMPDEST DUP2 MSTORE ADD SWAP3 ADD SWAP2 PUSH2 0x2190 JUMP JUMPDEST PUSH1 0x9 DUP2 LT ISZERO PUSH2 0x330 JUMPI PUSH1 0x0 MSTORE PUSH1 0x6 PUSH1 0x20 MSTORE PUSH1 0x40 PUSH1 0x0 KECCAK256 SWAP1 JUMP JUMPDEST PUSH1 0x9 DUP2 LT ISZERO PUSH2 0x330 JUMPI PUSH1 0x0 MSTORE PUSH1 0x9 PUSH1 0x20 MSTORE PUSH1 0x40 PUSH1 0x0 KECCAK256 SWAP1 JUMP JUMPDEST CALLER PUSH1 0x0 SWAP1 DUP2 MSTORE PUSH32 0xAD3228B676F7D3CD4284A5443F17F1962B36E491B30A40B2405849E597BA5FB5 PUSH1 0x20 SWAP1 DUP2 MSTORE PUSH1 0x40 DUP1 DUP4 KECCAK256 SLOAD SWAP1 SWAP3 SWAP1 PUSH1 0xFF AND ISZERO PUSH2 0x2240 JUMPI POP POP POP JUMP JUMPDEST PUSH2 0x2249 CALLER PUSH2 0x2812 JUMP JUMPDEST SWAP1 DUP1 DUP5 MLOAD SWAP1 PUSH2 0x2257 DUP3 PUSH2 0x1E5F JUMP JUMPDEST PUSH1 0x42 DUP3 MSTORE DUP5 DUP3 ADD SWAP3 PUSH1 0x60 CALLDATASIZE DUP6 CALLDATACOPY DUP3 MLOAD ISZERO PUSH2 0x23E3 JUMPI PUSH1 0x30 DUP5 MSTORE8 DUP3 MLOAD PUSH1 0x1 SWAP1 DUP2 LT ISZERO PUSH2 0x23CF JUMPI SWAP1 PUSH1 0x78 PUSH1 0x21 DUP6 ADD MSTORE8 PUSH1 0x41 SWAP2 JUMPDEST DUP1 DUP4 GT PUSH2 0x2375 JUMPI POP POP POP PUSH2 0x2333 JUMPI PUSH1 0x48 PUSH2 0x232F SWAP4 DUP7 SWAP4 PUSH2 0x2313 SWAP4 PUSH2 0x2304 SWAP9 MLOAD SWAP9 DUP10 SWAP4 PUSH23 0x20B1B1B2B9B9A1B7B73A3937B61D1030B1B1B7BAB73A1 PUSH1 0x4D SHL DUP11 DUP7 ADD MSTORE PUSH2 0x22DB DUP2 MLOAD DUP1 SWAP3 DUP13 PUSH1 0x37 DUP10 ADD SWAP2 ADD PUSH2 0x1F4E JUMP JUMPDEST DUP5 ADD SWAP2 PUSH17 0x1034B99036B4B9B9B4B733903937B6329 PUSH1 0x7D SHL PUSH1 0x37 DUP5 ADD MSTORE MLOAD DUP1 SWAP4 DUP7 DUP5 ADD SWAP1 PUSH2 0x1F4E JUMP JUMPDEST ADD SUB PUSH1 0x28 DUP2 ADD DUP8 MSTORE ADD DUP6 PUSH2 0x1E7A JUMP JUMPDEST MLOAD SWAP3 DUP4 SWAP3 PUSH3 0x461BCD PUSH1 0xE5 SHL DUP5 MSTORE PUSH1 0x4 DUP5 ADD MSTORE PUSH1 0x24 DUP4 ADD SWAP1 PUSH2 0x1F71 JUMP JUMPDEST SUB SWAP1 REVERT JUMPDEST PUSH1 0x64 DUP5 DUP7 MLOAD SWAP1 PUSH3 0x461BCD PUSH1 0xE5 SHL DUP3 MSTORE DUP1 PUSH1 0x4 DUP4 ADD MSTORE PUSH1 0x24 DUP3 ADD MSTORE PUSH32 0x537472696E67733A20686578206C656E67746820696E73756666696369656E74 PUSH1 0x44 DUP3 ADD MSTORE REVERT JUMPDEST SWAP1 SWAP2 SWAP3 PUSH1 0xF DUP2 AND PUSH1 0x10 DUP2 LT ISZERO PUSH2 0x23BB JUMPI PUSH2 0x23B4 SWAP2 SWAP1 PUSH16 0x181899199A1A9B1B9C1CB0B131B232B3 PUSH1 0x81 SHL SWAP1 BYTE PUSH2 0x23AA DUP7 DUP9 PUSH2 0x27DE JUMP JUMPDEST MSTORE8 PUSH1 0x4 SHR SWAP4 PUSH2 0x27EF JUMP JUMPDEST SWAP2 SWAP1 PUSH2 0x2287 JUMP JUMPDEST PUSH4 0x4E487B71 PUSH1 0xE0 SHL DUP5 MSTORE PUSH1 0x32 PUSH1 0x4 MSTORE PUSH1 0x24 DUP5 REVERT JUMPDEST PUSH4 0x4E487B71 PUSH1 0xE0 SHL DUP3 MSTORE PUSH1 0x32 PUSH1 0x4 MSTORE PUSH1 0x24 DUP3 REVERT JUMPDEST PUSH4 0x4E487B71 PUSH1 0xE0 SHL DUP2 MSTORE PUSH1 0x32 PUSH1 0x4 MSTORE PUSH1 0x24 SWAP1 REVERT JUMPDEST CALLER PUSH1 0x0 SWAP1 DUP2 MSTORE PUSH32 0xF9C002F57BB53B4D861AE1EF1369A8087D06C8210E4846F897918D0E534663CE PUSH1 0x20 SWAP1 DUP2 MSTORE PUSH1 0x40 DUP1 DUP4 KECCAK256 SLOAD SWAP1 SWAP3 PUSH32 0x114E74F6EA3BD819998F78687BFCB11B140DA08E9B7D222FA9C1F1BA1F2AA122 SWAP2 PUSH1 0xFF AND ISZERO PUSH2 0x245B JUMPI POP POP POP POP JUMP JUMPDEST PUSH2 0x2464 CALLER PUSH2 0x2812 JUMP JUMPDEST SWAP2 DUP5 MLOAD SWAP1 PUSH2 0x2471 DUP3 PUSH2 0x1E5F JUMP JUMPDEST PUSH1 0x42 DUP3 MSTORE DUP5 DUP3 ADD SWAP3 PUSH1 0x60 CALLDATASIZE DUP6 CALLDATACOPY DUP3 MLOAD ISZERO PUSH2 0x23E3 JUMPI PUSH1 0x30 DUP5 MSTORE8 DUP3 MLOAD PUSH1 0x1 SWAP1 DUP2 LT ISZERO PUSH2 0x23CF JUMPI SWAP1 PUSH1 0x78 PUSH1 0x21 DUP6 ADD MSTORE8 PUSH1 0x41 SWAP2 JUMPDEST DUP1 DUP4 GT PUSH2 0x24F5 JUMPI POP POP POP PUSH2 0x2333 JUMPI PUSH1 0x48 PUSH2 0x232F SWAP4 DUP7 SWAP4 PUSH2 0x2313 SWAP4 PUSH2 0x2304 SWAP9 MLOAD SWAP9 DUP10 SWAP4 PUSH23 0x20B1B1B2B9B9A1B7B73A3937B61D1030B1B1B7BAB73A1 PUSH1 0x4D SHL DUP11 DUP7 ADD MSTORE PUSH2 0x22DB DUP2 MLOAD DUP1 SWAP3 DUP13 PUSH1 0x37 DUP10 ADD SWAP2 ADD PUSH2 0x1F4E JUMP JUMPDEST SWAP1 SWAP2 SWAP3 PUSH1 0xF DUP2 AND PUSH1 0x10 DUP2 LT ISZERO PUSH2 0x23BB JUMPI PUSH2 0x252A SWAP2 SWAP1 PUSH16 0x181899199A1A9B1B9C1CB0B131B232B3 PUSH1 0x81 SHL SWAP1 BYTE PUSH2 0x23AA DUP7 DUP9 PUSH2 0x27DE JUMP JUMPDEST SWAP2 SWAP1 PUSH2 0x24A1 JUMP JUMPDEST CALLER PUSH1 0x0 SWAP1 DUP2 MSTORE PUSH32 0x1DA0B5176DFE03406AF5A6EED66CA01DDA9B45AC4DA671C3FA379CB93717EF81 PUSH1 0x20 SWAP1 DUP2 MSTORE PUSH1 0x40 DUP1 DUP4 KECCAK256 SLOAD SWAP1 SWAP3 PUSH32 0xCE23C3E399818CFEE81A7AB0880F714E53D7672B08DF0FA62F2843416E1EA09 SWAP2 PUSH1 0xFF AND ISZERO PUSH2 0x2595 JUMPI POP POP POP POP JUMP JUMPDEST PUSH2 0x259E CALLER PUSH2 0x2812 JUMP JUMPDEST SWAP2 DUP5 MLOAD SWAP1 PUSH2 0x25AB DUP3 PUSH2 0x1E5F JUMP JUMPDEST PUSH1 0x42 DUP3 MSTORE DUP5 DUP3 ADD SWAP3 PUSH1 0x60 CALLDATASIZE DUP6 CALLDATACOPY DUP3 MLOAD ISZERO PUSH2 0x23E3 JUMPI PUSH1 0x30 DUP5 MSTORE8 DUP3 MLOAD PUSH1 0x1 SWAP1 DUP2 LT ISZERO PUSH2 0x23CF JUMPI SWAP1 PUSH1 0x78 PUSH1 0x21 DUP6 ADD MSTORE8 PUSH1 0x41 SWAP2 JUMPDEST DUP1 DUP4 GT PUSH2 0x262F JUMPI POP POP POP PUSH2 0x2333 JUMPI PUSH1 0x48 PUSH2 0x232F SWAP4 DUP7 SWAP4 PUSH2 0x2313 SWAP4 PUSH2 0x2304 SWAP9 MLOAD SWAP9 DUP10 SWAP4 PUSH23 0x20B1B1B2B9B9A1B7B73A3937B61D1030B1B1B7BAB73A1 PUSH1 0x4D SHL DUP11 DUP7 ADD MSTORE PUSH2 0x22DB DUP2 MLOAD DUP1 SWAP3 DUP13 PUSH1 0x37 DUP10 ADD SWAP2 ADD PUSH2 0x1F4E JUMP JUMPDEST SWAP1 SWAP2 SWAP3 PUSH1 0xF DUP2 AND PUSH1 0x10 DUP2 LT ISZERO PUSH2 0x23BB JUMPI PUSH2 0x2664 SWAP2 SWAP1 PUSH16 0x181899199A1A9B1B9C1CB0B131B232B3 PUSH1 0x81 SHL SWAP1 BYTE PUSH2 0x23AA DUP7 DUP9 PUSH2 0x27DE JUMP JUMPDEST SWAP2 SWAP1 PUSH2 0x25DB JUMP JUMPDEST PUSH1 0x0 SWAP1 DUP1 DUP3 MSTORE PUSH1 0x20 SWAP1 DUP3 DUP3 MSTORE PUSH1 0x40 SWAP3 DUP4 DUP2 KECCAK256 CALLER DUP3 MSTORE DUP4 MSTORE PUSH1 0xFF DUP5 DUP3 KECCAK256 SLOAD AND ISZERO PUSH2 0x2694 JUMPI POP POP POP POP JUMP JUMPDEST PUSH2 0x269D CALLER PUSH2 0x2812 JUMP JUMPDEST SWAP2 DUP5 MLOAD SWAP1 PUSH2 0x26AA DUP3 PUSH2 0x1E5F JUMP JUMPDEST PUSH1 0x42 DUP3 MSTORE DUP5 DUP3 ADD SWAP3 PUSH1 0x60 CALLDATASIZE DUP6 CALLDATACOPY DUP3 MLOAD ISZERO PUSH2 0x23E3 JUMPI PUSH1 0x30 DUP5 MSTORE8 DUP3 MLOAD PUSH1 0x1 SWAP1 DUP2 LT ISZERO PUSH2 0x23CF JUMPI SWAP1 PUSH1 0x78 PUSH1 0x21 DUP6 ADD MSTORE8 PUSH1 0x41 SWAP2 JUMPDEST DUP1 DUP4 GT PUSH2 0x272E JUMPI POP POP POP PUSH2 0x2333 JUMPI PUSH1 0x48 PUSH2 0x232F SWAP4 DUP7 SWAP4 PUSH2 0x2313 SWAP4 PUSH2 0x2304 SWAP9 MLOAD SWAP9 DUP10 SWAP4 PUSH23 0x20B1B1B2B9B9A1B7B73A3937B61D1030B1B1B7BAB73A1 PUSH1 0x4D SHL DUP11 DUP7 ADD MSTORE PUSH2 0x22DB DUP2 MLOAD DUP1 SWAP3 DUP13 PUSH1 0x37 DUP10 ADD SWAP2 ADD PUSH2 0x1F4E JUMP JUMPDEST SWAP1 SWAP2 SWAP3 PUSH1 0xF DUP2 AND PUSH1 0x10 DUP2 LT ISZERO PUSH2 0x23BB JUMPI PUSH2 0x2763 SWAP2 SWAP1 PUSH16 0x181899199A1A9B1B9C1CB0B131B232B3 PUSH1 0x81 SHL SWAP1 BYTE PUSH2 0x23AA DUP7 DUP9 PUSH2 0x27DE JUMP JUMPDEST SWAP2 SWAP1 PUSH2 0x26DA JUMP JUMPDEST SWAP1 PUSH1 0x0 SWAP2 DUP1 DUP4 MSTORE DUP3 PUSH1 0x20 MSTORE PUSH1 0x40 DUP4 KECCAK256 SWAP2 PUSH1 0x1 DUP1 PUSH1 0xA0 SHL SUB AND SWAP2 DUP3 DUP5 MSTORE PUSH1 0x20 MSTORE PUSH1 0xFF PUSH1 0x40 DUP5 KECCAK256 SLOAD AND PUSH2 0x279A JUMPI POP POP POP JUMP JUMPDEST DUP1 DUP4 MSTORE DUP3 PUSH1 0x20 MSTORE PUSH1 0x40 DUP4 KECCAK256 DUP3 DUP5 MSTORE PUSH1 0x20 MSTORE PUSH1 0x40 DUP4 KECCAK256 PUSH1 0xFF NOT DUP2 SLOAD AND SWAP1 SSTORE PUSH32 0xF6391F5C32D9C69D2A47EA670B442974B53935D1EDC7FD64EB21E047A839171B CALLER SWAP4 DUP1 LOG4 JUMP JUMPDEST SWAP1 DUP2 MLOAD DUP2 LT ISZERO PUSH2 0x1E0F JUMPI ADD PUSH1 0x20 ADD SWAP1 JUMP JUMPDEST DUP1 ISZERO PUSH2 0x27FC JUMPI PUSH1 0x0 NOT ADD SWAP1 JUMP JUMPDEST PUSH4 0x4E487B71 PUSH1 0xE0 SHL PUSH1 0x0 MSTORE PUSH1 0x11 PUSH1 0x4 MSTORE PUSH1 0x24 PUSH1 0x0 REVERT JUMPDEST PUSH1 0x40 MLOAD SWAP1 PUSH1 0x60 DUP3 ADD DUP3 DUP2 LT PUSH1 0x1 PUSH1 0x1 PUSH1 0x40 SHL SUB DUP3 GT OR PUSH2 0x98F JUMPI PUSH1 0x40 MSTORE PUSH1 0x2A DUP3 MSTORE PUSH1 0x20 DUP3 ADD PUSH1 0x40 CALLDATASIZE DUP3 CALLDATACOPY DUP3 MLOAD ISZERO PUSH2 0x1E0F JUMPI PUSH1 0x30 SWAP1 MSTORE8 DUP2 MLOAD PUSH1 0x1 SWAP1 DUP2 LT ISZERO PUSH2 0x1E0F JUMPI PUSH1 0x78 PUSH1 0x21 DUP5 ADD MSTORE8 PUSH1 0x29 SWAP1 JUMPDEST DUP1 DUP3 GT PUSH2 0x28B2 JUMPI POP POP PUSH2 0x286E JUMPI SWAP1 JUMP JUMPDEST PUSH1 0x64 PUSH1 0x40 MLOAD PUSH3 0x461BCD PUSH1 0xE5 SHL DUP2 MSTORE PUSH1 0x20 PUSH1 0x4 DUP3 ADD MSTORE PUSH1 0x20 PUSH1 0x24 DUP3 ADD MSTORE PUSH32 0x537472696E67733A20686578206C656E67746820696E73756666696369656E74 PUSH1 0x44 DUP3 ADD MSTORE REVERT JUMPDEST SWAP1 SWAP2 PUSH1 0xF DUP2 AND SWAP1 PUSH1 0x10 DUP3 LT ISZERO PUSH2 0x28F6 JUMPI PUSH2 0x28F0 SWAP2 PUSH16 0x181899199A1A9B1B9C1CB0B131B232B3 PUSH1 0x81 SHL SWAP1 BYTE PUSH2 0x28E6 DUP6 DUP8 PUSH2 0x27DE JUMP JUMPDEST MSTORE8 PUSH1 0x4 SHR SWAP3 PUSH2 0x27EF JUMP JUMPDEST SWAP1 PUSH2 0x285E JUMP JUMPDEST PUSH1 0x24 PUSH1 0x0 PUSH4 0x4E487B71 PUSH1 0xE0 SHL DUP2 MSTORE PUSH1 0x32 PUSH1 0x4 MSTORE REVERT JUMPDEST PUSH1 0x0 NOT DUP2 EQ PUSH2 0x27FC JUMPI PUSH1 0x1 ADD SWAP1 JUMP JUMPDEST DUP1 MLOAD DUP3 LT ISZERO PUSH2 0x1E0F JUMPI PUSH1 0x20 SWAP2 PUSH1 0x5 SHL ADD ADD SWAP1 JUMP JUMPDEST MLOAD PUSH1 0x9 DUP2 LT ISZERO PUSH2 0x330 JUMPI SWAP1 JUMP JUMPDEST DUP1 SLOAD PUSH9 0x10000000000000000 DUP2 LT ISZERO PUSH2 0x98F JUMPI PUSH2 0x295D SWAP2 PUSH1 0x1 DUP3 ADD DUP2 SSTORE PUSH2 0x1DF7 JUMP JUMPDEST DUP2 SWAP3 SWAP2 SLOAD SWAP1 PUSH1 0x3 SHL SWAP2 DUP3 SHL SWAP2 PUSH1 0x0 NOT SWAP1 SHL NOT AND OR SWAP1 SSTORE JUMP JUMPDEST PUSH1 0xFF PUSH1 0x2 SLOAD AND PUSH2 0x2981 JUMPI JUMP JUMPDEST PUSH1 0x40 MLOAD PUSH3 0x461BCD PUSH1 0xE5 SHL DUP2 MSTORE PUSH1 0x20 PUSH1 0x4 DUP3 ADD MSTORE PUSH1 0x10 PUSH1 0x24 DUP3 ADD MSTORE PUSH16 0x14185D5CD8589B194E881C185D5CD959 PUSH1 0x82 SHL PUSH1 0x44 DUP3 ADD MSTORE PUSH1 0x64 SWAP1 REVERT JUMPDEST ISZERO PUSH2 0x29C0 JUMPI JUMP JUMPDEST PUSH1 0x40 MLOAD PUSH3 0x461BCD PUSH1 0xE5 SHL DUP2 MSTORE PUSH1 0x20 PUSH1 0x4 DUP3 ADD MSTORE PUSH1 0x17 PUSH1 0x24 DUP3 ADD MSTORE PUSH32 0x446F63756D656E7420646F6573206E6F74206578697374000000000000000000 PUSH1 0x44 DUP3 ADD MSTORE PUSH1 0x64 SWAP1 REVERT JUMPDEST ISZERO PUSH2 0x2A0C JUMPI JUMP JUMPDEST PUSH1 0x40 MLOAD PUSH3 0x461BCD PUSH1 0xE5 SHL DUP2 MSTORE PUSH1 0x20 PUSH1 0x4 DUP3 ADD MSTORE PUSH1 0x1D PUSH1 0x24 DUP3 ADD MSTORE PUSH32 0x446F63756D656E74206E6F7420696E2069737375656420737461747573000000 PUSH1 0x44 DUP3 ADD MSTORE PUSH1 0x64 SWAP1 REVERT JUMPDEST PUSH1 0x0 SWAP1 DUP2 MSTORE PUSH1 0x3 PUSH1 0x20 MSTORE PUSH1 0x40 DUP2 KECCAK256 PUSH1 0xFF PUSH1 0xD DUP3 ADD SLOAD AND ISZERO PUSH2 0x2AB2 JUMPI PUSH1 0xFF PUSH1 0xB DUP3 ADD SLOAD AND PUSH1 0x4 DUP2 LT ISZERO PUSH2 0x2AC1 JUMPI PUSH1 0x3 DUP2 EQ SWAP1 DUP2 ISZERO PUSH2 0x2AB6 JUMPI JUMPDEST POP PUSH2 0x2AB2 JUMPI PUSH1 0xA ADD SLOAD DUP1 ISZERO ISZERO SWAP1 DUP2 PUSH2 0x2AA7 JUMPI JUMPDEST POP PUSH2 0x2054 JUMPI POP PUSH1 0x1 SWAP1 JUMP JUMPDEST SWAP1 POP TIMESTAMP LT ISZERO CODESIZE PUSH2 0x2A9C JUMP JUMPDEST POP SWAP1 JUMP JUMPDEST PUSH1 0x2 SWAP2 POP EQ CODESIZE PUSH2 0x2A89 JUMP JUMPDEST PUSH4 0x4E487B71 PUSH1 0xE0 SHL DUP4 MSTORE PUSH1 0x21 PUSH1 0x4 MSTORE PUSH1 0x24 DUP4 REVERT JUMPDEST SWAP1 PUSH1 0x0 SWAP2 DUP3 MSTORE PUSH1 0x4 SWAP2 PUSH1 0x20 SWAP2 DUP4 DUP4 MSTORE PUSH1 0x40 SWAP4 DUP5 DUP4 KECCAK256 SWAP5 DUP1 MLOAD DUP1 DUP8 DUP8 DUP3 SWAP10 SLOAD SWAP4 DUP5 DUP2 MSTORE ADD SWAP1 DUP8 MSTORE DUP8 DUP8 KECCAK256 SWAP3 DUP8 JUMPDEST DUP10 DUP3 DUP3 LT PUSH2 0x2C44 JUMPI POP POP POP PUSH2 0x2B18 SWAP3 POP SUB DUP8 PUSH2 0x1E7A JUMP JUMPDEST DUP4 SWAP5 JUMPDEST DUP4 MLOAD DUP7 LT ISZERO PUSH2 0x2C38 JUMPI DUP5 SWAP7 DUP6 JUMPDEST DUP2 MLOAD DUP2 LT ISZERO PUSH2 0x2C2E JUMPI PUSH2 0x2B3B DUP2 DUP4 PUSH2 0x291A JUMP JUMPDEST MLOAD DUP8 MSTORE PUSH1 0x3 DUP4 MSTORE DUP4 DUP8 KECCAK256 PUSH1 0xFF SWAP1 DUP2 PUSH1 0x2 DUP3 ADD SLOAD AND PUSH2 0x2B61 PUSH2 0x2B5C DUP13 DUP12 PUSH2 0x291A JUMP JUMPDEST PUSH2 0x292E JUMP JUMPDEST SWAP1 PUSH1 0x9 DUP1 DUP4 LT ISZERO PUSH2 0x2C1B JUMPI DUP2 LT ISZERO PUSH2 0x2C08 JUMPI EQ SWAP2 DUP3 PUSH2 0x2BDA JUMPI JUMPDEST POP DUP2 PUSH2 0x2BBA JUMPI JUMPDEST POP PUSH2 0x2B95 JUMPI PUSH2 0x2B90 SWAP1 PUSH2 0x290B JUMP JUMPDEST PUSH2 0x2B28 JUMP JUMPDEST POP SWAP7 POP SWAP5 PUSH1 0x1 JUMPDEST ISZERO PUSH2 0x2BB0 JUMPI PUSH2 0x2BAA SWAP1 PUSH2 0x290B JUMP JUMPDEST SWAP5 PUSH2 0x2B1B JUMP JUMPDEST POP POP POP POP SWAP2 POP POP SWAP1 JUMP JUMPDEST PUSH1 0xA ADD SLOAD DUP1 ISZERO SWAP2 POP DUP2 ISZERO PUSH2 0x2BD0 JUMPI JUMPDEST POP CODESIZE PUSH2 0x2B82 JUMP JUMPDEST SWAP1 POP TIMESTAMP LT CODESIZE PUSH2 0x2BC9 JUMP JUMPDEST SWAP1 SWAP2 POP PUSH1 0xB DUP3 ADD SLOAD AND DUP7 DUP2 LT ISZERO PUSH2 0x2BF5 JUMPI PUSH1 0x1 EQ SWAP1 CODESIZE PUSH2 0x2B7B JUMP JUMPDEST PUSH4 0x4E487B71 PUSH1 0xE0 SHL DUP10 MSTORE PUSH1 0x21 DUP8 MSTORE PUSH1 0x24 DUP10 REVERT JUMPDEST PUSH4 0x4E487B71 PUSH1 0xE0 SHL DUP12 MSTORE PUSH1 0x21 DUP10 MSTORE PUSH1 0x24 DUP12 REVERT JUMPDEST PUSH4 0x4E487B71 PUSH1 0xE0 SHL DUP13 MSTORE PUSH1 0x21 DUP11 MSTORE PUSH1 0x24 DUP13 REVERT JUMPDEST POP SWAP7 SWAP6 SWAP1 SWAP6 PUSH2 0x2B9C JUMP JUMPDEST POP POP POP POP POP POP POP PUSH1 0x1 SWAP1 JUMP JUMPDEST DUP6 SLOAD DUP5 MSTORE PUSH1 0x1 SWAP6 DUP7 ADD SWAP6 DUP13 SWAP6 POP SWAP4 ADD SWAP3 ADD PUSH2 0x2B01 JUMP JUMPDEST ISZERO PUSH2 0x2C61 JUMPI JUMP JUMPDEST PUSH1 0x40 MLOAD PUSH3 0x461BCD PUSH1 0xE5 SHL DUP2 MSTORE PUSH1 0x20 PUSH1 0x4 DUP3 ADD MSTORE PUSH1 0x15 PUSH1 0x24 DUP3 ADD MSTORE PUSH21 0x82E4E4C2F240D8CADCCEE8D040DAD2E6DAC2E8C6D PUSH1 0x5B SHL PUSH1 0x44 DUP3 ADD MSTORE PUSH1 0x64 SWAP1 REVERT INVALID LOG2 PUSH5 0x6970667358 0x22 SLT KECCAK256 DUP3 DUP10 0xBE SHL PUSH2 0x8FF5 0xA8 0x4B 0x5D PUSH17 0xF7D234B54623721140617D1ED4D7B407C5 EXTCODEHASH EXP 0xF6 PUSH14 0x64736F6C634300081300332F8788 GT PUSH31 0x7EFF1D82E926EC794901D17C78024A50270940304540A733656F0D00000000 "},"methodIdentifiers":{"DEFAULT_ADMIN_ROLE()":"a217fddf","ISSUER_ROLE()":"82aefa24","OPERATOR_ROLE()":"f5b541a6","VERIFIER_ROLE()":"e7705db6","batchIssueDocuments(bytes32[],uint8[],string[],bytes32[],string[],uint256[],string[])":"bd038c2b","documentCountByStatus(uint8)":"acb29265","documentCountByType(uint8)":"c9e2176d","documents(bytes32)":"2b2805db","documentsByEntity(bytes32,uint256)":"d4d3b2bb","documentsByHash(bytes32,uint256)":"269fbc40","documentsByIssuer(address,uint256)":"abbd6cc1","documentsByType(uint8,uint256)":"f9ab2475","getDocument(bytes32)":"b10d6b41","getDocumentStats()":"8b1d2c6f","getDocumentsByEntity(bytes32)":"f79d2e2e","getDocumentsByIssuer(address)":"ec2a2132","getDocumentsByType(uint8)":"03dedb84","getExpiringDocuments(uint256)":"c6061dff","getRoleAdmin(bytes32)":"248a9ca3","grantRole(bytes32,address)":"2f2ff15d","hasRequiredDocuments(bytes32,uint8[])":"e7a6a24f","hasRole(bytes32,address)":"91d14854","isDocumentValid(bytes32)":"81450e5b","issueDocument(bytes32,uint8,string,bytes32,string,uint256,string)":"fb93f611","pause()":"8456cb59","paused()":"5c975abb","rejectDocument(bytes32,string)":"f2539c7c","renounceRole(bytes32,address)":"36568abe","revokeDocument(bytes32,string)":"4ee0c0a7","revokeRole(bytes32,address)":"d547741f","supportsInterface(bytes4)":"01ffc9a7","totalDocuments()":"553181ec","unpause()":"3f4ba83a","verifyDocument(bytes32)":"fe35089f","verifyDocumentIntegrity(bytes32,bytes32)":"6088cda2"}},"storageLayout":{"storage":[{"astId":24,"contract":"contracts/DocumentRegistry.sol:DocumentRegistry","label":"_roles","offset":0,"slot":"0","type":"t_mapping(t_bytes32,t_struct(RoleData)19_storage)"},{"astId":535,"contract":"contracts/DocumentRegistry.sol:DocumentRegistry","label":"_status","offset":0,"slot":"1","type":"t_uint256"},{"astId":434,"contract":"contracts/DocumentRegistry.sol:DocumentRegistry","label":"_paused","offset":0,"slot":"2","type":"t_bool"},{"astId":4940,"contract":"contracts/DocumentRegistry.sol:DocumentRegistry","label":"documents","offset":0,"slot":"3","type":"t_mapping(t_bytes32,t_struct(Document)4935_storage)"},{"astId":4945,"contract":"contracts/DocumentRegistry.sol:DocumentRegistry","label":"documentsByEntity","offset":0,"slot":"4","type":"t_mapping(t_bytes32,t_array(t_bytes32)dyn_storage)"},{"astId":4950,"contract":"contracts/DocumentRegistry.sol:DocumentRegistry","label":"documentsByIssuer","offset":0,"slot":"5","type":"t_mapping(t_address,t_array(t_bytes32)dyn_storage)"},{"astId":4956,"contract":"contracts/DocumentRegistry.sol:DocumentRegistry","label":"documentsByType","offset":0,"slot":"6","type":"t_mapping(t_enum(DocumentType)4899,t_array(t_bytes32)dyn_storage)"},{"astId":4961,"contract":"contracts/DocumentRegistry.sol:DocumentRegistry","label":"documentsByHash","offset":0,"slot":"7","type":"t_mapping(t_bytes32,t_array(t_bytes32)dyn_storage)"},{"astId":4963,"contract":"contracts/DocumentRegistry.sol:DocumentRegistry","label":"totalDocuments","offset":0,"slot":"8","type":"t_uint256"},{"astId":4968,"contract":"contracts/DocumentRegistry.sol:DocumentRegistry","label":"documentCountByType","offset":0,"slot":"9","type":"t_mapping(t_enum(DocumentType)4899,t_uint256)"},{"astId":4973,"contract":"contracts/DocumentRegistry.sol:DocumentRegistry","label":"documentCountByStatus","offset":0,"slot":"10","type":"t_mapping(t_enum(DocumentStatus)4904,t_uint256)"}],"types":{"t_address":{"encoding":"inplace","label":"address","numberOfBytes":"20"},"t_array(t_bytes32)dyn_storage":{"base":"t_bytes32","encoding":"dynamic_array","label":"bytes32[]","numberOfBytes":"32"},"t_bool":{"encoding":"inplace","label":"bool","numberOfBytes":"1"},"t_bytes32":{"encoding":"inplace","label":"bytes32","numberOfBytes":"32"},"t_enum(DocumentStatus)4904":{"encoding":"inplace","label":"enum DocumentRegistry.DocumentStatus","numberOfBytes":"1"},"t_enum(DocumentType)4899":{"encoding":"inplace","label":"enum DocumentRegistry.DocumentType","numberOfBytes":"1"},"t_mapping(t_address,t_array(t_bytes32)dyn_storage)":{"encoding":"mapping","key":"t_address","label":"mapping(address => bytes32[])","numberOfBytes":"32","value":"t_array(t_bytes32)dyn_storage"},"t_mapping(t_address,t_bool)":{"encoding":"mapping","key":"t_address","label":"mapping(address => bool)","numberOfBytes":"32","value":"t_bool"},"t_mapping(t_bytes32,t_array(t_bytes32)dyn_storage)":{"encoding":"mapping","key":"t_bytes32","label":"mapping(bytes32 => bytes32[])","numberOfBytes":"32","value":"t_array(t_bytes32)dyn_storage"},"t_mapping(t_bytes32,t_struct(Document)4935_storage)":{"encoding":"mapping","key":"t_bytes32","label":"mapping(bytes32 => struct DocumentRegistry.Document)","numberOfBytes":"32","value":"t_struct(Document)4935_storage"},"t_mapping(t_bytes32,t_struct(RoleData)19_storage)":{"encoding":"mapping","key":"t_bytes32","label":"mapping(bytes32 => struct AccessControl.RoleData)","numberOfBytes":"32","value":"t_struct(RoleData)19_storage"},"t_mapping(t_enum(DocumentStatus)4904,t_uint256)":{"encoding":"mapping","key":"t_enum(DocumentStatus)4904","label":"mapping(enum DocumentRegistry.DocumentStatus => uint256)","numberOfBytes":"32","value":"t_uint256"},"t_mapping(t_enum(DocumentType)4899,t_array(t_bytes32)dyn_storage)":{"encoding":"mapping","key":"t_enum(DocumentType)4899","label":"mapping(enum DocumentRegistry.DocumentType => bytes32[])","numberOfBytes":"32","value":"t_array(t_bytes32)dyn_storage"},"t_mapping(t_enum(DocumentType)4899,t_uint256)":{"encoding":"mapping","key":"t_enum(DocumentType)4899","label":"mapping(enum DocumentRegistry.DocumentType => uint256)","numberOfBytes":"32","value":"t_uint256"},"t_string_storage":{"encoding":"bytes","label":"string","numberOfBytes":"32"},"t_struct(Document)4935_storage":{"encoding":"inplace","label":"struct DocumentRegistry.Document","members":[{"astId":4906,"contract":"contracts/DocumentRegistry.sol:DocumentRegistry","label":"documentId","offset":0,"slot":"0","type":"t_bytes32"},{"astId":4908,"contract":"contracts/DocumentRegistry.sol:DocumentRegistry","label":"entityId","offset":0,"slot":"1","type":"t_bytes32"},{"astId":4911,"contract":"contracts/DocumentRegistry.sol:DocumentRegistry","label":"docType","offset":0,"slot":"2","type":"t_enum(DocumentType)4899"},{"astId":4913,"contract":"contracts/DocumentRegistry.sol:DocumentRegistry","label":"documentName","offset":0,"slot":"3","type":"t_string_storage"},{"astId":4915,"contract":"contracts/DocumentRegistry.sol:DocumentRegistry","label":"documentHash","offset":0,"slot":"4","type":"t_bytes32"},{"astId":4917,"contract":"contracts/DocumentRegistry.sol:DocumentRegistry","label":"ipfsHash","offset":0,"slot":"5","type":"t_string_storage"},{"astId":4919,"contract":"contracts/DocumentRegistry.sol:DocumentRegistry","label":"issuer","offset":0,"slot":"6","type":"t_address"},{"astId":4921,"contract":"contracts/DocumentRegistry.sol:DocumentRegistry","label":"verifier","offset":0,"slot":"7","type":"t_address"},{"astId":4923,"contract":"contracts/DocumentRegistry.sol:DocumentRegistry","label":"issuedDate","offset":0,"slot":"8","type":"t_uint256"},{"astId":4925,"contract":"contracts/DocumentRegistry.sol:DocumentRegistry","label":"verifiedDate","offset":0,"slot":"9","type":"t_uint256"},{"astId":4927,"contract":"contracts/DocumentRegistry.sol:DocumentRegistry","label":"expiryDate","offset":0,"slot":"10","type":"t_uint256"},{"astId":4930,"contract":"contracts/DocumentRegistry.sol:DocumentRegistry","label":"status","offset":0,"slot":"11","type":"t_enum(DocumentStatus)4904"},{"astId":4932,"contract":"contracts/DocumentRegistry.sol:DocumentRegistry","label":"metadata","offset":0,"slot":"12","type":"t_string_storage"},{"astId":4934,"contract":"contracts/DocumentRegistry.sol:DocumentRegistry","label":"exists","offset":0,"slot":"13","type":"t_bool"}],"numberOfBytes":"448"},"t_struct(RoleData)19_storage":{"encoding":"inplace","label":"struct AccessControl.RoleData","members":[{"astId":16,"contract":"contracts/DocumentRegistry.sol:DocumentRegistry","label":"members","offset":0,"slot":"0","type":"t_mapping(t_address,t_bool)"},{"astId":18,"contract":"contracts/DocumentRegistry.sol:DocumentRegistry","label":"adminRole","offset":0,"slot":"1","type":"t_bytes32"}],"numberOfBytes":"64"},"t_uint256":{"encoding":"inplace","label":"uint256","numberOfBytes":"32"}}}}}}