{"contracts/AgroExportContract.sol":{"AgroExportContract":{"abi":[{"inputs":[],"stateMutability":"nonpayable","type":"constructor"},{"anonymous":false,"inputs":[{"indexed":true,"internalType":"bytes32","name":"contractId","type":"bytes32"},{"indexed":false,"internalType":"uint256","name":"totalFixedVolume","type":"uint256"},{"indexed":false,"internalType":"uint256","name":"totalFixations","type":"uint256"}],"name":"ContractCompleted","type":"event"},{"anonymous":false,"inputs":[{"indexed":true,"internalType":"bytes32","name":"contractId","type":"bytes32"},{"indexed":true,"internalType":"address","name":"buyer","type":"address"},{"indexed":true,"internalType":"address","name":"exporter","type":"address"},{"indexed":false,"internalType":"string","name":"contractCode","type":"string"},{"indexed":false,"internalType":"uint256","name":"totalVolumeMT","type":"uint256"}],"name":"ContractCreated","type":"event"},{"anonymous":false,"inputs":[{"indexed":true,"internalType":"bytes32","name":"contractId","type":"bytes32"},{"indexed":false,"internalType":"enum AgroExportContract.ContractStatus","name":"oldStatus","type":"uint8"},{"indexed":false,"internalType":"enum AgroExportContract.ContractStatus","name":"newStatus","type":"uint8"}],"name":"ContractStatusChanged","type":"event"},{"anonymous":false,"inputs":[{"indexed":true,"internalType":"bytes32","name":"fixationId","type":"bytes32"},{"indexed":true,"internalType":"bytes32","name":"contractId","type":"bytes32"},{"indexed":false,"internalType":"uint256","name":"fixedQuantityMT","type":"uint256"},{"indexed":false,"internalType":"uint256","name":"spotPriceUSD","type":"uint256"},{"indexed":false,"internalType":"uint256","name":"finalPriceUSD","type":"uint256"},{"indexed":false,"internalType":"uint256[]","name":"lotIds","type":"uint256[]"}],"name":"FixationRegistered","type":"event"},{"anonymous":false,"inputs":[{"indexed":false,"internalType":"address","name":"account","type":"address"}],"name":"Paused","type":"event"},{"anonymous":false,"inputs":[{"indexed":true,"internalType":"bytes32","name":"role","type":"bytes32"},{"indexed":true,"internalType":"bytes32","name":"previousAdminRole","type":"bytes32"},{"indexed":true,"internalType":"bytes32","name":"newAdminRole","type":"bytes32"}],"name":"RoleAdminChanged","type":"event"},{"anonymous":false,"inputs":[{"indexed":true,"internalType":"bytes32","name":"role","type":"bytes32"},{"indexed":true,"internalType":"address","name":"account","type":"address"},{"indexed":true,"internalType":"address","name":"sender","type":"address"}],"name":"RoleGranted","type":"event"},{"anonymous":false,"inputs":[{"indexed":true,"internalType":"bytes32","name":"role","type":"bytes32"},{"indexed":true,"internalType":"address","name":"account","type":"address"},{"indexed":true,"internalType":"address","name":"sender","type":"address"}],"name":"RoleRevoked","type":"event"},{"anonymous":false,"inputs":[{"indexed":false,"internalType":"address","name":"account","type":"address"}],"name":"Unpaused","type":"event"},{"inputs":[],"name":"BUYER_ROLE","outputs":[{"internalType":"bytes32","name":"","type":"bytes32"}],"stateMutability":"view","type":"function"},{"inputs":[],"name":"DEFAULT_ADMIN_ROLE","outputs":[{"internalType":"bytes32","name":"","type":"bytes32"}],"stateMutability":"view","type":"function"},{"inputs":[],"name":"EXPORTER_ROLE","outputs":[{"internalType":"bytes32","name":"","type":"bytes32"}],"stateMutability":"view","type":"function"},{"inputs":[],"name":"OPERATOR_ROLE","outputs":[{"internalType":"bytes32","name":"","type":"bytes32"}],"stateMutability":"view","type":"function"},{"inputs":[{"internalType":"bytes32","name":"_contractId","type":"bytes32"},{"internalType":"enum AgroExportContract.ContractStatus","name":"_newStatus","type":"uint8"}],"name":"changeContractStatus","outputs":[],"stateMutability":"nonpayable","type":"function"},{"inputs":[{"internalType":"bytes32","name":"","type":"bytes32"}],"name":"contracts","outputs":[{"internalType":"bytes32","name":"contractId","type":"bytes32"},{"internalType":"address","name":"buyer","type":"address"},{"internalType":"address","name":"exporter","type":"address"},{"internalType":"string","name":"contractCode","type":"string"},{"internalType":"string","name":"productType","type":"string"},{"internalType":"string","name":"productGrade","type":"string"},{"internalType":"uint256","name":"totalVolumeMT","type":"uint256"},{"internalType":"int256","name":"differentialUSD","type":"int256"},{"internalType":"uint256","name":"contractDate","type":"uint256"},{"internalType":"uint256","name":"startDate","type":"uint256"},{"internalType":"uint256","name":"endDate","type":"uint256"},{"internalType":"uint256","name":"deliveryDate","type":"uint256"},{"internalType":"uint256","name":"fixedVolumeMT","type":"uint256"},{"internalType":"enum AgroExportContract.ContractStatus","name":"status","type":"uint8"},{"internalType":"bool","name":"exists","type":"bool"}],"stateMutability":"view","type":"function"},{"inputs":[{"internalType":"address","name":"","type":"address"},{"internalType":"uint256","name":"","type":"uint256"}],"name":"contractsByBuyer","outputs":[{"internalType":"bytes32","name":"","type":"bytes32"}],"stateMutability":"view","type":"function"},{"inputs":[{"internalType":"address","name":"","type":"address"},{"internalType":"uint256","name":"","type":"uint256"}],"name":"contractsByExporter","outputs":[{"internalType":"bytes32","name":"","type":"bytes32"}],"stateMutability":"view","type":"function"},{"inputs":[{"internalType":"address","name":"_buyer","type":"address"},{"internalType":"address","name":"_exporter","type":"address"},{"internalType":"string","name":"_contractCode","type":"string"},{"internalType":"string","name":"_productType","type":"string"},{"internalType":"string","name":"_productGrade","type":"string"},{"internalType":"uint256","name":"_totalVolumeMT","type":"uint256"},{"internalType":"int256","name":"_differentialUSD","type":"int256"},{"internalType":"uint256","name":"_startDate","type":"uint256"},{"internalType":"uint256","name":"_endDate","type":"uint256"},{"internalType":"uint256","name":"_deliveryDate","type":"uint256"}],"name":"createContract","outputs":[{"internalType":"bytes32","name":"","type":"bytes32"}],"stateMutability":"nonpayable","type":"function"},{"inputs":[{"internalType":"bytes32","name":"","type":"bytes32"}],"name":"fixations","outputs":[{"internalType":"bytes32","name":"fixationId","type":"bytes32"},{"internalType":"bytes32","name":"contractId","type":"bytes32"},{"internalType":"uint256","name":"fixedQuantityMT","type":"uint256"},{"internalType":"uint256","name":"spotPriceUSD","type":"uint256"},{"internalType":"uint256","name":"finalPriceUSD","type":"uint256"},{"internalType":"uint256","name":"fixationDate","type":"uint256"},{"internalType":"string","name":"notes","type":"string"},{"internalType":"address","name":"registeredBy","type":"address"},{"internalType":"bool","name":"exists","type":"bool"}],"stateMutability":"view","type":"function"},{"inputs":[{"internalType":"bytes32","name":"","type":"bytes32"},{"internalType":"uint256","name":"","type":"uint256"}],"name":"fixationsByContract","outputs":[{"internalType":"bytes32","name":"","type":"bytes32"}],"stateMutability":"view","type":"function"},{"inputs":[{"internalType":"bytes32","name":"_contractId","type":"bytes32"}],"name":"getContract","outputs":[{"internalType":"address","name":"buyer","type":"address"},{"internalType":"address","name":"exporter","type":"address"},{"internalType":"string","name":"contractCode","type":"string"},{"internalType":"string","name":"productType","type":"string"},{"internalType":"string","name":"productGrade","type":"string"},{"internalType":"uint256","name":"totalVolumeMT","type":"uint256"},{"internalType":"int256","name":"differentialUSD","type":"int256"},{"internalType":"uint256","name":"contractDate","type":"uint256"},{"internalType":"uint256","name":"startDate","type":"uint256"},{"internalType":"uint256","name":"endDate","type":"uint256"},{"internalType":"uint256","name":"deliveryDate","type":"uint256"},{"internalType":"uint256","name":"fixedVolumeMT","type":"uint256"},{"internalType":"enum AgroExportContract.ContractStatus","name":"status","type":"uint8"}],"stateMutability":"view","type":"function"},{"inputs":[{"internalType":"address","name":"_buyer","type":"address"}],"name":"getContractsByBuyer","outputs":[{"internalType":"bytes32[]","name":"","type":"bytes32[]"}],"stateMutability":"view","type":"function"},{"inputs":[{"internalType":"address","name":"_exporter","type":"address"}],"name":"getContractsByExporter","outputs":[{"internalType":"bytes32[]","name":"","type":"bytes32[]"}],"stateMutability":"view","type":"function"},{"inputs":[{"internalType":"bytes32","name":"_fixationId","type":"bytes32"}],"name":"getFixation","outputs":[{"internalType":"bytes32","name":"contractId","type":"bytes32"},{"internalType":"uint256","name":"fixedQuantityMT","type":"uint256"},{"internalType":"uint256","name":"spotPriceUSD","type":"uint256"},{"internalType":"uint256","name":"finalPriceUSD","type":"uint256"},{"internalType":"uint256","name":"fixationDate","type":"uint256"},{"internalType":"uint256[]","name":"lotIds","type":"uint256[]"},{"internalType":"string","name":"notes","type":"string"},{"internalType":"address","name":"registeredBy","type":"address"}],"stateMutability":"view","type":"function"},{"inputs":[{"internalType":"bytes32","name":"_contractId","type":"bytes32"}],"name":"getFixationsByContract","outputs":[{"internalType":"bytes32[]","name":"","type":"bytes32[]"}],"stateMutability":"view","type":"function"},{"inputs":[{"internalType":"bytes32","name":"_contractId","type":"bytes32"}],"name":"getPendingVolume","outputs":[{"internalType":"uint256","name":"","type":"uint256"}],"stateMutability":"view","type":"function"},{"inputs":[{"internalType":"bytes32","name":"role","type":"bytes32"}],"name":"getRoleAdmin","outputs":[{"internalType":"bytes32","name":"","type":"bytes32"}],"stateMutability":"view","type":"function"},{"inputs":[],"name":"getStats","outputs":[{"internalType":"uint256","name":"_totalContracts","type":"uint256"},{"internalType":"uint256","name":"_totalFixations","type":"uint256"},{"internalType":"uint256","name":"activeContracts","type":"uint256"},{"internalType":"uint256","name":"completedContracts","type":"uint256"}],"stateMutability":"view","type":"function"},{"inputs":[{"internalType":"bytes32","name":"role","type":"bytes32"},{"internalType":"address","name":"account","type":"address"}],"name":"grantRole","outputs":[],"stateMutability":"nonpayable","type":"function"},{"inputs":[{"internalType":"bytes32","name":"role","type":"bytes32"},{"internalType":"address","name":"account","type":"address"}],"name":"hasRole","outputs":[{"internalType":"bool","name":"","type":"bool"}],"stateMutability":"view","type":"function"},{"inputs":[{"internalType":"bytes32","name":"_contractId","type":"bytes32"}],"name":"isContractExpired","outputs":[{"internalType":"bool","name":"","type":"bool"}],"stateMutability":"view","type":"function"},{"inputs":[{"internalType":"bytes32[]","name":"_contractIds","type":"bytes32[]"}],"name":"markExpiredContracts","outputs":[],"stateMutability":"nonpayable","type":"function"},{"inputs":[],"name":"pause","outputs":[],"stateMutability":"nonpayable","type":"function"},{"inputs":[],"name":"paused","outputs":[{"internalType":"bool","name":"","type":"bool"}],"stateMutability":"view","type":"function"},{"inputs":[{"internalType":"bytes32","name":"_contractId","type":"bytes32"},{"internalType":"uint256","name":"_fixedQuantityMT","type":"uint256"},{"internalType":"uint256","name":"_spotPriceUSD","type":"uint256"},{"internalType":"uint256[]","name":"_lotIds","type":"uint256[]"},{"internalType":"string","name":"_notes","type":"string"}],"name":"registerFixation","outputs":[{"internalType":"bytes32","name":"","type":"bytes32"}],"stateMutability":"nonpayable","type":"function"},{"inputs":[{"internalType":"bytes32","name":"role","type":"bytes32"},{"internalType":"address","name":"account","type":"address"}],"name":"renounceRole","outputs":[],"stateMutability":"nonpayable","type":"function"},{"inputs":[{"internalType":"bytes32","name":"role","type":"bytes32"},{"internalType":"address","name":"account","type":"address"}],"name":"revokeRole","outputs":[],"stateMutability":"nonpayable","type":"function"},{"inputs":[{"internalType":"bytes4","name":"interfaceId","type":"bytes4"}],"name":"supportsInterface","outputs":[{"internalType":"bool","name":"","type":"bool"}],"stateMutability":"view","type":"function"},{"inputs":[],"name":"totalContracts","outputs":[{"internalType":"uint256","name":"","type":"uint256"}],"stateMutability":"view","type":"function"},{"inputs":[],"name":"totalFixations","outputs":[{"internalType":"uint256","name":"","type":"uint256"}],"stateMutability":"view","type":"function"},{"inputs":[],"name":"unpause","outputs":[],"stateMutability":"nonpayable","type":"function"}],"evm":{"bytecode":{"linkReferences":{},"object":"6080604081815234620000f8576001805560ff1980600254166002556000908180526020828152838320338452815260ff848420541615620000c2575b7f97667070c54ef182b0f5858b034beac1b6f3089aa2d3188bb1e8929f4fa9b92993848452838252808420338552825260ff81852054161562000087575b612d1f8681620000fe8239f35b6001918585528481528185209033865252832091825416179055339160008051602062002e1d833981519152339280a438808080806200007a565b828052828152838320338452815283832060018382541617905533338460008051602062002e1d8339815191528180a46200003c565b600080fdfe608080604052600436101561001357600080fd5b60003560e01c90816301ffc9a7146122e2575080632380d7871461219e578063248a9ca31461216f57806326519e3b146120c55780632b8793601461205b5780632f2ff15d14611fa857806333897e5214611f3057806336568abe14611e9e5780633731151014611d055780633f4ba83a14611c715780634dc5e23714611c205780635c975abb14611bfd5780637a01a1da14611bc25780638456cb5914611b68578063851c79bf14611b1e5780639100c28f14611b0057806391d1485414611ab35780639cb977f8146110e4578063a09037a9146110c6578063a217fddf146110aa578063a3662c4b146106e0578063b70e3a931461064a578063c59d484714610616578063c6c49a3614610592578063ce25dade14610548578063d547741f14610507578063dd8bc056146104c0578063e16c7d981461039e578063ec56a37314610276578063f2a6a2411461023b578063f5b541a6146102005763ff5e90d91461017f57600080fd5b346101fb5760203660031901126101fb5760043560005260036020526040600020600a600d820154916101b760ff8460081c16612c7c565b0154421190816101cf575b6020826040519015158152f35b60ff91501660048110156101e5571560206101c2565b634e487b7160e01b600052602160045260246000fd5b600080fd5b346101fb5760003660031901126101fb5760206040517f97667070c54ef182b0f5858b034beac1b6f3089aa2d3188bb1e8929f4fa9b9298152f35b346101fb5760003660031901126101fb5760206040517faf60a13a1620ed8606730e7105f2af60851db04bb2ce1a068e80262de457512a8152f35b346101fb5760203660031901126101fb57600435600052600360205260406000208054600160a01b60019003918260018201541692600282015416600382016102be90612427565b916102cb60048201612427565b926102d860058301612427565b936006830154946007840154600885015490600986015492600a87015494600b88015496600c89015498600d0154996040519d8e809e81526020015260408d01528b6101e06060819201528c0161032e9161238c565b8b810360808d015261033f9161238c565b8a810360a08c01526103509161238c565b9760c08a015260e08901526101008801526101208701526101408601526101608501526101808401526101a0830160ff82169061038c916125cf565b60081c60ff1615156101c08301520390f35b346101fb5760203660031901126101fb5760043560005260036020526040600020600d810154908160081c60ff166103d590612c7c565b600160a01b6001900390816001820154169160028201541692600682015491600781015460088201546009830154600a84015491600b85015493600c860154956003810161042290612427565b9061042f60048201612427565b9060050161043c90612427565b916040519c8d9c8d5260208d01528b6101a06040819201528c0161045f9161238c565b8b810360608d01526104709161238c565b8a810360808c01526104819161238c565b9760a08a015260c089015260e088015261010087015261012086015261014085015261016084015261018083019060ff16906104bc916125cf565b0390f35b346101fb5760403660031901126101fb576024356004356000526007602052604060002080548210156101fb576020916104f99161254b565b90546040519160031b1c8152f35b346101fb5760403660031901126101fb57610546600435610526612508565b9080600052600060205261054160016040600020015461291b565b612a25565b005b346101fb5760403660031901126101fb5761056161251e565b6001600160a01b03166000908152600660205260409020805460243591908210156101fb576020916104f99161254b565b346101fb576020806003193601126101fb576001600160a01b036105b461251e565b1660005260058152604060002090604051908181845491828152019360005281600020916000905b8282106105ff576104bc856105f381890382612406565b604051918291826124cd565b8354865294850194600193840193909101906105dc565b346101fb5760003660031901126101fb57608060085460095460405191825260208201526000604082015260006060820152f35b346101fb5760403660031901126101fb5760043560243560048110156101fb57604060ff6106dd7f8f653db3ccbf47ee40d4981327f8f8312f93ed155f95a74b4e303c56e175fdf39361069b6125dc565b8560005260036020526106d3600d85600020016106c8838254926106c3888560081c16612c7c565b612bdc565b8551948591166125cf565b60208301906125cf565ba2005b346101fb5760a03660031901126101fb576064356001600160401b0381116101fb57366023820112156101fb5780600401359061071c82612534565b9161072a6040519384612406565b8083526024602084019160051b830101913683116101fb57602401905b82821061109a57836084356001600160401b0381116101fb5761076e903690600401612579565b90610777612c38565b600435600052600360205260406000209060ff600d83015461079d828260081c16612c7c565b1660048110156101e55761105f573360009081527f718ad431c81a35702f677df6ec573a839eda3d7f28cae8ab8b4da05bf770462f60205260409020547faf60a13a1620ed8606730e7105f2af60851db04bb2ce1a068e80262de457512a9060ff168015611027575b15610fd657600052600060205260406000203360005260205260ff60406000205416610f7d575b60243515610f2a5760443515610edb576108506006830154600c84015490612cc8565b60243511610e885760098201544210610e4357600a8201544211610dfe57600782015460008112610d6c5761088790604435612a99565b600954926040519360043560208601526024356040860152604435606086015242608086015260a085015260a084528360c08101106001600160401b0360c086011117610cda5760c08401604052835160208501209384600052600460205260ff60086040600020015460a01c16610d24575060405194856101408101106001600160401b0361014088011117610cda5761014086016040528486526004356020870152602435604087015260443560608701528260808701524260a08701528360c087015260e0860152336101008601526001610120860152836000526004602052604060002091855183556020860151600184015560408601516002840155606086015160038401556080860151600484015560a0860151600584015560c08601518051906001600160401b038211610cda57600160401b8211610cda576020906006860154836006880155808410610d04575b500160068501600052602060002060005b838110610cf0575050505060e0860151918251966001600160401b038811610cda576020978794610a2260078801546123b1565b601f8111610c9c575b508990601f8311600114610c045791807ff08afb8b6fc52012f5f4ad81e3faa058d1affc795b7b72dd94aaa56d958d1f17979892600894600092610bf9575b50508160011b916000199060031b1c19161760078201555b019060018060a01b036101008201511682549161012060ff60a01b910151151560a01b16916affffffffffffffffffffff60a81b1617179055610acb602435600c830154612a99565b600c82015560043560005260078752610ae8846040600020612bf4565b610af3600954612c29565b600955600c81015460068201541115610b41575b506040519060243582526044358783015260408201526080606082015280610b36600435956080830190612335565b0390a3604051908152f35b600c906004356000526003885260ff610b81600d604060002001805490610b6c848360081c16612c7c565b600184198316179055604051928391166125cf565b6001898201527f8f653db3ccbf47ee40d4981327f8f8312f93ed155f95a74b4e303c56e175fdf3604060043592a2015460043560005260078752604060002054604051918252878201527f1dd5beda64ff3819c22a6139dac47a530a6b6f29efa6f9c9db8e39bc6027f89e604060043592a286610b07565b015190508c80610a6a565b600788939298016000528a6000209060005b601f1984168110610c825750916001917ff08afb8b6fc52012f5f4ad81e3faa058d1affc795b7b72dd94aaa56d958d1f1798996008959483601f19811610610c69575b505050811b016007820155610a82565b015160001960f88460031b161c191690558c8080610c59565b818a01518355988c01988b98506001909201918c01610c16565b610cca90600789016000528b600020601f850160051c8101918d8610610cd0575b601f0160051c0190612bc5565b8a610a2b565b9091508190610cbd565b634e487b7160e01b600052604160045260246000fd5b6001906020845194019381840155016109ee565b610d1e906006880160005284846000209182019101612bc5565b896109dd565b60c060649162461bcd60e51b82820152602060c4820152601760e48201527f4669786174696f6e20616c72656164792065786973747300000000000000000061010482015201fd5b600160ff1b8114610de8578060000360443510610d9757610d9290600003604435612cc8565b610887565b60405162461bcd60e51b815260206004820152602360248201527f53706f7420707269636520746f6f206c6f7720666f7220646966666572656e746044820152621a585b60ea1b6064820152608490fd5b634e487b7160e01b600052601160045260246000fd5b60405162461bcd60e51b815260206004820152601760248201527f436f6e747261637420706572696f6420657870697265640000000000000000006044820152606490fd5b60405162461bcd60e51b815260206004820152601b60248201527f436f6e747261637420706572696f64206e6f74207374617274656400000000006044820152606490fd5b60405162461bcd60e51b815260206004820152602560248201527f4669786564207175616e7469747920657863656564732070656e64696e6720766044820152646f6c756d6560d81b6064820152608490fd5b60405162461bcd60e51b815260206004820152602160248201527f53706f74207072696365206d7573742062652067726561746572207468616e206044820152600360fc1b6064820152608490fd5b60405162461bcd60e51b815260206004820152602560248201527f4669786564207175616e74697479206d75737420626520677265617465722074604482015264068616e20360dc1b6064820152608490fd5b60028201546001600160a01b0316331461082d5760405162461bcd60e51b815260206004820152601960248201527f4e6f742074686520636f6e7472616374206578706f72746572000000000000006044820152606490fd5b60405162461bcd60e51b8152602060048201526024808201527f4e6f7420617574686f72697a656420746f207265676973746572206669786174604482015263696f6e7360e01b6064820152608490fd5b503360009081527fee57cd81e84075558e8fcc182a1f4393f91fc97f963a136e66b7f949a62f319f602052604090205460ff16610806565b60405162461bcd60e51b8152602060048201526013602482015272436f6e7472616374206e6f742061637469766560681b6044820152606490fd5b8135815260209182019101610747565b346101fb5760003660031901126101fb57602060405160008152f35b346101fb5760003660031901126101fb576020600854604051908152f35b346101fb576101403660031901126101fb576110fe61251e565b611106612508565b6044356001600160401b0381116101fb57611125903690600401612579565b916064356001600160401b0381116101fb57611145903690600401612579565b916084356001600160401b0381116101fb57611165903690600401612579565b9261116e6125dc565b611176612c38565b6001600160a01b03831615611a76576001600160a01b03821615611a315760a435156119ec576101043560e43510156119b25761010435610124351061196157600854604051611218608882602081019460206111d98c88815193849201612369565b8201906bffffffffffffffffffffffff19808b60601b1660208401528960601b1660348301524260488301526068820152036068810184520182612406565b5190209384600052600360205260ff600d6040600020015460081c1661191c5760405191826101e08101106001600160401b036101e085011117610cda576101e0830160405285835260018060a01b038516602084015260018060a01b0384166040840152866060840152608083015260a082015260a43560c082015260c43560e08201524261010082015260e4356101208201526101043561014082015261012435610160820152600061018082015260006101a082015260016101c08201528360005260036020526040600020815181556001810160018060a01b03602084015116906bffffffffffffffffffffffff60a01b9182825416179055600282019060018060a01b036040850151169082541617905560608201518051906001600160401b038211610cda57819061135360038501546123b1565b601f81116118e7575b50602090601f83116001146118755760009261186a575b50508160011b916000199060031b1c19161760038201555b60808201518051906001600160401b038211610cda5781906113b060048501546123b1565b601f8111611835575b50602090601f83116001146117c3576000926117b8575b50508160011b916000199060031b1c19161760048201555b60a08201518051906001600160401b038211610cda5761140b60058401546123b1565b601f8111611783575b50602090601f831160011461171057600d93929160009183611705575b50508160011b916000199060031b1c19161760058201555b60c0830151600682015560e0830151600782015561010083015160088201556101208301516009820155610140830151600a820155610160830151600b820155610180830151600c82015501906101a08101519060048210156101e557602096836101c06115e7936114dd7f099b6e7580b5e1d29d5758e803e27bc7803c885d863eaf29fb91e124d37022e0968b98612bdc565b0151815461ff00191690151560081b61ff00161790556001600160a01b03851660009081526005895260409020611515908590612bf4565b60018060a01b03861660005260068852611533846040600020612bf4565b61153e600854612c29565b6008557ff8cd32ed93fc2f9fc78152a14807c9609af3d99c5fe4dc6b106a801aaddfe90e6000818152808a5260408082206001600160a01b038a1683528b5290205460ff1615611687575b507faf60a13a1620ed8606730e7105f2af60851db04bb2ce1a068e80262de457512a6000818152808a5260408082206001600160a01b03891683528b5290205460ff1615611609575b5060405191829160408352604083019061238c565b60a435828a01526001600160a01b0395861696909516940390a4604051908152f35b6000818152808a5260408082206001600160a01b03891683528b5290205460ff166115d2576000818152808a5260408082206001600160a01b038916808452908c52908220805460ff19166001179055339290917f2f8788117e7eff1d82e926ec794901d17c78024a50270940304540a733656f0d9080a4886115d2565b6000818152808a5260408082206001600160a01b038a1683528b5290205460ff16611589576000818152808a5260408082206001600160a01b038a16808452908c52908220805460ff19166001179055339290917f2f8788117e7eff1d82e926ec794901d17c78024a50270940304540a733656f0d9080a488611589565b015190508980611431565b906005840160005260206000209160005b601f198516811061176b5750918391600193600d9695601f19811610611752575b505050811b016005820155611449565b015160001960f88460031b161c19169055898080611742565b91926020600181928685015181550194019201611721565b6117b290600585016000526020600020601f850160051c81019160208610610cd057601f0160051c0190612bc5565b88611414565b0151905088806113d0565b9250600484016000526020600020906000935b601f198416851061181a576001945083601f19811610611801575b505050811b0160048201556113e8565b015160001960f88460031b161c191690558880806117f1565b818101518355602094850194600190930192909101906117d6565b61186490600486016000526020600020601f850160051c81019160208610610cd057601f0160051c0190612bc5565b896113b9565b015190508880611373565b9250600384016000526020600020906000935b601f19841685106118cc576001945083601f198116106118b3575b505050811b01600382015561138b565b015160001960f88460031b161c191690558880806118a3565b81810151835560209485019460019093019290910190611888565b61191690600386016000526020600020601f850160051c81019160208610610cd057601f0160051c0190612bc5565b8961135c565b60405162461bcd60e51b815260206004820152601760248201527f436f6e747261637420616c7265616479206578697374730000000000000000006044820152606490fd5b60405162461bcd60e51b8152602060048201526024808201527f44656c69766572792064617465206d75737420626520616674657220656e64206044820152636461746560e01b6064820152608490fd5b60405162461bcd60e51b8152602060048201526012602482015271496e76616c696420646174652072616e676560701b6044820152606490fd5b60405162461bcd60e51b815260206004820152601d60248201527f566f6c756d65206d7573742062652067726561746572207468616e20300000006044820152606490fd5b60405162461bcd60e51b815260206004820152601860248201527f496e76616c6964206578706f72746572206164647265737300000000000000006044820152606490fd5b60405162461bcd60e51b8152602060048201526015602482015274496e76616c6964206275796572206164647265737360581b6044820152606490fd5b346101fb5760403660031901126101fb57611acc612508565b600435600052600060205260406000209060018060a01b0316600052602052602060ff604060002054166040519015158152f35b346101fb5760003660031901126101fb576020600954604051908152f35b346101fb5760403660031901126101fb57611b3761251e565b6001600160a01b03166000908152600560205260409020805460243591908210156101fb576020916104f99161254b565b346101fb5760003660031901126101fb57611b816127f7565b611b89612c38565b600160ff1960025416176002557f62e78cea01bee320cd4e420270b5ea74000d11b0c9f74754ebdbfc544b05a2586020604051338152a1005b346101fb5760003660031901126101fb5760206040517ff8cd32ed93fc2f9fc78152a14807c9609af3d99c5fe4dc6b106a801aaddfe90e8152f35b346101fb5760003660031901126101fb57602060ff600254166040519015158152f35b346101fb5760203660031901126101fb5760043560005260036020526020611c696040600020611c5960ff600d83015460081c16612c7c565b600c600682015491015490612cc8565b604051908152f35b346101fb5760003660031901126101fb57611c8a6127f7565b60025460ff811615611cc95760ff19166002557f5db9ee0a495bf2e6ff9c91a7834c1ba4fdd244a5e8aa4e537bd38aeae4b073aa6020604051338152a1005b60405162461bcd60e51b815260206004820152601460248201527314185d5cd8589b194e881b9bdd081c185d5cd95960621b6044820152606490fd5b346101fb576020806003193601126101fb57600435906001600160401b0382116101fb57366023830112156101fb57816004013590611d4382612534565b92611d516040519485612406565b8284528184016024809460051b830101913683116101fb5784849101915b838310611e8e5750505050611d826125dc565b60005b835181101561054657611d988185612cd5565b51906040519163ff5e90d960e01b8352600483015282828581305afa8015611e8257600090611e48575b611dd09250611dd557612c29565b611d85565b611ddf8186612cd5565b51806000527f8f653db3ccbf47ee40d4981327f8f8312f93ed155f95a74b4e303c56e175fdf360406003808752600d826000200190611e3e825460ff93611e2a858360081c16612c7c565b60ff198216841790558451938491166125cf565b87820152a2612c29565b50908281813d8311611e7b575b611e5f8183612406565b810103126101fb57519081151582036101fb57611dd091611dc2565b503d611e55565b6040513d6000823e3d90fd5b8235815291810191849101611d6f565b346101fb5760403660031901126101fb57611eb7612508565b336001600160a01b03821603611ed35761054690600435612a25565b60405162461bcd60e51b815260206004820152602f60248201527f416363657373436f6e74726f6c3a2063616e206f6e6c792072656e6f756e636560448201526e103937b632b9903337b91039b2b63360891b6064820152608490fd5b346101fb576020806003193601126101fb576001600160a01b03611f5261251e565b1660005260068152604060002090604051908181845491828152019360005281600020916000905b828210611f91576104bc856105f381890382612406565b835486529485019460019384019390910190611f7a565b346101fb5760403660031901126101fb57600435611fc4612508565b816000526000602052611fde60016040600020015461291b565b81600052600060205260406000209060018060a01b0316908160005260205260ff604060002054161561200d57005b8160005260006020526040600020816000526020526040600020600160ff1982541617905533917f2f8788117e7eff1d82e926ec794901d17c78024a50270940304540a733656f0d600080a4005b346101fb576020806003193601126101fb5760043560005260078152604060002090604051908181845491828152019360005281600020916000905b8282106120ae576104bc856105f381890382612406565b835486529485019460019384019390910190612097565b346101fb5760203660031901126101fb5760043560005260046020526040600020805460018201549160ff61214d60028301549260038101546004820154600583015491600861211760078601612427565b94015496604051998a998a5260208a015260408901526060880152608087015260a08601526101208060c087015285019061238c565b6001600160a01b03831660e085015260a09290921c1615156101008301520390f35b346101fb5760203660031901126101fb5760043560005260006020526020600160406000200154604051908152f35b346101fb576020806003193601126101fb57600435600052600481526040600020600881015460ff8160a01c161561229d57600191828101549260028201549160038101546004820154906005830154926006810160405180968b83549283815201926000528b6000209160005b8d82821061228a5750505050509161223c60078795936122366122769a9961226899970388612406565b01612427565b956040519a8b9a8b528a01526040890152606088015260808701526101008060a0880152860190612335565b9084820360c086015261238c565b6001600160a01b0390911660e08301520390f35b845486529094019392820192820161220c565b60405162461bcd60e51b815260048101849052601760248201527f4669786174696f6e20646f6573206e6f742065786973740000000000000000006044820152606490fd5b346101fb5760203660031901126101fb576004359063ffffffff60e01b82168092036101fb57602091637965db0b60e01b8114908115612324575b5015158152f35b6301ffc9a760e01b1490508361231d565b90815180825260208080930193019160005b828110612355575050505090565b835185529381019392810192600101612347565b60005b83811061237c5750506000910152565b818101518382015260200161236c565b906020916123a581518092818552858086019101612369565b601f01601f1916010190565b90600182811c921680156123e1575b60208310146123cb57565b634e487b7160e01b600052602260045260246000fd5b91607f16916123c0565b608081019081106001600160401b03821117610cda57604052565b90601f801991011681019081106001600160401b03821117610cda57604052565b906040519182600082549261243b846123b1565b9081845260019485811690816000146124aa5750600114612467575b505061246592500383612406565b565b9093915060005260209081600020936000915b81831061249257505061246593508201013880612457565b8554888401850152948501948794509183019161247a565b91505061246594506020925060ff191682840152151560051b8201013880612457565b6020908160408183019282815285518094520193019160005b8281106124f4575050505090565b8351855293810193928101926001016124e6565b602435906001600160a01b03821682036101fb57565b600435906001600160a01b03821682036101fb57565b6001600160401b038111610cda5760051b60200190565b80548210156125635760005260206000200190600090565b634e487b7160e01b600052603260045260246000fd5b81601f820112156101fb578035906001600160401b038211610cda57604051926125ad601f8401601f191660200185612406565b828452602083830101116101fb57816000926020809301838601378301015290565b9060048210156101e55752565b3360009081527fee57cd81e84075558e8fcc182a1f4393f91fc97f963a136e66b7f949a62f319f602090815260408083205490927f97667070c54ef182b0f5858b034beac1b6f3089aa2d3188bb1e8929f4fa9b9299160ff16156126405750505050565b61264933612ab7565b91845190612656826123eb565b604282528482019260603685378251156127e357603084538251906001918210156127e35790607860218501536041915b8183116127755750505061273357604861272f93869361271393612704985198899376020b1b1b2b9b9a1b7b73a3937b61d1030b1b1b7bab73a1604d1b8a8601526126db815180928c603789019101612369565b8401917001034b99036b4b9b9b4b733903937b6329607d1b603784015251809386840190612369565b01036028810187520185612406565b5192839262461bcd60e51b84526004840152602483019061238c565b0390fd5b60648486519062461bcd60e51b825280600483015260248201527f537472696e67733a20686578206c656e67746820696e73756666696369656e746044820152fd5b909192600f811660108110156127cf576f181899199a1a9b1b9c1cb0b131b232b360811b901a6127a58587612aa6565b5360041c9280156127bb57600019019190612687565b634e487b7160e01b82526011600452602482fd5b634e487b7160e01b83526032600452602483fd5b634e487b7160e01b81526032600452602490fd5b3360009081527fad3228b676f7d3cd4284a5443f17f1962b36e491b30a40b2405849e597ba5fb5602090815260408083205490929060ff161561283957505050565b61284233612ab7565b9080845190612850826123eb565b604282528482019260603685378251156127e357603084538251906001918210156127e35790607860218501536041915b8183116128d55750505061273357604861272f93869361271393612704985198899376020b1b1b2b9b9a1b7b73a3937b61d1030b1b1b7bab73a1604d1b8a8601526126db815180928c603789019101612369565b909192600f811660108110156127cf576f181899199a1a9b1b9c1cb0b131b232b360811b901a6129058587612aa6565b5360041c9280156127bb57600019019190612881565b600090808252602090828252604092838120338252835260ff8482205416156129445750505050565b61294d33612ab7565b9184519061295a826123eb565b604282528482019260603685378251156127e357603084538251906001918210156127e35790607860218501536041915b8183116129df5750505061273357604861272f93869361271393612704985198899376020b1b1b2b9b9a1b7b73a3937b61d1030b1b1b7bab73a1604d1b8a8601526126db815180928c603789019101612369565b909192600f811660108110156127cf576f181899199a1a9b1b9c1cb0b131b232b360811b901a612a0f8587612aa6565b5360041c9280156127bb5760001901919061298b565b9060009180835282602052604083209160018060a01b03169182845260205260ff604084205416612a5557505050565b80835282602052604083208284526020526040832060ff1981541690557ff6391f5c32d9c69d2a47ea670b442974b53935d1edc7fd64eb21e047a839171b339380a4565b91908201809211610de857565b908151811015612563570160200190565b60405190606082018281106001600160401b03821117610cda57604052602a82526020820160403682378251156125635760309053815160019081101561256357607860218401536029905b808211612b57575050612b135790565b606460405162461bcd60e51b815260206004820152602060248201527f537472696e67733a20686578206c656e67746820696e73756666696369656e746044820152fd5b9091600f81166010811015612bb0576f181899199a1a9b1b9c1cb0b131b232b360811b901a612b868486612aa6565b5360041c918015612b9b576000190190612b03565b60246000634e487b7160e01b81526011600452fd5b60246000634e487b7160e01b81526032600452fd5b818110612bd0575050565b60008155600101612bc5565b9060048110156101e55760ff80198354169116179055565b8054600160401b811015610cda57612c119160018201815561254b565b819291549060031b91821b91600019901b1916179055565b6000198114610de85760010190565b60ff60025416612c4457565b60405162461bcd60e51b815260206004820152601060248201526f14185d5cd8589b194e881c185d5cd95960821b6044820152606490fd5b15612c8357565b60405162461bcd60e51b815260206004820152601760248201527f436f6e747261637420646f6573206e6f742065786973740000000000000000006044820152606490fd5b91908203918211610de857565b80518210156125635760209160051b01019056fea2646970667358221220a2cf1273c2fb637889d20d73cce962af944d14d70f970bd1f179b4eb6b45d22a64736f6c634300081300332f8788117e7eff1d82e926ec794901d17c78024a50270940304540a733656f0d","opcodes":"PUSH1 0x80 PUSH1 0x40 DUP2 DUP2 MSTORE CALLVALUE PUSH3 0xF8 JUMPI PUSH1 0x1 DUP1 SSTORE PUSH1 0xFF NOT DUP1 PUSH1 0x2 SLOAD AND PUSH1 0x2 SSTORE PUSH1 0x0 SWAP1 DUP2 DUP1 MSTORE PUSH1 0x20 DUP3 DUP2 MSTORE DUP4 DUP4 KECCAK256 CALLER DUP5 MSTORE DUP2 MSTORE PUSH1 0xFF DUP5 DUP5 KECCAK256 SLOAD AND ISZERO PUSH3 0xC2 JUMPI JUMPDEST PUSH32 0x97667070C54EF182B0F5858B034BEAC1B6F3089AA2D3188BB1E8929F4FA9B929 SWAP4 DUP5 DUP5 MSTORE DUP4 DUP3 MSTORE DUP1 DUP5 KECCAK256 CALLER DUP6 MSTORE DUP3 MSTORE PUSH1 0xFF DUP2 DUP6 KECCAK256 SLOAD AND ISZERO PUSH3 0x87 JUMPI JUMPDEST PUSH2 0x2D1F DUP7 DUP2 PUSH3 0xFE DUP3 CODECOPY RETURN JUMPDEST PUSH1 0x1 SWAP2 DUP6 DUP6 MSTORE DUP5 DUP2 MSTORE DUP2 DUP6 KECCAK256 SWAP1 CALLER DUP7 MSTORE MSTORE DUP4 KECCAK256 SWAP2 DUP3 SLOAD AND OR SWAP1 SSTORE CALLER SWAP2 PUSH1 0x0 DUP1 MLOAD PUSH1 0x20 PUSH3 0x2E1D DUP4 CODECOPY DUP2 MLOAD SWAP2 MSTORE CALLER SWAP3 DUP1 LOG4 CODESIZE DUP1 DUP1 DUP1 DUP1 PUSH3 0x7A JUMP JUMPDEST DUP3 DUP1 MSTORE DUP3 DUP2 MSTORE DUP4 DUP4 KECCAK256 CALLER DUP5 MSTORE DUP2 MSTORE DUP4 DUP4 KECCAK256 PUSH1 0x1 DUP4 DUP3 SLOAD AND OR SWAP1 SSTORE CALLER CALLER DUP5 PUSH1 0x0 DUP1 MLOAD PUSH1 0x20 PUSH3 0x2E1D DUP4 CODECOPY DUP2 MLOAD SWAP2 MSTORE DUP2 DUP1 LOG4 PUSH3 0x3C JUMP JUMPDEST PUSH1 0x0 DUP1 REVERT INVALID PUSH1 0x80 DUP1 PUSH1 0x40 MSTORE PUSH1 0x4 CALLDATASIZE LT ISZERO PUSH2 0x13 JUMPI PUSH1 0x0 DUP1 REVERT JUMPDEST PUSH1 0x0 CALLDATALOAD PUSH1 0xE0 SHR SWAP1 DUP2 PUSH4 0x1FFC9A7 EQ PUSH2 0x22E2 JUMPI POP DUP1 PUSH4 0x2380D787 EQ PUSH2 0x219E JUMPI DUP1 PUSH4 0x248A9CA3 EQ PUSH2 0x216F JUMPI DUP1 PUSH4 0x26519E3B EQ PUSH2 0x20C5 JUMPI DUP1 PUSH4 0x2B879360 EQ PUSH2 0x205B JUMPI DUP1 PUSH4 0x2F2FF15D EQ PUSH2 0x1FA8 JUMPI DUP1 PUSH4 0x33897E52 EQ PUSH2 0x1F30 JUMPI DUP1 PUSH4 0x36568ABE EQ PUSH2 0x1E9E JUMPI DUP1 PUSH4 0x37311510 EQ PUSH2 0x1D05 JUMPI DUP1 PUSH4 0x3F4BA83A EQ PUSH2 0x1C71 JUMPI DUP1 PUSH4 0x4DC5E237 EQ PUSH2 0x1C20 JUMPI DUP1 PUSH4 0x5C975ABB EQ PUSH2 0x1BFD JUMPI DUP1 PUSH4 0x7A01A1DA EQ PUSH2 0x1BC2 JUMPI DUP1 PUSH4 0x8456CB59 EQ PUSH2 0x1B68 JUMPI DUP1 PUSH4 0x851C79BF EQ PUSH2 0x1B1E JUMPI DUP1 PUSH4 0x9100C28F EQ PUSH2 0x1B00 JUMPI DUP1 PUSH4 0x91D14854 EQ PUSH2 0x1AB3 JUMPI DUP1 PUSH4 0x9CB977F8 EQ PUSH2 0x10E4 JUMPI DUP1 PUSH4 0xA09037A9 EQ PUSH2 0x10C6 JUMPI DUP1 PUSH4 0xA217FDDF EQ PUSH2 0x10AA JUMPI DUP1 PUSH4 0xA3662C4B EQ PUSH2 0x6E0 JUMPI DUP1 PUSH4 0xB70E3A93 EQ PUSH2 0x64A JUMPI DUP1 PUSH4 0xC59D4847 EQ PUSH2 0x616 JUMPI DUP1 PUSH4 0xC6C49A36 EQ PUSH2 0x592 JUMPI DUP1 PUSH4 0xCE25DADE EQ PUSH2 0x548 JUMPI DUP1 PUSH4 0xD547741F EQ PUSH2 0x507 JUMPI DUP1 PUSH4 0xDD8BC056 EQ PUSH2 0x4C0 JUMPI DUP1 PUSH4 0xE16C7D98 EQ PUSH2 0x39E JUMPI DUP1 PUSH4 0xEC56A373 EQ PUSH2 0x276 JUMPI DUP1 PUSH4 0xF2A6A241 EQ PUSH2 0x23B JUMPI DUP1 PUSH4 0xF5B541A6 EQ PUSH2 0x200 JUMPI PUSH4 0xFF5E90D9 EQ PUSH2 0x17F JUMPI PUSH1 0x0 DUP1 REVERT JUMPDEST CALLVALUE PUSH2 0x1FB JUMPI PUSH1 0x20 CALLDATASIZE PUSH1 0x3 NOT ADD SLT PUSH2 0x1FB JUMPI PUSH1 0x4 CALLDATALOAD PUSH1 0x0 MSTORE PUSH1 0x3 PUSH1 0x20 MSTORE PUSH1 0x40 PUSH1 0x0 KECCAK256 PUSH1 0xA PUSH1 0xD DUP3 ADD SLOAD SWAP2 PUSH2 0x1B7 PUSH1 0xFF DUP5 PUSH1 0x8 SHR AND PUSH2 0x2C7C JUMP JUMPDEST ADD SLOAD TIMESTAMP GT SWAP1 DUP2 PUSH2 0x1CF JUMPI JUMPDEST PUSH1 0x20 DUP3 PUSH1 0x40 MLOAD SWAP1 ISZERO ISZERO DUP2 MSTORE RETURN JUMPDEST PUSH1 0xFF SWAP2 POP AND PUSH1 0x4 DUP2 LT ISZERO PUSH2 0x1E5 JUMPI ISZERO PUSH1 0x20 PUSH2 0x1C2 JUMP JUMPDEST PUSH4 0x4E487B71 PUSH1 0xE0 SHL PUSH1 0x0 MSTORE PUSH1 0x21 PUSH1 0x4 MSTORE PUSH1 0x24 PUSH1 0x0 REVERT JUMPDEST PUSH1 0x0 DUP1 REVERT JUMPDEST CALLVALUE PUSH2 0x1FB JUMPI PUSH1 0x0 CALLDATASIZE PUSH1 0x3 NOT ADD SLT PUSH2 0x1FB JUMPI PUSH1 0x20 PUSH1 0x40 MLOAD PUSH32 0x97667070C54EF182B0F5858B034BEAC1B6F3089AA2D3188BB1E8929F4FA9B929 DUP2 MSTORE RETURN JUMPDEST CALLVALUE PUSH2 0x1FB JUMPI PUSH1 0x0 CALLDATASIZE PUSH1 0x3 NOT ADD SLT PUSH2 0x1FB JUMPI PUSH1 0x20 PUSH1 0x40 MLOAD PUSH32 0xAF60A13A1620ED8606730E7105F2AF60851DB04BB2CE1A068E80262DE457512A DUP2 MSTORE RETURN JUMPDEST CALLVALUE PUSH2 0x1FB JUMPI PUSH1 0x20 CALLDATASIZE PUSH1 0x3 NOT ADD SLT PUSH2 0x1FB JUMPI PUSH1 0x4 CALLDATALOAD PUSH1 0x0 MSTORE PUSH1 0x3 PUSH1 0x20 MSTORE PUSH1 0x40 PUSH1 0x0 KECCAK256 DUP1 SLOAD PUSH1 0x1 PUSH1 0xA0 SHL PUSH1 0x1 SWAP1 SUB SWAP2 DUP3 PUSH1 0x1 DUP3 ADD SLOAD AND SWAP3 PUSH1 0x2 DUP3 ADD SLOAD AND PUSH1 0x3 DUP3 ADD PUSH2 0x2BE SWAP1 PUSH2 0x2427 JUMP JUMPDEST SWAP2 PUSH2 0x2CB PUSH1 0x4 DUP3 ADD PUSH2 0x2427 JUMP JUMPDEST SWAP3 PUSH2 0x2D8 PUSH1 0x5 DUP4 ADD PUSH2 0x2427 JUMP JUMPDEST SWAP4 PUSH1 0x6 DUP4 ADD SLOAD SWAP5 PUSH1 0x7 DUP5 ADD SLOAD PUSH1 0x8 DUP6 ADD SLOAD SWAP1 PUSH1 0x9 DUP7 ADD SLOAD SWAP3 PUSH1 0xA DUP8 ADD SLOAD SWAP5 PUSH1 0xB DUP9 ADD SLOAD SWAP7 PUSH1 0xC DUP10 ADD SLOAD SWAP9 PUSH1 0xD ADD SLOAD SWAP10 PUSH1 0x40 MLOAD SWAP14 DUP15 DUP1 SWAP15 DUP2 MSTORE PUSH1 0x20 ADD MSTORE PUSH1 0x40 DUP14 ADD MSTORE DUP12 PUSH2 0x1E0 PUSH1 0x60 DUP2 SWAP3 ADD MSTORE DUP13 ADD PUSH2 0x32E SWAP2 PUSH2 0x238C JUMP JUMPDEST DUP12 DUP2 SUB PUSH1 0x80 DUP14 ADD MSTORE PUSH2 0x33F SWAP2 PUSH2 0x238C JUMP JUMPDEST DUP11 DUP2 SUB PUSH1 0xA0 DUP13 ADD MSTORE PUSH2 0x350 SWAP2 PUSH2 0x238C JUMP JUMPDEST SWAP8 PUSH1 0xC0 DUP11 ADD MSTORE PUSH1 0xE0 DUP10 ADD MSTORE PUSH2 0x100 DUP9 ADD MSTORE PUSH2 0x120 DUP8 ADD MSTORE PUSH2 0x140 DUP7 ADD MSTORE PUSH2 0x160 DUP6 ADD MSTORE PUSH2 0x180 DUP5 ADD MSTORE PUSH2 0x1A0 DUP4 ADD PUSH1 0xFF DUP3 AND SWAP1 PUSH2 0x38C SWAP2 PUSH2 0x25CF JUMP JUMPDEST PUSH1 0x8 SHR PUSH1 0xFF AND ISZERO ISZERO PUSH2 0x1C0 DUP4 ADD MSTORE SUB SWAP1 RETURN JUMPDEST CALLVALUE PUSH2 0x1FB JUMPI PUSH1 0x20 CALLDATASIZE PUSH1 0x3 NOT ADD SLT PUSH2 0x1FB JUMPI PUSH1 0x4 CALLDATALOAD PUSH1 0x0 MSTORE PUSH1 0x3 PUSH1 0x20 MSTORE PUSH1 0x40 PUSH1 0x0 KECCAK256 PUSH1 0xD DUP2 ADD SLOAD SWAP1 DUP2 PUSH1 0x8 SHR PUSH1 0xFF AND PUSH2 0x3D5 SWAP1 PUSH2 0x2C7C JUMP JUMPDEST PUSH1 0x1 PUSH1 0xA0 SHL PUSH1 0x1 SWAP1 SUB SWAP1 DUP2 PUSH1 0x1 DUP3 ADD SLOAD AND SWAP2 PUSH1 0x2 DUP3 ADD SLOAD AND SWAP3 PUSH1 0x6 DUP3 ADD SLOAD SWAP2 PUSH1 0x7 DUP2 ADD SLOAD PUSH1 0x8 DUP3 ADD SLOAD PUSH1 0x9 DUP4 ADD SLOAD PUSH1 0xA DUP5 ADD SLOAD SWAP2 PUSH1 0xB DUP6 ADD SLOAD SWAP4 PUSH1 0xC DUP7 ADD SLOAD SWAP6 PUSH1 0x3 DUP2 ADD PUSH2 0x422 SWAP1 PUSH2 0x2427 JUMP JUMPDEST SWAP1 PUSH2 0x42F PUSH1 0x4 DUP3 ADD PUSH2 0x2427 JUMP JUMPDEST SWAP1 PUSH1 0x5 ADD PUSH2 0x43C SWAP1 PUSH2 0x2427 JUMP JUMPDEST SWAP2 PUSH1 0x40 MLOAD SWAP13 DUP14 SWAP13 DUP14 MSTORE PUSH1 0x20 DUP14 ADD MSTORE DUP12 PUSH2 0x1A0 PUSH1 0x40 DUP2 SWAP3 ADD MSTORE DUP13 ADD PUSH2 0x45F SWAP2 PUSH2 0x238C JUMP JUMPDEST DUP12 DUP2 SUB PUSH1 0x60 DUP14 ADD MSTORE PUSH2 0x470 SWAP2 PUSH2 0x238C JUMP JUMPDEST DUP11 DUP2 SUB PUSH1 0x80 DUP13 ADD MSTORE PUSH2 0x481 SWAP2 PUSH2 0x238C JUMP JUMPDEST SWAP8 PUSH1 0xA0 DUP11 ADD MSTORE PUSH1 0xC0 DUP10 ADD MSTORE PUSH1 0xE0 DUP9 ADD MSTORE PUSH2 0x100 DUP8 ADD MSTORE PUSH2 0x120 DUP7 ADD MSTORE PUSH2 0x140 DUP6 ADD MSTORE PUSH2 0x160 DUP5 ADD MSTORE PUSH2 0x180 DUP4 ADD SWAP1 PUSH1 0xFF AND SWAP1 PUSH2 0x4BC SWAP2 PUSH2 0x25CF JUMP JUMPDEST SUB SWAP1 RETURN JUMPDEST CALLVALUE PUSH2 0x1FB JUMPI PUSH1 0x40 CALLDATASIZE PUSH1 0x3 NOT ADD SLT PUSH2 0x1FB JUMPI PUSH1 0x24 CALLDATALOAD PUSH1 0x4 CALLDATALOAD PUSH1 0x0 MSTORE PUSH1 0x7 PUSH1 0x20 MSTORE PUSH1 0x40 PUSH1 0x0 KECCAK256 DUP1 SLOAD DUP3 LT ISZERO PUSH2 0x1FB JUMPI PUSH1 0x20 SWAP2 PUSH2 0x4F9 SWAP2 PUSH2 0x254B JUMP JUMPDEST SWAP1 SLOAD PUSH1 0x40 MLOAD SWAP2 PUSH1 0x3 SHL SHR DUP2 MSTORE RETURN JUMPDEST CALLVALUE PUSH2 0x1FB JUMPI PUSH1 0x40 CALLDATASIZE PUSH1 0x3 NOT ADD SLT PUSH2 0x1FB JUMPI PUSH2 0x546 PUSH1 0x4 CALLDATALOAD PUSH2 0x526 PUSH2 0x2508 JUMP JUMPDEST SWAP1 DUP1 PUSH1 0x0 MSTORE PUSH1 0x0 PUSH1 0x20 MSTORE PUSH2 0x541 PUSH1 0x1 PUSH1 0x40 PUSH1 0x0 KECCAK256 ADD SLOAD PUSH2 0x291B JUMP JUMPDEST PUSH2 0x2A25 JUMP JUMPDEST STOP JUMPDEST CALLVALUE PUSH2 0x1FB JUMPI PUSH1 0x40 CALLDATASIZE PUSH1 0x3 NOT ADD SLT PUSH2 0x1FB JUMPI PUSH2 0x561 PUSH2 0x251E JUMP JUMPDEST PUSH1 0x1 PUSH1 0x1 PUSH1 0xA0 SHL SUB AND PUSH1 0x0 SWAP1 DUP2 MSTORE PUSH1 0x6 PUSH1 0x20 MSTORE PUSH1 0x40 SWAP1 KECCAK256 DUP1 SLOAD PUSH1 0x24 CALLDATALOAD SWAP2 SWAP1 DUP3 LT ISZERO PUSH2 0x1FB JUMPI PUSH1 0x20 SWAP2 PUSH2 0x4F9 SWAP2 PUSH2 0x254B JUMP JUMPDEST CALLVALUE PUSH2 0x1FB JUMPI PUSH1 0x20 DUP1 PUSH1 0x3 NOT CALLDATASIZE ADD SLT PUSH2 0x1FB JUMPI PUSH1 0x1 PUSH1 0x1 PUSH1 0xA0 SHL SUB PUSH2 0x5B4 PUSH2 0x251E JUMP JUMPDEST AND PUSH1 0x0 MSTORE PUSH1 0x5 DUP2 MSTORE PUSH1 0x40 PUSH1 0x0 KECCAK256 SWAP1 PUSH1 0x40 MLOAD SWAP1 DUP2 DUP2 DUP5 SLOAD SWAP2 DUP3 DUP2 MSTORE ADD SWAP4 PUSH1 0x0 MSTORE DUP2 PUSH1 0x0 KECCAK256 SWAP2 PUSH1 0x0 SWAP1 JUMPDEST DUP3 DUP3 LT PUSH2 0x5FF JUMPI PUSH2 0x4BC DUP6 PUSH2 0x5F3 DUP2 DUP10 SUB DUP3 PUSH2 0x2406 JUMP JUMPDEST PUSH1 0x40 MLOAD SWAP2 DUP3 SWAP2 DUP3 PUSH2 0x24CD JUMP JUMPDEST DUP4 SLOAD DUP7 MSTORE SWAP5 DUP6 ADD SWAP5 PUSH1 0x1 SWAP4 DUP5 ADD SWAP4 SWAP1 SWAP2 ADD SWAP1 PUSH2 0x5DC JUMP JUMPDEST CALLVALUE PUSH2 0x1FB JUMPI PUSH1 0x0 CALLDATASIZE PUSH1 0x3 NOT ADD SLT PUSH2 0x1FB JUMPI PUSH1 0x80 PUSH1 0x8 SLOAD PUSH1 0x9 SLOAD PUSH1 0x40 MLOAD SWAP2 DUP3 MSTORE PUSH1 0x20 DUP3 ADD MSTORE PUSH1 0x0 PUSH1 0x40 DUP3 ADD MSTORE PUSH1 0x0 PUSH1 0x60 DUP3 ADD MSTORE RETURN JUMPDEST CALLVALUE PUSH2 0x1FB JUMPI PUSH1 0x40 CALLDATASIZE PUSH1 0x3 NOT ADD SLT PUSH2 0x1FB JUMPI PUSH1 0x4 CALLDATALOAD PUSH1 0x24 CALLDATALOAD PUSH1 0x4 DUP2 LT ISZERO PUSH2 0x1FB JUMPI PUSH1 0x40 PUSH1 0xFF PUSH2 0x6DD PUSH32 0x8F653DB3CCBF47EE40D4981327F8F8312F93ED155F95A74B4E303C56E175FDF3 SWAP4 PUSH2 0x69B PUSH2 0x25DC JUMP JUMPDEST DUP6 PUSH1 0x0 MSTORE PUSH1 0x3 PUSH1 0x20 MSTORE PUSH2 0x6D3 PUSH1 0xD DUP6 PUSH1 0x0 KECCAK256 ADD PUSH2 0x6C8 DUP4 DUP3 SLOAD SWAP3 PUSH2 0x6C3 DUP9 DUP6 PUSH1 0x8 SHR AND PUSH2 0x2C7C JUMP JUMPDEST PUSH2 0x2BDC JUMP JUMPDEST DUP6 MLOAD SWAP5 DUP6 SWAP2 AND PUSH2 0x25CF JUMP JUMPDEST PUSH1 0x20 DUP4 ADD SWAP1 PUSH2 0x25CF JUMP JUMPDEST LOG2 STOP JUMPDEST CALLVALUE PUSH2 0x1FB JUMPI PUSH1 0xA0 CALLDATASIZE PUSH1 0x3 NOT ADD SLT PUSH2 0x1FB JUMPI PUSH1 0x64 CALLDATALOAD PUSH1 0x1 PUSH1 0x1 PUSH1 0x40 SHL SUB DUP2 GT PUSH2 0x1FB JUMPI CALLDATASIZE PUSH1 0x23 DUP3 ADD SLT ISZERO PUSH2 0x1FB JUMPI DUP1 PUSH1 0x4 ADD CALLDATALOAD SWAP1 PUSH2 0x71C DUP3 PUSH2 0x2534 JUMP JUMPDEST SWAP2 PUSH2 0x72A PUSH1 0x40 MLOAD SWAP4 DUP5 PUSH2 0x2406 JUMP JUMPDEST DUP1 DUP4 MSTORE PUSH1 0x24 PUSH1 0x20 DUP5 ADD SWAP2 PUSH1 0x5 SHL DUP4 ADD ADD SWAP2 CALLDATASIZE DUP4 GT PUSH2 0x1FB JUMPI PUSH1 0x24 ADD SWAP1 JUMPDEST DUP3 DUP3 LT PUSH2 0x109A JUMPI DUP4 PUSH1 0x84 CALLDATALOAD PUSH1 0x1 PUSH1 0x1 PUSH1 0x40 SHL SUB DUP2 GT PUSH2 0x1FB JUMPI PUSH2 0x76E SWAP1 CALLDATASIZE SWAP1 PUSH1 0x4 ADD PUSH2 0x2579 JUMP JUMPDEST SWAP1 PUSH2 0x777 PUSH2 0x2C38 JUMP JUMPDEST PUSH1 0x4 CALLDATALOAD PUSH1 0x0 MSTORE PUSH1 0x3 PUSH1 0x20 MSTORE PUSH1 0x40 PUSH1 0x0 KECCAK256 SWAP1 PUSH1 0xFF PUSH1 0xD DUP4 ADD SLOAD PUSH2 0x79D DUP3 DUP3 PUSH1 0x8 SHR AND PUSH2 0x2C7C JUMP JUMPDEST AND PUSH1 0x4 DUP2 LT ISZERO PUSH2 0x1E5 JUMPI PUSH2 0x105F JUMPI CALLER PUSH1 0x0 SWAP1 DUP2 MSTORE PUSH32 0x718AD431C81A35702F677DF6EC573A839EDA3D7F28CAE8AB8B4DA05BF770462F PUSH1 0x20 MSTORE PUSH1 0x40 SWAP1 KECCAK256 SLOAD PUSH32 0xAF60A13A1620ED8606730E7105F2AF60851DB04BB2CE1A068E80262DE457512A SWAP1 PUSH1 0xFF AND DUP1 ISZERO PUSH2 0x1027 JUMPI JUMPDEST ISZERO PUSH2 0xFD6 JUMPI PUSH1 0x0 MSTORE PUSH1 0x0 PUSH1 0x20 MSTORE PUSH1 0x40 PUSH1 0x0 KECCAK256 CALLER PUSH1 0x0 MSTORE PUSH1 0x20 MSTORE PUSH1 0xFF PUSH1 0x40 PUSH1 0x0 KECCAK256 SLOAD AND PUSH2 0xF7D JUMPI JUMPDEST PUSH1 0x24 CALLDATALOAD ISZERO PUSH2 0xF2A JUMPI PUSH1 0x44 CALLDATALOAD ISZERO PUSH2 0xEDB JUMPI PUSH2 0x850 PUSH1 0x6 DUP4 ADD SLOAD PUSH1 0xC DUP5 ADD SLOAD SWAP1 PUSH2 0x2CC8 JUMP JUMPDEST PUSH1 0x24 CALLDATALOAD GT PUSH2 0xE88 JUMPI PUSH1 0x9 DUP3 ADD SLOAD TIMESTAMP LT PUSH2 0xE43 JUMPI PUSH1 0xA DUP3 ADD SLOAD TIMESTAMP GT PUSH2 0xDFE JUMPI PUSH1 0x7 DUP3 ADD SLOAD PUSH1 0x0 DUP2 SLT PUSH2 0xD6C JUMPI PUSH2 0x887 SWAP1 PUSH1 0x44 CALLDATALOAD PUSH2 0x2A99 JUMP JUMPDEST PUSH1 0x9 SLOAD SWAP3 PUSH1 0x40 MLOAD SWAP4 PUSH1 0x4 CALLDATALOAD PUSH1 0x20 DUP7 ADD MSTORE PUSH1 0x24 CALLDATALOAD PUSH1 0x40 DUP7 ADD MSTORE PUSH1 0x44 CALLDATALOAD PUSH1 0x60 DUP7 ADD MSTORE TIMESTAMP PUSH1 0x80 DUP7 ADD MSTORE PUSH1 0xA0 DUP6 ADD MSTORE PUSH1 0xA0 DUP5 MSTORE DUP4 PUSH1 0xC0 DUP2 ADD LT PUSH1 0x1 PUSH1 0x1 PUSH1 0x40 SHL SUB PUSH1 0xC0 DUP7 ADD GT OR PUSH2 0xCDA JUMPI PUSH1 0xC0 DUP5 ADD PUSH1 0x40 MSTORE DUP4 MLOAD PUSH1 0x20 DUP6 ADD KECCAK256 SWAP4 DUP5 PUSH1 0x0 MSTORE PUSH1 0x4 PUSH1 0x20 MSTORE PUSH1 0xFF PUSH1 0x8 PUSH1 0x40 PUSH1 0x0 KECCAK256 ADD SLOAD PUSH1 0xA0 SHR AND PUSH2 0xD24 JUMPI POP PUSH1 0x40 MLOAD SWAP5 DUP6 PUSH2 0x140 DUP2 ADD LT PUSH1 0x1 PUSH1 0x1 PUSH1 0x40 SHL SUB PUSH2 0x140 DUP9 ADD GT OR PUSH2 0xCDA JUMPI PUSH2 0x140 DUP7 ADD PUSH1 0x40 MSTORE DUP5 DUP7 MSTORE PUSH1 0x4 CALLDATALOAD PUSH1 0x20 DUP8 ADD MSTORE PUSH1 0x24 CALLDATALOAD PUSH1 0x40 DUP8 ADD MSTORE PUSH1 0x44 CALLDATALOAD PUSH1 0x60 DUP8 ADD MSTORE DUP3 PUSH1 0x80 DUP8 ADD MSTORE TIMESTAMP PUSH1 0xA0 DUP8 ADD MSTORE DUP4 PUSH1 0xC0 DUP8 ADD MSTORE PUSH1 0xE0 DUP7 ADD MSTORE CALLER PUSH2 0x100 DUP7 ADD MSTORE PUSH1 0x1 PUSH2 0x120 DUP7 ADD MSTORE DUP4 PUSH1 0x0 MSTORE PUSH1 0x4 PUSH1 0x20 MSTORE PUSH1 0x40 PUSH1 0x0 KECCAK256 SWAP2 DUP6 MLOAD DUP4 SSTORE PUSH1 0x20 DUP7 ADD MLOAD PUSH1 0x1 DUP5 ADD SSTORE PUSH1 0x40 DUP7 ADD MLOAD PUSH1 0x2 DUP5 ADD SSTORE PUSH1 0x60 DUP7 ADD MLOAD PUSH1 0x3 DUP5 ADD SSTORE PUSH1 0x80 DUP7 ADD MLOAD PUSH1 0x4 DUP5 ADD SSTORE PUSH1 0xA0 DUP7 ADD MLOAD PUSH1 0x5 DUP5 ADD SSTORE PUSH1 0xC0 DUP7 ADD MLOAD DUP1 MLOAD SWAP1 PUSH1 0x1 PUSH1 0x1 PUSH1 0x40 SHL SUB DUP3 GT PUSH2 0xCDA JUMPI PUSH1 0x1 PUSH1 0x40 SHL DUP3 GT PUSH2 0xCDA JUMPI PUSH1 0x20 SWAP1 PUSH1 0x6 DUP7 ADD SLOAD DUP4 PUSH1 0x6 DUP9 ADD SSTORE DUP1 DUP5 LT PUSH2 0xD04 JUMPI JUMPDEST POP ADD PUSH1 0x6 DUP6 ADD PUSH1 0x0 MSTORE PUSH1 0x20 PUSH1 0x0 KECCAK256 PUSH1 0x0 JUMPDEST DUP4 DUP2 LT PUSH2 0xCF0 JUMPI POP POP POP POP PUSH1 0xE0 DUP7 ADD MLOAD SWAP2 DUP3 MLOAD SWAP7 PUSH1 0x1 PUSH1 0x1 PUSH1 0x40 SHL SUB DUP9 GT PUSH2 0xCDA JUMPI PUSH1 0x20 SWAP8 DUP8 SWAP5 PUSH2 0xA22 PUSH1 0x7 DUP9 ADD SLOAD PUSH2 0x23B1 JUMP JUMPDEST PUSH1 0x1F DUP2 GT PUSH2 0xC9C JUMPI JUMPDEST POP DUP10 SWAP1 PUSH1 0x1F DUP4 GT PUSH1 0x1 EQ PUSH2 0xC04 JUMPI SWAP2 DUP1 PUSH32 0xF08AFB8B6FC52012F5F4AD81E3FAA058D1AFFC795B7B72DD94AAA56D958D1F17 SWAP8 SWAP9 SWAP3 PUSH1 0x8 SWAP5 PUSH1 0x0 SWAP3 PUSH2 0xBF9 JUMPI JUMPDEST POP POP DUP2 PUSH1 0x1 SHL SWAP2 PUSH1 0x0 NOT SWAP1 PUSH1 0x3 SHL SHR NOT AND OR PUSH1 0x7 DUP3 ADD SSTORE JUMPDEST ADD SWAP1 PUSH1 0x1 DUP1 PUSH1 0xA0 SHL SUB PUSH2 0x100 DUP3 ADD MLOAD AND DUP3 SLOAD SWAP2 PUSH2 0x120 PUSH1 0xFF PUSH1 0xA0 SHL SWAP2 ADD MLOAD ISZERO ISZERO PUSH1 0xA0 SHL AND SWAP2 PUSH11 0xFFFFFFFFFFFFFFFFFFFFFF PUSH1 0xA8 SHL AND OR OR SWAP1 SSTORE PUSH2 0xACB PUSH1 0x24 CALLDATALOAD PUSH1 0xC DUP4 ADD SLOAD PUSH2 0x2A99 JUMP JUMPDEST PUSH1 0xC DUP3 ADD SSTORE PUSH1 0x4 CALLDATALOAD PUSH1 0x0 MSTORE PUSH1 0x7 DUP8 MSTORE PUSH2 0xAE8 DUP5 PUSH1 0x40 PUSH1 0x0 KECCAK256 PUSH2 0x2BF4 JUMP JUMPDEST PUSH2 0xAF3 PUSH1 0x9 SLOAD PUSH2 0x2C29 JUMP JUMPDEST PUSH1 0x9 SSTORE PUSH1 0xC DUP2 ADD SLOAD PUSH1 0x6 DUP3 ADD SLOAD GT ISZERO PUSH2 0xB41 JUMPI JUMPDEST POP PUSH1 0x40 MLOAD SWAP1 PUSH1 0x24 CALLDATALOAD DUP3 MSTORE PUSH1 0x44 CALLDATALOAD DUP8 DUP4 ADD MSTORE PUSH1 0x40 DUP3 ADD MSTORE PUSH1 0x80 PUSH1 0x60 DUP3 ADD MSTORE DUP1 PUSH2 0xB36 PUSH1 0x4 CALLDATALOAD SWAP6 PUSH1 0x80 DUP4 ADD SWAP1 PUSH2 0x2335 JUMP JUMPDEST SUB SWAP1 LOG3 PUSH1 0x40 MLOAD SWAP1 DUP2 MSTORE RETURN JUMPDEST PUSH1 0xC SWAP1 PUSH1 0x4 CALLDATALOAD PUSH1 0x0 MSTORE PUSH1 0x3 DUP9 MSTORE PUSH1 0xFF PUSH2 0xB81 PUSH1 0xD PUSH1 0x40 PUSH1 0x0 KECCAK256 ADD DUP1 SLOAD SWAP1 PUSH2 0xB6C DUP5 DUP4 PUSH1 0x8 SHR AND PUSH2 0x2C7C JUMP JUMPDEST PUSH1 0x1 DUP5 NOT DUP4 AND OR SWAP1 SSTORE PUSH1 0x40 MLOAD SWAP3 DUP4 SWAP2 AND PUSH2 0x25CF JUMP JUMPDEST PUSH1 0x1 DUP10 DUP3 ADD MSTORE PUSH32 0x8F653DB3CCBF47EE40D4981327F8F8312F93ED155F95A74B4E303C56E175FDF3 PUSH1 0x40 PUSH1 0x4 CALLDATALOAD SWAP3 LOG2 ADD SLOAD PUSH1 0x4 CALLDATALOAD PUSH1 0x0 MSTORE PUSH1 0x7 DUP8 MSTORE PUSH1 0x40 PUSH1 0x0 KECCAK256 SLOAD PUSH1 0x40 MLOAD SWAP2 DUP3 MSTORE DUP8 DUP3 ADD MSTORE PUSH32 0x1DD5BEDA64FF3819C22A6139DAC47A530A6B6F29EFA6F9C9DB8E39BC6027F89E PUSH1 0x40 PUSH1 0x4 CALLDATALOAD SWAP3 LOG2 DUP7 PUSH2 0xB07 JUMP JUMPDEST ADD MLOAD SWAP1 POP DUP13 DUP1 PUSH2 0xA6A JUMP JUMPDEST PUSH1 0x7 DUP9 SWAP4 SWAP3 SWAP9 ADD PUSH1 0x0 MSTORE DUP11 PUSH1 0x0 KECCAK256 SWAP1 PUSH1 0x0 JUMPDEST PUSH1 0x1F NOT DUP5 AND DUP2 LT PUSH2 0xC82 JUMPI POP SWAP2 PUSH1 0x1 SWAP2 PUSH32 0xF08AFB8B6FC52012F5F4AD81E3FAA058D1AFFC795B7B72DD94AAA56D958D1F17 SWAP9 SWAP10 PUSH1 0x8 SWAP6 SWAP5 DUP4 PUSH1 0x1F NOT DUP2 AND LT PUSH2 0xC69 JUMPI JUMPDEST POP POP POP DUP2 SHL ADD PUSH1 0x7 DUP3 ADD SSTORE PUSH2 0xA82 JUMP JUMPDEST ADD MLOAD PUSH1 0x0 NOT PUSH1 0xF8 DUP5 PUSH1 0x3 SHL AND SHR NOT AND SWAP1 SSTORE DUP13 DUP1 DUP1 PUSH2 0xC59 JUMP JUMPDEST DUP2 DUP11 ADD MLOAD DUP4 SSTORE SWAP9 DUP13 ADD SWAP9 DUP12 SWAP9 POP PUSH1 0x1 SWAP1 SWAP3 ADD SWAP2 DUP13 ADD PUSH2 0xC16 JUMP JUMPDEST PUSH2 0xCCA SWAP1 PUSH1 0x7 DUP10 ADD PUSH1 0x0 MSTORE DUP12 PUSH1 0x0 KECCAK256 PUSH1 0x1F DUP6 ADD PUSH1 0x5 SHR DUP2 ADD SWAP2 DUP14 DUP7 LT PUSH2 0xCD0 JUMPI JUMPDEST PUSH1 0x1F ADD PUSH1 0x5 SHR ADD SWAP1 PUSH2 0x2BC5 JUMP JUMPDEST DUP11 PUSH2 0xA2B JUMP JUMPDEST SWAP1 SWAP2 POP DUP2 SWAP1 PUSH2 0xCBD JUMP JUMPDEST PUSH4 0x4E487B71 PUSH1 0xE0 SHL PUSH1 0x0 MSTORE PUSH1 0x41 PUSH1 0x4 MSTORE PUSH1 0x24 PUSH1 0x0 REVERT JUMPDEST PUSH1 0x1 SWAP1 PUSH1 0x20 DUP5 MLOAD SWAP5 ADD SWAP4 DUP2 DUP5 ADD SSTORE ADD PUSH2 0x9EE JUMP JUMPDEST PUSH2 0xD1E SWAP1 PUSH1 0x6 DUP9 ADD PUSH1 0x0 MSTORE DUP5 DUP5 PUSH1 0x0 KECCAK256 SWAP2 DUP3 ADD SWAP2 ADD PUSH2 0x2BC5 JUMP JUMPDEST DUP10 PUSH2 0x9DD JUMP JUMPDEST PUSH1 0xC0 PUSH1 0x64 SWAP2 PUSH3 0x461BCD PUSH1 0xE5 SHL DUP3 DUP3 ADD MSTORE PUSH1 0x20 PUSH1 0xC4 DUP3 ADD MSTORE PUSH1 0x17 PUSH1 0xE4 DUP3 ADD MSTORE PUSH32 0x4669786174696F6E20616C726561647920657869737473000000000000000000 PUSH2 0x104 DUP3 ADD MSTORE ADD REVERT JUMPDEST PUSH1 0x1 PUSH1 0xFF SHL DUP2 EQ PUSH2 0xDE8 JUMPI DUP1 PUSH1 0x0 SUB PUSH1 0x44 CALLDATALOAD LT PUSH2 0xD97 JUMPI PUSH2 0xD92 SWAP1 PUSH1 0x0 SUB PUSH1 0x44 CALLDATALOAD PUSH2 0x2CC8 JUMP JUMPDEST PUSH2 0x887 JUMP JUMPDEST PUSH1 0x40 MLOAD PUSH3 0x461BCD PUSH1 0xE5 SHL DUP2 MSTORE PUSH1 0x20 PUSH1 0x4 DUP3 ADD MSTORE PUSH1 0x23 PUSH1 0x24 DUP3 ADD MSTORE PUSH32 0x53706F7420707269636520746F6F206C6F7720666F7220646966666572656E74 PUSH1 0x44 DUP3 ADD MSTORE PUSH3 0x1A585B PUSH1 0xEA SHL PUSH1 0x64 DUP3 ADD MSTORE PUSH1 0x84 SWAP1 REVERT JUMPDEST PUSH4 0x4E487B71 PUSH1 0xE0 SHL PUSH1 0x0 MSTORE PUSH1 0x11 PUSH1 0x4 MSTORE PUSH1 0x24 PUSH1 0x0 REVERT JUMPDEST PUSH1 0x40 MLOAD PUSH3 0x461BCD PUSH1 0xE5 SHL DUP2 MSTORE PUSH1 0x20 PUSH1 0x4 DUP3 ADD MSTORE PUSH1 0x17 PUSH1 0x24 DUP3 ADD MSTORE PUSH32 0x436F6E747261637420706572696F642065787069726564000000000000000000 PUSH1 0x44 DUP3 ADD MSTORE PUSH1 0x64 SWAP1 REVERT JUMPDEST PUSH1 0x40 MLOAD PUSH3 0x461BCD PUSH1 0xE5 SHL DUP2 MSTORE PUSH1 0x20 PUSH1 0x4 DUP3 ADD MSTORE PUSH1 0x1B PUSH1 0x24 DUP3 ADD MSTORE PUSH32 0x436F6E747261637420706572696F64206E6F7420737461727465640000000000 PUSH1 0x44 DUP3 ADD MSTORE PUSH1 0x64 SWAP1 REVERT JUMPDEST PUSH1 0x40 MLOAD PUSH3 0x461BCD PUSH1 0xE5 SHL DUP2 MSTORE PUSH1 0x20 PUSH1 0x4 DUP3 ADD MSTORE PUSH1 0x25 PUSH1 0x24 DUP3 ADD MSTORE PUSH32 0x4669786564207175616E7469747920657863656564732070656E64696E672076 PUSH1 0x44 DUP3 ADD MSTORE PUSH5 0x6F6C756D65 PUSH1 0xD8 SHL PUSH1 0x64 DUP3 ADD MSTORE PUSH1 0x84 SWAP1 REVERT JUMPDEST PUSH1 0x40 MLOAD PUSH3 0x461BCD PUSH1 0xE5 SHL DUP2 MSTORE PUSH1 0x20 PUSH1 0x4 DUP3 ADD MSTORE PUSH1 0x21 PUSH1 0x24 DUP3 ADD MSTORE PUSH32 0x53706F74207072696365206D7573742062652067726561746572207468616E20 PUSH1 0x44 DUP3 ADD MSTORE PUSH1 0x3 PUSH1 0xFC SHL PUSH1 0x64 DUP3 ADD MSTORE PUSH1 0x84 SWAP1 REVERT JUMPDEST PUSH1 0x40 MLOAD PUSH3 0x461BCD PUSH1 0xE5 SHL DUP2 MSTORE PUSH1 0x20 PUSH1 0x4 DUP3 ADD MSTORE PUSH1 0x25 PUSH1 0x24 DUP3 ADD MSTORE PUSH32 0x4669786564207175616E74697479206D75737420626520677265617465722074 PUSH1 0x44 DUP3 ADD MSTORE PUSH5 0x68616E203 PUSH1 0xDC SHL PUSH1 0x64 DUP3 ADD MSTORE PUSH1 0x84 SWAP1 REVERT JUMPDEST PUSH1 0x2 DUP3 ADD SLOAD PUSH1 0x1 PUSH1 0x1 PUSH1 0xA0 SHL SUB AND CALLER EQ PUSH2 0x82D JUMPI PUSH1 0x40 MLOAD PUSH3 0x461BCD PUSH1 0xE5 SHL DUP2 MSTORE PUSH1 0x20 PUSH1 0x4 DUP3 ADD MSTORE PUSH1 0x19 PUSH1 0x24 DUP3 ADD MSTORE PUSH32 0x4E6F742074686520636F6E7472616374206578706F7274657200000000000000 PUSH1 0x44 DUP3 ADD MSTORE PUSH1 0x64 SWAP1 REVERT JUMPDEST PUSH1 0x40 MLOAD PUSH3 0x461BCD PUSH1 0xE5 SHL DUP2 MSTORE PUSH1 0x20 PUSH1 0x4 DUP3 ADD MSTORE PUSH1 0x24 DUP1 DUP3 ADD MSTORE PUSH32 0x4E6F7420617574686F72697A656420746F207265676973746572206669786174 PUSH1 0x44 DUP3 ADD MSTORE PUSH4 0x696F6E73 PUSH1 0xE0 SHL PUSH1 0x64 DUP3 ADD MSTORE PUSH1 0x84 SWAP1 REVERT JUMPDEST POP CALLER PUSH1 0x0 SWAP1 DUP2 MSTORE PUSH32 0xEE57CD81E84075558E8FCC182A1F4393F91FC97F963A136E66B7F949A62F319F PUSH1 0x20 MSTORE PUSH1 0x40 SWAP1 KECCAK256 SLOAD PUSH1 0xFF AND PUSH2 0x806 JUMP JUMPDEST PUSH1 0x40 MLOAD PUSH3 0x461BCD PUSH1 0xE5 SHL DUP2 MSTORE PUSH1 0x20 PUSH1 0x4 DUP3 ADD MSTORE PUSH1 0x13 PUSH1 0x24 DUP3 ADD MSTORE PUSH19 0x436F6E7472616374206E6F7420616374697665 PUSH1 0x68 SHL PUSH1 0x44 DUP3 ADD MSTORE PUSH1 0x64 SWAP1 REVERT JUMPDEST DUP2 CALLDATALOAD DUP2 MSTORE PUSH1 0x20 SWAP2 DUP3 ADD SWAP2 ADD PUSH2 0x747 JUMP JUMPDEST CALLVALUE PUSH2 0x1FB JUMPI PUSH1 0x0 CALLDATASIZE PUSH1 0x3 NOT ADD SLT PUSH2 0x1FB JUMPI PUSH1 0x20 PUSH1 0x40 MLOAD PUSH1 0x0 DUP2 MSTORE RETURN JUMPDEST CALLVALUE PUSH2 0x1FB JUMPI PUSH1 0x0 CALLDATASIZE PUSH1 0x3 NOT ADD SLT PUSH2 0x1FB JUMPI PUSH1 0x20 PUSH1 0x8 SLOAD PUSH1 0x40 MLOAD SWAP1 DUP2 MSTORE RETURN JUMPDEST CALLVALUE PUSH2 0x1FB JUMPI PUSH2 0x140 CALLDATASIZE PUSH1 0x3 NOT ADD SLT PUSH2 0x1FB JUMPI PUSH2 0x10FE PUSH2 0x251E JUMP JUMPDEST PUSH2 0x1106 PUSH2 0x2508 JUMP JUMPDEST PUSH1 0x44 CALLDATALOAD PUSH1 0x1 PUSH1 0x1 PUSH1 0x40 SHL SUB DUP2 GT PUSH2 0x1FB JUMPI PUSH2 0x1125 SWAP1 CALLDATASIZE SWAP1 PUSH1 0x4 ADD PUSH2 0x2579 JUMP JUMPDEST SWAP2 PUSH1 0x64 CALLDATALOAD PUSH1 0x1 PUSH1 0x1 PUSH1 0x40 SHL SUB DUP2 GT PUSH2 0x1FB JUMPI PUSH2 0x1145 SWAP1 CALLDATASIZE SWAP1 PUSH1 0x4 ADD PUSH2 0x2579 JUMP JUMPDEST SWAP2 PUSH1 0x84 CALLDATALOAD PUSH1 0x1 PUSH1 0x1 PUSH1 0x40 SHL SUB DUP2 GT PUSH2 0x1FB JUMPI PUSH2 0x1165 SWAP1 CALLDATASIZE SWAP1 PUSH1 0x4 ADD PUSH2 0x2579 JUMP JUMPDEST SWAP3 PUSH2 0x116E PUSH2 0x25DC JUMP JUMPDEST PUSH2 0x1176 PUSH2 0x2C38 JUMP JUMPDEST PUSH1 0x1 PUSH1 0x1 PUSH1 0xA0 SHL SUB DUP4 AND ISZERO PUSH2 0x1A76 JUMPI PUSH1 0x1 PUSH1 0x1 PUSH1 0xA0 SHL SUB DUP3 AND ISZERO PUSH2 0x1A31 JUMPI PUSH1 0xA4 CALLDATALOAD ISZERO PUSH2 0x19EC JUMPI PUSH2 0x104 CALLDATALOAD PUSH1 0xE4 CALLDATALOAD LT ISZERO PUSH2 0x19B2 JUMPI PUSH2 0x104 CALLDATALOAD PUSH2 0x124 CALLDATALOAD LT PUSH2 0x1961 JUMPI PUSH1 0x8 SLOAD PUSH1 0x40 MLOAD PUSH2 0x1218 PUSH1 0x88 DUP3 PUSH1 0x20 DUP2 ADD SWAP5 PUSH1 0x20 PUSH2 0x11D9 DUP13 DUP9 DUP2 MLOAD SWAP4 DUP5 SWAP3 ADD PUSH2 0x2369 JUMP JUMPDEST DUP3 ADD SWAP1 PUSH12 0xFFFFFFFFFFFFFFFFFFFFFFFF NOT DUP1 DUP12 PUSH1 0x60 SHL AND PUSH1 0x20 DUP5 ADD MSTORE DUP10 PUSH1 0x60 SHL AND PUSH1 0x34 DUP4 ADD MSTORE TIMESTAMP PUSH1 0x48 DUP4 ADD MSTORE PUSH1 0x68 DUP3 ADD MSTORE SUB PUSH1 0x68 DUP2 ADD DUP5 MSTORE ADD DUP3 PUSH2 0x2406 JUMP JUMPDEST MLOAD SWAP1 KECCAK256 SWAP4 DUP5 PUSH1 0x0 MSTORE PUSH1 0x3 PUSH1 0x20 MSTORE PUSH1 0xFF PUSH1 0xD PUSH1 0x40 PUSH1 0x0 KECCAK256 ADD SLOAD PUSH1 0x8 SHR AND PUSH2 0x191C JUMPI PUSH1 0x40 MLOAD SWAP2 DUP3 PUSH2 0x1E0 DUP2 ADD LT PUSH1 0x1 PUSH1 0x1 PUSH1 0x40 SHL SUB PUSH2 0x1E0 DUP6 ADD GT OR PUSH2 0xCDA JUMPI PUSH2 0x1E0 DUP4 ADD PUSH1 0x40 MSTORE DUP6 DUP4 MSTORE PUSH1 0x1 DUP1 PUSH1 0xA0 SHL SUB DUP6 AND PUSH1 0x20 DUP5 ADD MSTORE PUSH1 0x1 DUP1 PUSH1 0xA0 SHL SUB DUP5 AND PUSH1 0x40 DUP5 ADD MSTORE DUP7 PUSH1 0x60 DUP5 ADD MSTORE PUSH1 0x80 DUP4 ADD MSTORE PUSH1 0xA0 DUP3 ADD MSTORE PUSH1 0xA4 CALLDATALOAD PUSH1 0xC0 DUP3 ADD MSTORE PUSH1 0xC4 CALLDATALOAD PUSH1 0xE0 DUP3 ADD MSTORE TIMESTAMP PUSH2 0x100 DUP3 ADD MSTORE PUSH1 0xE4 CALLDATALOAD PUSH2 0x120 DUP3 ADD MSTORE PUSH2 0x104 CALLDATALOAD PUSH2 0x140 DUP3 ADD MSTORE PUSH2 0x124 CALLDATALOAD PUSH2 0x160 DUP3 ADD MSTORE PUSH1 0x0 PUSH2 0x180 DUP3 ADD MSTORE PUSH1 0x0 PUSH2 0x1A0 DUP3 ADD MSTORE PUSH1 0x1 PUSH2 0x1C0 DUP3 ADD MSTORE DUP4 PUSH1 0x0 MSTORE PUSH1 0x3 PUSH1 0x20 MSTORE PUSH1 0x40 PUSH1 0x0 KECCAK256 DUP2 MLOAD DUP2 SSTORE PUSH1 0x1 DUP2 ADD PUSH1 0x1 DUP1 PUSH1 0xA0 SHL SUB PUSH1 0x20 DUP5 ADD MLOAD AND SWAP1 PUSH12 0xFFFFFFFFFFFFFFFFFFFFFFFF PUSH1 0xA0 SHL SWAP2 DUP3 DUP3 SLOAD AND OR SWAP1 SSTORE PUSH1 0x2 DUP3 ADD SWAP1 PUSH1 0x1 DUP1 PUSH1 0xA0 SHL SUB PUSH1 0x40 DUP6 ADD MLOAD AND SWAP1 DUP3 SLOAD AND OR SWAP1 SSTORE PUSH1 0x60 DUP3 ADD MLOAD DUP1 MLOAD SWAP1 PUSH1 0x1 PUSH1 0x1 PUSH1 0x40 SHL SUB DUP3 GT PUSH2 0xCDA JUMPI DUP2 SWAP1 PUSH2 0x1353 PUSH1 0x3 DUP6 ADD SLOAD PUSH2 0x23B1 JUMP JUMPDEST PUSH1 0x1F DUP2 GT PUSH2 0x18E7 JUMPI JUMPDEST POP PUSH1 0x20 SWAP1 PUSH1 0x1F DUP4 GT PUSH1 0x1 EQ PUSH2 0x1875 JUMPI PUSH1 0x0 SWAP3 PUSH2 0x186A JUMPI JUMPDEST POP POP DUP2 PUSH1 0x1 SHL SWAP2 PUSH1 0x0 NOT SWAP1 PUSH1 0x3 SHL SHR NOT AND OR PUSH1 0x3 DUP3 ADD SSTORE JUMPDEST PUSH1 0x80 DUP3 ADD MLOAD DUP1 MLOAD SWAP1 PUSH1 0x1 PUSH1 0x1 PUSH1 0x40 SHL SUB DUP3 GT PUSH2 0xCDA JUMPI DUP2 SWAP1 PUSH2 0x13B0 PUSH1 0x4 DUP6 ADD SLOAD PUSH2 0x23B1 JUMP JUMPDEST PUSH1 0x1F DUP2 GT PUSH2 0x1835 JUMPI JUMPDEST POP PUSH1 0x20 SWAP1 PUSH1 0x1F DUP4 GT PUSH1 0x1 EQ PUSH2 0x17C3 JUMPI PUSH1 0x0 SWAP3 PUSH2 0x17B8 JUMPI JUMPDEST POP POP DUP2 PUSH1 0x1 SHL SWAP2 PUSH1 0x0 NOT SWAP1 PUSH1 0x3 SHL SHR NOT AND OR PUSH1 0x4 DUP3 ADD SSTORE JUMPDEST PUSH1 0xA0 DUP3 ADD MLOAD DUP1 MLOAD SWAP1 PUSH1 0x1 PUSH1 0x1 PUSH1 0x40 SHL SUB DUP3 GT PUSH2 0xCDA JUMPI PUSH2 0x140B PUSH1 0x5 DUP5 ADD SLOAD PUSH2 0x23B1 JUMP JUMPDEST PUSH1 0x1F DUP2 GT PUSH2 0x1783 JUMPI JUMPDEST POP PUSH1 0x20 SWAP1 PUSH1 0x1F DUP4 GT PUSH1 0x1 EQ PUSH2 0x1710 JUMPI PUSH1 0xD SWAP4 SWAP3 SWAP2 PUSH1 0x0 SWAP2 DUP4 PUSH2 0x1705 JUMPI JUMPDEST POP POP DUP2 PUSH1 0x1 SHL SWAP2 PUSH1 0x0 NOT SWAP1 PUSH1 0x3 SHL SHR NOT AND OR PUSH1 0x5 DUP3 ADD SSTORE JUMPDEST PUSH1 0xC0 DUP4 ADD MLOAD PUSH1 0x6 DUP3 ADD SSTORE PUSH1 0xE0 DUP4 ADD MLOAD PUSH1 0x7 DUP3 ADD SSTORE PUSH2 0x100 DUP4 ADD MLOAD PUSH1 0x8 DUP3 ADD SSTORE PUSH2 0x120 DUP4 ADD MLOAD PUSH1 0x9 DUP3 ADD SSTORE PUSH2 0x140 DUP4 ADD MLOAD PUSH1 0xA DUP3 ADD SSTORE PUSH2 0x160 DUP4 ADD MLOAD PUSH1 0xB DUP3 ADD SSTORE PUSH2 0x180 DUP4 ADD MLOAD PUSH1 0xC DUP3 ADD SSTORE ADD SWAP1 PUSH2 0x1A0 DUP2 ADD MLOAD SWAP1 PUSH1 0x4 DUP3 LT ISZERO PUSH2 0x1E5 JUMPI PUSH1 0x20 SWAP7 DUP4 PUSH2 0x1C0 PUSH2 0x15E7 SWAP4 PUSH2 0x14DD PUSH32 0x99B6E7580B5E1D29D5758E803E27BC7803C885D863EAF29FB91E124D37022E0 SWAP7 DUP12 SWAP9 PUSH2 0x2BDC JUMP JUMPDEST ADD MLOAD DUP2 SLOAD PUSH2 0xFF00 NOT AND SWAP1 ISZERO ISZERO PUSH1 0x8 SHL PUSH2 0xFF00 AND OR SWAP1 SSTORE PUSH1 0x1 PUSH1 0x1 PUSH1 0xA0 SHL SUB DUP6 AND PUSH1 0x0 SWAP1 DUP2 MSTORE PUSH1 0x5 DUP10 MSTORE PUSH1 0x40 SWAP1 KECCAK256 PUSH2 0x1515 SWAP1 DUP6 SWAP1 PUSH2 0x2BF4 JUMP JUMPDEST PUSH1 0x1 DUP1 PUSH1 0xA0 SHL SUB DUP7 AND PUSH1 0x0 MSTORE PUSH1 0x6 DUP9 MSTORE PUSH2 0x1533 DUP5 PUSH1 0x40 PUSH1 0x0 KECCAK256 PUSH2 0x2BF4 JUMP JUMPDEST PUSH2 0x153E PUSH1 0x8 SLOAD PUSH2 0x2C29 JUMP JUMPDEST PUSH1 0x8 SSTORE PUSH32 0xF8CD32ED93FC2F9FC78152A14807C9609AF3D99C5FE4DC6B106A801AADDFE90E PUSH1 0x0 DUP2 DUP2 MSTORE DUP1 DUP11 MSTORE PUSH1 0x40 DUP1 DUP3 KECCAK256 PUSH1 0x1 PUSH1 0x1 PUSH1 0xA0 SHL SUB DUP11 AND DUP4 MSTORE DUP12 MSTORE SWAP1 KECCAK256 SLOAD PUSH1 0xFF AND ISZERO PUSH2 0x1687 JUMPI JUMPDEST POP PUSH32 0xAF60A13A1620ED8606730E7105F2AF60851DB04BB2CE1A068E80262DE457512A PUSH1 0x0 DUP2 DUP2 MSTORE DUP1 DUP11 MSTORE PUSH1 0x40 DUP1 DUP3 KECCAK256 PUSH1 0x1 PUSH1 0x1 PUSH1 0xA0 SHL SUB DUP10 AND DUP4 MSTORE DUP12 MSTORE SWAP1 KECCAK256 SLOAD PUSH1 0xFF AND ISZERO PUSH2 0x1609 JUMPI JUMPDEST POP PUSH1 0x40 MLOAD SWAP2 DUP3 SWAP2 PUSH1 0x40 DUP4 MSTORE PUSH1 0x40 DUP4 ADD SWAP1 PUSH2 0x238C JUMP JUMPDEST PUSH1 0xA4 CALLDATALOAD DUP3 DUP11 ADD MSTORE PUSH1 0x1 PUSH1 0x1 PUSH1 0xA0 SHL SUB SWAP6 DUP7 AND SWAP7 SWAP1 SWAP6 AND SWAP5 SUB SWAP1 LOG4 PUSH1 0x40 MLOAD SWAP1 DUP2 MSTORE RETURN JUMPDEST PUSH1 0x0 DUP2 DUP2 MSTORE DUP1 DUP11 MSTORE PUSH1 0x40 DUP1 DUP3 KECCAK256 PUSH1 0x1 PUSH1 0x1 PUSH1 0xA0 SHL SUB DUP10 AND DUP4 MSTORE DUP12 MSTORE SWAP1 KECCAK256 SLOAD PUSH1 0xFF AND PUSH2 0x15D2 JUMPI PUSH1 0x0 DUP2 DUP2 MSTORE DUP1 DUP11 MSTORE PUSH1 0x40 DUP1 DUP3 KECCAK256 PUSH1 0x1 PUSH1 0x1 PUSH1 0xA0 SHL SUB DUP10 AND DUP1 DUP5 MSTORE SWAP1 DUP13 MSTORE SWAP1 DUP3 KECCAK256 DUP1 SLOAD PUSH1 0xFF NOT AND PUSH1 0x1 OR SWAP1 SSTORE CALLER SWAP3 SWAP1 SWAP2 PUSH32 0x2F8788117E7EFF1D82E926EC794901D17C78024A50270940304540A733656F0D SWAP1 DUP1 LOG4 DUP9 PUSH2 0x15D2 JUMP JUMPDEST PUSH1 0x0 DUP2 DUP2 MSTORE DUP1 DUP11 MSTORE PUSH1 0x40 DUP1 DUP3 KECCAK256 PUSH1 0x1 PUSH1 0x1 PUSH1 0xA0 SHL SUB DUP11 AND DUP4 MSTORE DUP12 MSTORE SWAP1 KECCAK256 SLOAD PUSH1 0xFF AND PUSH2 0x1589 JUMPI PUSH1 0x0 DUP2 DUP2 MSTORE DUP1 DUP11 MSTORE PUSH1 0x40 DUP1 DUP3 KECCAK256 PUSH1 0x1 PUSH1 0x1 PUSH1 0xA0 SHL SUB DUP11 AND DUP1 DUP5 MSTORE SWAP1 DUP13 MSTORE SWAP1 DUP3 KECCAK256 DUP1 SLOAD PUSH1 0xFF NOT AND PUSH1 0x1 OR SWAP1 SSTORE CALLER SWAP3 SWAP1 SWAP2 PUSH32 0x2F8788117E7EFF1D82E926EC794901D17C78024A50270940304540A733656F0D SWAP1 DUP1 LOG4 DUP9 PUSH2 0x1589 JUMP JUMPDEST ADD MLOAD SWAP1 POP DUP10 DUP1 PUSH2 0x1431 JUMP JUMPDEST SWAP1 PUSH1 0x5 DUP5 ADD PUSH1 0x0 MSTORE PUSH1 0x20 PUSH1 0x0 KECCAK256 SWAP2 PUSH1 0x0 JUMPDEST PUSH1 0x1F NOT DUP6 AND DUP2 LT PUSH2 0x176B JUMPI POP SWAP2 DUP4 SWAP2 PUSH1 0x1 SWAP4 PUSH1 0xD SWAP7 SWAP6 PUSH1 0x1F NOT DUP2 AND LT PUSH2 0x1752 JUMPI JUMPDEST POP POP POP DUP2 SHL ADD PUSH1 0x5 DUP3 ADD SSTORE PUSH2 0x1449 JUMP JUMPDEST ADD MLOAD PUSH1 0x0 NOT PUSH1 0xF8 DUP5 PUSH1 0x3 SHL AND SHR NOT AND SWAP1 SSTORE DUP10 DUP1 DUP1 PUSH2 0x1742 JUMP JUMPDEST SWAP2 SWAP3 PUSH1 0x20 PUSH1 0x1 DUP2 SWAP3 DUP7 DUP6 ADD MLOAD DUP2 SSTORE ADD SWAP5 ADD SWAP3 ADD PUSH2 0x1721 JUMP JUMPDEST PUSH2 0x17B2 SWAP1 PUSH1 0x5 DUP6 ADD PUSH1 0x0 MSTORE PUSH1 0x20 PUSH1 0x0 KECCAK256 PUSH1 0x1F DUP6 ADD PUSH1 0x5 SHR DUP2 ADD SWAP2 PUSH1 0x20 DUP7 LT PUSH2 0xCD0 JUMPI PUSH1 0x1F ADD PUSH1 0x5 SHR ADD SWAP1 PUSH2 0x2BC5 JUMP JUMPDEST DUP9 PUSH2 0x1414 JUMP JUMPDEST ADD MLOAD SWAP1 POP DUP9 DUP1 PUSH2 0x13D0 JUMP JUMPDEST SWAP3 POP PUSH1 0x4 DUP5 ADD PUSH1 0x0 MSTORE PUSH1 0x20 PUSH1 0x0 KECCAK256 SWAP1 PUSH1 0x0 SWAP4 JUMPDEST PUSH1 0x1F NOT DUP5 AND DUP6 LT PUSH2 0x181A JUMPI PUSH1 0x1 SWAP5 POP DUP4 PUSH1 0x1F NOT DUP2 AND LT PUSH2 0x1801 JUMPI JUMPDEST POP POP POP DUP2 SHL ADD PUSH1 0x4 DUP3 ADD SSTORE PUSH2 0x13E8 JUMP JUMPDEST ADD MLOAD PUSH1 0x0 NOT PUSH1 0xF8 DUP5 PUSH1 0x3 SHL AND SHR NOT AND SWAP1 SSTORE DUP9 DUP1 DUP1 PUSH2 0x17F1 JUMP JUMPDEST DUP2 DUP2 ADD MLOAD DUP4 SSTORE PUSH1 0x20 SWAP5 DUP6 ADD SWAP5 PUSH1 0x1 SWAP1 SWAP4 ADD SWAP3 SWAP1 SWAP2 ADD SWAP1 PUSH2 0x17D6 JUMP JUMPDEST PUSH2 0x1864 SWAP1 PUSH1 0x4 DUP7 ADD PUSH1 0x0 MSTORE PUSH1 0x20 PUSH1 0x0 KECCAK256 PUSH1 0x1F DUP6 ADD PUSH1 0x5 SHR DUP2 ADD SWAP2 PUSH1 0x20 DUP7 LT PUSH2 0xCD0 JUMPI PUSH1 0x1F ADD PUSH1 0x5 SHR ADD SWAP1 PUSH2 0x2BC5 JUMP JUMPDEST DUP10 PUSH2 0x13B9 JUMP JUMPDEST ADD MLOAD SWAP1 POP DUP9 DUP1 PUSH2 0x1373 JUMP JUMPDEST SWAP3 POP PUSH1 0x3 DUP5 ADD PUSH1 0x0 MSTORE PUSH1 0x20 PUSH1 0x0 KECCAK256 SWAP1 PUSH1 0x0 SWAP4 JUMPDEST PUSH1 0x1F NOT DUP5 AND DUP6 LT PUSH2 0x18CC JUMPI PUSH1 0x1 SWAP5 POP DUP4 PUSH1 0x1F NOT DUP2 AND LT PUSH2 0x18B3 JUMPI JUMPDEST POP POP POP DUP2 SHL ADD PUSH1 0x3 DUP3 ADD SSTORE PUSH2 0x138B JUMP JUMPDEST ADD MLOAD PUSH1 0x0 NOT PUSH1 0xF8 DUP5 PUSH1 0x3 SHL AND SHR NOT AND SWAP1 SSTORE DUP9 DUP1 DUP1 PUSH2 0x18A3 JUMP JUMPDEST DUP2 DUP2 ADD MLOAD DUP4 SSTORE PUSH1 0x20 SWAP5 DUP6 ADD SWAP5 PUSH1 0x1 SWAP1 SWAP4 ADD SWAP3 SWAP1 SWAP2 ADD SWAP1 PUSH2 0x1888 JUMP JUMPDEST PUSH2 0x1916 SWAP1 PUSH1 0x3 DUP7 ADD PUSH1 0x0 MSTORE PUSH1 0x20 PUSH1 0x0 KECCAK256 PUSH1 0x1F DUP6 ADD PUSH1 0x5 SHR DUP2 ADD SWAP2 PUSH1 0x20 DUP7 LT PUSH2 0xCD0 JUMPI PUSH1 0x1F ADD PUSH1 0x5 SHR ADD SWAP1 PUSH2 0x2BC5 JUMP JUMPDEST DUP10 PUSH2 0x135C JUMP JUMPDEST PUSH1 0x40 MLOAD PUSH3 0x461BCD PUSH1 0xE5 SHL DUP2 MSTORE PUSH1 0x20 PUSH1 0x4 DUP3 ADD MSTORE PUSH1 0x17 PUSH1 0x24 DUP3 ADD MSTORE PUSH32 0x436F6E747261637420616C726561647920657869737473000000000000000000 PUSH1 0x44 DUP3 ADD MSTORE PUSH1 0x64 SWAP1 REVERT JUMPDEST PUSH1 0x40 MLOAD PUSH3 0x461BCD PUSH1 0xE5 SHL DUP2 MSTORE PUSH1 0x20 PUSH1 0x4 DUP3 ADD MSTORE PUSH1 0x24 DUP1 DUP3 ADD MSTORE PUSH32 0x44656C69766572792064617465206D75737420626520616674657220656E6420 PUSH1 0x44 DUP3 ADD MSTORE PUSH4 0x64617465 PUSH1 0xE0 SHL PUSH1 0x64 DUP3 ADD MSTORE PUSH1 0x84 SWAP1 REVERT JUMPDEST PUSH1 0x40 MLOAD PUSH3 0x461BCD PUSH1 0xE5 SHL DUP2 MSTORE PUSH1 0x20 PUSH1 0x4 DUP3 ADD MSTORE PUSH1 0x12 PUSH1 0x24 DUP3 ADD MSTORE PUSH18 0x496E76616C696420646174652072616E6765 PUSH1 0x70 SHL PUSH1 0x44 DUP3 ADD MSTORE PUSH1 0x64 SWAP1 REVERT JUMPDEST PUSH1 0x40 MLOAD PUSH3 0x461BCD PUSH1 0xE5 SHL DUP2 MSTORE PUSH1 0x20 PUSH1 0x4 DUP3 ADD MSTORE PUSH1 0x1D PUSH1 0x24 DUP3 ADD MSTORE PUSH32 0x566F6C756D65206D7573742062652067726561746572207468616E2030000000 PUSH1 0x44 DUP3 ADD MSTORE PUSH1 0x64 SWAP1 REVERT JUMPDEST PUSH1 0x40 MLOAD PUSH3 0x461BCD PUSH1 0xE5 SHL DUP2 MSTORE PUSH1 0x20 PUSH1 0x4 DUP3 ADD MSTORE PUSH1 0x18 PUSH1 0x24 DUP3 ADD MSTORE PUSH32 0x496E76616C6964206578706F7274657220616464726573730000000000000000 PUSH1 0x44 DUP3 ADD MSTORE PUSH1 0x64 SWAP1 REVERT JUMPDEST PUSH1 0x40 MLOAD PUSH3 0x461BCD PUSH1 0xE5 SHL DUP2 MSTORE PUSH1 0x20 PUSH1 0x4 DUP3 ADD MSTORE PUSH1 0x15 PUSH1 0x24 DUP3 ADD MSTORE PUSH21 0x496E76616C69642062757965722061646472657373 PUSH1 0x58 SHL PUSH1 0x44 DUP3 ADD MSTORE PUSH1 0x64 SWAP1 REVERT JUMPDEST CALLVALUE PUSH2 0x1FB JUMPI PUSH1 0x40 CALLDATASIZE PUSH1 0x3 NOT ADD SLT PUSH2 0x1FB JUMPI PUSH2 0x1ACC PUSH2 0x2508 JUMP JUMPDEST PUSH1 0x4 CALLDATALOAD PUSH1 0x0 MSTORE PUSH1 0x0 PUSH1 0x20 MSTORE PUSH1 0x40 PUSH1 0x0 KECCAK256 SWAP1 PUSH1 0x1 DUP1 PUSH1 0xA0 SHL SUB AND PUSH1 0x0 MSTORE PUSH1 0x20 MSTORE PUSH1 0x20 PUSH1 0xFF PUSH1 0x40 PUSH1 0x0 KECCAK256 SLOAD AND PUSH1 0x40 MLOAD SWAP1 ISZERO ISZERO DUP2 MSTORE RETURN JUMPDEST CALLVALUE PUSH2 0x1FB JUMPI PUSH1 0x0 CALLDATASIZE PUSH1 0x3 NOT ADD SLT PUSH2 0x1FB JUMPI PUSH1 0x20 PUSH1 0x9 SLOAD PUSH1 0x40 MLOAD SWAP1 DUP2 MSTORE RETURN JUMPDEST CALLVALUE PUSH2 0x1FB JUMPI PUSH1 0x40 CALLDATASIZE PUSH1 0x3 NOT ADD SLT PUSH2 0x1FB JUMPI PUSH2 0x1B37 PUSH2 0x251E JUMP JUMPDEST PUSH1 0x1 PUSH1 0x1 PUSH1 0xA0 SHL SUB AND PUSH1 0x0 SWAP1 DUP2 MSTORE PUSH1 0x5 PUSH1 0x20 MSTORE PUSH1 0x40 SWAP1 KECCAK256 DUP1 SLOAD PUSH1 0x24 CALLDATALOAD SWAP2 SWAP1 DUP3 LT ISZERO PUSH2 0x1FB JUMPI PUSH1 0x20 SWAP2 PUSH2 0x4F9 SWAP2 PUSH2 0x254B JUMP JUMPDEST CALLVALUE PUSH2 0x1FB JUMPI PUSH1 0x0 CALLDATASIZE PUSH1 0x3 NOT ADD SLT PUSH2 0x1FB JUMPI PUSH2 0x1B81 PUSH2 0x27F7 JUMP JUMPDEST PUSH2 0x1B89 PUSH2 0x2C38 JUMP JUMPDEST PUSH1 0x1 PUSH1 0xFF NOT PUSH1 0x2 SLOAD AND OR PUSH1 0x2 SSTORE PUSH32 0x62E78CEA01BEE320CD4E420270B5EA74000D11B0C9F74754EBDBFC544B05A258 PUSH1 0x20 PUSH1 0x40 MLOAD CALLER DUP2 MSTORE LOG1 STOP JUMPDEST CALLVALUE PUSH2 0x1FB JUMPI PUSH1 0x0 CALLDATASIZE PUSH1 0x3 NOT ADD SLT PUSH2 0x1FB JUMPI PUSH1 0x20 PUSH1 0x40 MLOAD PUSH32 0xF8CD32ED93FC2F9FC78152A14807C9609AF3D99C5FE4DC6B106A801AADDFE90E DUP2 MSTORE RETURN JUMPDEST CALLVALUE PUSH2 0x1FB JUMPI PUSH1 0x0 CALLDATASIZE PUSH1 0x3 NOT ADD SLT PUSH2 0x1FB JUMPI PUSH1 0x20 PUSH1 0xFF PUSH1 0x2 SLOAD AND PUSH1 0x40 MLOAD SWAP1 ISZERO ISZERO DUP2 MSTORE RETURN JUMPDEST CALLVALUE PUSH2 0x1FB JUMPI PUSH1 0x20 CALLDATASIZE PUSH1 0x3 NOT ADD SLT PUSH2 0x1FB JUMPI PUSH1 0x4 CALLDATALOAD PUSH1 0x0 MSTORE PUSH1 0x3 PUSH1 0x20 MSTORE PUSH1 0x20 PUSH2 0x1C69 PUSH1 0x40 PUSH1 0x0 KECCAK256 PUSH2 0x1C59 PUSH1 0xFF PUSH1 0xD DUP4 ADD SLOAD PUSH1 0x8 SHR AND PUSH2 0x2C7C JUMP JUMPDEST PUSH1 0xC PUSH1 0x6 DUP3 ADD SLOAD SWAP2 ADD SLOAD SWAP1 PUSH2 0x2CC8 JUMP JUMPDEST PUSH1 0x40 MLOAD SWAP1 DUP2 MSTORE RETURN JUMPDEST CALLVALUE PUSH2 0x1FB JUMPI PUSH1 0x0 CALLDATASIZE PUSH1 0x3 NOT ADD SLT PUSH2 0x1FB JUMPI PUSH2 0x1C8A PUSH2 0x27F7 JUMP JUMPDEST PUSH1 0x2 SLOAD PUSH1 0xFF DUP2 AND ISZERO PUSH2 0x1CC9 JUMPI PUSH1 0xFF NOT AND PUSH1 0x2 SSTORE PUSH32 0x5DB9EE0A495BF2E6FF9C91A7834C1BA4FDD244A5E8AA4E537BD38AEAE4B073AA PUSH1 0x20 PUSH1 0x40 MLOAD CALLER DUP2 MSTORE LOG1 STOP JUMPDEST PUSH1 0x40 MLOAD PUSH3 0x461BCD PUSH1 0xE5 SHL DUP2 MSTORE PUSH1 0x20 PUSH1 0x4 DUP3 ADD MSTORE PUSH1 0x14 PUSH1 0x24 DUP3 ADD MSTORE PUSH20 0x14185D5CD8589B194E881B9BDD081C185D5CD959 PUSH1 0x62 SHL PUSH1 0x44 DUP3 ADD MSTORE PUSH1 0x64 SWAP1 REVERT JUMPDEST CALLVALUE PUSH2 0x1FB JUMPI PUSH1 0x20 DUP1 PUSH1 0x3 NOT CALLDATASIZE ADD SLT PUSH2 0x1FB JUMPI PUSH1 0x4 CALLDATALOAD SWAP1 PUSH1 0x1 PUSH1 0x1 PUSH1 0x40 SHL SUB DUP3 GT PUSH2 0x1FB JUMPI CALLDATASIZE PUSH1 0x23 DUP4 ADD SLT ISZERO PUSH2 0x1FB JUMPI DUP2 PUSH1 0x4 ADD CALLDATALOAD SWAP1 PUSH2 0x1D43 DUP3 PUSH2 0x2534 JUMP JUMPDEST SWAP3 PUSH2 0x1D51 PUSH1 0x40 MLOAD SWAP5 DUP6 PUSH2 0x2406 JUMP JUMPDEST DUP3 DUP5 MSTORE DUP2 DUP5 ADD PUSH1 0x24 DUP1 SWAP5 PUSH1 0x5 SHL DUP4 ADD ADD SWAP2 CALLDATASIZE DUP4 GT PUSH2 0x1FB JUMPI DUP5 DUP5 SWAP2 ADD SWAP2 JUMPDEST DUP4 DUP4 LT PUSH2 0x1E8E JUMPI POP POP POP POP PUSH2 0x1D82 PUSH2 0x25DC JUMP JUMPDEST PUSH1 0x0 JUMPDEST DUP4 MLOAD DUP2 LT ISZERO PUSH2 0x546 JUMPI PUSH2 0x1D98 DUP2 DUP6 PUSH2 0x2CD5 JUMP JUMPDEST MLOAD SWAP1 PUSH1 0x40 MLOAD SWAP2 PUSH4 0xFF5E90D9 PUSH1 0xE0 SHL DUP4 MSTORE PUSH1 0x4 DUP4 ADD MSTORE DUP3 DUP3 DUP6 DUP2 ADDRESS GAS STATICCALL DUP1 ISZERO PUSH2 0x1E82 JUMPI PUSH1 0x0 SWAP1 PUSH2 0x1E48 JUMPI JUMPDEST PUSH2 0x1DD0 SWAP3 POP PUSH2 0x1DD5 JUMPI PUSH2 0x2C29 JUMP JUMPDEST PUSH2 0x1D85 JUMP JUMPDEST PUSH2 0x1DDF DUP2 DUP7 PUSH2 0x2CD5 JUMP JUMPDEST MLOAD DUP1 PUSH1 0x0 MSTORE PUSH32 0x8F653DB3CCBF47EE40D4981327F8F8312F93ED155F95A74B4E303C56E175FDF3 PUSH1 0x40 PUSH1 0x3 DUP1 DUP8 MSTORE PUSH1 0xD DUP3 PUSH1 0x0 KECCAK256 ADD SWAP1 PUSH2 0x1E3E DUP3 SLOAD PUSH1 0xFF SWAP4 PUSH2 0x1E2A DUP6 DUP4 PUSH1 0x8 SHR AND PUSH2 0x2C7C JUMP JUMPDEST PUSH1 0xFF NOT DUP3 AND DUP5 OR SWAP1 SSTORE DUP5 MLOAD SWAP4 DUP5 SWAP2 AND PUSH2 0x25CF JUMP JUMPDEST DUP8 DUP3 ADD MSTORE LOG2 PUSH2 0x2C29 JUMP JUMPDEST POP SWAP1 DUP3 DUP2 DUP2 RETURNDATASIZE DUP4 GT PUSH2 0x1E7B JUMPI JUMPDEST PUSH2 0x1E5F DUP2 DUP4 PUSH2 0x2406 JUMP JUMPDEST DUP2 ADD SUB SLT PUSH2 0x1FB JUMPI MLOAD SWAP1 DUP2 ISZERO ISZERO DUP3 SUB PUSH2 0x1FB JUMPI PUSH2 0x1DD0 SWAP2 PUSH2 0x1DC2 JUMP JUMPDEST POP RETURNDATASIZE PUSH2 0x1E55 JUMP JUMPDEST PUSH1 0x40 MLOAD RETURNDATASIZE PUSH1 0x0 DUP3 RETURNDATACOPY RETURNDATASIZE SWAP1 REVERT JUMPDEST DUP3 CALLDATALOAD DUP2 MSTORE SWAP2 DUP2 ADD SWAP2 DUP5 SWAP2 ADD PUSH2 0x1D6F JUMP JUMPDEST CALLVALUE PUSH2 0x1FB JUMPI PUSH1 0x40 CALLDATASIZE PUSH1 0x3 NOT ADD SLT PUSH2 0x1FB JUMPI PUSH2 0x1EB7 PUSH2 0x2508 JUMP JUMPDEST CALLER PUSH1 0x1 PUSH1 0x1 PUSH1 0xA0 SHL SUB DUP3 AND SUB PUSH2 0x1ED3 JUMPI PUSH2 0x546 SWAP1 PUSH1 0x4 CALLDATALOAD PUSH2 0x2A25 JUMP JUMPDEST PUSH1 0x40 MLOAD PUSH3 0x461BCD PUSH1 0xE5 SHL DUP2 MSTORE PUSH1 0x20 PUSH1 0x4 DUP3 ADD MSTORE PUSH1 0x2F PUSH1 0x24 DUP3 ADD MSTORE PUSH32 0x416363657373436F6E74726F6C3A2063616E206F6E6C792072656E6F756E6365 PUSH1 0x44 DUP3 ADD MSTORE PUSH15 0x103937B632B9903337B91039B2B633 PUSH1 0x89 SHL PUSH1 0x64 DUP3 ADD MSTORE PUSH1 0x84 SWAP1 REVERT JUMPDEST CALLVALUE PUSH2 0x1FB JUMPI PUSH1 0x20 DUP1 PUSH1 0x3 NOT CALLDATASIZE ADD SLT PUSH2 0x1FB JUMPI PUSH1 0x1 PUSH1 0x1 PUSH1 0xA0 SHL SUB PUSH2 0x1F52 PUSH2 0x251E JUMP JUMPDEST AND PUSH1 0x0 MSTORE PUSH1 0x6 DUP2 MSTORE PUSH1 0x40 PUSH1 0x0 KECCAK256 SWAP1 PUSH1 0x40 MLOAD SWAP1 DUP2 DUP2 DUP5 SLOAD SWAP2 DUP3 DUP2 MSTORE ADD SWAP4 PUSH1 0x0 MSTORE DUP2 PUSH1 0x0 KECCAK256 SWAP2 PUSH1 0x0 SWAP1 JUMPDEST DUP3 DUP3 LT PUSH2 0x1F91 JUMPI PUSH2 0x4BC DUP6 PUSH2 0x5F3 DUP2 DUP10 SUB DUP3 PUSH2 0x2406 JUMP JUMPDEST DUP4 SLOAD DUP7 MSTORE SWAP5 DUP6 ADD SWAP5 PUSH1 0x1 SWAP4 DUP5 ADD SWAP4 SWAP1 SWAP2 ADD SWAP1 PUSH2 0x1F7A JUMP JUMPDEST CALLVALUE PUSH2 0x1FB JUMPI PUSH1 0x40 CALLDATASIZE PUSH1 0x3 NOT ADD SLT PUSH2 0x1FB JUMPI PUSH1 0x4 CALLDATALOAD PUSH2 0x1FC4 PUSH2 0x2508 JUMP JUMPDEST DUP2 PUSH1 0x0 MSTORE PUSH1 0x0 PUSH1 0x20 MSTORE PUSH2 0x1FDE PUSH1 0x1 PUSH1 0x40 PUSH1 0x0 KECCAK256 ADD SLOAD PUSH2 0x291B JUMP JUMPDEST DUP2 PUSH1 0x0 MSTORE PUSH1 0x0 PUSH1 0x20 MSTORE PUSH1 0x40 PUSH1 0x0 KECCAK256 SWAP1 PUSH1 0x1 DUP1 PUSH1 0xA0 SHL SUB AND SWAP1 DUP2 PUSH1 0x0 MSTORE PUSH1 0x20 MSTORE PUSH1 0xFF PUSH1 0x40 PUSH1 0x0 KECCAK256 SLOAD AND ISZERO PUSH2 0x200D JUMPI STOP JUMPDEST DUP2 PUSH1 0x0 MSTORE PUSH1 0x0 PUSH1 0x20 MSTORE PUSH1 0x40 PUSH1 0x0 KECCAK256 DUP2 PUSH1 0x0 MSTORE PUSH1 0x20 MSTORE PUSH1 0x40 PUSH1 0x0 KECCAK256 PUSH1 0x1 PUSH1 0xFF NOT DUP3 SLOAD AND OR SWAP1 SSTORE CALLER SWAP2 PUSH32 0x2F8788117E7EFF1D82E926EC794901D17C78024A50270940304540A733656F0D PUSH1 0x0 DUP1 LOG4 STOP JUMPDEST CALLVALUE PUSH2 0x1FB JUMPI PUSH1 0x20 DUP1 PUSH1 0x3 NOT CALLDATASIZE ADD SLT PUSH2 0x1FB JUMPI PUSH1 0x4 CALLDATALOAD PUSH1 0x0 MSTORE PUSH1 0x7 DUP2 MSTORE PUSH1 0x40 PUSH1 0x0 KECCAK256 SWAP1 PUSH1 0x40 MLOAD SWAP1 DUP2 DUP2 DUP5 SLOAD SWAP2 DUP3 DUP2 MSTORE ADD SWAP4 PUSH1 0x0 MSTORE DUP2 PUSH1 0x0 KECCAK256 SWAP2 PUSH1 0x0 SWAP1 JUMPDEST DUP3 DUP3 LT PUSH2 0x20AE JUMPI PUSH2 0x4BC DUP6 PUSH2 0x5F3 DUP2 DUP10 SUB DUP3 PUSH2 0x2406 JUMP JUMPDEST DUP4 SLOAD DUP7 MSTORE SWAP5 DUP6 ADD SWAP5 PUSH1 0x1 SWAP4 DUP5 ADD SWAP4 SWAP1 SWAP2 ADD SWAP1 PUSH2 0x2097 JUMP JUMPDEST CALLVALUE PUSH2 0x1FB JUMPI PUSH1 0x20 CALLDATASIZE PUSH1 0x3 NOT ADD SLT PUSH2 0x1FB JUMPI PUSH1 0x4 CALLDATALOAD PUSH1 0x0 MSTORE PUSH1 0x4 PUSH1 0x20 MSTORE PUSH1 0x40 PUSH1 0x0 KECCAK256 DUP1 SLOAD PUSH1 0x1 DUP3 ADD SLOAD SWAP2 PUSH1 0xFF PUSH2 0x214D PUSH1 0x2 DUP4 ADD SLOAD SWAP3 PUSH1 0x3 DUP2 ADD SLOAD PUSH1 0x4 DUP3 ADD SLOAD PUSH1 0x5 DUP4 ADD SLOAD SWAP2 PUSH1 0x8 PUSH2 0x2117 PUSH1 0x7 DUP7 ADD PUSH2 0x2427 JUMP JUMPDEST SWAP5 ADD SLOAD SWAP7 PUSH1 0x40 MLOAD SWAP10 DUP11 SWAP10 DUP11 MSTORE PUSH1 0x20 DUP11 ADD MSTORE PUSH1 0x40 DUP10 ADD MSTORE PUSH1 0x60 DUP9 ADD MSTORE PUSH1 0x80 DUP8 ADD MSTORE PUSH1 0xA0 DUP7 ADD MSTORE PUSH2 0x120 DUP1 PUSH1 0xC0 DUP8 ADD MSTORE DUP6 ADD SWAP1 PUSH2 0x238C JUMP JUMPDEST PUSH1 0x1 PUSH1 0x1 PUSH1 0xA0 SHL SUB DUP4 AND PUSH1 0xE0 DUP6 ADD MSTORE PUSH1 0xA0 SWAP3 SWAP1 SWAP3 SHR AND ISZERO ISZERO PUSH2 0x100 DUP4 ADD MSTORE SUB SWAP1 RETURN JUMPDEST CALLVALUE PUSH2 0x1FB JUMPI PUSH1 0x20 CALLDATASIZE PUSH1 0x3 NOT ADD SLT PUSH2 0x1FB JUMPI PUSH1 0x4 CALLDATALOAD PUSH1 0x0 MSTORE PUSH1 0x0 PUSH1 0x20 MSTORE PUSH1 0x20 PUSH1 0x1 PUSH1 0x40 PUSH1 0x0 KECCAK256 ADD SLOAD PUSH1 0x40 MLOAD SWAP1 DUP2 MSTORE RETURN JUMPDEST CALLVALUE PUSH2 0x1FB JUMPI PUSH1 0x20 DUP1 PUSH1 0x3 NOT CALLDATASIZE ADD SLT PUSH2 0x1FB JUMPI PUSH1 0x4 CALLDATALOAD PUSH1 0x0 MSTORE PUSH1 0x4 DUP2 MSTORE PUSH1 0x40 PUSH1 0x0 KECCAK256 PUSH1 0x8 DUP2 ADD SLOAD PUSH1 0xFF DUP2 PUSH1 0xA0 SHR AND ISZERO PUSH2 0x229D JUMPI PUSH1 0x1 SWAP2 DUP3 DUP2 ADD SLOAD SWAP3 PUSH1 0x2 DUP3 ADD SLOAD SWAP2 PUSH1 0x3 DUP2 ADD SLOAD PUSH1 0x4 DUP3 ADD SLOAD SWAP1 PUSH1 0x5 DUP4 ADD SLOAD SWAP3 PUSH1 0x6 DUP2 ADD PUSH1 0x40 MLOAD DUP1 SWAP7 DUP12 DUP4 SLOAD SWAP3 DUP4 DUP2 MSTORE ADD SWAP3 PUSH1 0x0 MSTORE DUP12 PUSH1 0x0 KECCAK256 SWAP2 PUSH1 0x0 JUMPDEST DUP14 DUP3 DUP3 LT PUSH2 0x228A JUMPI POP POP POP POP POP SWAP2 PUSH2 0x223C PUSH1 0x7 DUP8 SWAP6 SWAP4 PUSH2 0x2236 PUSH2 0x2276 SWAP11 SWAP10 PUSH2 0x2268 SWAP10 SWAP8 SUB DUP9 PUSH2 0x2406 JUMP JUMPDEST ADD PUSH2 0x2427 JUMP JUMPDEST SWAP6 PUSH1 0x40 MLOAD SWAP11 DUP12 SWAP11 DUP12 MSTORE DUP11 ADD MSTORE PUSH1 0x40 DUP10 ADD MSTORE PUSH1 0x60 DUP9 ADD MSTORE PUSH1 0x80 DUP8 ADD MSTORE PUSH2 0x100 DUP1 PUSH1 0xA0 DUP9 ADD MSTORE DUP7 ADD SWAP1 PUSH2 0x2335 JUMP JUMPDEST SWAP1 DUP5 DUP3 SUB PUSH1 0xC0 DUP7 ADD MSTORE PUSH2 0x238C JUMP JUMPDEST PUSH1 0x1 PUSH1 0x1 PUSH1 0xA0 SHL SUB SWAP1 SWAP2 AND PUSH1 0xE0 DUP4 ADD MSTORE SUB SWAP1 RETURN JUMPDEST DUP5 SLOAD DUP7 MSTORE SWAP1 SWAP5 ADD SWAP4 SWAP3 DUP3 ADD SWAP3 DUP3 ADD PUSH2 0x220C JUMP JUMPDEST PUSH1 0x40 MLOAD PUSH3 0x461BCD PUSH1 0xE5 SHL DUP2 MSTORE PUSH1 0x4 DUP2 ADD DUP5 SWAP1 MSTORE PUSH1 0x17 PUSH1 0x24 DUP3 ADD MSTORE PUSH32 0x4669786174696F6E20646F6573206E6F74206578697374000000000000000000 PUSH1 0x44 DUP3 ADD MSTORE PUSH1 0x64 SWAP1 REVERT JUMPDEST CALLVALUE PUSH2 0x1FB JUMPI PUSH1 0x20 CALLDATASIZE PUSH1 0x3 NOT ADD SLT PUSH2 0x1FB JUMPI PUSH1 0x4 CALLDATALOAD SWAP1 PUSH4 0xFFFFFFFF PUSH1 0xE0 SHL DUP3 AND DUP1 SWAP3 SUB PUSH2 0x1FB JUMPI PUSH1 0x20 SWAP2 PUSH4 0x7965DB0B PUSH1 0xE0 SHL DUP2 EQ SWAP1 DUP2 ISZERO PUSH2 0x2324 JUMPI JUMPDEST POP ISZERO ISZERO DUP2 MSTORE RETURN JUMPDEST PUSH4 0x1FFC9A7 PUSH1 0xE0 SHL EQ SWAP1 POP DUP4 PUSH2 0x231D JUMP JUMPDEST SWAP1 DUP2 MLOAD DUP1 DUP3 MSTORE PUSH1 0x20 DUP1 DUP1 SWAP4 ADD SWAP4 ADD SWAP2 PUSH1 0x0 JUMPDEST DUP3 DUP2 LT PUSH2 0x2355 JUMPI POP POP POP POP SWAP1 JUMP JUMPDEST DUP4 MLOAD DUP6 MSTORE SWAP4 DUP2 ADD SWAP4 SWAP3 DUP2 ADD SWAP3 PUSH1 0x1 ADD PUSH2 0x2347 JUMP JUMPDEST PUSH1 0x0 JUMPDEST DUP4 DUP2 LT PUSH2 0x237C JUMPI POP POP PUSH1 0x0 SWAP2 ADD MSTORE JUMP JUMPDEST DUP2 DUP2 ADD MLOAD DUP4 DUP3 ADD MSTORE PUSH1 0x20 ADD PUSH2 0x236C JUMP JUMPDEST SWAP1 PUSH1 0x20 SWAP2 PUSH2 0x23A5 DUP2 MLOAD DUP1 SWAP3 DUP2 DUP6 MSTORE DUP6 DUP1 DUP7 ADD SWAP2 ADD PUSH2 0x2369 JUMP JUMPDEST PUSH1 0x1F ADD PUSH1 0x1F NOT AND ADD ADD SWAP1 JUMP JUMPDEST SWAP1 PUSH1 0x1 DUP3 DUP2 SHR SWAP3 AND DUP1 ISZERO PUSH2 0x23E1 JUMPI JUMPDEST PUSH1 0x20 DUP4 LT EQ PUSH2 0x23CB JUMPI JUMP JUMPDEST PUSH4 0x4E487B71 PUSH1 0xE0 SHL PUSH1 0x0 MSTORE PUSH1 0x22 PUSH1 0x4 MSTORE PUSH1 0x24 PUSH1 0x0 REVERT JUMPDEST SWAP2 PUSH1 0x7F AND SWAP2 PUSH2 0x23C0 JUMP JUMPDEST PUSH1 0x80 DUP2 ADD SWAP1 DUP2 LT PUSH1 0x1 PUSH1 0x1 PUSH1 0x40 SHL SUB DUP3 GT OR PUSH2 0xCDA JUMPI PUSH1 0x40 MSTORE JUMP JUMPDEST SWAP1 PUSH1 0x1F DUP1 NOT SWAP2 ADD AND DUP2 ADD SWAP1 DUP2 LT PUSH1 0x1 PUSH1 0x1 PUSH1 0x40 SHL SUB DUP3 GT OR PUSH2 0xCDA JUMPI PUSH1 0x40 MSTORE JUMP JUMPDEST SWAP1 PUSH1 0x40 MLOAD SWAP2 DUP3 PUSH1 0x0 DUP3 SLOAD SWAP3 PUSH2 0x243B DUP5 PUSH2 0x23B1 JUMP JUMPDEST SWAP1 DUP2 DUP5 MSTORE PUSH1 0x1 SWAP5 DUP6 DUP2 AND SWAP1 DUP2 PUSH1 0x0 EQ PUSH2 0x24AA JUMPI POP PUSH1 0x1 EQ PUSH2 0x2467 JUMPI JUMPDEST POP POP PUSH2 0x2465 SWAP3 POP SUB DUP4 PUSH2 0x2406 JUMP JUMPDEST JUMP JUMPDEST SWAP1 SWAP4 SWAP2 POP PUSH1 0x0 MSTORE PUSH1 0x20 SWAP1 DUP2 PUSH1 0x0 KECCAK256 SWAP4 PUSH1 0x0 SWAP2 JUMPDEST DUP2 DUP4 LT PUSH2 0x2492 JUMPI POP POP PUSH2 0x2465 SWAP4 POP DUP3 ADD ADD CODESIZE DUP1 PUSH2 0x2457 JUMP JUMPDEST DUP6 SLOAD DUP9 DUP5 ADD DUP6 ADD MSTORE SWAP5 DUP6 ADD SWAP5 DUP8 SWAP5 POP SWAP2 DUP4 ADD SWAP2 PUSH2 0x247A JUMP JUMPDEST SWAP2 POP POP PUSH2 0x2465 SWAP5 POP PUSH1 0x20 SWAP3 POP PUSH1 0xFF NOT AND DUP3 DUP5 ADD MSTORE ISZERO ISZERO PUSH1 0x5 SHL DUP3 ADD ADD CODESIZE DUP1 PUSH2 0x2457 JUMP JUMPDEST PUSH1 0x20 SWAP1 DUP2 PUSH1 0x40 DUP2 DUP4 ADD SWAP3 DUP3 DUP2 MSTORE DUP6 MLOAD DUP1 SWAP5 MSTORE ADD SWAP4 ADD SWAP2 PUSH1 0x0 JUMPDEST DUP3 DUP2 LT PUSH2 0x24F4 JUMPI POP POP POP POP SWAP1 JUMP JUMPDEST DUP4 MLOAD DUP6 MSTORE SWAP4 DUP2 ADD SWAP4 SWAP3 DUP2 ADD SWAP3 PUSH1 0x1 ADD PUSH2 0x24E6 JUMP JUMPDEST PUSH1 0x24 CALLDATALOAD SWAP1 PUSH1 0x1 PUSH1 0x1 PUSH1 0xA0 SHL SUB DUP3 AND DUP3 SUB PUSH2 0x1FB JUMPI JUMP JUMPDEST PUSH1 0x4 CALLDATALOAD SWAP1 PUSH1 0x1 PUSH1 0x1 PUSH1 0xA0 SHL SUB DUP3 AND DUP3 SUB PUSH2 0x1FB JUMPI JUMP JUMPDEST PUSH1 0x1 PUSH1 0x1 PUSH1 0x40 SHL SUB DUP2 GT PUSH2 0xCDA JUMPI PUSH1 0x5 SHL PUSH1 0x20 ADD SWAP1 JUMP JUMPDEST DUP1 SLOAD DUP3 LT ISZERO PUSH2 0x2563 JUMPI PUSH1 0x0 MSTORE PUSH1 0x20 PUSH1 0x0 KECCAK256 ADD SWAP1 PUSH1 0x0 SWAP1 JUMP JUMPDEST PUSH4 0x4E487B71 PUSH1 0xE0 SHL PUSH1 0x0 MSTORE PUSH1 0x32 PUSH1 0x4 MSTORE PUSH1 0x24 PUSH1 0x0 REVERT JUMPDEST DUP2 PUSH1 0x1F DUP3 ADD SLT ISZERO PUSH2 0x1FB JUMPI DUP1 CALLDATALOAD SWAP1 PUSH1 0x1 PUSH1 0x1 PUSH1 0x40 SHL SUB DUP3 GT PUSH2 0xCDA JUMPI PUSH1 0x40 MLOAD SWAP3 PUSH2 0x25AD PUSH1 0x1F DUP5 ADD PUSH1 0x1F NOT AND PUSH1 0x20 ADD DUP6 PUSH2 0x2406 JUMP JUMPDEST DUP3 DUP5 MSTORE PUSH1 0x20 DUP4 DUP4 ADD ADD GT PUSH2 0x1FB JUMPI DUP2 PUSH1 0x0 SWAP3 PUSH1 0x20 DUP1 SWAP4 ADD DUP4 DUP7 ADD CALLDATACOPY DUP4 ADD ADD MSTORE SWAP1 JUMP JUMPDEST SWAP1 PUSH1 0x4 DUP3 LT ISZERO PUSH2 0x1E5 JUMPI MSTORE JUMP JUMPDEST CALLER PUSH1 0x0 SWAP1 DUP2 MSTORE PUSH32 0xEE57CD81E84075558E8FCC182A1F4393F91FC97F963A136E66B7F949A62F319F PUSH1 0x20 SWAP1 DUP2 MSTORE PUSH1 0x40 DUP1 DUP4 KECCAK256 SLOAD SWAP1 SWAP3 PUSH32 0x97667070C54EF182B0F5858B034BEAC1B6F3089AA2D3188BB1E8929F4FA9B929 SWAP2 PUSH1 0xFF AND ISZERO PUSH2 0x2640 JUMPI POP POP POP POP JUMP JUMPDEST PUSH2 0x2649 CALLER PUSH2 0x2AB7 JUMP JUMPDEST SWAP2 DUP5 MLOAD SWAP1 PUSH2 0x2656 DUP3 PUSH2 0x23EB JUMP JUMPDEST PUSH1 0x42 DUP3 MSTORE DUP5 DUP3 ADD SWAP3 PUSH1 0x60 CALLDATASIZE DUP6 CALLDATACOPY DUP3 MLOAD ISZERO PUSH2 0x27E3 JUMPI PUSH1 0x30 DUP5 MSTORE8 DUP3 MLOAD SWAP1 PUSH1 0x1 SWAP2 DUP3 LT ISZERO PUSH2 0x27E3 JUMPI SWAP1 PUSH1 0x78 PUSH1 0x21 DUP6 ADD MSTORE8 PUSH1 0x41 SWAP2 JUMPDEST DUP2 DUP4 GT PUSH2 0x2775 JUMPI POP POP POP PUSH2 0x2733 JUMPI PUSH1 0x48 PUSH2 0x272F SWAP4 DUP7 SWAP4 PUSH2 0x2713 SWAP4 PUSH2 0x2704 SWAP9 MLOAD SWAP9 DUP10 SWAP4 PUSH23 0x20B1B1B2B9B9A1B7B73A3937B61D1030B1B1B7BAB73A1 PUSH1 0x4D SHL DUP11 DUP7 ADD MSTORE PUSH2 0x26DB DUP2 MLOAD DUP1 SWAP3 DUP13 PUSH1 0x37 DUP10 ADD SWAP2 ADD PUSH2 0x2369 JUMP JUMPDEST DUP5 ADD SWAP2 PUSH17 0x1034B99036B4B9B9B4B733903937B6329 PUSH1 0x7D SHL PUSH1 0x37 DUP5 ADD MSTORE MLOAD DUP1 SWAP4 DUP7 DUP5 ADD SWAP1 PUSH2 0x2369 JUMP JUMPDEST ADD SUB PUSH1 0x28 DUP2 ADD DUP8 MSTORE ADD DUP6 PUSH2 0x2406 JUMP JUMPDEST MLOAD SWAP3 DUP4 SWAP3 PUSH3 0x461BCD PUSH1 0xE5 SHL DUP5 MSTORE PUSH1 0x4 DUP5 ADD MSTORE PUSH1 0x24 DUP4 ADD SWAP1 PUSH2 0x238C JUMP JUMPDEST SUB SWAP1 REVERT JUMPDEST PUSH1 0x64 DUP5 DUP7 MLOAD SWAP1 PUSH3 0x461BCD PUSH1 0xE5 SHL DUP3 MSTORE DUP1 PUSH1 0x4 DUP4 ADD MSTORE PUSH1 0x24 DUP3 ADD MSTORE PUSH32 0x537472696E67733A20686578206C656E67746820696E73756666696369656E74 PUSH1 0x44 DUP3 ADD MSTORE REVERT JUMPDEST SWAP1 SWAP2 SWAP3 PUSH1 0xF DUP2 AND PUSH1 0x10 DUP2 LT ISZERO PUSH2 0x27CF JUMPI PUSH16 0x181899199A1A9B1B9C1CB0B131B232B3 PUSH1 0x81 SHL SWAP1 BYTE PUSH2 0x27A5 DUP6 DUP8 PUSH2 0x2AA6 JUMP JUMPDEST MSTORE8 PUSH1 0x4 SHR SWAP3 DUP1 ISZERO PUSH2 0x27BB JUMPI PUSH1 0x0 NOT ADD SWAP2 SWAP1 PUSH2 0x2687 JUMP JUMPDEST PUSH4 0x4E487B71 PUSH1 0xE0 SHL DUP3 MSTORE PUSH1 0x11 PUSH1 0x4 MSTORE PUSH1 0x24 DUP3 REVERT JUMPDEST PUSH4 0x4E487B71 PUSH1 0xE0 SHL DUP4 MSTORE PUSH1 0x32 PUSH1 0x4 MSTORE PUSH1 0x24 DUP4 REVERT JUMPDEST PUSH4 0x4E487B71 PUSH1 0xE0 SHL DUP2 MSTORE PUSH1 0x32 PUSH1 0x4 MSTORE PUSH1 0x24 SWAP1 REVERT JUMPDEST CALLER PUSH1 0x0 SWAP1 DUP2 MSTORE PUSH32 0xAD3228B676F7D3CD4284A5443F17F1962B36E491B30A40B2405849E597BA5FB5 PUSH1 0x20 SWAP1 DUP2 MSTORE PUSH1 0x40 DUP1 DUP4 KECCAK256 SLOAD SWAP1 SWAP3 SWAP1 PUSH1 0xFF AND ISZERO PUSH2 0x2839 JUMPI POP POP POP JUMP JUMPDEST PUSH2 0x2842 CALLER PUSH2 0x2AB7 JUMP JUMPDEST SWAP1 DUP1 DUP5 MLOAD SWAP1 PUSH2 0x2850 DUP3 PUSH2 0x23EB JUMP JUMPDEST PUSH1 0x42 DUP3 MSTORE DUP5 DUP3 ADD SWAP3 PUSH1 0x60 CALLDATASIZE DUP6 CALLDATACOPY DUP3 MLOAD ISZERO PUSH2 0x27E3 JUMPI PUSH1 0x30 DUP5 MSTORE8 DUP3 MLOAD SWAP1 PUSH1 0x1 SWAP2 DUP3 LT ISZERO PUSH2 0x27E3 JUMPI SWAP1 PUSH1 0x78 PUSH1 0x21 DUP6 ADD MSTORE8 PUSH1 0x41 SWAP2 JUMPDEST DUP2 DUP4 GT PUSH2 0x28D5 JUMPI POP POP POP PUSH2 0x2733 JUMPI PUSH1 0x48 PUSH2 0x272F SWAP4 DUP7 SWAP4 PUSH2 0x2713 SWAP4 PUSH2 0x2704 SWAP9 MLOAD SWAP9 DUP10 SWAP4 PUSH23 0x20B1B1B2B9B9A1B7B73A3937B61D1030B1B1B7BAB73A1 PUSH1 0x4D SHL DUP11 DUP7 ADD MSTORE PUSH2 0x26DB DUP2 MLOAD DUP1 SWAP3 DUP13 PUSH1 0x37 DUP10 ADD SWAP2 ADD PUSH2 0x2369 JUMP JUMPDEST SWAP1 SWAP2 SWAP3 PUSH1 0xF DUP2 AND PUSH1 0x10 DUP2 LT ISZERO PUSH2 0x27CF JUMPI PUSH16 0x181899199A1A9B1B9C1CB0B131B232B3 PUSH1 0x81 SHL SWAP1 BYTE PUSH2 0x2905 DUP6 DUP8 PUSH2 0x2AA6 JUMP JUMPDEST MSTORE8 PUSH1 0x4 SHR SWAP3 DUP1 ISZERO PUSH2 0x27BB JUMPI PUSH1 0x0 NOT ADD SWAP2 SWAP1 PUSH2 0x2881 JUMP JUMPDEST PUSH1 0x0 SWAP1 DUP1 DUP3 MSTORE PUSH1 0x20 SWAP1 DUP3 DUP3 MSTORE PUSH1 0x40 SWAP3 DUP4 DUP2 KECCAK256 CALLER DUP3 MSTORE DUP4 MSTORE PUSH1 0xFF DUP5 DUP3 KECCAK256 SLOAD AND ISZERO PUSH2 0x2944 JUMPI POP POP POP POP JUMP JUMPDEST PUSH2 0x294D CALLER PUSH2 0x2AB7 JUMP JUMPDEST SWAP2 DUP5 MLOAD SWAP1 PUSH2 0x295A DUP3 PUSH2 0x23EB JUMP JUMPDEST PUSH1 0x42 DUP3 MSTORE DUP5 DUP3 ADD SWAP3 PUSH1 0x60 CALLDATASIZE DUP6 CALLDATACOPY DUP3 MLOAD ISZERO PUSH2 0x27E3 JUMPI PUSH1 0x30 DUP5 MSTORE8 DUP3 MLOAD SWAP1 PUSH1 0x1 SWAP2 DUP3 LT ISZERO PUSH2 0x27E3 JUMPI SWAP1 PUSH1 0x78 PUSH1 0x21 DUP6 ADD MSTORE8 PUSH1 0x41 SWAP2 JUMPDEST DUP2 DUP4 GT PUSH2 0x29DF JUMPI POP POP POP PUSH2 0x2733 JUMPI PUSH1 0x48 PUSH2 0x272F SWAP4 DUP7 SWAP4 PUSH2 0x2713 SWAP4 PUSH2 0x2704 SWAP9 MLOAD SWAP9 DUP10 SWAP4 PUSH23 0x20B1B1B2B9B9A1B7B73A3937B61D1030B1B1B7BAB73A1 PUSH1 0x4D SHL DUP11 DUP7 ADD MSTORE PUSH2 0x26DB DUP2 MLOAD DUP1 SWAP3 DUP13 PUSH1 0x37 DUP10 ADD SWAP2 ADD PUSH2 0x2369 JUMP JUMPDEST SWAP1 SWAP2 SWAP3 PUSH1 0xF DUP2 AND PUSH1 0x10 DUP2 LT ISZERO PUSH2 0x27CF JUMPI PUSH16 0x181899199A1A9B1B9C1CB0B131B232B3 PUSH1 0x81 SHL SWAP1 BYTE PUSH2 0x2A0F DUP6 DUP8 PUSH2 0x2AA6 JUMP JUMPDEST MSTORE8 PUSH1 0x4 SHR SWAP3 DUP1 ISZERO PUSH2 0x27BB JUMPI PUSH1 0x0 NOT ADD SWAP2 SWAP1 PUSH2 0x298B JUMP JUMPDEST SWAP1 PUSH1 0x0 SWAP2 DUP1 DUP4 MSTORE DUP3 PUSH1 0x20 MSTORE PUSH1 0x40 DUP4 KECCAK256 SWAP2 PUSH1 0x1 DUP1 PUSH1 0xA0 SHL SUB AND SWAP2 DUP3 DUP5 MSTORE PUSH1 0x20 MSTORE PUSH1 0xFF PUSH1 0x40 DUP5 KECCAK256 SLOAD AND PUSH2 0x2A55 JUMPI POP POP POP JUMP JUMPDEST DUP1 DUP4 MSTORE DUP3 PUSH1 0x20 MSTORE PUSH1 0x40 DUP4 KECCAK256 DUP3 DUP5 MSTORE PUSH1 0x20 MSTORE PUSH1 0x40 DUP4 KECCAK256 PUSH1 0xFF NOT DUP2 SLOAD AND SWAP1 SSTORE PUSH32 0xF6391F5C32D9C69D2A47EA670B442974B53935D1EDC7FD64EB21E047A839171B CALLER SWAP4 DUP1 LOG4 JUMP JUMPDEST SWAP2 SWAP1 DUP3 ADD DUP1 SWAP3 GT PUSH2 0xDE8 JUMPI JUMP JUMPDEST SWAP1 DUP2 MLOAD DUP2 LT ISZERO PUSH2 0x2563 JUMPI ADD PUSH1 0x20 ADD SWAP1 JUMP JUMPDEST PUSH1 0x40 MLOAD SWAP1 PUSH1 0x60 DUP3 ADD DUP3 DUP2 LT PUSH1 0x1 PUSH1 0x1 PUSH1 0x40 SHL SUB DUP3 GT OR PUSH2 0xCDA JUMPI PUSH1 0x40 MSTORE PUSH1 0x2A DUP3 MSTORE PUSH1 0x20 DUP3 ADD PUSH1 0x40 CALLDATASIZE DUP3 CALLDATACOPY DUP3 MLOAD ISZERO PUSH2 0x2563 JUMPI PUSH1 0x30 SWAP1 MSTORE8 DUP2 MLOAD PUSH1 0x1 SWAP1 DUP2 LT ISZERO PUSH2 0x2563 JUMPI PUSH1 0x78 PUSH1 0x21 DUP5 ADD MSTORE8 PUSH1 0x29 SWAP1 JUMPDEST DUP1 DUP3 GT PUSH2 0x2B57 JUMPI POP POP PUSH2 0x2B13 JUMPI SWAP1 JUMP JUMPDEST PUSH1 0x64 PUSH1 0x40 MLOAD PUSH3 0x461BCD PUSH1 0xE5 SHL DUP2 MSTORE PUSH1 0x20 PUSH1 0x4 DUP3 ADD MSTORE PUSH1 0x20 PUSH1 0x24 DUP3 ADD MSTORE PUSH32 0x537472696E67733A20686578206C656E67746820696E73756666696369656E74 PUSH1 0x44 DUP3 ADD MSTORE REVERT JUMPDEST SWAP1 SWAP2 PUSH1 0xF DUP2 AND PUSH1 0x10 DUP2 LT ISZERO PUSH2 0x2BB0 JUMPI PUSH16 0x181899199A1A9B1B9C1CB0B131B232B3 PUSH1 0x81 SHL SWAP1 BYTE PUSH2 0x2B86 DUP5 DUP7 PUSH2 0x2AA6 JUMP JUMPDEST MSTORE8 PUSH1 0x4 SHR SWAP2 DUP1 ISZERO PUSH2 0x2B9B JUMPI PUSH1 0x0 NOT ADD SWAP1 PUSH2 0x2B03 JUMP JUMPDEST PUSH1 0x24 PUSH1 0x0 PUSH4 0x4E487B71 PUSH1 0xE0 SHL DUP2 MSTORE PUSH1 0x11 PUSH1 0x4 MSTORE REVERT JUMPDEST PUSH1 0x24 PUSH1 0x0 PUSH4 0x4E487B71 PUSH1 0xE0 SHL DUP2 MSTORE PUSH1 0x32 PUSH1 0x4 MSTORE REVERT JUMPDEST DUP2 DUP2 LT PUSH2 0x2BD0 JUMPI POP POP JUMP JUMPDEST PUSH1 0x0 DUP2 SSTORE PUSH1 0x1 ADD PUSH2 0x2BC5 JUMP JUMPDEST SWAP1 PUSH1 0x4 DUP2 LT ISZERO PUSH2 0x1E5 JUMPI PUSH1 0xFF DUP1 NOT DUP4 SLOAD AND SWAP2 AND OR SWAP1 SSTORE JUMP JUMPDEST DUP1 SLOAD PUSH1 0x1 PUSH1 0x40 SHL DUP2 LT ISZERO PUSH2 0xCDA JUMPI PUSH2 0x2C11 SWAP2 PUSH1 0x1 DUP3 ADD DUP2 SSTORE PUSH2 0x254B JUMP JUMPDEST DUP2 SWAP3 SWAP2 SLOAD SWAP1 PUSH1 0x3 SHL SWAP2 DUP3 SHL SWAP2 PUSH1 0x0 NOT SWAP1 SHL NOT AND OR SWAP1 SSTORE JUMP JUMPDEST PUSH1 0x0 NOT DUP2 EQ PUSH2 0xDE8 JUMPI PUSH1 0x1 ADD SWAP1 JUMP JUMPDEST PUSH1 0xFF PUSH1 0x2 SLOAD AND PUSH2 0x2C44 JUMPI JUMP JUMPDEST PUSH1 0x40 MLOAD PUSH3 0x461BCD PUSH1 0xE5 SHL DUP2 MSTORE PUSH1 0x20 PUSH1 0x4 DUP3 ADD MSTORE PUSH1 0x10 PUSH1 0x24 DUP3 ADD MSTORE PUSH16 0x14185D5CD8589B194E881C185D5CD959 PUSH1 0x82 SHL PUSH1 0x44 DUP3 ADD MSTORE PUSH1 0x64 SWAP1 REVERT JUMPDEST ISZERO PUSH2 0x2C83 JUMPI JUMP JUMPDEST PUSH1 0x40 MLOAD PUSH3 0x461BCD PUSH1 0xE5 SHL DUP2 MSTORE PUSH1 0x20 PUSH1 0x4 DUP3 ADD MSTORE PUSH1 0x17 PUSH1 0x24 DUP3 ADD MSTORE PUSH32 0x436F6E747261637420646F6573206E6F74206578697374000000000000000000 PUSH1 0x44 DUP3 ADD MSTORE PUSH1 0x64 SWAP1 REVERT JUMPDEST SWAP2 SWAP1 DUP3 SUB SWAP2 DUP3 GT PUSH2 0xDE8 JUMPI JUMP JUMPDEST DUP1 MLOAD DUP3 LT ISZERO PUSH2 0x2563 JUMPI PUSH1 0x20 SWAP2 PUSH1 0x5 SHL ADD ADD SWAP1 JUMP INVALID LOG2 PUSH5 0x6970667358 0x22 SLT KECCAK256 LOG2 0xCF SLT PUSH20 0xC2FB637889D20D73CCE962AF944D14D70F970BD1 CALL PUSH26 0xB4EB6B45D22A64736F6C634300081300332F8788117E7EFF1D82 0xE9 0x26 0xEC PUSH26 0x4901D17C78024A50270940304540A733656F0D00000000000000 "},"methodIdentifiers":{"BUYER_ROLE()":"7a01a1da","DEFAULT_ADMIN_ROLE()":"a217fddf","EXPORTER_ROLE()":"f2a6a241","OPERATOR_ROLE()":"f5b541a6","changeContractStatus(bytes32,uint8)":"b70e3a93","contracts(bytes32)":"ec56a373","contractsByBuyer(address,uint256)":"ce25dade","contractsByExporter(address,uint256)":"851c79bf","createContract(address,address,string,string,string,uint256,int256,uint256,uint256,uint256)":"9cb977f8","fixations(bytes32)":"26519e3b","fixationsByContract(bytes32,uint256)":"dd8bc056","getContract(bytes32)":"e16c7d98","getContractsByBuyer(address)":"33897e52","getContractsByExporter(address)":"c6c49a36","getFixation(bytes32)":"2380d787","getFixationsByContract(bytes32)":"2b879360","getPendingVolume(bytes32)":"4dc5e237","getRoleAdmin(bytes32)":"248a9ca3","getStats()":"c59d4847","grantRole(bytes32,address)":"2f2ff15d","hasRole(bytes32,address)":"91d14854","isContractExpired(bytes32)":"ff5e90d9","markExpiredContracts(bytes32[])":"37311510","pause()":"8456cb59","paused()":"5c975abb","registerFixation(bytes32,uint256,uint256,uint256[],string)":"a3662c4b","renounceRole(bytes32,address)":"36568abe","revokeRole(bytes32,address)":"d547741f","supportsInterface(bytes4)":"01ffc9a7","totalContracts()":"a09037a9","totalFixations()":"9100c28f","unpause()":"3f4ba83a"}},"storageLayout":{"storage":[{"astId":24,"contract":"contracts/AgroExportContract.sol:AgroExportContract","label":"_roles","offset":0,"slot":"0","type":"t_mapping(t_bytes32,t_struct(RoleData)19_storage)"},{"astId":535,"contract":"contracts/AgroExportContract.sol:AgroExportContract","label":"_status","offset":0,"slot":"1","type":"t_uint256"},{"astId":434,"contract":"contracts/AgroExportContract.sol:AgroExportContract","label":"_paused","offset":0,"slot":"2","type":"t_bool"},{"astId":3979,"contract":"contracts/AgroExportContract.sol:AgroExportContract","label":"contracts","offset":0,"slot":"3","type":"t_mapping(t_bytes32,t_struct(ExportContract)3952_storage)"},{"astId":3984,"contract":"contracts/AgroExportContract.sol:AgroExportContract","label":"fixations","offset":0,"slot":"4","type":"t_mapping(t_bytes32,t_struct(Fixation)3974_storage)"},{"astId":3989,"contract":"contracts/AgroExportContract.sol:AgroExportContract","label":"contractsByExporter","offset":0,"slot":"5","type":"t_mapping(t_address,t_array(t_bytes32)dyn_storage)"},{"astId":3994,"contract":"contracts/AgroExportContract.sol:AgroExportContract","label":"contractsByBuyer","offset":0,"slot":"6","type":"t_mapping(t_address,t_array(t_bytes32)dyn_storage)"},{"astId":3999,"contract":"contracts/AgroExportContract.sol:AgroExportContract","label":"fixationsByContract","offset":0,"slot":"7","type":"t_mapping(t_bytes32,t_array(t_bytes32)dyn_storage)"},{"astId":4001,"contract":"contracts/AgroExportContract.sol:AgroExportContract","label":"totalContracts","offset":0,"slot":"8","type":"t_uint256"},{"astId":4003,"contract":"contracts/AgroExportContract.sol:AgroExportContract","label":"totalFixations","offset":0,"slot":"9","type":"t_uint256"}],"types":{"t_address":{"encoding":"inplace","label":"address","numberOfBytes":"20"},"t_array(t_bytes32)dyn_storage":{"base":"t_bytes32","encoding":"dynamic_array","label":"bytes32[]","numberOfBytes":"32"},"t_array(t_uint256)dyn_storage":{"base":"t_uint256","encoding":"dynamic_array","label":"uint256[]","numberOfBytes":"32"},"t_bool":{"encoding":"inplace","label":"bool","numberOfBytes":"1"},"t_bytes32":{"encoding":"inplace","label":"bytes32","numberOfBytes":"32"},"t_enum(ContractStatus)3920":{"encoding":"inplace","label":"enum AgroExportContract.ContractStatus","numberOfBytes":"1"},"t_int256":{"encoding":"inplace","label":"int256","numberOfBytes":"32"},"t_mapping(t_address,t_array(t_bytes32)dyn_storage)":{"encoding":"mapping","key":"t_address","label":"mapping(address => bytes32[])","numberOfBytes":"32","value":"t_array(t_bytes32)dyn_storage"},"t_mapping(t_address,t_bool)":{"encoding":"mapping","key":"t_address","label":"mapping(address => bool)","numberOfBytes":"32","value":"t_bool"},"t_mapping(t_bytes32,t_array(t_bytes32)dyn_storage)":{"encoding":"mapping","key":"t_bytes32","label":"mapping(bytes32 => bytes32[])","numberOfBytes":"32","value":"t_array(t_bytes32)dyn_storage"},"t_mapping(t_bytes32,t_struct(ExportContract)3952_storage)":{"encoding":"mapping","key":"t_bytes32","label":"mapping(bytes32 => struct AgroExportContract.ExportContract)","numberOfBytes":"32","value":"t_struct(ExportContract)3952_storage"},"t_mapping(t_bytes32,t_struct(Fixation)3974_storage)":{"encoding":"mapping","key":"t_bytes32","label":"mapping(bytes32 => struct AgroExportContract.Fixation)","numberOfBytes":"32","value":"t_struct(Fixation)3974_storage"},"t_mapping(t_bytes32,t_struct(RoleData)19_storage)":{"encoding":"mapping","key":"t_bytes32","label":"mapping(bytes32 => struct AccessControl.RoleData)","numberOfBytes":"32","value":"t_struct(RoleData)19_storage"},"t_string_storage":{"encoding":"bytes","label":"string","numberOfBytes":"32"},"t_struct(ExportContract)3952_storage":{"encoding":"inplace","label":"struct AgroExportContract.ExportContract","members":[{"astId":3922,"contract":"contracts/AgroExportContract.sol:AgroExportContract","label":"contractId","offset":0,"slot":"0","type":"t_bytes32"},{"astId":3924,"contract":"contracts/AgroExportContract.sol:AgroExportContract","label":"buyer","offset":0,"slot":"1","type":"t_address"},{"astId":3926,"contract":"contracts/AgroExportContract.sol:AgroExportContract","label":"exporter","offset":0,"slot":"2","type":"t_address"},{"astId":3928,"contract":"contracts/AgroExportContract.sol:AgroExportContract","label":"contractCode","offset":0,"slot":"3","type":"t_string_storage"},{"astId":3930,"contract":"contracts/AgroExportContract.sol:AgroExportContract","label":"productType","offset":0,"slot":"4","type":"t_string_storage"},{"astId":3932,"contract":"contracts/AgroExportContract.sol:AgroExportContract","label":"productGrade","offset":0,"slot":"5","type":"t_string_storage"},{"astId":3934,"contract":"contracts/AgroExportContract.sol:AgroExportContract","label":"totalVolumeMT","offset":0,"slot":"6","type":"t_uint256"},{"astId":3936,"contract":"contracts/AgroExportContract.sol:AgroExportContract","label":"differentialUSD","offset":0,"slot":"7","type":"t_int256"},{"astId":3938,"contract":"contracts/AgroExportContract.sol:AgroExportContract","label":"contractDate","offset":0,"slot":"8","type":"t_uint256"},{"astId":3940,"contract":"contracts/AgroExportContract.sol:AgroExportContract","label":"startDate","offset":0,"slot":"9","type":"t_uint256"},{"astId":3942,"contract":"contracts/AgroExportContract.sol:AgroExportContract","label":"endDate","offset":0,"slot":"10","type":"t_uint256"},{"astId":3944,"contract":"contracts/AgroExportContract.sol:AgroExportContract","label":"deliveryDate","offset":0,"slot":"11","type":"t_uint256"},{"astId":3946,"contract":"contracts/AgroExportContract.sol:AgroExportContract","label":"fixedVolumeMT","offset":0,"slot":"12","type":"t_uint256"},{"astId":3949,"contract":"contracts/AgroExportContract.sol:AgroExportContract","label":"status","offset":0,"slot":"13","type":"t_enum(ContractStatus)3920"},{"astId":3951,"contract":"contracts/AgroExportContract.sol:AgroExportContract","label":"exists","offset":1,"slot":"13","type":"t_bool"}],"numberOfBytes":"448"},"t_struct(Fixation)3974_storage":{"encoding":"inplace","label":"struct AgroExportContract.Fixation","members":[{"astId":3954,"contract":"contracts/AgroExportContract.sol:AgroExportContract","label":"fixationId","offset":0,"slot":"0","type":"t_bytes32"},{"astId":3956,"contract":"contracts/AgroExportContract.sol:AgroExportContract","label":"contractId","offset":0,"slot":"1","type":"t_bytes32"},{"astId":3958,"contract":"contracts/AgroExportContract.sol:AgroExportContract","label":"fixedQuantityMT","offset":0,"slot":"2","type":"t_uint256"},{"astId":3960,"contract":"contracts/AgroExportContract.sol:AgroExportContract","label":"spotPriceUSD","offset":0,"slot":"3","type":"t_uint256"},{"astId":3962,"contract":"contracts/AgroExportContract.sol:AgroExportContract","label":"finalPriceUSD","offset":0,"slot":"4","type":"t_uint256"},{"astId":3964,"contract":"contracts/AgroExportContract.sol:AgroExportContract","label":"fixationDate","offset":0,"slot":"5","type":"t_uint256"},{"astId":3967,"contract":"contracts/AgroExportContract.sol:AgroExportContract","label":"lotIds","offset":0,"slot":"6","type":"t_array(t_uint256)dyn_storage"},{"astId":3969,"contract":"contracts/AgroExportContract.sol:AgroExportContract","label":"notes","offset":0,"slot":"7","type":"t_string_storage"},{"astId":3971,"contract":"contracts/AgroExportContract.sol:AgroExportContract","label":"registeredBy","offset":0,"slot":"8","type":"t_address"},{"astId":3973,"contract":"contracts/AgroExportContract.sol:AgroExportContract","label":"exists","offset":20,"slot":"8","type":"t_bool"}],"numberOfBytes":"288"},"t_struct(RoleData)19_storage":{"encoding":"inplace","label":"struct AccessControl.RoleData","members":[{"astId":16,"contract":"contracts/AgroExportContract.sol:AgroExportContract","label":"members","offset":0,"slot":"0","type":"t_mapping(t_address,t_bool)"},{"astId":18,"contract":"contracts/AgroExportContract.sol:AgroExportContract","label":"adminRole","offset":0,"slot":"1","type":"t_bytes32"}],"numberOfBytes":"64"},"t_uint256":{"encoding":"inplace","label":"uint256","numberOfBytes":"32"}}}}}}