{"contracts/ProducerLotNFT.sol":{"ProducerLotNFT":{"abi":[{"inputs":[],"stateMutability":"nonpayable","type":"constructor"},{"anonymous":false,"inputs":[{"indexed":true,"internalType":"address","name":"owner","type":"address"},{"indexed":true,"internalType":"address","name":"approved","type":"address"},{"indexed":true,"internalType":"uint256","name":"tokenId","type":"uint256"}],"name":"Approval","type":"event"},{"anonymous":false,"inputs":[{"indexed":true,"internalType":"address","name":"owner","type":"address"},{"indexed":true,"internalType":"address","name":"operator","type":"address"},{"indexed":false,"internalType":"bool","name":"approved","type":"bool"}],"name":"ApprovalForAll","type":"event"},{"anonymous":false,"inputs":[{"indexed":false,"internalType":"uint256","name":"_fromTokenId","type":"uint256"},{"indexed":false,"internalType":"uint256","name":"_toTokenId","type":"uint256"}],"name":"BatchMetadataUpdate","type":"event"},{"anonymous":false,"inputs":[{"indexed":true,"internalType":"uint256","name":"lotId","type":"uint256"},{"indexed":false,"internalType":"string","name":"certification","type":"string"},{"indexed":false,"internalType":"address","name":"addedBy","type":"address"}],"name":"CertificationAdded","type":"event"},{"anonymous":false,"inputs":[{"indexed":true,"internalType":"uint256","name":"lotId","type":"uint256"},{"indexed":true,"internalType":"address","name":"producer","type":"address"},{"indexed":false,"internalType":"string","name":"lotCode","type":"string"},{"indexed":false,"internalType":"uint256","name":"weightKg","type":"uint256"},{"indexed":false,"internalType":"string","name":"productType","type":"string"}],"name":"LotCreated","type":"event"},{"anonymous":false,"inputs":[{"indexed":true,"internalType":"uint256","name":"lotId","type":"uint256"},{"indexed":true,"internalType":"bytes32","name":"contractId","type":"bytes32"},{"indexed":false,"internalType":"string","name":"contractCode","type":"string"}],"name":"LotFixed","type":"event"},{"anonymous":false,"inputs":[{"indexed":true,"internalType":"uint256","name":"lotId","type":"uint256"},{"indexed":true,"internalType":"address","name":"buyer","type":"address"},{"indexed":false,"internalType":"uint256","name":"purchasePriceUSD","type":"uint256"},{"indexed":false,"internalType":"uint256","name":"purchaseDate","type":"uint256"}],"name":"LotPurchased","type":"event"},{"anonymous":false,"inputs":[{"indexed":true,"internalType":"uint256","name":"lotId","type":"uint256"},{"indexed":true,"internalType":"bytes32","name":"shipmentId","type":"bytes32"},{"indexed":false,"internalType":"string","name":"containerNumber","type":"string"}],"name":"LotShipped","type":"event"},{"anonymous":false,"inputs":[{"indexed":true,"internalType":"uint256","name":"lotId","type":"uint256"},{"indexed":false,"internalType":"enum ProducerLotNFT.LotStatus","name":"oldStatus","type":"uint8"},{"indexed":false,"internalType":"enum ProducerLotNFT.LotStatus","name":"newStatus","type":"uint8"}],"name":"LotStatusChanged","type":"event"},{"anonymous":false,"inputs":[{"indexed":false,"internalType":"uint256","name":"_tokenId","type":"uint256"}],"name":"MetadataUpdate","type":"event"},{"anonymous":false,"inputs":[{"indexed":false,"internalType":"address","name":"account","type":"address"}],"name":"Paused","type":"event"},{"anonymous":false,"inputs":[{"indexed":true,"internalType":"bytes32","name":"role","type":"bytes32"},{"indexed":true,"internalType":"bytes32","name":"previousAdminRole","type":"bytes32"},{"indexed":true,"internalType":"bytes32","name":"newAdminRole","type":"bytes32"}],"name":"RoleAdminChanged","type":"event"},{"anonymous":false,"inputs":[{"indexed":true,"internalType":"bytes32","name":"role","type":"bytes32"},{"indexed":true,"internalType":"address","name":"account","type":"address"},{"indexed":true,"internalType":"address","name":"sender","type":"address"}],"name":"RoleGranted","type":"event"},{"anonymous":false,"inputs":[{"indexed":true,"internalType":"bytes32","name":"role","type":"bytes32"},{"indexed":true,"internalType":"address","name":"account","type":"address"},{"indexed":true,"internalType":"address","name":"sender","type":"address"}],"name":"RoleRevoked","type":"event"},{"anonymous":false,"inputs":[{"indexed":true,"internalType":"address","name":"from","type":"address"},{"indexed":true,"internalType":"address","name":"to","type":"address"},{"indexed":true,"internalType":"uint256","name":"tokenId","type":"uint256"}],"name":"Transfer","type":"event"},{"anonymous":false,"inputs":[{"indexed":false,"internalType":"address","name":"account","type":"address"}],"name":"Unpaused","type":"event"},{"inputs":[],"name":"DEFAULT_ADMIN_ROLE","outputs":[{"internalType":"bytes32","name":"","type":"bytes32"}],"stateMutability":"view","type":"function"},{"inputs":[],"name":"MINTER_ROLE","outputs":[{"internalType":"bytes32","name":"","type":"bytes32"}],"stateMutability":"view","type":"function"},{"inputs":[],"name":"OPERATOR_ROLE","outputs":[{"internalType":"bytes32","name":"","type":"bytes32"}],"stateMutability":"view","type":"function"},{"inputs":[],"name":"PRODUCER_ROLE","outputs":[{"internalType":"bytes32","name":"","type":"bytes32"}],"stateMutability":"view","type":"function"},{"inputs":[{"internalType":"uint256","name":"_lotId","type":"uint256"},{"internalType":"string","name":"_certification","type":"string"}],"name":"addCertification","outputs":[],"stateMutability":"nonpayable","type":"function"},{"inputs":[{"internalType":"address","name":"to","type":"address"},{"internalType":"uint256","name":"tokenId","type":"uint256"}],"name":"approve","outputs":[],"stateMutability":"nonpayable","type":"function"},{"inputs":[{"internalType":"address","name":"owner","type":"address"}],"name":"balanceOf","outputs":[{"internalType":"uint256","name":"","type":"uint256"}],"stateMutability":"view","type":"function"},{"inputs":[{"internalType":"address","name":"_producer","type":"address"},{"internalType":"string","name":"_producerName","type":"string"},{"internalType":"string","name":"_farmName","type":"string"},{"internalType":"string","name":"_location","type":"string"},{"internalType":"string","name":"_productType","type":"string"},{"internalType":"uint256","name":"_weightKg","type":"uint256"},{"internalType":"string","name":"_qualityGrade","type":"string"},{"internalType":"uint256","name":"_harvestDate","type":"uint256"},{"internalType":"string[]","name":"_certifications","type":"string[]"},{"internalType":"string","name":"_metadataURI","type":"string"}],"name":"createLot","outputs":[{"internalType":"uint256","name":"","type":"uint256"}],"stateMutability":"nonpayable","type":"function"},{"inputs":[{"internalType":"uint256","name":"_lotId","type":"uint256"}],"name":"deliverLot","outputs":[],"stateMutability":"nonpayable","type":"function"},{"inputs":[{"internalType":"uint256","name":"_lotId","type":"uint256"},{"internalType":"bytes32","name":"_contractId","type":"bytes32"},{"internalType":"string","name":"_contractCode","type":"string"}],"name":"fixLotToContract","outputs":[],"stateMutability":"nonpayable","type":"function"},{"inputs":[{"internalType":"uint256","name":"tokenId","type":"uint256"}],"name":"getApproved","outputs":[{"internalType":"address","name":"","type":"address"}],"stateMutability":"view","type":"function"},{"inputs":[{"internalType":"uint256","name":"_lotId","type":"uint256"}],"name":"getLot","outputs":[{"internalType":"address","name":"producer","type":"address"},{"internalType":"string","name":"producerName","type":"string"},{"internalType":"string","name":"farmName","type":"string"},{"internalType":"string","name":"location","type":"string"},{"internalType":"string","name":"productType","type":"string"},{"internalType":"uint256","name":"weightKg","type":"uint256"},{"internalType":"string","name":"qualityGrade","type":"string"},{"internalType":"uint256","name":"harvestDate","type":"uint256"},{"internalType":"uint256","name":"purchaseDate","type":"uint256"},{"internalType":"uint256","name":"purchasePriceUSD","type":"uint256"},{"internalType":"string[]","name":"certifications","type":"string[]"},{"internalType":"enum ProducerLotNFT.LotStatus","name":"status","type":"uint8"},{"internalType":"bytes32","name":"contractId","type":"bytes32"},{"internalType":"bytes32","name":"shipmentId","type":"bytes32"}],"stateMutability":"view","type":"function"},{"inputs":[],"name":"getLotStats","outputs":[{"internalType":"uint256","name":"totalLots","type":"uint256"},{"internalType":"uint256","name":"createdLots","type":"uint256"},{"internalType":"uint256","name":"purchasedLots","type":"uint256"},{"internalType":"uint256","name":"fixedLots","type":"uint256"},{"internalType":"uint256","name":"shippedLots","type":"uint256"},{"internalType":"uint256","name":"deliveredLots","type":"uint256"}],"stateMutability":"view","type":"function"},{"inputs":[{"internalType":"bytes32","name":"_contractId","type":"bytes32"}],"name":"getLotsByContract","outputs":[{"internalType":"uint256[]","name":"","type":"uint256[]"}],"stateMutability":"view","type":"function"},{"inputs":[{"internalType":"address","name":"_producer","type":"address"}],"name":"getLotsByProducer","outputs":[{"internalType":"uint256[]","name":"","type":"uint256[]"}],"stateMutability":"view","type":"function"},{"inputs":[{"internalType":"bytes32","name":"_shipmentId","type":"bytes32"}],"name":"getLotsByShipment","outputs":[{"internalType":"uint256[]","name":"","type":"uint256[]"}],"stateMutability":"view","type":"function"},{"inputs":[{"internalType":"bytes32","name":"role","type":"bytes32"}],"name":"getRoleAdmin","outputs":[{"internalType":"bytes32","name":"","type":"bytes32"}],"stateMutability":"view","type":"function"},{"inputs":[{"internalType":"bytes32","name":"_contractId","type":"bytes32"}],"name":"getTotalWeightByContract","outputs":[{"internalType":"uint256","name":"","type":"uint256"}],"stateMutability":"view","type":"function"},{"inputs":[{"internalType":"bytes32","name":"role","type":"bytes32"},{"internalType":"address","name":"account","type":"address"}],"name":"grantRole","outputs":[],"stateMutability":"nonpayable","type":"function"},{"inputs":[{"internalType":"bytes32","name":"role","type":"bytes32"},{"internalType":"address","name":"account","type":"address"}],"name":"hasRole","outputs":[{"internalType":"bool","name":"","type":"bool"}],"stateMutability":"view","type":"function"},{"inputs":[{"internalType":"address","name":"owner","type":"address"},{"internalType":"address","name":"operator","type":"address"}],"name":"isApprovedForAll","outputs":[{"internalType":"bool","name":"","type":"bool"}],"stateMutability":"view","type":"function"},{"inputs":[{"internalType":"uint256","name":"_lotId","type":"uint256"}],"name":"isLotAvailableForFixation","outputs":[{"internalType":"bool","name":"","type":"bool"}],"stateMutability":"view","type":"function"},{"inputs":[{"internalType":"uint256","name":"","type":"uint256"}],"name":"lots","outputs":[{"internalType":"uint256","name":"lotId","type":"uint256"},{"internalType":"address","name":"producer","type":"address"},{"internalType":"string","name":"producerName","type":"string"},{"internalType":"string","name":"farmName","type":"string"},{"internalType":"string","name":"location","type":"string"},{"internalType":"string","name":"productType","type":"string"},{"internalType":"uint256","name":"weightKg","type":"uint256"},{"internalType":"string","name":"qualityGrade","type":"string"},{"internalType":"uint256","name":"harvestDate","type":"uint256"},{"internalType":"uint256","name":"purchaseDate","type":"uint256"},{"internalType":"uint256","name":"purchasePriceUSD","type":"uint256"},{"internalType":"enum ProducerLotNFT.LotStatus","name":"status","type":"uint8"},{"internalType":"bytes32","name":"contractId","type":"bytes32"},{"internalType":"bytes32","name":"shipmentId","type":"bytes32"},{"internalType":"string","name":"metadataURI","type":"string"},{"internalType":"bool","name":"exists","type":"bool"}],"stateMutability":"view","type":"function"},{"inputs":[{"internalType":"string","name":"","type":"string"}],"name":"lotsByCode","outputs":[{"internalType":"uint256","name":"","type":"uint256"}],"stateMutability":"view","type":"function"},{"inputs":[{"internalType":"bytes32","name":"","type":"bytes32"},{"internalType":"uint256","name":"","type":"uint256"}],"name":"lotsByContract","outputs":[{"internalType":"uint256","name":"","type":"uint256"}],"stateMutability":"view","type":"function"},{"inputs":[{"internalType":"address","name":"","type":"address"},{"internalType":"uint256","name":"","type":"uint256"}],"name":"lotsByProducer","outputs":[{"internalType":"uint256","name":"","type":"uint256"}],"stateMutability":"view","type":"function"},{"inputs":[{"internalType":"bytes32","name":"","type":"bytes32"},{"internalType":"uint256","name":"","type":"uint256"}],"name":"lotsByShipment","outputs":[{"internalType":"uint256","name":"","type":"uint256"}],"stateMutability":"view","type":"function"},{"inputs":[{"internalType":"enum ProducerLotNFT.LotStatus","name":"","type":"uint8"}],"name":"lotsByStatus","outputs":[{"internalType":"uint256","name":"","type":"uint256"}],"stateMutability":"view","type":"function"},{"inputs":[],"name":"name","outputs":[{"internalType":"string","name":"","type":"string"}],"stateMutability":"view","type":"function"},{"inputs":[{"internalType":"uint256","name":"tokenId","type":"uint256"}],"name":"ownerOf","outputs":[{"internalType":"address","name":"","type":"address"}],"stateMutability":"view","type":"function"},{"inputs":[],"name":"pause","outputs":[],"stateMutability":"nonpayable","type":"function"},{"inputs":[],"name":"paused","outputs":[{"internalType":"bool","name":"","type":"bool"}],"stateMutability":"view","type":"function"},{"inputs":[{"internalType":"uint256","name":"_lotId","type":"uint256"},{"internalType":"address","name":"_buyer","type":"address"},{"internalType":"uint256","name":"_purchasePriceUSD","type":"uint256"}],"name":"purchaseLot","outputs":[],"stateMutability":"nonpayable","type":"function"},{"inputs":[{"internalType":"bytes32","name":"role","type":"bytes32"},{"internalType":"address","name":"account","type":"address"}],"name":"renounceRole","outputs":[],"stateMutability":"nonpayable","type":"function"},{"inputs":[{"internalType":"bytes32","name":"role","type":"bytes32"},{"internalType":"address","name":"account","type":"address"}],"name":"revokeRole","outputs":[],"stateMutability":"nonpayable","type":"function"},{"inputs":[{"internalType":"address","name":"from","type":"address"},{"internalType":"address","name":"to","type":"address"},{"internalType":"uint256","name":"tokenId","type":"uint256"}],"name":"safeTransferFrom","outputs":[],"stateMutability":"nonpayable","type":"function"},{"inputs":[{"internalType":"address","name":"from","type":"address"},{"internalType":"address","name":"to","type":"address"},{"internalType":"uint256","name":"tokenId","type":"uint256"},{"internalType":"bytes","name":"data","type":"bytes"}],"name":"safeTransferFrom","outputs":[],"stateMutability":"nonpayable","type":"function"},{"inputs":[{"internalType":"address","name":"operator","type":"address"},{"internalType":"bool","name":"approved","type":"bool"}],"name":"setApprovalForAll","outputs":[],"stateMutability":"nonpayable","type":"function"},{"inputs":[{"internalType":"uint256","name":"_lotId","type":"uint256"},{"internalType":"bytes32","name":"_shipmentId","type":"bytes32"},{"internalType":"string","name":"_containerNumber","type":"string"}],"name":"shipLot","outputs":[],"stateMutability":"nonpayable","type":"function"},{"inputs":[{"internalType":"bytes4","name":"interfaceId","type":"bytes4"}],"name":"supportsInterface","outputs":[{"internalType":"bool","name":"","type":"bool"}],"stateMutability":"view","type":"function"},{"inputs":[],"name":"symbol","outputs":[{"internalType":"string","name":"","type":"string"}],"stateMutability":"view","type":"function"},{"inputs":[{"internalType":"uint256","name":"index","type":"uint256"}],"name":"tokenByIndex","outputs":[{"internalType":"uint256","name":"","type":"uint256"}],"stateMutability":"view","type":"function"},{"inputs":[{"internalType":"address","name":"owner","type":"address"},{"internalType":"uint256","name":"index","type":"uint256"}],"name":"tokenOfOwnerByIndex","outputs":[{"internalType":"uint256","name":"","type":"uint256"}],"stateMutability":"view","type":"function"},{"inputs":[{"internalType":"uint256","name":"tokenId","type":"uint256"}],"name":"tokenURI","outputs":[{"internalType":"string","name":"","type":"string"}],"stateMutability":"view","type":"function"},{"inputs":[],"name":"totalSupply","outputs":[{"internalType":"uint256","name":"","type":"uint256"}],"stateMutability":"view","type":"function"},{"inputs":[{"internalType":"address","name":"from","type":"address"},{"internalType":"address","name":"to","type":"address"},{"internalType":"uint256","name":"tokenId","type":"uint256"}],"name":"transferFrom","outputs":[],"stateMutability":"nonpayable","type":"function"},{"inputs":[],"name":"unpause","outputs":[],"stateMutability":"nonpayable","type":"function"},{"inputs":[{"internalType":"uint256","name":"_lotId","type":"uint256"},{"internalType":"string","name":"_newURI","type":"string"}],"name":"updateMetadataURI","outputs":[],"stateMutability":"nonpayable","type":"function"}],"evm":{"bytecode":{"linkReferences":{},"object":"6080346200045f5760406001600160401b038282018181118482101762000449578252600e83526020906d141c9bd91d58d95c931bdd13919560921b8285015282519383850185811083821117620004495784526005855264141313919560da1b8386015280519180831162000449576000928354906001938483811c931680156200043e575b878410146200042a578190601f93848111620003d7575b5087908483116001146200037357879262000367575b5050600019600383901b1c191690841b1784555b8651918211620003535782548381811c9116801562000348575b868210146200033457818111620002ec575b5084908211600114620002895783949596829394926200027d575b5050600019600383901b1c191690821b1781555b60ff199081600c5416600c55828052600b93848152858420338552815260ff86852054161562000248575b7f9f2df0fed2c77648de5860a4cc508cd0818c85b8b8a1ab4ceeef8d981c8956a6808552858252868520338652825260ff87862054161562000211575b507f97667070c54ef182b0f5858b034beac1b6f3089aa2d3188bb1e8929f4fa9b92994858552808252868520338652825260ff878620541615620001d8575b8651613db89081620004658239f35b858552815285842090338552528483209182541617905533916000805160206200421d833981519152339280a4388080808080620001c9565b80855285825286852033865282528685208385825416179055339033906000805160206200421d8339815191528780a4386200018a565b838052848152858420338552815285842082848254161790553333856000805160206200421d8339815191528180a46200014d565b0151905038806200010e565b82845284842090601f198316855b818110620002d657509783859697989910620002bc575b505050811b01815562000122565b015160001960f88460031b161c19169055388080620002ae565b8983015184559285019291870191870162000297565b8385528585208280850160051c8201928886106200032a575b0160051c019084905b8281106200031e575050620000f3565b8681550184906200030e565b9250819262000305565b634e487b7160e01b85526022600452602485fd5b90607f1690620000e1565b634e487b7160e01b84526041600452602484fd5b015190503880620000b3565b8780528888208794509190601f198416895b8b828210620003c05750508411620003a6575b505050811b018455620000c7565b015160001960f88460031b161c1916905538808062000398565b8385015186558a9790950194938401930162000385565b9091508680528787208480850160051c8201928a861062000420575b918891869594930160051c01915b828110620004115750506200009d565b89815585945088910162000401565b92508192620003f3565b634e487b7160e01b86526022600452602486fd5b92607f169262000086565b634e487b7160e01b600052604160045260246000fd5b600080fdfe60a080604052600436101561001357600080fd5b60003560e01c90816301ffc9a71461297d5750806306fdde03146128da578063081812fc146128bc578063095ea7b314612742578063102a4f15146126ca57806318160ddd146126ac5780631c5f4012146124fc578063217d4bf4146124a057806323b872dd14612481578063248a9ca3146124525780632f2ff15d1461239f5780632f745c59146122ed57806332ba489b146121dd57806336568abe1461214b5780633c0d4f2a146116e75780633f4ba83a1461165357806342842e0e146116205780634f6ccce7146115755780635070b630146113cc57806352e4b6cf1461115f5780635c975abb1461113c5780636352211e1461110c57806370a08231146110e957806378385ae114610ff35780638456cb5914610f995780638511562914610f685780638fe86b3f14610f0457806391d1485414610eb757806395d89b4114610dd85780639642593214610da757806399e5302614610d3d578063a1c3ac7814610cc7578063a217fddf14610cab578063a22cb46514610bd0578063ab995d12146109d8578063b88d4fde14610953578063c84c47621461088f578063c87b56dd14610819578063cb3e1fe7146107de578063d5391393146107a3578063d547741f14610762578063dc29ec1314610718578063e985e9c5146106c2578063f1648e8414610528578063f5b541a6146104ed578063f80a1fa714610495578063f9acd81b146102735763fe25e02d1461022f57600080fd5b3461026e5761023d36612c59565b9060005260106020526040600020805482101561026e5760209161026091612c6f565b90546040519160031b1c8152f35b600080fd5b3461026e57606036600319011261026e5760043561028f612a94565b9060443561029b612d8d565b6102a3613b02565b816000526020600e81526040600020936102c360ff601087015416613c51565b60ff600c86015416600581101561047f57610442576001600160a01b0381169485156104055783156103b257916103a58585937f794f5fdb2bc5e491b6b5ce3e6d67fe4e82e2a42e14c7099c0f1bb9fbd996a5d196600a604097426009820155015581600052600e845281600080516020613d6383398151915287600c816000200160ff8154169061035482612c87565b61035e81546138a3565b9055600160005260138952826000206103778154613af3565b9055600160ff1982541617905561039082518092612ca0565b600188820152a26103a0826132cc565b6134ca565b82519182524290820152a3005b60405162461bcd60e51b815260048101849052602560248201527f5075726368617365207072696365206d75737420626520677265617465722074604482015264068616e20360dc1b6064820152608490fd5b60405162461bcd60e51b8152600481018490526015602482015274496e76616c6964206275796572206164647265737360581b6044820152606490fd5b60405162461bcd60e51b8152600481018390526015602482015274131bdd08185b1c9958591e481c1d5c98da185cd959605a1b6044820152606490fd5b634e487b7160e01b600052602160045260246000fd5b3461026e57602036600319011261026e57600435600052600e602052604060002060ff601082015416806104d1575b6020906040519015158152f35b50600c015460ff16600581101561047f576001602091146104c4565b3461026e57600036600319011261026e5760206040517f97667070c54ef182b0f5858b034beac1b6f3089aa2d3188bb1e8929f4fa9b9298152f35b3461026e57602036600319011261026e576004356000908152600e60205260409020805460018201549091906001600160a01b03168161056a60028201612ce7565b9161057760038301612ce7565b9261058460048401612ce7565b9361059160058501612ce7565b946006850154600786016105a490612ce7565b90600887015497600988015493600a89015495600c8a015460ff1697600d8b015499600e8c01549b600f016105d890612ce7565b9d6010015460ff169e60405180608052526080516020015261020080608051604001526080510161060891612a59565b608051808203906060015261061c91612a59565b608051808203906080015261063091612a59565b6080518082039060a0015261064491612a59565b9060805160c001526080518082039060e0015261066091612a59565b956080516101000152608051610120015260805161014001526080516101600161068991612ca0565b60805161018001526080516101a00152608051808203906101c001526106ae91612a59565b9015156080516101e0015260805180910390f35b3461026e57604036600319011261026e576106db612a7e565b6106e3612a94565b9060018060a01b03809116600052600560205260406000209116600052602052602060ff604060002054166040519015158152f35b3461026e57604036600319011261026e57610731612a7e565b6001600160a01b03166000908152600f602052604090208054602435919082101561026e5760209161026091612c6f565b3461026e57604036600319011261026e576107a1600435610781612a94565b9080600052600b60205261079c600160406000200154613093565b613193565b005b3461026e57600036600319011261026e5760206040517f9f2df0fed2c77648de5860a4cc508cd0818c85b8b8a1ab4ceeef8d981c8956a68152f35b3461026e57600036600319011261026e5760206040517f8eb467f061ca67f42a2d2ca4a346fc9fb645efc0ba75056ee9f71c3a0ccc10a88152f35b3461026e57602036600319011261026e57600435600081815260026020526040902054610850906001600160a01b03161515613280565b600052600660205261088b6108686040600020612ce7565b600060405161087681612ae5565b52604051918291602083526020830190612a59565b0390f35b3461026e5760208060031936011261026e57600435600052601081526040600020604051808284829454938481520190600052846000209260005b8682821061093d57846108df81860382612b1b565b600091825b825184101561093557818460051b84010151600052600e8252600660406000200154810180911161091f576109199093613af3565b926108e4565b634e487b7160e01b600052601160045260246000fd5b604051908152f35b85548452600195860195879550930192016108ca565b3461026e57608036600319011261026e5761096c612a7e565b610974612a94565b90606435906044356001600160401b03831161026e573660238401121561026e576107a1936109b06109d3943690602481600401359101612b57565b926109c36109be8433613402565b61332d565b6109ce8383836134ca565b613807565b6133e2565b3461026e57602036600319011261026e57600435600052600e6020526040600020610a0960ff601083015416613c51565b60018060a01b036001820154166006820154916008810154600982015490600a8301549060ff600c8501541695600d85015492600e86015494610a4e60028801612ce7565b92610a5b60038901612ce7565b90610a6860048a01612ce7565b610a7460058b01612ce7565b90610a8160078c01612ce7565b93600b8c015497610a9189612c13565b98610a9f6040519a8b612b1b565b808a5260208a01600b819f0160005260206000206000915b838310610bb357505050506040519d8e528d6101c09081602082015201610add91612a59565b8d810360408f0152610aee91612a59565b8c810360608e0152610aff91612a59565b8b810360808d0152610b1091612a59565b9060a08b015289810360c08b0152610b2791612a59565b9360e08901526101008801526101208701528582036101408701525180825260208201918160051b810160200195926000915b838310610b86575050505050610b768495610160860190612ca0565b6101808401526101a08301520390f35b9091929396602080610ba4600193601f198682030187528b51612a59565b99019301930191939290610b5a565b600160208192610bc285612ce7565b815201920192019190610ab7565b3461026e57604036600319011261026e57610be9612a7e565b602435908115159081830361026e576001600160a01b031691338314610c6657610c389033600052600560205260406000208460005260205260406000209060ff801983541691151516179055565b6040519081527f17307eab39ab6107e8899845ad3d59bd9653f200f220920489ca2b5937696c3160203392a3005b60405162461bcd60e51b815260206004820152601960248201527f4552433732313a20617070726f766520746f2063616c6c6572000000000000006044820152606490fd5b3461026e57600036600319011261026e57602060405160008152f35b3461026e5760208060031936011261026e5760043560005260118152604060002090604051908181845491828152019360005281600020916000905b828210610d265761088b85610d1a81890382612b1b565b60405191829182612aaa565b835486529485019460019384019390910190610d03565b3461026e5760208060031936011261026e5760043560005260108152604060002090604051908181845491828152019360005281600020916000905b828210610d905761088b85610d1a81890382612b1b565b835486529485019460019384019390910190610d79565b3461026e57602036600319011261026e57600435600581101561026e57610dcf602091612c87565b54604051908152f35b3461026e57600036600319011261026e5760405160006001805490610dfc82612cad565b80855291818116908115610e905750600114610e37575b61088b84610e2381860382612b1b565b604051918291602083526020830190612a59565b600081815292507fb10e2d527612073b26eecdfd717e6a320cf44b4afac2b0732d9fcbe2b7fa0cf65b828410610e78575050508101602001610e2382610e13565b80546020858701810191909152909301928101610e60565b60ff191660208087019190915292151560051b85019092019250610e239150839050610e13565b3461026e57604036600319011261026e57610ed0612a94565b600435600052600b60205260406000209060018060a01b0316600052602052602060ff604060002054166040519015158152f35b3461026e576107a1610f1536612c2a565b90610f1e612d8d565b610f26613b02565b600081815260026020526040902054610f49906001600160a01b03161515613c51565b80600052600e602052610f6382600f604060002001613972565b613b92565b3461026e57610f7636612c59565b9060005260116020526040600020805482101561026e5760209161026091612c6f565b3461026e57600036600319011261026e57610fb2612f7a565b610fba613b02565b600160ff19600c541617600c557f62e78cea01bee320cd4e420270b5ea74000d11b0c9f74754ebdbfc544b05a2586020604051338152a1005b3461026e57600036600319011261026e57600954601360209081527f8fa6efc3be94b5b348b21fea823fe8d100408cee9b7f90524494500445d8ff6c547f4155c2f711f2cdd34f8262ab8fb9b7020a700fe7b6948222152f7670d1fdf34d547f0b9d2c0c271bb30544eb78c59bdaebdae2728e5f65814c07768a0abe90ed1923547f0d2a6872ef858a7f8ead18dc4f3f2e8d35c853d47e2816cbb9cdd49202554e0c5460046000527f01413ff7a3b1d5b6c016c061d48e2c7014700c777a29fcd068fff04265813d5d546040805197885295870194909452938501919091526060840152608083019190915260a082015260c090f35b3461026e57602036600319011261026e576020610935611107612a7e565b613209565b3461026e57602036600319011261026e57602061112a6004356132cc565b6040516001600160a01b039091168152f35b3461026e57600036600319011261026e57602060ff600c54166040519015158152f35b3461026e5761116d36612c2a565b611175612d8d565b61117d613b02565b81600052602090600e8252604060002061119d60ff601083015416613c51565b81511561138757600b01805460005b8181106112505750600160401b81101561123a576111cf91600182018155612c6f565b919091611224577f4978ef67364b55dc5e079c1575b2ddc03a9918e9db3a47f7a8f1d8ede2d07f42926112058261121994613972565b604051928392604084526040840190612a59565b9033908301520390a2005b634e487b7160e01b600052600060045260246000fd5b634e487b7160e01b600052604160045260246000fd5b61125a8184612c6f565b5060405186810191816000825461127081612cad565b936001918c8382169182600014611368575050600114611328575b50506112a0925003601f198101835282612b1b565b519020604051868101906112cd8882816112c08b87815193849201612a36565b8101038084520182612b1b565b519020146112e3576112de90613af3565b6111ac565b60405162461bcd60e51b815260048101869052601c60248201527f43657274696669636174696f6e20616c726561647920657869737473000000006044820152606490fd5b8b925060005281600020906000915b85831061134f575050506112a0928201018b8061128b565b819392945080548386890101520192018a918593611337565b92509350506112a094915060ff19168652801515028201018b8061128b565b60405162461bcd60e51b815260048101849052601d60248201527f43657274696669636174696f6e2063616e6e6f7420626520656d7074790000006044820152606490fd5b3461026e576113da36612bac565b6113e5929192612d8d565b6113ed613b02565b816000526020600e8152604060002061140c60ff601083015416613c51565b60ff600c82015416600581101561047f576001036115305784156114f5579084600d7fd9f2aa9f3de5ec7c06b5d93f87e07d13dd9ab53caee38f28cde28993a60b73ad949301558460005260108152611469846040600020613abe565b83600052600e815283600080516020613d638339815191526040600c816000200160ff8154169061149982612c87565b6114a381546138a3565b9055600260005260138652826000206114bc8154613af3565b9055600260ff198254161790556114d582518092612ca0565b600285820152a26114f0604051928284938452830190612a59565b0390a3005b60405162461bcd60e51b8152600481018390526013602482015272125b9d985b1a590818dbdb9d1c9858dd081251606a1b6044820152606490fd5b60405162461bcd60e51b815260048101839052601b60248201527f4c6f74206d7573742062652070757263686173656420666972737400000000006044820152606490fd5b3461026e57602036600319011261026e576004356009548110156115c65760209060096000527f6e1540171b6c0c960b71a7020d9f60077f6af931a8bbf590da0223dacf75c7af0154604051908152f35b60405162461bcd60e51b815260206004820152602c60248201527f455243373231456e756d657261626c653a20676c6f62616c20696e646578206f60448201526b7574206f6620626f756e647360a01b6064820152608490fd5b3461026e576107a16109d361163436612bde565b906040519261164284612ae5565b600084526109c36109be8433613402565b3461026e57600036600319011261026e5761166c612f7a565b600c5460ff8116156116ab5760ff1916600c557f5db9ee0a495bf2e6ff9c91a7834c1ba4fdd244a5e8aa4e537bd38aeae4b073aa6020604051338152a1005b60405162461bcd60e51b815260206004820152601460248201527314185d5cd8589b194e881b9bdd081c185d5cd95960621b6044820152606490fd5b3461026e5761014036600319011261026e57611701612a7e565b6024356001600160401b03811161026e57611720903690600401612b8e565b6044356001600160401b03811161026e5761173f903690600401612b8e565b6064356001600160401b03811161026e5761175e903690600401612b8e565b916084356001600160401b03811161026e5761177e903690600401612b8e565b9160c4356001600160401b03811161026e5761179e903690600401612b8e565b91610104356001600160401b03811161026e573660238201121561026e5780600401356117ca81612c13565b916117d86040519384612b1b565b8183526024602084019260051b8201019036821161026e5760248101925b82841061211d5750505050610124356001600160401b03811161026e57611821903690600401612b8e565b3360009081527ff70e363b3d7895af770c4a138460777d52eebd3cb9962ccc6b58721f6127bbc860205260409020549094907f9f2df0fed2c77648de5860a4cc508cd0818c85b8b8a1ab4ceeef8d981c8956a69060ff1615611f885750611886613b02565b6001600160a01b03881615611f435760a43515611efe574260e43511611ead57600d549660018801600d556119d66109d36040516118c381612ae5565b60008082528b8152600260205260409020546118eb906001600160a01b031615155b15613b46565b6118f3613b02565b6009548b600052600a60205260406000205561190e8b613a76565b6119178c613209565b60018060a01b038d1660005260076020526040600020816000526020528b6040600020558b600052600860205260406000205561196c6118e58c600052600260205260018060a01b0360406000205416151590565b6001600160a01b038c166000818152600360209081526040808320805460010190558e83526002909152812080546001600160a01b031916831790558c91907fddf252ad1be2c89b69c2b068fc378daa952ba7f163c4a11628f55a4df523b3ef8180a48a8c6136e7565b6119df42613c92565b94611a6360266119ee8b613c92565b97604051988991634c4f542d60e01b60208401528c611a17815180926020602488019101612a36565b830190602d60f81b91826024820152611a3a825180936020602585019101612a36565b01906025820152611a548251809360208785019101612a36565b01036006810189520187612b1b565b60405194856102208101106001600160401b036102208801111761123a57610220860160405289865260018060a01b038b1660208701526040860152606085015260808401528560a084015260a43560c084015260e083015260e43561010083015260006101208301526000610140830152610160820152600061018082015260006101a082015260006101c0820152826101e0820152600161020082015284600052600e602052604060002091815183556001830160018060a01b036020840151166bffffffffffffffffffffffff60a01b825416179055611b4d604083015160028501613972565b611b5e606083015160038501613972565b611b6f608083015160048501613972565b611b8060a083015160058501613972565b60c08201516006840155611b9b60e083015160078501613972565b61010082015160088401556101208201516009840155610140820151600a840155610160820151805190600160401b821161123a57600b85015482600b870155808310611e34575b50602001600b850160005260206000206000915b838310611e17575050505061018082015192600584101561047f5760209787957f58f118506069a822941b44bebeb70f9239ade4003790f6ee770e7dbc3e87092d95611c9b846010610200611d5c99600c611d7c990160ff199660ff8883541691161790556101a0810151600d8501556101c0810151600e850155611c846101e0820151600f8601613972565b0151151591019060ff801983541691151516179055565b60018060a01b038316600052600f8b52611cb9886040600020613abe565b876040518c818851611cce8183858d01612a36565b81016012815203019020556000805260138b526040600020611cf08154613af3565b90557f8eb467f061ca67f42a2d2ca4a346fc9fb645efc0ba75056ee9f71c3a0ccc10a86000818152600b8d5260408082206001600160a01b03871683528e5290205490919060ff1615611d97575b50508051611d87575b50604051938493606085526060850190612a59565b60a435848b015283810360408501526001600160a01b0390911696612a59565b0390a3604051908152f35b611d919087613b92565b89611d47565b6000828152600b8d5260408082206001600160a01b03871683528e5290205460ff16611d3e576000828152600b8d5260408082206001600160a01b038716808452908f5290822080549093166001179092553392907f2f8788117e7eff1d82e926ec794901d17c78024a50270940304540a733656f0d9080a48a80611d3e565b6001602082611e2883945186613972565b01920192019190611bf7565b600b86016000526020600020908382015b8183018110611e55575050611be3565b80611e6260019254612cad565b80611e6f575b5001611e45565b601f908181118414611e88575050600081555b8d611e68565b611ea460009284845260208420920160051c820185830161395b565b81835555611e82565b60405162461bcd60e51b8152602060048201526024808201527f4861727665737420646174652063616e6e6f7420626520696e207468652066756044820152637475726560e01b6064820152608490fd5b60405162461bcd60e51b815260206004820152601d60248201527f576569676874206d7573742062652067726561746572207468616e20300000006044820152606490fd5b60405162461bcd60e51b815260206004820152601860248201527f496e76616c69642070726f6475636572206164647265737300000000000000006044820152606490fd5b611f91336138b0565b60405191611f9e83612b00565b60428352602083019060603683378351156121075760308253835160019081101561210757607860218601536041905b8082116120c357505061207f57604861204c9261205b9261207b9560405195869376020b1b1b2b9b9a1b7b73a3937b61d1030b1b1b7bab73a1604d1b6020860152612023815180926020603789019101612a36565b8401917001034b99036b4b9b9b4b733903937b6329607d1b603784015251809386840190612a36565b01036028810184520182612b1b565b60405162461bcd60e51b8152602060048201529182916024830190612a59565b0390fd5b606460405162461bcd60e51b815260206004820152602060248201527f537472696e67733a20686578206c656e67746820696e73756666696369656e746044820152fd5b9091600f811690601082101561210757612101916f181899199a1a9b1b9c1cb0b131b232b360811b901a6120f78589613892565b5360041c926138a3565b90611fce565b634e487b7160e01b600052603260045260246000fd5b6001600160401b0384351161026e57602080916121403660248835870101612b8e565b8152019301926117f6565b3461026e57604036600319011261026e57612164612a94565b336001600160a01b03821603612180576107a190600435613193565b60405162461bcd60e51b815260206004820152602f60248201527f416363657373436f6e74726f6c3a2063616e206f6e6c792072656e6f756e636560448201526e103937b632b9903337b91039b2b63360891b6064820152608490fd5b3461026e5760208060031936011261026e57600435906121fb612d8d565b612203613b02565b81600052600e815260ff600c604060002061222383601083015416613c51565b015416600581101561047f576003036122a9576040600080516020613d638339815191529183600052600e81526004600c83600020019160ff8354169261226984612c87565b61227381546138a3565b905582600052601382528460002061228b8154613af3565b90558260ff198254161790556122a384518094612ca0565b820152a2005b6064906040519062461bcd60e51b82526004820152601960248201527f4c6f74206d7573742062652073686970706564206669727374000000000000006044820152fd5b3461026e57604036600319011261026e57612306612a7e565b6024359061231381613209565b8210156123465760018060a01b031660005260076020526040600020906000526020526020604060002054604051908152f35b60405162461bcd60e51b815260206004820152602b60248201527f455243373231456e756d657261626c653a206f776e657220696e646578206f7560448201526a74206f6620626f756e647360a81b6064820152608490fd5b3461026e57604036600319011261026e576004356123bb612a94565b81600052600b6020526123d5600160406000200154613093565b81600052600b60205260406000209060018060a01b0316908160005260205260ff604060002054161561240457005b81600052600b6020526040600020816000526020526040600020600160ff1982541617905533917f2f8788117e7eff1d82e926ec794901d17c78024a50270940304540a733656f0d600080a4005b3461026e57602036600319011261026e57600435600052600b6020526020600160406000200154604051908152f35b3461026e576107a161249236612bde565b916103a06109be8433613402565b3461026e57602036600319011261026e576004356001600160401b03811161026e576124e960206124d681933690600401612b8e565b8160405193828580945193849201612a36565b8101601281520301902054604051908152f35b3461026e5761250a36612bac565b612515929192612d8d565b61251d613b02565b816000526020600e8152604060002061253c60ff601083015416613c51565b60ff600c82015416600581101561047f5760020361265b578415612620579084600e7fee7206c02cf224cfdc7235ad5b927378909f9d4d311dce8c1ffc6cf1eff94110949301558460005260118152612599846040600020613abe565b83600052600e815283600080516020613d638339815191526040600c816000200160ff815416906125c982612c87565b6125d381546138a3565b9055600360005260138652826000206125ec8154613af3565b9055600360ff1982541617905561260582518092612ca0565b600385820152a26114f0604051928284938452830190612a59565b60405162461bcd60e51b8152600481018390526013602482015272125b9d985b1a59081cda1a5c1b595b9d081251606a1b6044820152606490fd5b60405162461bcd60e51b815260048101839052602360248201527f4c6f74206d75737420626520666978656420746f20636f6e74726163742066696044820152621c9cdd60ea1b6064820152608490fd5b3461026e57600036600319011261026e576020600954604051908152f35b3461026e5760208060031936011261026e576001600160a01b036126ec612a7e565b16600052600f8152604060002090604051908181845491828152019360005281600020916000905b82821061272b5761088b85610d1a81890382612b1b565b835486529485019460019384019390910190612714565b3461026e57604036600319011261026e5761275b612a7e565b602435906001600160a01b038080612772856132cc565b1692169180831461286d57803314908115612848575b50156127dd57600083815260046020526040902080546001600160a01b031916831790556127b5836132cc565b167f8c5be1e5ebec7d5bd14f71427d1e84f3dd0314c0f7b2291e5b200ac8c7c3b925600080a4005b60405162461bcd60e51b815260206004820152603d60248201527f4552433732313a20617070726f76652063616c6c6572206973206e6f7420746f60448201527f6b656e206f776e6572206f7220617070726f76656420666f7220616c6c0000006064820152608490fd5b9050600052600560205260406000203360005260205260ff6040600020541684612788565b60405162461bcd60e51b815260206004820152602160248201527f4552433732313a20617070726f76616c20746f2063757272656e74206f776e656044820152603960f91b6064820152608490fd5b3461026e57602036600319011261026e57602061112a6004356132ef565b3461026e57600036600319011261026e57604051600080546128fb81612cad565b80845290600190818116908115610e9057506001146129245761088b84610e2381860382612b1b565b600080805292507f290decd9548b62a8d60345a988386fc84ba6bc95484008f6362f93160ef3e5635b828410612965575050508101602001610e2382610e13565b8054602085870181019190915290930192810161294d565b3461026e57602036600319011261026e576004359063ffffffff60e01b821680920361026e57602091637965db0b60e01b81149081156129bf575b5015158152f35b63780e9d6360e01b8114915081156129d9575b50836129b8565b632483248360e11b8114915081156129f3575b50836129d2565b6380ac58cd60e01b811491508115612a25575b8115612a14575b50836129ec565b6301ffc9a760e01b14905083612a0d565b635b5e139f60e01b81149150612a06565b60005b838110612a495750506000910152565b8181015183820152602001612a39565b90602091612a7281518092818552858086019101612a36565b601f01601f1916010190565b600435906001600160a01b038216820361026e57565b602435906001600160a01b038216820361026e57565b6020908160408183019282815285518094520193019160005b828110612ad1575050505090565b835185529381019392810192600101612ac3565b602081019081106001600160401b0382111761123a57604052565b608081019081106001600160401b0382111761123a57604052565b90601f801991011681019081106001600160401b0382111761123a57604052565b6001600160401b03811161123a57601f01601f191660200190565b929192612b6382612b3c565b91612b716040519384612b1b565b82948184528183011161026e578281602093846000960137010152565b9080601f8301121561026e57816020612ba993359101612b57565b90565b606060031982011261026e576004359160243591604435906001600160401b03821161026e57612ba991600401612b8e565b606090600319011261026e576001600160a01b0390600435828116810361026e5791602435908116810361026e579060443590565b6001600160401b03811161123a5760051b60200190565b90604060031983011261026e5760043591602435906001600160401b03821161026e57612ba991600401612b8e565b604090600319011261026e576004359060243590565b80548210156121075760005260206000200190600090565b600581101561047f576000526013602052604060002090565b90600582101561047f5752565b90600182811c92168015612cdd575b6020831014612cc757565b634e487b7160e01b600052602260045260246000fd5b91607f1691612cbc565b9060405191826000825492612cfb84612cad565b908184526001948581169081600014612d6a5750600114612d27575b5050612d2592500383612b1b565b565b9093915060005260209081600020936000915b818310612d52575050612d2593508201013880612d17565b85548884018501529485019487945091830191612d3a565b915050612d2594506020925060ff191682840152151560051b8201013880612d17565b3360009081527fd5f503ee4e61c4714e2681ca3fc290bbe81241054797b89c10a34d87fa200221602090815260408083205490927f97667070c54ef182b0f5858b034beac1b6f3089aa2d3188bb1e8929f4fa9b9299160ff1615612df15750505050565b612dfa336138b0565b91845190612e0782612b00565b60428252848201926060368537825115612f6657603084538251600190811015612f525790607860218501536041915b808311612ef857505050612eb657604861207b938693612e9a93612e8b985198899376020b1b1b2b9b9a1b7b73a3937b61d1030b1b1b7bab73a1604d1b8a860152612023815180928c603789019101612a36565b01036028810187520185612b1b565b5192839262461bcd60e51b845260048401526024830190612a59565b60648486519062461bcd60e51b825280600483015260248201527f537472696e67733a20686578206c656e67746820696e73756666696369656e746044820152fd5b909192600f81166010811015612f3e57612f3791906f181899199a1a9b1b9c1cb0b131b232b360811b901a612f2d8688613892565b5360041c936138a3565b9190612e37565b634e487b7160e01b84526032600452602484fd5b634e487b7160e01b82526032600452602482fd5b634e487b7160e01b81526032600452602490fd5b3360009081527fdf7de25b7f1fd6d0b5205f0e18f1f35bd7b8d84cce336588d184533ce43a6f76602090815260408083205490929060ff1615612fbc57505050565b612fc5336138b0565b9080845190612fd382612b00565b60428252848201926060368537825115612f6657603084538251600190811015612f525790607860218501536041915b80831161305757505050612eb657604861207b938693612e9a93612e8b985198899376020b1b1b2b9b9a1b7b73a3937b61d1030b1b1b7bab73a1604d1b8a860152612023815180928c603789019101612a36565b909192600f81166010811015612f3e5761308c91906f181899199a1a9b1b9c1cb0b131b232b360811b901a612f2d8688613892565b9190613003565b600090808252602090600b8252604092838120338252835260ff8482205416156130bd5750505050565b6130c6336138b0565b918451906130d382612b00565b60428252848201926060368537825115612f6657603084538251600190811015612f525790607860218501536041915b80831161315757505050612eb657604861207b938693612e9a93612e8b985198899376020b1b1b2b9b9a1b7b73a3937b61d1030b1b1b7bab73a1604d1b8a860152612023815180928c603789019101612a36565b909192600f81166010811015612f3e5761318c91906f181899199a1a9b1b9c1cb0b131b232b360811b901a612f2d8688613892565b9190613103565b90600091808352600b602052604083209160018060a01b03169182845260205260ff6040842054166131c457505050565b808352600b602052604083208284526020526040832060ff1981541690557ff6391f5c32d9c69d2a47ea670b442974b53935d1edc7fd64eb21e047a839171b339380a4565b6001600160a01b0316801561322957600052600360205260406000205490565b60405162461bcd60e51b815260206004820152602960248201527f4552433732313a2061646472657373207a65726f206973206e6f7420612076616044820152683634b21037bbb732b960b91b6064820152608490fd5b1561328757565b60405162461bcd60e51b815260206004820152601860248201527f4552433732313a20696e76616c696420746f6b656e20494400000000000000006044820152606490fd5b6000908152600260205260409020546001600160a01b0316612ba9811515613280565b600081815260026020526040902054613312906001600160a01b03161515613280565b6000908152600460205260409020546001600160a01b031690565b1561333457565b60405162461bcd60e51b815260206004820152602d60248201527f4552433732313a2063616c6c6572206973206e6f7420746f6b656e206f776e6560448201526c1c881bdc88185c1c1c9bdd9959609a1b6064820152608490fd5b60809060208152603260208201527f4552433732313a207472616e7366657220746f206e6f6e20455243373231526560408201527131b2b4bb32b91034b6b83632b6b2b73a32b960711b60608201520190565b156133e957565b60405162461bcd60e51b81528061207b6004820161338f565b906001600160a01b038080613416846132cc565b16931691838314938415613449575b508315613433575b50505090565b61343f919293506132ef565b161438808061342d565b909350600052600560205260406000208260005260205260ff604060002054169238613425565b1561347757565b60405162461bcd60e51b815260206004820152602560248201527f4552433732313a207472616e736665722066726f6d20696e636f72726563742060448201526437bbb732b960d91b6064820152608490fd5b6134ee916134d7846132cc565b6001600160a01b0393848416939185168414613470565b838216938415613696578391613502613b02565b826135f357506135409260095487600052600a60205260406000205561352787613a76565b8286036135c0575b50613539866132cc565b1614613470565b7fddf252ad1be2c89b69c2b068fc378daa952ba7f163c4a11628f55a4df523b3ef60008481526004602052604081206bffffffffffffffffffffffff60a01b9081815416905583825260036020526040822060001981540190558482526040822060018154019055858252600260205284604083209182541617905580a4565b6135c990613209565b6040600087815260076020528181208382526020528882822055888152600860205220553861352f565b858303613605575b5061354092613527565b613610919250613209565b60001981019190821161091f57613540928492600090888252602090600882526040918284205482810361365f575b508a845283838120558684526007815282842091845252812055926135fb565b878552600782528385208386528252838520548886526007835284862082875283528085872055855260088252838520553861363f565b60405162461bcd60e51b8152602060048201526024808201527f4552433732313a207472616e7366657220746f20746865207a65726f206164646044820152637265737360e01b6064820152608490fd5b9192600092909190803b156137fd57613735946040518092630a85bd0160e11b9485835233600484015287602484015260448301526080606483015281878160209a8b966084830190612a59565b03926001600160a01b03165af18491816137b9575b506137a8575050503d6000146137a0573d61376481612b3c565b906137726040519283612b1b565b81528091833d92013e5b8051918261379d5760405162461bcd60e51b81528061207b6004820161338f565b01fd5b50606061377c565b6001600160e01b0319161492509050565b9091508581813d83116137f6575b6137d18183612b1b565b810103126137f257516001600160e01b0319811681036137f257903861374a565b8480fd5b503d6137c7565b5050915050600190565b9293600093909291803b15613887579484916138619660405180948193630a85bd0160e11b9788845233600485015260018060a01b0380921660248501526044840152608060648401528260209b8c976084830190612a59565b0393165af18491816137b957506137a8575050503d6000146137a0573d61376481612b3c565b505050915050600190565b908151811015612107570160200190565b801561091f576000190190565b60405190606082018281106001600160401b0382111761123a57604052602a82526020820160403682378251156121075760309053815160019081101561210757607860218401536029905b80821161390c57505061207f5790565b9091600f811690601082101561394657613940916f181899199a1a9b1b9c1cb0b131b232b360811b901a6120f78587613892565b906138fc565b60246000634e487b7160e01b81526032600452fd5b818110613966575050565b6000815560010161395b565b91909182516001600160401b03811161123a5761398f8254612cad565b601f8111613a39575b50602080601f83116001146139d55750819293946000926139ca575b50508160011b916000199060031b1c1916179055565b0151905038806139b4565b90601f198316958460005282600020926000905b888210613a2157505083600195969710613a08575b505050811b019055565b015160001960f88460031b161c191690553880806139fe565b806001859682949686015181550195019301906139e9565b613a6690836000526020600020601f840160051c81019160208510613a6c575b601f0160051c019061395b565b38613998565b9091508190613a59565b600954600160401b81101561123a5760018101806009558110156121075760096000527f6e1540171b6c0c960b71a7020d9f60077f6af931a8bbf590da0223dacf75c7af0155565b8054600160401b81101561123a57613adb91600182018155612c6f565b819291549060031b91821b91600019901b1916179055565b600019811461091f5760010190565b60ff600c5416613b0e57565b60405162461bcd60e51b815260206004820152601060248201526f14185d5cd8589b194e881c185d5cd95960821b6044820152606490fd5b15613b4d57565b60405162461bcd60e51b815260206004820152601c60248201527f4552433732313a20746f6b656e20616c7265616479206d696e746564000000006044820152606490fd5b6000818152600260205260409020549091906001600160a01b031615613bf55781613bec6020927ff8e1a15aba9398e019f0b49df1a4fde98ee17ae345cb5f6b5e2c27f5033e8ce794600052600684526040600020613972565b604051908152a1565b60405162461bcd60e51b815260206004820152602e60248201527f45524337323155524953746f726167653a2055524920736574206f66206e6f6e60448201526d32bc34b9ba32b73a103a37b5b2b760911b6064820152608490fd5b15613c5857565b60405162461bcd60e51b8152602060048201526012602482015271131bdd08191bd95cc81b9bdd08195e1a5cdd60721b6044820152606490fd5b8015613d345780816000925b613d1e5750613cac82612b3c565b91613cba6040519384612b1b565b80835281601f19613cca83612b3c565b013660208601375b613cdb57505090565b600019810190811161091f578091600a916030838306810180911161091f5760f81b6001600160f81b03191660001a90613d159086613892565b53049081613cd2565b9091613d2b600a91613af3565b92910480613c9e565b50604051604081018181106001600160401b0382111761123a5760405260018152600360fc1b60208201529056fec2974791b442bdfab8908cac4978a6dec7cd1f97db200e89911eee41b850fb0ba264697066735822122062ffa12f14a1e6575199a23cca465c3d02cab576d683a77e5c258ed3bb4c2b9b64736f6c634300081300332f8788117e7eff1d82e926ec794901d17c78024a50270940304540a733656f0d","opcodes":"PUSH1 0x80 CALLVALUE PUSH3 0x45F JUMPI PUSH1 0x40 PUSH1 0x1 PUSH1 0x1 PUSH1 0x40 SHL SUB DUP3 DUP3 ADD DUP2 DUP2 GT DUP5 DUP3 LT OR PUSH3 0x449 JUMPI DUP3 MSTORE PUSH1 0xE DUP4 MSTORE PUSH1 0x20 SWAP1 PUSH14 0x141C9BD91D58D95C931BDD139195 PUSH1 0x92 SHL DUP3 DUP6 ADD MSTORE DUP3 MLOAD SWAP4 DUP4 DUP6 ADD DUP6 DUP2 LT DUP4 DUP3 GT OR PUSH3 0x449 JUMPI DUP5 MSTORE PUSH1 0x5 DUP6 MSTORE PUSH5 0x1413139195 PUSH1 0xDA SHL DUP4 DUP7 ADD MSTORE DUP1 MLOAD SWAP2 DUP1 DUP4 GT PUSH3 0x449 JUMPI PUSH1 0x0 SWAP3 DUP4 SLOAD SWAP1 PUSH1 0x1 SWAP4 DUP5 DUP4 DUP2 SHR SWAP4 AND DUP1 ISZERO PUSH3 0x43E JUMPI JUMPDEST DUP8 DUP5 LT EQ PUSH3 0x42A JUMPI DUP2 SWAP1 PUSH1 0x1F SWAP4 DUP5 DUP2 GT PUSH3 0x3D7 JUMPI JUMPDEST POP DUP8 SWAP1 DUP5 DUP4 GT PUSH1 0x1 EQ PUSH3 0x373 JUMPI DUP8 SWAP3 PUSH3 0x367 JUMPI JUMPDEST POP POP PUSH1 0x0 NOT PUSH1 0x3 DUP4 SWAP1 SHL SHR NOT AND SWAP1 DUP5 SHL OR DUP5 SSTORE JUMPDEST DUP7 MLOAD SWAP2 DUP3 GT PUSH3 0x353 JUMPI DUP3 SLOAD DUP4 DUP2 DUP2 SHR SWAP2 AND DUP1 ISZERO PUSH3 0x348 JUMPI JUMPDEST DUP7 DUP3 LT EQ PUSH3 0x334 JUMPI DUP2 DUP2 GT PUSH3 0x2EC JUMPI JUMPDEST POP DUP5 SWAP1 DUP3 GT PUSH1 0x1 EQ PUSH3 0x289 JUMPI DUP4 SWAP5 SWAP6 SWAP7 DUP3 SWAP4 SWAP5 SWAP3 PUSH3 0x27D JUMPI JUMPDEST POP POP PUSH1 0x0 NOT PUSH1 0x3 DUP4 SWAP1 SHL SHR NOT AND SWAP1 DUP3 SHL OR DUP2 SSTORE JUMPDEST PUSH1 0xFF NOT SWAP1 DUP2 PUSH1 0xC SLOAD AND PUSH1 0xC SSTORE DUP3 DUP1 MSTORE PUSH1 0xB SWAP4 DUP5 DUP2 MSTORE DUP6 DUP5 KECCAK256 CALLER DUP6 MSTORE DUP2 MSTORE PUSH1 0xFF DUP7 DUP6 KECCAK256 SLOAD AND ISZERO PUSH3 0x248 JUMPI JUMPDEST PUSH32 0x9F2DF0FED2C77648DE5860A4CC508CD0818C85B8B8A1AB4CEEEF8D981C8956A6 DUP1 DUP6 MSTORE DUP6 DUP3 MSTORE DUP7 DUP6 KECCAK256 CALLER DUP7 MSTORE DUP3 MSTORE PUSH1 0xFF DUP8 DUP7 KECCAK256 SLOAD AND ISZERO PUSH3 0x211 JUMPI JUMPDEST POP PUSH32 0x97667070C54EF182B0F5858B034BEAC1B6F3089AA2D3188BB1E8929F4FA9B929 SWAP5 DUP6 DUP6 MSTORE DUP1 DUP3 MSTORE DUP7 DUP6 KECCAK256 CALLER DUP7 MSTORE DUP3 MSTORE PUSH1 0xFF DUP8 DUP7 KECCAK256 SLOAD AND ISZERO PUSH3 0x1D8 JUMPI JUMPDEST DUP7 MLOAD PUSH2 0x3DB8 SWAP1 DUP2 PUSH3 0x465 DUP3 CODECOPY RETURN JUMPDEST DUP6 DUP6 MSTORE DUP2 MSTORE DUP6 DUP5 KECCAK256 SWAP1 CALLER DUP6 MSTORE MSTORE DUP5 DUP4 KECCAK256 SWAP2 DUP3 SLOAD AND OR SWAP1 SSTORE CALLER SWAP2 PUSH1 0x0 DUP1 MLOAD PUSH1 0x20 PUSH3 0x421D DUP4 CODECOPY DUP2 MLOAD SWAP2 MSTORE CALLER SWAP3 DUP1 LOG4 CODESIZE DUP1 DUP1 DUP1 DUP1 DUP1 PUSH3 0x1C9 JUMP JUMPDEST DUP1 DUP6 MSTORE DUP6 DUP3 MSTORE DUP7 DUP6 KECCAK256 CALLER DUP7 MSTORE DUP3 MSTORE DUP7 DUP6 KECCAK256 DUP4 DUP6 DUP3 SLOAD AND OR SWAP1 SSTORE CALLER SWAP1 CALLER SWAP1 PUSH1 0x0 DUP1 MLOAD PUSH1 0x20 PUSH3 0x421D DUP4 CODECOPY DUP2 MLOAD SWAP2 MSTORE DUP8 DUP1 LOG4 CODESIZE PUSH3 0x18A JUMP JUMPDEST DUP4 DUP1 MSTORE DUP5 DUP2 MSTORE DUP6 DUP5 KECCAK256 CALLER DUP6 MSTORE DUP2 MSTORE DUP6 DUP5 KECCAK256 DUP3 DUP5 DUP3 SLOAD AND OR SWAP1 SSTORE CALLER CALLER DUP6 PUSH1 0x0 DUP1 MLOAD PUSH1 0x20 PUSH3 0x421D DUP4 CODECOPY DUP2 MLOAD SWAP2 MSTORE DUP2 DUP1 LOG4 PUSH3 0x14D JUMP JUMPDEST ADD MLOAD SWAP1 POP CODESIZE DUP1 PUSH3 0x10E JUMP JUMPDEST DUP3 DUP5 MSTORE DUP5 DUP5 KECCAK256 SWAP1 PUSH1 0x1F NOT DUP4 AND DUP6 JUMPDEST DUP2 DUP2 LT PUSH3 0x2D6 JUMPI POP SWAP8 DUP4 DUP6 SWAP7 SWAP8 SWAP9 SWAP10 LT PUSH3 0x2BC JUMPI JUMPDEST POP POP POP DUP2 SHL ADD DUP2 SSTORE PUSH3 0x122 JUMP JUMPDEST ADD MLOAD PUSH1 0x0 NOT PUSH1 0xF8 DUP5 PUSH1 0x3 SHL AND SHR NOT AND SWAP1 SSTORE CODESIZE DUP1 DUP1 PUSH3 0x2AE JUMP JUMPDEST DUP10 DUP4 ADD MLOAD DUP5 SSTORE SWAP3 DUP6 ADD SWAP3 SWAP2 DUP8 ADD SWAP2 DUP8 ADD PUSH3 0x297 JUMP JUMPDEST DUP4 DUP6 MSTORE DUP6 DUP6 KECCAK256 DUP3 DUP1 DUP6 ADD PUSH1 0x5 SHR DUP3 ADD SWAP3 DUP9 DUP7 LT PUSH3 0x32A JUMPI JUMPDEST ADD PUSH1 0x5 SHR ADD SWAP1 DUP5 SWAP1 JUMPDEST DUP3 DUP2 LT PUSH3 0x31E JUMPI POP POP PUSH3 0xF3 JUMP JUMPDEST DUP7 DUP2 SSTORE ADD DUP5 SWAP1 PUSH3 0x30E JUMP JUMPDEST SWAP3 POP DUP2 SWAP3 PUSH3 0x305 JUMP JUMPDEST PUSH4 0x4E487B71 PUSH1 0xE0 SHL DUP6 MSTORE PUSH1 0x22 PUSH1 0x4 MSTORE PUSH1 0x24 DUP6 REVERT JUMPDEST SWAP1 PUSH1 0x7F AND SWAP1 PUSH3 0xE1 JUMP JUMPDEST PUSH4 0x4E487B71 PUSH1 0xE0 SHL DUP5 MSTORE PUSH1 0x41 PUSH1 0x4 MSTORE PUSH1 0x24 DUP5 REVERT JUMPDEST ADD MLOAD SWAP1 POP CODESIZE DUP1 PUSH3 0xB3 JUMP JUMPDEST DUP8 DUP1 MSTORE DUP9 DUP9 KECCAK256 DUP8 SWAP5 POP SWAP2 SWAP1 PUSH1 0x1F NOT DUP5 AND DUP10 JUMPDEST DUP12 DUP3 DUP3 LT PUSH3 0x3C0 JUMPI POP POP DUP5 GT PUSH3 0x3A6 JUMPI JUMPDEST POP POP POP DUP2 SHL ADD DUP5 SSTORE PUSH3 0xC7 JUMP JUMPDEST ADD MLOAD PUSH1 0x0 NOT PUSH1 0xF8 DUP5 PUSH1 0x3 SHL AND SHR NOT AND SWAP1 SSTORE CODESIZE DUP1 DUP1 PUSH3 0x398 JUMP JUMPDEST DUP4 DUP6 ADD MLOAD DUP7 SSTORE DUP11 SWAP8 SWAP1 SWAP6 ADD SWAP5 SWAP4 DUP5 ADD SWAP4 ADD PUSH3 0x385 JUMP JUMPDEST SWAP1 SWAP2 POP DUP7 DUP1 MSTORE DUP8 DUP8 KECCAK256 DUP5 DUP1 DUP6 ADD PUSH1 0x5 SHR DUP3 ADD SWAP3 DUP11 DUP7 LT PUSH3 0x420 JUMPI JUMPDEST SWAP2 DUP9 SWAP2 DUP7 SWAP6 SWAP5 SWAP4 ADD PUSH1 0x5 SHR ADD SWAP2 JUMPDEST DUP3 DUP2 LT PUSH3 0x411 JUMPI POP POP PUSH3 0x9D JUMP JUMPDEST DUP10 DUP2 SSTORE DUP6 SWAP5 POP DUP9 SWAP2 ADD PUSH3 0x401 JUMP JUMPDEST SWAP3 POP DUP2 SWAP3 PUSH3 0x3F3 JUMP JUMPDEST PUSH4 0x4E487B71 PUSH1 0xE0 SHL DUP7 MSTORE PUSH1 0x22 PUSH1 0x4 MSTORE PUSH1 0x24 DUP7 REVERT JUMPDEST SWAP3 PUSH1 0x7F AND SWAP3 PUSH3 0x86 JUMP JUMPDEST PUSH4 0x4E487B71 PUSH1 0xE0 SHL PUSH1 0x0 MSTORE PUSH1 0x41 PUSH1 0x4 MSTORE PUSH1 0x24 PUSH1 0x0 REVERT JUMPDEST PUSH1 0x0 DUP1 REVERT INVALID PUSH1 0xA0 DUP1 PUSH1 0x40 MSTORE PUSH1 0x4 CALLDATASIZE LT ISZERO PUSH2 0x13 JUMPI PUSH1 0x0 DUP1 REVERT JUMPDEST PUSH1 0x0 CALLDATALOAD PUSH1 0xE0 SHR SWAP1 DUP2 PUSH4 0x1FFC9A7 EQ PUSH2 0x297D JUMPI POP DUP1 PUSH4 0x6FDDE03 EQ PUSH2 0x28DA JUMPI DUP1 PUSH4 0x81812FC EQ PUSH2 0x28BC JUMPI DUP1 PUSH4 0x95EA7B3 EQ PUSH2 0x2742 JUMPI DUP1 PUSH4 0x102A4F15 EQ PUSH2 0x26CA JUMPI DUP1 PUSH4 0x18160DDD EQ PUSH2 0x26AC JUMPI DUP1 PUSH4 0x1C5F4012 EQ PUSH2 0x24FC JUMPI DUP1 PUSH4 0x217D4BF4 EQ PUSH2 0x24A0 JUMPI DUP1 PUSH4 0x23B872DD EQ PUSH2 0x2481 JUMPI DUP1 PUSH4 0x248A9CA3 EQ PUSH2 0x2452 JUMPI DUP1 PUSH4 0x2F2FF15D EQ PUSH2 0x239F JUMPI DUP1 PUSH4 0x2F745C59 EQ PUSH2 0x22ED JUMPI DUP1 PUSH4 0x32BA489B EQ PUSH2 0x21DD JUMPI DUP1 PUSH4 0x36568ABE EQ PUSH2 0x214B JUMPI DUP1 PUSH4 0x3C0D4F2A EQ PUSH2 0x16E7 JUMPI DUP1 PUSH4 0x3F4BA83A EQ PUSH2 0x1653 JUMPI DUP1 PUSH4 0x42842E0E EQ PUSH2 0x1620 JUMPI DUP1 PUSH4 0x4F6CCCE7 EQ PUSH2 0x1575 JUMPI DUP1 PUSH4 0x5070B630 EQ PUSH2 0x13CC JUMPI DUP1 PUSH4 0x52E4B6CF EQ PUSH2 0x115F JUMPI DUP1 PUSH4 0x5C975ABB EQ PUSH2 0x113C JUMPI DUP1 PUSH4 0x6352211E EQ PUSH2 0x110C JUMPI DUP1 PUSH4 0x70A08231 EQ PUSH2 0x10E9 JUMPI DUP1 PUSH4 0x78385AE1 EQ PUSH2 0xFF3 JUMPI DUP1 PUSH4 0x8456CB59 EQ PUSH2 0xF99 JUMPI DUP1 PUSH4 0x85115629 EQ PUSH2 0xF68 JUMPI DUP1 PUSH4 0x8FE86B3F EQ PUSH2 0xF04 JUMPI DUP1 PUSH4 0x91D14854 EQ PUSH2 0xEB7 JUMPI DUP1 PUSH4 0x95D89B41 EQ PUSH2 0xDD8 JUMPI DUP1 PUSH4 0x96425932 EQ PUSH2 0xDA7 JUMPI DUP1 PUSH4 0x99E53026 EQ PUSH2 0xD3D JUMPI DUP1 PUSH4 0xA1C3AC78 EQ PUSH2 0xCC7 JUMPI DUP1 PUSH4 0xA217FDDF EQ PUSH2 0xCAB JUMPI DUP1 PUSH4 0xA22CB465 EQ PUSH2 0xBD0 JUMPI DUP1 PUSH4 0xAB995D12 EQ PUSH2 0x9D8 JUMPI DUP1 PUSH4 0xB88D4FDE EQ PUSH2 0x953 JUMPI DUP1 PUSH4 0xC84C4762 EQ PUSH2 0x88F JUMPI DUP1 PUSH4 0xC87B56DD EQ PUSH2 0x819 JUMPI DUP1 PUSH4 0xCB3E1FE7 EQ PUSH2 0x7DE JUMPI DUP1 PUSH4 0xD5391393 EQ PUSH2 0x7A3 JUMPI DUP1 PUSH4 0xD547741F EQ PUSH2 0x762 JUMPI DUP1 PUSH4 0xDC29EC13 EQ PUSH2 0x718 JUMPI DUP1 PUSH4 0xE985E9C5 EQ PUSH2 0x6C2 JUMPI DUP1 PUSH4 0xF1648E84 EQ PUSH2 0x528 JUMPI DUP1 PUSH4 0xF5B541A6 EQ PUSH2 0x4ED JUMPI DUP1 PUSH4 0xF80A1FA7 EQ PUSH2 0x495 JUMPI DUP1 PUSH4 0xF9ACD81B EQ PUSH2 0x273 JUMPI PUSH4 0xFE25E02D EQ PUSH2 0x22F JUMPI PUSH1 0x0 DUP1 REVERT JUMPDEST CALLVALUE PUSH2 0x26E JUMPI PUSH2 0x23D CALLDATASIZE PUSH2 0x2C59 JUMP JUMPDEST SWAP1 PUSH1 0x0 MSTORE PUSH1 0x10 PUSH1 0x20 MSTORE PUSH1 0x40 PUSH1 0x0 KECCAK256 DUP1 SLOAD DUP3 LT ISZERO PUSH2 0x26E JUMPI PUSH1 0x20 SWAP2 PUSH2 0x260 SWAP2 PUSH2 0x2C6F JUMP JUMPDEST SWAP1 SLOAD PUSH1 0x40 MLOAD SWAP2 PUSH1 0x3 SHL SHR DUP2 MSTORE RETURN JUMPDEST PUSH1 0x0 DUP1 REVERT JUMPDEST CALLVALUE PUSH2 0x26E JUMPI PUSH1 0x60 CALLDATASIZE PUSH1 0x3 NOT ADD SLT PUSH2 0x26E JUMPI PUSH1 0x4 CALLDATALOAD PUSH2 0x28F PUSH2 0x2A94 JUMP JUMPDEST SWAP1 PUSH1 0x44 CALLDATALOAD PUSH2 0x29B PUSH2 0x2D8D JUMP JUMPDEST PUSH2 0x2A3 PUSH2 0x3B02 JUMP JUMPDEST DUP2 PUSH1 0x0 MSTORE PUSH1 0x20 PUSH1 0xE DUP2 MSTORE PUSH1 0x40 PUSH1 0x0 KECCAK256 SWAP4 PUSH2 0x2C3 PUSH1 0xFF PUSH1 0x10 DUP8 ADD SLOAD AND PUSH2 0x3C51 JUMP JUMPDEST PUSH1 0xFF PUSH1 0xC DUP7 ADD SLOAD AND PUSH1 0x5 DUP2 LT ISZERO PUSH2 0x47F JUMPI PUSH2 0x442 JUMPI PUSH1 0x1 PUSH1 0x1 PUSH1 0xA0 SHL SUB DUP2 AND SWAP5 DUP6 ISZERO PUSH2 0x405 JUMPI DUP4 ISZERO PUSH2 0x3B2 JUMPI SWAP2 PUSH2 0x3A5 DUP6 DUP6 SWAP4 PUSH32 0x794F5FDB2BC5E491B6B5CE3E6D67FE4E82E2A42E14C7099C0F1BB9FBD996A5D1 SWAP7 PUSH1 0xA PUSH1 0x40 SWAP8 TIMESTAMP PUSH1 0x9 DUP3 ADD SSTORE ADD SSTORE DUP2 PUSH1 0x0 MSTORE PUSH1 0xE DUP5 MSTORE DUP2 PUSH1 0x0 DUP1 MLOAD PUSH1 0x20 PUSH2 0x3D63 DUP4 CODECOPY DUP2 MLOAD SWAP2 MSTORE DUP8 PUSH1 0xC DUP2 PUSH1 0x0 KECCAK256 ADD PUSH1 0xFF DUP2 SLOAD AND SWAP1 PUSH2 0x354 DUP3 PUSH2 0x2C87 JUMP JUMPDEST PUSH2 0x35E DUP2 SLOAD PUSH2 0x38A3 JUMP JUMPDEST SWAP1 SSTORE PUSH1 0x1 PUSH1 0x0 MSTORE PUSH1 0x13 DUP10 MSTORE DUP3 PUSH1 0x0 KECCAK256 PUSH2 0x377 DUP2 SLOAD PUSH2 0x3AF3 JUMP JUMPDEST SWAP1 SSTORE PUSH1 0x1 PUSH1 0xFF NOT DUP3 SLOAD AND OR SWAP1 SSTORE PUSH2 0x390 DUP3 MLOAD DUP1 SWAP3 PUSH2 0x2CA0 JUMP JUMPDEST PUSH1 0x1 DUP9 DUP3 ADD MSTORE LOG2 PUSH2 0x3A0 DUP3 PUSH2 0x32CC JUMP JUMPDEST PUSH2 0x34CA JUMP JUMPDEST DUP3 MLOAD SWAP2 DUP3 MSTORE TIMESTAMP SWAP1 DUP3 ADD MSTORE LOG3 STOP JUMPDEST PUSH1 0x40 MLOAD PUSH3 0x461BCD PUSH1 0xE5 SHL DUP2 MSTORE PUSH1 0x4 DUP2 ADD DUP5 SWAP1 MSTORE PUSH1 0x25 PUSH1 0x24 DUP3 ADD MSTORE PUSH32 0x5075726368617365207072696365206D75737420626520677265617465722074 PUSH1 0x44 DUP3 ADD MSTORE PUSH5 0x68616E203 PUSH1 0xDC SHL PUSH1 0x64 DUP3 ADD MSTORE PUSH1 0x84 SWAP1 REVERT JUMPDEST PUSH1 0x40 MLOAD PUSH3 0x461BCD PUSH1 0xE5 SHL DUP2 MSTORE PUSH1 0x4 DUP2 ADD DUP5 SWAP1 MSTORE PUSH1 0x15 PUSH1 0x24 DUP3 ADD MSTORE PUSH21 0x496E76616C69642062757965722061646472657373 PUSH1 0x58 SHL PUSH1 0x44 DUP3 ADD MSTORE PUSH1 0x64 SWAP1 REVERT JUMPDEST PUSH1 0x40 MLOAD PUSH3 0x461BCD PUSH1 0xE5 SHL DUP2 MSTORE PUSH1 0x4 DUP2 ADD DUP4 SWAP1 MSTORE PUSH1 0x15 PUSH1 0x24 DUP3 ADD MSTORE PUSH21 0x131BDD08185B1C9958591E481C1D5C98DA185CD959 PUSH1 0x5A SHL PUSH1 0x44 DUP3 ADD MSTORE PUSH1 0x64 SWAP1 REVERT JUMPDEST PUSH4 0x4E487B71 PUSH1 0xE0 SHL PUSH1 0x0 MSTORE PUSH1 0x21 PUSH1 0x4 MSTORE PUSH1 0x24 PUSH1 0x0 REVERT JUMPDEST CALLVALUE PUSH2 0x26E JUMPI PUSH1 0x20 CALLDATASIZE PUSH1 0x3 NOT ADD SLT PUSH2 0x26E JUMPI PUSH1 0x4 CALLDATALOAD PUSH1 0x0 MSTORE PUSH1 0xE PUSH1 0x20 MSTORE PUSH1 0x40 PUSH1 0x0 KECCAK256 PUSH1 0xFF PUSH1 0x10 DUP3 ADD SLOAD AND DUP1 PUSH2 0x4D1 JUMPI JUMPDEST PUSH1 0x20 SWAP1 PUSH1 0x40 MLOAD SWAP1 ISZERO ISZERO DUP2 MSTORE RETURN JUMPDEST POP PUSH1 0xC ADD SLOAD PUSH1 0xFF AND PUSH1 0x5 DUP2 LT ISZERO PUSH2 0x47F JUMPI PUSH1 0x1 PUSH1 0x20 SWAP2 EQ PUSH2 0x4C4 JUMP JUMPDEST CALLVALUE PUSH2 0x26E JUMPI PUSH1 0x0 CALLDATASIZE PUSH1 0x3 NOT ADD SLT PUSH2 0x26E JUMPI PUSH1 0x20 PUSH1 0x40 MLOAD PUSH32 0x97667070C54EF182B0F5858B034BEAC1B6F3089AA2D3188BB1E8929F4FA9B929 DUP2 MSTORE RETURN JUMPDEST CALLVALUE PUSH2 0x26E JUMPI PUSH1 0x20 CALLDATASIZE PUSH1 0x3 NOT ADD SLT PUSH2 0x26E JUMPI PUSH1 0x4 CALLDATALOAD PUSH1 0x0 SWAP1 DUP2 MSTORE PUSH1 0xE PUSH1 0x20 MSTORE PUSH1 0x40 SWAP1 KECCAK256 DUP1 SLOAD PUSH1 0x1 DUP3 ADD SLOAD SWAP1 SWAP2 SWAP1 PUSH1 0x1 PUSH1 0x1 PUSH1 0xA0 SHL SUB AND DUP2 PUSH2 0x56A PUSH1 0x2 DUP3 ADD PUSH2 0x2CE7 JUMP JUMPDEST SWAP2 PUSH2 0x577 PUSH1 0x3 DUP4 ADD PUSH2 0x2CE7 JUMP JUMPDEST SWAP3 PUSH2 0x584 PUSH1 0x4 DUP5 ADD PUSH2 0x2CE7 JUMP JUMPDEST SWAP4 PUSH2 0x591 PUSH1 0x5 DUP6 ADD PUSH2 0x2CE7 JUMP JUMPDEST SWAP5 PUSH1 0x6 DUP6 ADD SLOAD PUSH1 0x7 DUP7 ADD PUSH2 0x5A4 SWAP1 PUSH2 0x2CE7 JUMP JUMPDEST SWAP1 PUSH1 0x8 DUP8 ADD SLOAD SWAP8 PUSH1 0x9 DUP9 ADD SLOAD SWAP4 PUSH1 0xA DUP10 ADD SLOAD SWAP6 PUSH1 0xC DUP11 ADD SLOAD PUSH1 0xFF AND SWAP8 PUSH1 0xD DUP12 ADD SLOAD SWAP10 PUSH1 0xE DUP13 ADD SLOAD SWAP12 PUSH1 0xF ADD PUSH2 0x5D8 SWAP1 PUSH2 0x2CE7 JUMP JUMPDEST SWAP14 PUSH1 0x10 ADD SLOAD PUSH1 0xFF AND SWAP15 PUSH1 0x40 MLOAD DUP1 PUSH1 0x80 MSTORE MSTORE PUSH1 0x80 MLOAD PUSH1 0x20 ADD MSTORE PUSH2 0x200 DUP1 PUSH1 0x80 MLOAD PUSH1 0x40 ADD MSTORE PUSH1 0x80 MLOAD ADD PUSH2 0x608 SWAP2 PUSH2 0x2A59 JUMP JUMPDEST PUSH1 0x80 MLOAD DUP1 DUP3 SUB SWAP1 PUSH1 0x60 ADD MSTORE PUSH2 0x61C SWAP2 PUSH2 0x2A59 JUMP JUMPDEST PUSH1 0x80 MLOAD DUP1 DUP3 SUB SWAP1 PUSH1 0x80 ADD MSTORE PUSH2 0x630 SWAP2 PUSH2 0x2A59 JUMP JUMPDEST PUSH1 0x80 MLOAD DUP1 DUP3 SUB SWAP1 PUSH1 0xA0 ADD MSTORE PUSH2 0x644 SWAP2 PUSH2 0x2A59 JUMP JUMPDEST SWAP1 PUSH1 0x80 MLOAD PUSH1 0xC0 ADD MSTORE PUSH1 0x80 MLOAD DUP1 DUP3 SUB SWAP1 PUSH1 0xE0 ADD MSTORE PUSH2 0x660 SWAP2 PUSH2 0x2A59 JUMP JUMPDEST SWAP6 PUSH1 0x80 MLOAD PUSH2 0x100 ADD MSTORE PUSH1 0x80 MLOAD PUSH2 0x120 ADD MSTORE PUSH1 0x80 MLOAD PUSH2 0x140 ADD MSTORE PUSH1 0x80 MLOAD PUSH2 0x160 ADD PUSH2 0x689 SWAP2 PUSH2 0x2CA0 JUMP JUMPDEST PUSH1 0x80 MLOAD PUSH2 0x180 ADD MSTORE PUSH1 0x80 MLOAD PUSH2 0x1A0 ADD MSTORE PUSH1 0x80 MLOAD DUP1 DUP3 SUB SWAP1 PUSH2 0x1C0 ADD MSTORE PUSH2 0x6AE SWAP2 PUSH2 0x2A59 JUMP JUMPDEST SWAP1 ISZERO ISZERO PUSH1 0x80 MLOAD PUSH2 0x1E0 ADD MSTORE PUSH1 0x80 MLOAD DUP1 SWAP2 SUB SWAP1 RETURN JUMPDEST CALLVALUE PUSH2 0x26E JUMPI PUSH1 0x40 CALLDATASIZE PUSH1 0x3 NOT ADD SLT PUSH2 0x26E JUMPI PUSH2 0x6DB PUSH2 0x2A7E JUMP JUMPDEST PUSH2 0x6E3 PUSH2 0x2A94 JUMP JUMPDEST SWAP1 PUSH1 0x1 DUP1 PUSH1 0xA0 SHL SUB DUP1 SWAP2 AND PUSH1 0x0 MSTORE PUSH1 0x5 PUSH1 0x20 MSTORE PUSH1 0x40 PUSH1 0x0 KECCAK256 SWAP2 AND PUSH1 0x0 MSTORE PUSH1 0x20 MSTORE PUSH1 0x20 PUSH1 0xFF PUSH1 0x40 PUSH1 0x0 KECCAK256 SLOAD AND PUSH1 0x40 MLOAD SWAP1 ISZERO ISZERO DUP2 MSTORE RETURN JUMPDEST CALLVALUE PUSH2 0x26E JUMPI PUSH1 0x40 CALLDATASIZE PUSH1 0x3 NOT ADD SLT PUSH2 0x26E JUMPI PUSH2 0x731 PUSH2 0x2A7E JUMP JUMPDEST PUSH1 0x1 PUSH1 0x1 PUSH1 0xA0 SHL SUB AND PUSH1 0x0 SWAP1 DUP2 MSTORE PUSH1 0xF PUSH1 0x20 MSTORE PUSH1 0x40 SWAP1 KECCAK256 DUP1 SLOAD PUSH1 0x24 CALLDATALOAD SWAP2 SWAP1 DUP3 LT ISZERO PUSH2 0x26E JUMPI PUSH1 0x20 SWAP2 PUSH2 0x260 SWAP2 PUSH2 0x2C6F JUMP JUMPDEST CALLVALUE PUSH2 0x26E JUMPI PUSH1 0x40 CALLDATASIZE PUSH1 0x3 NOT ADD SLT PUSH2 0x26E JUMPI PUSH2 0x7A1 PUSH1 0x4 CALLDATALOAD PUSH2 0x781 PUSH2 0x2A94 JUMP JUMPDEST SWAP1 DUP1 PUSH1 0x0 MSTORE PUSH1 0xB PUSH1 0x20 MSTORE PUSH2 0x79C PUSH1 0x1 PUSH1 0x40 PUSH1 0x0 KECCAK256 ADD SLOAD PUSH2 0x3093 JUMP JUMPDEST PUSH2 0x3193 JUMP JUMPDEST STOP JUMPDEST CALLVALUE PUSH2 0x26E JUMPI PUSH1 0x0 CALLDATASIZE PUSH1 0x3 NOT ADD SLT PUSH2 0x26E JUMPI PUSH1 0x20 PUSH1 0x40 MLOAD PUSH32 0x9F2DF0FED2C77648DE5860A4CC508CD0818C85B8B8A1AB4CEEEF8D981C8956A6 DUP2 MSTORE RETURN JUMPDEST CALLVALUE PUSH2 0x26E JUMPI PUSH1 0x0 CALLDATASIZE PUSH1 0x3 NOT ADD SLT PUSH2 0x26E JUMPI PUSH1 0x20 PUSH1 0x40 MLOAD PUSH32 0x8EB467F061CA67F42A2D2CA4A346FC9FB645EFC0BA75056EE9F71C3A0CCC10A8 DUP2 MSTORE RETURN JUMPDEST CALLVALUE PUSH2 0x26E JUMPI PUSH1 0x20 CALLDATASIZE PUSH1 0x3 NOT ADD SLT PUSH2 0x26E JUMPI PUSH1 0x4 CALLDATALOAD PUSH1 0x0 DUP2 DUP2 MSTORE PUSH1 0x2 PUSH1 0x20 MSTORE PUSH1 0x40 SWAP1 KECCAK256 SLOAD PUSH2 0x850 SWAP1 PUSH1 0x1 PUSH1 0x1 PUSH1 0xA0 SHL SUB AND ISZERO ISZERO PUSH2 0x3280 JUMP JUMPDEST PUSH1 0x0 MSTORE PUSH1 0x6 PUSH1 0x20 MSTORE PUSH2 0x88B PUSH2 0x868 PUSH1 0x40 PUSH1 0x0 KECCAK256 PUSH2 0x2CE7 JUMP JUMPDEST PUSH1 0x0 PUSH1 0x40 MLOAD PUSH2 0x876 DUP2 PUSH2 0x2AE5 JUMP JUMPDEST MSTORE PUSH1 0x40 MLOAD SWAP2 DUP3 SWAP2 PUSH1 0x20 DUP4 MSTORE PUSH1 0x20 DUP4 ADD SWAP1 PUSH2 0x2A59 JUMP JUMPDEST SUB SWAP1 RETURN JUMPDEST CALLVALUE PUSH2 0x26E JUMPI PUSH1 0x20 DUP1 PUSH1 0x3 NOT CALLDATASIZE ADD SLT PUSH2 0x26E JUMPI PUSH1 0x4 CALLDATALOAD PUSH1 0x0 MSTORE PUSH1 0x10 DUP2 MSTORE PUSH1 0x40 PUSH1 0x0 KECCAK256 PUSH1 0x40 MLOAD DUP1 DUP3 DUP5 DUP3 SWAP5 SLOAD SWAP4 DUP5 DUP2 MSTORE ADD SWAP1 PUSH1 0x0 MSTORE DUP5 PUSH1 0x0 KECCAK256 SWAP3 PUSH1 0x0 JUMPDEST DUP7 DUP3 DUP3 LT PUSH2 0x93D JUMPI DUP5 PUSH2 0x8DF DUP2 DUP7 SUB DUP3 PUSH2 0x2B1B JUMP JUMPDEST PUSH1 0x0 SWAP2 DUP3 JUMPDEST DUP3 MLOAD DUP5 LT ISZERO PUSH2 0x935 JUMPI DUP2 DUP5 PUSH1 0x5 SHL DUP5 ADD ADD MLOAD PUSH1 0x0 MSTORE PUSH1 0xE DUP3 MSTORE PUSH1 0x6 PUSH1 0x40 PUSH1 0x0 KECCAK256 ADD SLOAD DUP2 ADD DUP1 SWAP2 GT PUSH2 0x91F JUMPI PUSH2 0x919 SWAP1 SWAP4 PUSH2 0x3AF3 JUMP JUMPDEST SWAP3 PUSH2 0x8E4 JUMP JUMPDEST PUSH4 0x4E487B71 PUSH1 0xE0 SHL PUSH1 0x0 MSTORE PUSH1 0x11 PUSH1 0x4 MSTORE PUSH1 0x24 PUSH1 0x0 REVERT JUMPDEST PUSH1 0x40 MLOAD SWAP1 DUP2 MSTORE RETURN JUMPDEST DUP6 SLOAD DUP5 MSTORE PUSH1 0x1 SWAP6 DUP7 ADD SWAP6 DUP8 SWAP6 POP SWAP4 ADD SWAP3 ADD PUSH2 0x8CA JUMP JUMPDEST CALLVALUE PUSH2 0x26E JUMPI PUSH1 0x80 CALLDATASIZE PUSH1 0x3 NOT ADD SLT PUSH2 0x26E JUMPI PUSH2 0x96C PUSH2 0x2A7E JUMP JUMPDEST PUSH2 0x974 PUSH2 0x2A94 JUMP JUMPDEST SWAP1 PUSH1 0x64 CALLDATALOAD SWAP1 PUSH1 0x44 CALLDATALOAD PUSH1 0x1 PUSH1 0x1 PUSH1 0x40 SHL SUB DUP4 GT PUSH2 0x26E JUMPI CALLDATASIZE PUSH1 0x23 DUP5 ADD SLT ISZERO PUSH2 0x26E JUMPI PUSH2 0x7A1 SWAP4 PUSH2 0x9B0 PUSH2 0x9D3 SWAP5 CALLDATASIZE SWAP1 PUSH1 0x24 DUP2 PUSH1 0x4 ADD CALLDATALOAD SWAP2 ADD PUSH2 0x2B57 JUMP JUMPDEST SWAP3 PUSH2 0x9C3 PUSH2 0x9BE DUP5 CALLER PUSH2 0x3402 JUMP JUMPDEST PUSH2 0x332D JUMP JUMPDEST PUSH2 0x9CE DUP4 DUP4 DUP4 PUSH2 0x34CA JUMP JUMPDEST PUSH2 0x3807 JUMP JUMPDEST PUSH2 0x33E2 JUMP JUMPDEST CALLVALUE PUSH2 0x26E JUMPI PUSH1 0x20 CALLDATASIZE PUSH1 0x3 NOT ADD SLT PUSH2 0x26E JUMPI PUSH1 0x4 CALLDATALOAD PUSH1 0x0 MSTORE PUSH1 0xE PUSH1 0x20 MSTORE PUSH1 0x40 PUSH1 0x0 KECCAK256 PUSH2 0xA09 PUSH1 0xFF PUSH1 0x10 DUP4 ADD SLOAD AND PUSH2 0x3C51 JUMP JUMPDEST PUSH1 0x1 DUP1 PUSH1 0xA0 SHL SUB PUSH1 0x1 DUP3 ADD SLOAD AND PUSH1 0x6 DUP3 ADD SLOAD SWAP2 PUSH1 0x8 DUP2 ADD SLOAD PUSH1 0x9 DUP3 ADD SLOAD SWAP1 PUSH1 0xA DUP4 ADD SLOAD SWAP1 PUSH1 0xFF PUSH1 0xC DUP6 ADD SLOAD AND SWAP6 PUSH1 0xD DUP6 ADD SLOAD SWAP3 PUSH1 0xE DUP7 ADD SLOAD SWAP5 PUSH2 0xA4E PUSH1 0x2 DUP9 ADD PUSH2 0x2CE7 JUMP JUMPDEST SWAP3 PUSH2 0xA5B PUSH1 0x3 DUP10 ADD PUSH2 0x2CE7 JUMP JUMPDEST SWAP1 PUSH2 0xA68 PUSH1 0x4 DUP11 ADD PUSH2 0x2CE7 JUMP JUMPDEST PUSH2 0xA74 PUSH1 0x5 DUP12 ADD PUSH2 0x2CE7 JUMP JUMPDEST SWAP1 PUSH2 0xA81 PUSH1 0x7 DUP13 ADD PUSH2 0x2CE7 JUMP JUMPDEST SWAP4 PUSH1 0xB DUP13 ADD SLOAD SWAP8 PUSH2 0xA91 DUP10 PUSH2 0x2C13 JUMP JUMPDEST SWAP9 PUSH2 0xA9F PUSH1 0x40 MLOAD SWAP11 DUP12 PUSH2 0x2B1B JUMP JUMPDEST DUP1 DUP11 MSTORE PUSH1 0x20 DUP11 ADD PUSH1 0xB DUP2 SWAP16 ADD PUSH1 0x0 MSTORE PUSH1 0x20 PUSH1 0x0 KECCAK256 PUSH1 0x0 SWAP2 JUMPDEST DUP4 DUP4 LT PUSH2 0xBB3 JUMPI POP POP POP POP PUSH1 0x40 MLOAD SWAP14 DUP15 MSTORE DUP14 PUSH2 0x1C0 SWAP1 DUP2 PUSH1 0x20 DUP3 ADD MSTORE ADD PUSH2 0xADD SWAP2 PUSH2 0x2A59 JUMP JUMPDEST DUP14 DUP2 SUB PUSH1 0x40 DUP16 ADD MSTORE PUSH2 0xAEE SWAP2 PUSH2 0x2A59 JUMP JUMPDEST DUP13 DUP2 SUB PUSH1 0x60 DUP15 ADD MSTORE PUSH2 0xAFF SWAP2 PUSH2 0x2A59 JUMP JUMPDEST DUP12 DUP2 SUB PUSH1 0x80 DUP14 ADD MSTORE PUSH2 0xB10 SWAP2 PUSH2 0x2A59 JUMP JUMPDEST SWAP1 PUSH1 0xA0 DUP12 ADD MSTORE DUP10 DUP2 SUB PUSH1 0xC0 DUP12 ADD MSTORE PUSH2 0xB27 SWAP2 PUSH2 0x2A59 JUMP JUMPDEST SWAP4 PUSH1 0xE0 DUP10 ADD MSTORE PUSH2 0x100 DUP9 ADD MSTORE PUSH2 0x120 DUP8 ADD MSTORE DUP6 DUP3 SUB PUSH2 0x140 DUP8 ADD MSTORE MLOAD DUP1 DUP3 MSTORE PUSH1 0x20 DUP3 ADD SWAP2 DUP2 PUSH1 0x5 SHL DUP2 ADD PUSH1 0x20 ADD SWAP6 SWAP3 PUSH1 0x0 SWAP2 JUMPDEST DUP4 DUP4 LT PUSH2 0xB86 JUMPI POP POP POP POP POP PUSH2 0xB76 DUP5 SWAP6 PUSH2 0x160 DUP7 ADD SWAP1 PUSH2 0x2CA0 JUMP JUMPDEST PUSH2 0x180 DUP5 ADD MSTORE PUSH2 0x1A0 DUP4 ADD MSTORE SUB SWAP1 RETURN JUMPDEST SWAP1 SWAP2 SWAP3 SWAP4 SWAP7 PUSH1 0x20 DUP1 PUSH2 0xBA4 PUSH1 0x1 SWAP4 PUSH1 0x1F NOT DUP7 DUP3 SUB ADD DUP8 MSTORE DUP12 MLOAD PUSH2 0x2A59 JUMP JUMPDEST SWAP10 ADD SWAP4 ADD SWAP4 ADD SWAP2 SWAP4 SWAP3 SWAP1 PUSH2 0xB5A JUMP JUMPDEST PUSH1 0x1 PUSH1 0x20 DUP2 SWAP3 PUSH2 0xBC2 DUP6 PUSH2 0x2CE7 JUMP JUMPDEST DUP2 MSTORE ADD SWAP3 ADD SWAP3 ADD SWAP2 SWAP1 PUSH2 0xAB7 JUMP JUMPDEST CALLVALUE PUSH2 0x26E JUMPI PUSH1 0x40 CALLDATASIZE PUSH1 0x3 NOT ADD SLT PUSH2 0x26E JUMPI PUSH2 0xBE9 PUSH2 0x2A7E JUMP JUMPDEST PUSH1 0x24 CALLDATALOAD SWAP1 DUP2 ISZERO ISZERO SWAP1 DUP2 DUP4 SUB PUSH2 0x26E JUMPI PUSH1 0x1 PUSH1 0x1 PUSH1 0xA0 SHL SUB AND SWAP2 CALLER DUP4 EQ PUSH2 0xC66 JUMPI PUSH2 0xC38 SWAP1 CALLER PUSH1 0x0 MSTORE PUSH1 0x5 PUSH1 0x20 MSTORE PUSH1 0x40 PUSH1 0x0 KECCAK256 DUP5 PUSH1 0x0 MSTORE PUSH1 0x20 MSTORE PUSH1 0x40 PUSH1 0x0 KECCAK256 SWAP1 PUSH1 0xFF DUP1 NOT DUP4 SLOAD AND SWAP2 ISZERO ISZERO AND OR SWAP1 SSTORE JUMP JUMPDEST PUSH1 0x40 MLOAD SWAP1 DUP2 MSTORE PUSH32 0x17307EAB39AB6107E8899845AD3D59BD9653F200F220920489CA2B5937696C31 PUSH1 0x20 CALLER SWAP3 LOG3 STOP JUMPDEST PUSH1 0x40 MLOAD PUSH3 0x461BCD PUSH1 0xE5 SHL DUP2 MSTORE PUSH1 0x20 PUSH1 0x4 DUP3 ADD MSTORE PUSH1 0x19 PUSH1 0x24 DUP3 ADD MSTORE PUSH32 0x4552433732313A20617070726F766520746F2063616C6C657200000000000000 PUSH1 0x44 DUP3 ADD MSTORE PUSH1 0x64 SWAP1 REVERT JUMPDEST CALLVALUE PUSH2 0x26E JUMPI PUSH1 0x0 CALLDATASIZE PUSH1 0x3 NOT ADD SLT PUSH2 0x26E JUMPI PUSH1 0x20 PUSH1 0x40 MLOAD PUSH1 0x0 DUP2 MSTORE RETURN JUMPDEST CALLVALUE PUSH2 0x26E JUMPI PUSH1 0x20 DUP1 PUSH1 0x3 NOT CALLDATASIZE ADD SLT PUSH2 0x26E JUMPI PUSH1 0x4 CALLDATALOAD PUSH1 0x0 MSTORE PUSH1 0x11 DUP2 MSTORE PUSH1 0x40 PUSH1 0x0 KECCAK256 SWAP1 PUSH1 0x40 MLOAD SWAP1 DUP2 DUP2 DUP5 SLOAD SWAP2 DUP3 DUP2 MSTORE ADD SWAP4 PUSH1 0x0 MSTORE DUP2 PUSH1 0x0 KECCAK256 SWAP2 PUSH1 0x0 SWAP1 JUMPDEST DUP3 DUP3 LT PUSH2 0xD26 JUMPI PUSH2 0x88B DUP6 PUSH2 0xD1A DUP2 DUP10 SUB DUP3 PUSH2 0x2B1B JUMP JUMPDEST PUSH1 0x40 MLOAD SWAP2 DUP3 SWAP2 DUP3 PUSH2 0x2AAA JUMP JUMPDEST DUP4 SLOAD DUP7 MSTORE SWAP5 DUP6 ADD SWAP5 PUSH1 0x1 SWAP4 DUP5 ADD SWAP4 SWAP1 SWAP2 ADD SWAP1 PUSH2 0xD03 JUMP JUMPDEST CALLVALUE PUSH2 0x26E JUMPI PUSH1 0x20 DUP1 PUSH1 0x3 NOT CALLDATASIZE ADD SLT PUSH2 0x26E JUMPI PUSH1 0x4 CALLDATALOAD PUSH1 0x0 MSTORE PUSH1 0x10 DUP2 MSTORE PUSH1 0x40 PUSH1 0x0 KECCAK256 SWAP1 PUSH1 0x40 MLOAD SWAP1 DUP2 DUP2 DUP5 SLOAD SWAP2 DUP3 DUP2 MSTORE ADD SWAP4 PUSH1 0x0 MSTORE DUP2 PUSH1 0x0 KECCAK256 SWAP2 PUSH1 0x0 SWAP1 JUMPDEST DUP3 DUP3 LT PUSH2 0xD90 JUMPI PUSH2 0x88B DUP6 PUSH2 0xD1A DUP2 DUP10 SUB DUP3 PUSH2 0x2B1B JUMP JUMPDEST DUP4 SLOAD DUP7 MSTORE SWAP5 DUP6 ADD SWAP5 PUSH1 0x1 SWAP4 DUP5 ADD SWAP4 SWAP1 SWAP2 ADD SWAP1 PUSH2 0xD79 JUMP JUMPDEST CALLVALUE PUSH2 0x26E JUMPI PUSH1 0x20 CALLDATASIZE PUSH1 0x3 NOT ADD SLT PUSH2 0x26E JUMPI PUSH1 0x4 CALLDATALOAD PUSH1 0x5 DUP2 LT ISZERO PUSH2 0x26E JUMPI PUSH2 0xDCF PUSH1 0x20 SWAP2 PUSH2 0x2C87 JUMP JUMPDEST SLOAD PUSH1 0x40 MLOAD SWAP1 DUP2 MSTORE RETURN JUMPDEST CALLVALUE PUSH2 0x26E JUMPI PUSH1 0x0 CALLDATASIZE PUSH1 0x3 NOT ADD SLT PUSH2 0x26E JUMPI PUSH1 0x40 MLOAD PUSH1 0x0 PUSH1 0x1 DUP1 SLOAD SWAP1 PUSH2 0xDFC DUP3 PUSH2 0x2CAD JUMP JUMPDEST DUP1 DUP6 MSTORE SWAP2 DUP2 DUP2 AND SWAP1 DUP2 ISZERO PUSH2 0xE90 JUMPI POP PUSH1 0x1 EQ PUSH2 0xE37 JUMPI JUMPDEST PUSH2 0x88B DUP5 PUSH2 0xE23 DUP2 DUP7 SUB DUP3 PUSH2 0x2B1B JUMP JUMPDEST PUSH1 0x40 MLOAD SWAP2 DUP3 SWAP2 PUSH1 0x20 DUP4 MSTORE PUSH1 0x20 DUP4 ADD SWAP1 PUSH2 0x2A59 JUMP JUMPDEST PUSH1 0x0 DUP2 DUP2 MSTORE SWAP3 POP PUSH32 0xB10E2D527612073B26EECDFD717E6A320CF44B4AFAC2B0732D9FCBE2B7FA0CF6 JUMPDEST DUP3 DUP5 LT PUSH2 0xE78 JUMPI POP POP POP DUP2 ADD PUSH1 0x20 ADD PUSH2 0xE23 DUP3 PUSH2 0xE13 JUMP JUMPDEST DUP1 SLOAD PUSH1 0x20 DUP6 DUP8 ADD DUP2 ADD SWAP2 SWAP1 SWAP2 MSTORE SWAP1 SWAP4 ADD SWAP3 DUP2 ADD PUSH2 0xE60 JUMP JUMPDEST PUSH1 0xFF NOT AND PUSH1 0x20 DUP1 DUP8 ADD SWAP2 SWAP1 SWAP2 MSTORE SWAP3 ISZERO ISZERO PUSH1 0x5 SHL DUP6 ADD SWAP1 SWAP3 ADD SWAP3 POP PUSH2 0xE23 SWAP2 POP DUP4 SWAP1 POP PUSH2 0xE13 JUMP JUMPDEST CALLVALUE PUSH2 0x26E JUMPI PUSH1 0x40 CALLDATASIZE PUSH1 0x3 NOT ADD SLT PUSH2 0x26E JUMPI PUSH2 0xED0 PUSH2 0x2A94 JUMP JUMPDEST PUSH1 0x4 CALLDATALOAD PUSH1 0x0 MSTORE PUSH1 0xB PUSH1 0x20 MSTORE PUSH1 0x40 PUSH1 0x0 KECCAK256 SWAP1 PUSH1 0x1 DUP1 PUSH1 0xA0 SHL SUB AND PUSH1 0x0 MSTORE PUSH1 0x20 MSTORE PUSH1 0x20 PUSH1 0xFF PUSH1 0x40 PUSH1 0x0 KECCAK256 SLOAD AND PUSH1 0x40 MLOAD SWAP1 ISZERO ISZERO DUP2 MSTORE RETURN JUMPDEST CALLVALUE PUSH2 0x26E JUMPI PUSH2 0x7A1 PUSH2 0xF15 CALLDATASIZE PUSH2 0x2C2A JUMP JUMPDEST SWAP1 PUSH2 0xF1E PUSH2 0x2D8D JUMP JUMPDEST PUSH2 0xF26 PUSH2 0x3B02 JUMP JUMPDEST PUSH1 0x0 DUP2 DUP2 MSTORE PUSH1 0x2 PUSH1 0x20 MSTORE PUSH1 0x40 SWAP1 KECCAK256 SLOAD PUSH2 0xF49 SWAP1 PUSH1 0x1 PUSH1 0x1 PUSH1 0xA0 SHL SUB AND ISZERO ISZERO PUSH2 0x3C51 JUMP JUMPDEST DUP1 PUSH1 0x0 MSTORE PUSH1 0xE PUSH1 0x20 MSTORE PUSH2 0xF63 DUP3 PUSH1 0xF PUSH1 0x40 PUSH1 0x0 KECCAK256 ADD PUSH2 0x3972 JUMP JUMPDEST PUSH2 0x3B92 JUMP JUMPDEST CALLVALUE PUSH2 0x26E JUMPI PUSH2 0xF76 CALLDATASIZE PUSH2 0x2C59 JUMP JUMPDEST SWAP1 PUSH1 0x0 MSTORE PUSH1 0x11 PUSH1 0x20 MSTORE PUSH1 0x40 PUSH1 0x0 KECCAK256 DUP1 SLOAD DUP3 LT ISZERO PUSH2 0x26E JUMPI PUSH1 0x20 SWAP2 PUSH2 0x260 SWAP2 PUSH2 0x2C6F JUMP JUMPDEST CALLVALUE PUSH2 0x26E JUMPI PUSH1 0x0 CALLDATASIZE PUSH1 0x3 NOT ADD SLT PUSH2 0x26E JUMPI PUSH2 0xFB2 PUSH2 0x2F7A JUMP JUMPDEST PUSH2 0xFBA PUSH2 0x3B02 JUMP JUMPDEST PUSH1 0x1 PUSH1 0xFF NOT PUSH1 0xC SLOAD AND OR PUSH1 0xC SSTORE PUSH32 0x62E78CEA01BEE320CD4E420270B5EA74000D11B0C9F74754EBDBFC544B05A258 PUSH1 0x20 PUSH1 0x40 MLOAD CALLER DUP2 MSTORE LOG1 STOP JUMPDEST CALLVALUE PUSH2 0x26E JUMPI PUSH1 0x0 CALLDATASIZE PUSH1 0x3 NOT ADD SLT PUSH2 0x26E JUMPI PUSH1 0x9 SLOAD PUSH1 0x13 PUSH1 0x20 SWAP1 DUP2 MSTORE PUSH32 0x8FA6EFC3BE94B5B348B21FEA823FE8D100408CEE9B7F90524494500445D8FF6C SLOAD PUSH32 0x4155C2F711F2CDD34F8262AB8FB9B7020A700FE7B6948222152F7670D1FDF34D SLOAD PUSH32 0xB9D2C0C271BB30544EB78C59BDAEBDAE2728E5F65814C07768A0ABE90ED1923 SLOAD PUSH32 0xD2A6872EF858A7F8EAD18DC4F3F2E8D35C853D47E2816CBB9CDD49202554E0C SLOAD PUSH1 0x4 PUSH1 0x0 MSTORE PUSH32 0x1413FF7A3B1D5B6C016C061D48E2C7014700C777A29FCD068FFF04265813D5D SLOAD PUSH1 0x40 DUP1 MLOAD SWAP8 DUP9 MSTORE SWAP6 DUP8 ADD SWAP5 SWAP1 SWAP5 MSTORE SWAP4 DUP6 ADD SWAP2 SWAP1 SWAP2 MSTORE PUSH1 0x60 DUP5 ADD MSTORE PUSH1 0x80 DUP4 ADD SWAP2 SWAP1 SWAP2 MSTORE PUSH1 0xA0 DUP3 ADD MSTORE PUSH1 0xC0 SWAP1 RETURN JUMPDEST CALLVALUE PUSH2 0x26E JUMPI PUSH1 0x20 CALLDATASIZE PUSH1 0x3 NOT ADD SLT PUSH2 0x26E JUMPI PUSH1 0x20 PUSH2 0x935 PUSH2 0x1107 PUSH2 0x2A7E JUMP JUMPDEST PUSH2 0x3209 JUMP JUMPDEST CALLVALUE PUSH2 0x26E JUMPI PUSH1 0x20 CALLDATASIZE PUSH1 0x3 NOT ADD SLT PUSH2 0x26E JUMPI PUSH1 0x20 PUSH2 0x112A PUSH1 0x4 CALLDATALOAD PUSH2 0x32CC JUMP JUMPDEST PUSH1 0x40 MLOAD PUSH1 0x1 PUSH1 0x1 PUSH1 0xA0 SHL SUB SWAP1 SWAP2 AND DUP2 MSTORE RETURN JUMPDEST CALLVALUE PUSH2 0x26E JUMPI PUSH1 0x0 CALLDATASIZE PUSH1 0x3 NOT ADD SLT PUSH2 0x26E JUMPI PUSH1 0x20 PUSH1 0xFF PUSH1 0xC SLOAD AND PUSH1 0x40 MLOAD SWAP1 ISZERO ISZERO DUP2 MSTORE RETURN JUMPDEST CALLVALUE PUSH2 0x26E JUMPI PUSH2 0x116D CALLDATASIZE PUSH2 0x2C2A JUMP JUMPDEST PUSH2 0x1175 PUSH2 0x2D8D JUMP JUMPDEST PUSH2 0x117D PUSH2 0x3B02 JUMP JUMPDEST DUP2 PUSH1 0x0 MSTORE PUSH1 0x20 SWAP1 PUSH1 0xE DUP3 MSTORE PUSH1 0x40 PUSH1 0x0 KECCAK256 PUSH2 0x119D PUSH1 0xFF PUSH1 0x10 DUP4 ADD SLOAD AND PUSH2 0x3C51 JUMP JUMPDEST DUP2 MLOAD ISZERO PUSH2 0x1387 JUMPI PUSH1 0xB ADD DUP1 SLOAD PUSH1 0x0 JUMPDEST DUP2 DUP2 LT PUSH2 0x1250 JUMPI POP PUSH1 0x1 PUSH1 0x40 SHL DUP2 LT ISZERO PUSH2 0x123A JUMPI PUSH2 0x11CF SWAP2 PUSH1 0x1 DUP3 ADD DUP2 SSTORE PUSH2 0x2C6F JUMP JUMPDEST SWAP2 SWAP1 SWAP2 PUSH2 0x1224 JUMPI PUSH32 0x4978EF67364B55DC5E079C1575B2DDC03A9918E9DB3A47F7A8F1D8EDE2D07F42 SWAP3 PUSH2 0x1205 DUP3 PUSH2 0x1219 SWAP5 PUSH2 0x3972 JUMP JUMPDEST PUSH1 0x40 MLOAD SWAP3 DUP4 SWAP3 PUSH1 0x40 DUP5 MSTORE PUSH1 0x40 DUP5 ADD SWAP1 PUSH2 0x2A59 JUMP JUMPDEST SWAP1 CALLER SWAP1 DUP4 ADD MSTORE SUB SWAP1 LOG2 STOP JUMPDEST PUSH4 0x4E487B71 PUSH1 0xE0 SHL PUSH1 0x0 MSTORE PUSH1 0x0 PUSH1 0x4 MSTORE PUSH1 0x24 PUSH1 0x0 REVERT JUMPDEST PUSH4 0x4E487B71 PUSH1 0xE0 SHL PUSH1 0x0 MSTORE PUSH1 0x41 PUSH1 0x4 MSTORE PUSH1 0x24 PUSH1 0x0 REVERT JUMPDEST PUSH2 0x125A DUP2 DUP5 PUSH2 0x2C6F JUMP JUMPDEST POP PUSH1 0x40 MLOAD DUP7 DUP2 ADD SWAP2 DUP2 PUSH1 0x0 DUP3 SLOAD PUSH2 0x1270 DUP2 PUSH2 0x2CAD JUMP JUMPDEST SWAP4 PUSH1 0x1 SWAP2 DUP13 DUP4 DUP3 AND SWAP2 DUP3 PUSH1 0x0 EQ PUSH2 0x1368 JUMPI POP POP PUSH1 0x1 EQ PUSH2 0x1328 JUMPI JUMPDEST POP POP PUSH2 0x12A0 SWAP3 POP SUB PUSH1 0x1F NOT DUP2 ADD DUP4 MSTORE DUP3 PUSH2 0x2B1B JUMP JUMPDEST MLOAD SWAP1 KECCAK256 PUSH1 0x40 MLOAD DUP7 DUP2 ADD SWAP1 PUSH2 0x12CD DUP9 DUP3 DUP2 PUSH2 0x12C0 DUP12 DUP8 DUP2 MLOAD SWAP4 DUP5 SWAP3 ADD PUSH2 0x2A36 JUMP JUMPDEST DUP2 ADD SUB DUP1 DUP5 MSTORE ADD DUP3 PUSH2 0x2B1B JUMP JUMPDEST MLOAD SWAP1 KECCAK256 EQ PUSH2 0x12E3 JUMPI PUSH2 0x12DE SWAP1 PUSH2 0x3AF3 JUMP JUMPDEST PUSH2 0x11AC JUMP JUMPDEST PUSH1 0x40 MLOAD PUSH3 0x461BCD PUSH1 0xE5 SHL DUP2 MSTORE PUSH1 0x4 DUP2 ADD DUP7 SWAP1 MSTORE PUSH1 0x1C PUSH1 0x24 DUP3 ADD MSTORE PUSH32 0x43657274696669636174696F6E20616C72656164792065786973747300000000 PUSH1 0x44 DUP3 ADD MSTORE PUSH1 0x64 SWAP1 REVERT JUMPDEST DUP12 SWAP3 POP PUSH1 0x0 MSTORE DUP2 PUSH1 0x0 KECCAK256 SWAP1 PUSH1 0x0 SWAP2 JUMPDEST DUP6 DUP4 LT PUSH2 0x134F JUMPI POP POP POP PUSH2 0x12A0 SWAP3 DUP3 ADD ADD DUP12 DUP1 PUSH2 0x128B JUMP JUMPDEST DUP2 SWAP4 SWAP3 SWAP5 POP DUP1 SLOAD DUP4 DUP7 DUP10 ADD ADD MSTORE ADD SWAP3 ADD DUP11 SWAP2 DUP6 SWAP4 PUSH2 0x1337 JUMP JUMPDEST SWAP3 POP SWAP4 POP POP PUSH2 0x12A0 SWAP5 SWAP2 POP PUSH1 0xFF NOT AND DUP7 MSTORE DUP1 ISZERO ISZERO MUL DUP3 ADD ADD DUP12 DUP1 PUSH2 0x128B JUMP JUMPDEST PUSH1 0x40 MLOAD PUSH3 0x461BCD PUSH1 0xE5 SHL DUP2 MSTORE PUSH1 0x4 DUP2 ADD DUP5 SWAP1 MSTORE PUSH1 0x1D PUSH1 0x24 DUP3 ADD MSTORE PUSH32 0x43657274696669636174696F6E2063616E6E6F7420626520656D707479000000 PUSH1 0x44 DUP3 ADD MSTORE PUSH1 0x64 SWAP1 REVERT JUMPDEST CALLVALUE PUSH2 0x26E JUMPI PUSH2 0x13DA CALLDATASIZE PUSH2 0x2BAC JUMP JUMPDEST PUSH2 0x13E5 SWAP3 SWAP2 SWAP3 PUSH2 0x2D8D JUMP JUMPDEST PUSH2 0x13ED PUSH2 0x3B02 JUMP JUMPDEST DUP2 PUSH1 0x0 MSTORE PUSH1 0x20 PUSH1 0xE DUP2 MSTORE PUSH1 0x40 PUSH1 0x0 KECCAK256 PUSH2 0x140C PUSH1 0xFF PUSH1 0x10 DUP4 ADD SLOAD AND PUSH2 0x3C51 JUMP JUMPDEST PUSH1 0xFF PUSH1 0xC DUP3 ADD SLOAD AND PUSH1 0x5 DUP2 LT ISZERO PUSH2 0x47F JUMPI PUSH1 0x1 SUB PUSH2 0x1530 JUMPI DUP5 ISZERO PUSH2 0x14F5 JUMPI SWAP1 DUP5 PUSH1 0xD PUSH32 0xD9F2AA9F3DE5EC7C06B5D93F87E07D13DD9AB53CAEE38F28CDE28993A60B73AD SWAP5 SWAP4 ADD SSTORE DUP5 PUSH1 0x0 MSTORE PUSH1 0x10 DUP2 MSTORE PUSH2 0x1469 DUP5 PUSH1 0x40 PUSH1 0x0 KECCAK256 PUSH2 0x3ABE JUMP JUMPDEST DUP4 PUSH1 0x0 MSTORE PUSH1 0xE DUP2 MSTORE DUP4 PUSH1 0x0 DUP1 MLOAD PUSH1 0x20 PUSH2 0x3D63 DUP4 CODECOPY DUP2 MLOAD SWAP2 MSTORE PUSH1 0x40 PUSH1 0xC DUP2 PUSH1 0x0 KECCAK256 ADD PUSH1 0xFF DUP2 SLOAD AND SWAP1 PUSH2 0x1499 DUP3 PUSH2 0x2C87 JUMP JUMPDEST PUSH2 0x14A3 DUP2 SLOAD PUSH2 0x38A3 JUMP JUMPDEST SWAP1 SSTORE PUSH1 0x2 PUSH1 0x0 MSTORE PUSH1 0x13 DUP7 MSTORE DUP3 PUSH1 0x0 KECCAK256 PUSH2 0x14BC DUP2 SLOAD PUSH2 0x3AF3 JUMP JUMPDEST SWAP1 SSTORE PUSH1 0x2 PUSH1 0xFF NOT DUP3 SLOAD AND OR SWAP1 SSTORE PUSH2 0x14D5 DUP3 MLOAD DUP1 SWAP3 PUSH2 0x2CA0 JUMP JUMPDEST PUSH1 0x2 DUP6 DUP3 ADD MSTORE LOG2 PUSH2 0x14F0 PUSH1 0x40 MLOAD SWAP3 DUP3 DUP5 SWAP4 DUP5 MSTORE DUP4 ADD SWAP1 PUSH2 0x2A59 JUMP JUMPDEST SUB SWAP1 LOG3 STOP JUMPDEST PUSH1 0x40 MLOAD PUSH3 0x461BCD PUSH1 0xE5 SHL DUP2 MSTORE PUSH1 0x4 DUP2 ADD DUP4 SWAP1 MSTORE PUSH1 0x13 PUSH1 0x24 DUP3 ADD MSTORE PUSH19 0x125B9D985B1A590818DBDB9D1C9858DD081251 PUSH1 0x6A SHL PUSH1 0x44 DUP3 ADD MSTORE PUSH1 0x64 SWAP1 REVERT JUMPDEST PUSH1 0x40 MLOAD PUSH3 0x461BCD PUSH1 0xE5 SHL DUP2 MSTORE PUSH1 0x4 DUP2 ADD DUP4 SWAP1 MSTORE PUSH1 0x1B PUSH1 0x24 DUP3 ADD MSTORE PUSH32 0x4C6F74206D757374206265207075726368617365642066697273740000000000 PUSH1 0x44 DUP3 ADD MSTORE PUSH1 0x64 SWAP1 REVERT JUMPDEST CALLVALUE PUSH2 0x26E JUMPI PUSH1 0x20 CALLDATASIZE PUSH1 0x3 NOT ADD SLT PUSH2 0x26E JUMPI PUSH1 0x4 CALLDATALOAD PUSH1 0x9 SLOAD DUP2 LT ISZERO PUSH2 0x15C6 JUMPI PUSH1 0x20 SWAP1 PUSH1 0x9 PUSH1 0x0 MSTORE PUSH32 0x6E1540171B6C0C960B71A7020D9F60077F6AF931A8BBF590DA0223DACF75C7AF ADD SLOAD PUSH1 0x40 MLOAD SWAP1 DUP2 MSTORE RETURN JUMPDEST PUSH1 0x40 MLOAD PUSH3 0x461BCD PUSH1 0xE5 SHL DUP2 MSTORE PUSH1 0x20 PUSH1 0x4 DUP3 ADD MSTORE PUSH1 0x2C PUSH1 0x24 DUP3 ADD MSTORE PUSH32 0x455243373231456E756D657261626C653A20676C6F62616C20696E646578206F PUSH1 0x44 DUP3 ADD MSTORE PUSH12 0x7574206F6620626F756E6473 PUSH1 0xA0 SHL PUSH1 0x64 DUP3 ADD MSTORE PUSH1 0x84 SWAP1 REVERT JUMPDEST CALLVALUE PUSH2 0x26E JUMPI PUSH2 0x7A1 PUSH2 0x9D3 PUSH2 0x1634 CALLDATASIZE PUSH2 0x2BDE JUMP JUMPDEST SWAP1 PUSH1 0x40 MLOAD SWAP3 PUSH2 0x1642 DUP5 PUSH2 0x2AE5 JUMP JUMPDEST PUSH1 0x0 DUP5 MSTORE PUSH2 0x9C3 PUSH2 0x9BE DUP5 CALLER PUSH2 0x3402 JUMP JUMPDEST CALLVALUE PUSH2 0x26E JUMPI PUSH1 0x0 CALLDATASIZE PUSH1 0x3 NOT ADD SLT PUSH2 0x26E JUMPI PUSH2 0x166C PUSH2 0x2F7A JUMP JUMPDEST PUSH1 0xC SLOAD PUSH1 0xFF DUP2 AND ISZERO PUSH2 0x16AB JUMPI PUSH1 0xFF NOT AND PUSH1 0xC SSTORE PUSH32 0x5DB9EE0A495BF2E6FF9C91A7834C1BA4FDD244A5E8AA4E537BD38AEAE4B073AA PUSH1 0x20 PUSH1 0x40 MLOAD CALLER DUP2 MSTORE LOG1 STOP JUMPDEST PUSH1 0x40 MLOAD PUSH3 0x461BCD PUSH1 0xE5 SHL DUP2 MSTORE PUSH1 0x20 PUSH1 0x4 DUP3 ADD MSTORE PUSH1 0x14 PUSH1 0x24 DUP3 ADD MSTORE PUSH20 0x14185D5CD8589B194E881B9BDD081C185D5CD959 PUSH1 0x62 SHL PUSH1 0x44 DUP3 ADD MSTORE PUSH1 0x64 SWAP1 REVERT JUMPDEST CALLVALUE PUSH2 0x26E JUMPI PUSH2 0x140 CALLDATASIZE PUSH1 0x3 NOT ADD SLT PUSH2 0x26E JUMPI PUSH2 0x1701 PUSH2 0x2A7E JUMP JUMPDEST PUSH1 0x24 CALLDATALOAD PUSH1 0x1 PUSH1 0x1 PUSH1 0x40 SHL SUB DUP2 GT PUSH2 0x26E JUMPI PUSH2 0x1720 SWAP1 CALLDATASIZE SWAP1 PUSH1 0x4 ADD PUSH2 0x2B8E JUMP JUMPDEST PUSH1 0x44 CALLDATALOAD PUSH1 0x1 PUSH1 0x1 PUSH1 0x40 SHL SUB DUP2 GT PUSH2 0x26E JUMPI PUSH2 0x173F SWAP1 CALLDATASIZE SWAP1 PUSH1 0x4 ADD PUSH2 0x2B8E JUMP JUMPDEST PUSH1 0x64 CALLDATALOAD PUSH1 0x1 PUSH1 0x1 PUSH1 0x40 SHL SUB DUP2 GT PUSH2 0x26E JUMPI PUSH2 0x175E SWAP1 CALLDATASIZE SWAP1 PUSH1 0x4 ADD PUSH2 0x2B8E JUMP JUMPDEST SWAP2 PUSH1 0x84 CALLDATALOAD PUSH1 0x1 PUSH1 0x1 PUSH1 0x40 SHL SUB DUP2 GT PUSH2 0x26E JUMPI PUSH2 0x177E SWAP1 CALLDATASIZE SWAP1 PUSH1 0x4 ADD PUSH2 0x2B8E JUMP JUMPDEST SWAP2 PUSH1 0xC4 CALLDATALOAD PUSH1 0x1 PUSH1 0x1 PUSH1 0x40 SHL SUB DUP2 GT PUSH2 0x26E JUMPI PUSH2 0x179E SWAP1 CALLDATASIZE SWAP1 PUSH1 0x4 ADD PUSH2 0x2B8E JUMP JUMPDEST SWAP2 PUSH2 0x104 CALLDATALOAD PUSH1 0x1 PUSH1 0x1 PUSH1 0x40 SHL SUB DUP2 GT PUSH2 0x26E JUMPI CALLDATASIZE PUSH1 0x23 DUP3 ADD SLT ISZERO PUSH2 0x26E JUMPI DUP1 PUSH1 0x4 ADD CALLDATALOAD PUSH2 0x17CA DUP2 PUSH2 0x2C13 JUMP JUMPDEST SWAP2 PUSH2 0x17D8 PUSH1 0x40 MLOAD SWAP4 DUP5 PUSH2 0x2B1B JUMP JUMPDEST DUP2 DUP4 MSTORE PUSH1 0x24 PUSH1 0x20 DUP5 ADD SWAP3 PUSH1 0x5 SHL DUP3 ADD ADD SWAP1 CALLDATASIZE DUP3 GT PUSH2 0x26E JUMPI PUSH1 0x24 DUP2 ADD SWAP3 JUMPDEST DUP3 DUP5 LT PUSH2 0x211D JUMPI POP POP POP POP PUSH2 0x124 CALLDATALOAD PUSH1 0x1 PUSH1 0x1 PUSH1 0x40 SHL SUB DUP2 GT PUSH2 0x26E JUMPI PUSH2 0x1821 SWAP1 CALLDATASIZE SWAP1 PUSH1 0x4 ADD PUSH2 0x2B8E JUMP JUMPDEST CALLER PUSH1 0x0 SWAP1 DUP2 MSTORE PUSH32 0xF70E363B3D7895AF770C4A138460777D52EEBD3CB9962CCC6B58721F6127BBC8 PUSH1 0x20 MSTORE PUSH1 0x40 SWAP1 KECCAK256 SLOAD SWAP1 SWAP5 SWAP1 PUSH32 0x9F2DF0FED2C77648DE5860A4CC508CD0818C85B8B8A1AB4CEEEF8D981C8956A6 SWAP1 PUSH1 0xFF AND ISZERO PUSH2 0x1F88 JUMPI POP PUSH2 0x1886 PUSH2 0x3B02 JUMP JUMPDEST PUSH1 0x1 PUSH1 0x1 PUSH1 0xA0 SHL SUB DUP9 AND ISZERO PUSH2 0x1F43 JUMPI PUSH1 0xA4 CALLDATALOAD ISZERO PUSH2 0x1EFE JUMPI TIMESTAMP PUSH1 0xE4 CALLDATALOAD GT PUSH2 0x1EAD JUMPI PUSH1 0xD SLOAD SWAP7 PUSH1 0x1 DUP9 ADD PUSH1 0xD SSTORE PUSH2 0x19D6 PUSH2 0x9D3 PUSH1 0x40 MLOAD PUSH2 0x18C3 DUP2 PUSH2 0x2AE5 JUMP JUMPDEST PUSH1 0x0 DUP1 DUP3 MSTORE DUP12 DUP2 MSTORE PUSH1 0x2 PUSH1 0x20 MSTORE PUSH1 0x40 SWAP1 KECCAK256 SLOAD PUSH2 0x18EB SWAP1 PUSH1 0x1 PUSH1 0x1 PUSH1 0xA0 SHL SUB AND ISZERO ISZERO JUMPDEST ISZERO PUSH2 0x3B46 JUMP JUMPDEST PUSH2 0x18F3 PUSH2 0x3B02 JUMP JUMPDEST PUSH1 0x9 SLOAD DUP12 PUSH1 0x0 MSTORE PUSH1 0xA PUSH1 0x20 MSTORE PUSH1 0x40 PUSH1 0x0 KECCAK256 SSTORE PUSH2 0x190E DUP12 PUSH2 0x3A76 JUMP JUMPDEST PUSH2 0x1917 DUP13 PUSH2 0x3209 JUMP JUMPDEST PUSH1 0x1 DUP1 PUSH1 0xA0 SHL SUB DUP14 AND PUSH1 0x0 MSTORE PUSH1 0x7 PUSH1 0x20 MSTORE PUSH1 0x40 PUSH1 0x0 KECCAK256 DUP2 PUSH1 0x0 MSTORE PUSH1 0x20 MSTORE DUP12 PUSH1 0x40 PUSH1 0x0 KECCAK256 SSTORE DUP12 PUSH1 0x0 MSTORE PUSH1 0x8 PUSH1 0x20 MSTORE PUSH1 0x40 PUSH1 0x0 KECCAK256 SSTORE PUSH2 0x196C PUSH2 0x18E5 DUP13 PUSH1 0x0 MSTORE PUSH1 0x2 PUSH1 0x20 MSTORE PUSH1 0x1 DUP1 PUSH1 0xA0 SHL SUB PUSH1 0x40 PUSH1 0x0 KECCAK256 SLOAD AND ISZERO ISZERO SWAP1 JUMP JUMPDEST PUSH1 0x1 PUSH1 0x1 PUSH1 0xA0 SHL SUB DUP13 AND PUSH1 0x0 DUP2 DUP2 MSTORE PUSH1 0x3 PUSH1 0x20 SWAP1 DUP2 MSTORE PUSH1 0x40 DUP1 DUP4 KECCAK256 DUP1 SLOAD PUSH1 0x1 ADD SWAP1 SSTORE DUP15 DUP4 MSTORE PUSH1 0x2 SWAP1 SWAP2 MSTORE DUP2 KECCAK256 DUP1 SLOAD PUSH1 0x1 PUSH1 0x1 PUSH1 0xA0 SHL SUB NOT AND DUP4 OR SWAP1 SSTORE DUP13 SWAP2 SWAP1 PUSH32 0xDDF252AD1BE2C89B69C2B068FC378DAA952BA7F163C4A11628F55A4DF523B3EF DUP2 DUP1 LOG4 DUP11 DUP13 PUSH2 0x36E7 JUMP JUMPDEST PUSH2 0x19DF TIMESTAMP PUSH2 0x3C92 JUMP JUMPDEST SWAP5 PUSH2 0x1A63 PUSH1 0x26 PUSH2 0x19EE DUP12 PUSH2 0x3C92 JUMP JUMPDEST SWAP8 PUSH1 0x40 MLOAD SWAP9 DUP10 SWAP2 PUSH4 0x4C4F542D PUSH1 0xE0 SHL PUSH1 0x20 DUP5 ADD MSTORE DUP13 PUSH2 0x1A17 DUP2 MLOAD DUP1 SWAP3 PUSH1 0x20 PUSH1 0x24 DUP9 ADD SWAP2 ADD PUSH2 0x2A36 JUMP JUMPDEST DUP4 ADD SWAP1 PUSH1 0x2D PUSH1 0xF8 SHL SWAP2 DUP3 PUSH1 0x24 DUP3 ADD MSTORE PUSH2 0x1A3A DUP3 MLOAD DUP1 SWAP4 PUSH1 0x20 PUSH1 0x25 DUP6 ADD SWAP2 ADD PUSH2 0x2A36 JUMP JUMPDEST ADD SWAP1 PUSH1 0x25 DUP3 ADD MSTORE PUSH2 0x1A54 DUP3 MLOAD DUP1 SWAP4 PUSH1 0x20 DUP8 DUP6 ADD SWAP2 ADD PUSH2 0x2A36 JUMP JUMPDEST ADD SUB PUSH1 0x6 DUP2 ADD DUP10 MSTORE ADD DUP8 PUSH2 0x2B1B JUMP JUMPDEST PUSH1 0x40 MLOAD SWAP5 DUP6 PUSH2 0x220 DUP2 ADD LT PUSH1 0x1 PUSH1 0x1 PUSH1 0x40 SHL SUB PUSH2 0x220 DUP9 ADD GT OR PUSH2 0x123A JUMPI PUSH2 0x220 DUP7 ADD PUSH1 0x40 MSTORE DUP10 DUP7 MSTORE PUSH1 0x1 DUP1 PUSH1 0xA0 SHL SUB DUP12 AND PUSH1 0x20 DUP8 ADD MSTORE PUSH1 0x40 DUP7 ADD MSTORE PUSH1 0x60 DUP6 ADD MSTORE PUSH1 0x80 DUP5 ADD MSTORE DUP6 PUSH1 0xA0 DUP5 ADD MSTORE PUSH1 0xA4 CALLDATALOAD PUSH1 0xC0 DUP5 ADD MSTORE PUSH1 0xE0 DUP4 ADD MSTORE PUSH1 0xE4 CALLDATALOAD PUSH2 0x100 DUP4 ADD MSTORE PUSH1 0x0 PUSH2 0x120 DUP4 ADD MSTORE PUSH1 0x0 PUSH2 0x140 DUP4 ADD MSTORE PUSH2 0x160 DUP3 ADD MSTORE PUSH1 0x0 PUSH2 0x180 DUP3 ADD MSTORE PUSH1 0x0 PUSH2 0x1A0 DUP3 ADD MSTORE PUSH1 0x0 PUSH2 0x1C0 DUP3 ADD MSTORE DUP3 PUSH2 0x1E0 DUP3 ADD MSTORE PUSH1 0x1 PUSH2 0x200 DUP3 ADD MSTORE DUP5 PUSH1 0x0 MSTORE PUSH1 0xE PUSH1 0x20 MSTORE PUSH1 0x40 PUSH1 0x0 KECCAK256 SWAP2 DUP2 MLOAD DUP4 SSTORE PUSH1 0x1 DUP4 ADD PUSH1 0x1 DUP1 PUSH1 0xA0 SHL SUB PUSH1 0x20 DUP5 ADD MLOAD AND PUSH12 0xFFFFFFFFFFFFFFFFFFFFFFFF PUSH1 0xA0 SHL DUP3 SLOAD AND OR SWAP1 SSTORE PUSH2 0x1B4D PUSH1 0x40 DUP4 ADD MLOAD PUSH1 0x2 DUP6 ADD PUSH2 0x3972 JUMP JUMPDEST PUSH2 0x1B5E PUSH1 0x60 DUP4 ADD MLOAD PUSH1 0x3 DUP6 ADD PUSH2 0x3972 JUMP JUMPDEST PUSH2 0x1B6F PUSH1 0x80 DUP4 ADD MLOAD PUSH1 0x4 DUP6 ADD PUSH2 0x3972 JUMP JUMPDEST PUSH2 0x1B80 PUSH1 0xA0 DUP4 ADD MLOAD PUSH1 0x5 DUP6 ADD PUSH2 0x3972 JUMP JUMPDEST PUSH1 0xC0 DUP3 ADD MLOAD PUSH1 0x6 DUP5 ADD SSTORE PUSH2 0x1B9B PUSH1 0xE0 DUP4 ADD MLOAD PUSH1 0x7 DUP6 ADD PUSH2 0x3972 JUMP JUMPDEST PUSH2 0x100 DUP3 ADD MLOAD PUSH1 0x8 DUP5 ADD SSTORE PUSH2 0x120 DUP3 ADD MLOAD PUSH1 0x9 DUP5 ADD SSTORE PUSH2 0x140 DUP3 ADD MLOAD PUSH1 0xA DUP5 ADD SSTORE PUSH2 0x160 DUP3 ADD MLOAD DUP1 MLOAD SWAP1 PUSH1 0x1 PUSH1 0x40 SHL DUP3 GT PUSH2 0x123A JUMPI PUSH1 0xB DUP6 ADD SLOAD DUP3 PUSH1 0xB DUP8 ADD SSTORE DUP1 DUP4 LT PUSH2 0x1E34 JUMPI JUMPDEST POP PUSH1 0x20 ADD PUSH1 0xB DUP6 ADD PUSH1 0x0 MSTORE PUSH1 0x20 PUSH1 0x0 KECCAK256 PUSH1 0x0 SWAP2 JUMPDEST DUP4 DUP4 LT PUSH2 0x1E17 JUMPI POP POP POP POP PUSH2 0x180 DUP3 ADD MLOAD SWAP3 PUSH1 0x5 DUP5 LT ISZERO PUSH2 0x47F JUMPI PUSH1 0x20 SWAP8 DUP8 SWAP6 PUSH32 0x58F118506069A822941B44BEBEB70F9239ADE4003790F6EE770E7DBC3E87092D SWAP6 PUSH2 0x1C9B DUP5 PUSH1 0x10 PUSH2 0x200 PUSH2 0x1D5C SWAP10 PUSH1 0xC PUSH2 0x1D7C SWAP10 ADD PUSH1 0xFF NOT SWAP7 PUSH1 0xFF DUP9 DUP4 SLOAD AND SWAP2 AND OR SWAP1 SSTORE PUSH2 0x1A0 DUP2 ADD MLOAD PUSH1 0xD DUP6 ADD SSTORE PUSH2 0x1C0 DUP2 ADD MLOAD PUSH1 0xE DUP6 ADD SSTORE PUSH2 0x1C84 PUSH2 0x1E0 DUP3 ADD MLOAD PUSH1 0xF DUP7 ADD PUSH2 0x3972 JUMP JUMPDEST ADD MLOAD ISZERO ISZERO SWAP2 ADD SWAP1 PUSH1 0xFF DUP1 NOT DUP4 SLOAD AND SWAP2 ISZERO ISZERO AND OR SWAP1 SSTORE JUMP JUMPDEST PUSH1 0x1 DUP1 PUSH1 0xA0 SHL SUB DUP4 AND PUSH1 0x0 MSTORE PUSH1 0xF DUP12 MSTORE PUSH2 0x1CB9 DUP9 PUSH1 0x40 PUSH1 0x0 KECCAK256 PUSH2 0x3ABE JUMP JUMPDEST DUP8 PUSH1 0x40 MLOAD DUP13 DUP2 DUP9 MLOAD PUSH2 0x1CCE DUP2 DUP4 DUP6 DUP14 ADD PUSH2 0x2A36 JUMP JUMPDEST DUP2 ADD PUSH1 0x12 DUP2 MSTORE SUB ADD SWAP1 KECCAK256 SSTORE PUSH1 0x0 DUP1 MSTORE PUSH1 0x13 DUP12 MSTORE PUSH1 0x40 PUSH1 0x0 KECCAK256 PUSH2 0x1CF0 DUP2 SLOAD PUSH2 0x3AF3 JUMP JUMPDEST SWAP1 SSTORE PUSH32 0x8EB467F061CA67F42A2D2CA4A346FC9FB645EFC0BA75056EE9F71C3A0CCC10A8 PUSH1 0x0 DUP2 DUP2 MSTORE PUSH1 0xB DUP14 MSTORE PUSH1 0x40 DUP1 DUP3 KECCAK256 PUSH1 0x1 PUSH1 0x1 PUSH1 0xA0 SHL SUB DUP8 AND DUP4 MSTORE DUP15 MSTORE SWAP1 KECCAK256 SLOAD SWAP1 SWAP2 SWAP1 PUSH1 0xFF AND ISZERO PUSH2 0x1D97 JUMPI JUMPDEST POP POP DUP1 MLOAD PUSH2 0x1D87 JUMPI JUMPDEST POP PUSH1 0x40 MLOAD SWAP4 DUP5 SWAP4 PUSH1 0x60 DUP6 MSTORE PUSH1 0x60 DUP6 ADD SWAP1 PUSH2 0x2A59 JUMP JUMPDEST PUSH1 0xA4 CALLDATALOAD DUP5 DUP12 ADD MSTORE DUP4 DUP2 SUB PUSH1 0x40 DUP6 ADD MSTORE PUSH1 0x1 PUSH1 0x1 PUSH1 0xA0 SHL SUB SWAP1 SWAP2 AND SWAP7 PUSH2 0x2A59 JUMP JUMPDEST SUB SWAP1 LOG3 PUSH1 0x40 MLOAD SWAP1 DUP2 MSTORE RETURN JUMPDEST PUSH2 0x1D91 SWAP1 DUP8 PUSH2 0x3B92 JUMP JUMPDEST DUP10 PUSH2 0x1D47 JUMP JUMPDEST PUSH1 0x0 DUP3 DUP2 MSTORE PUSH1 0xB DUP14 MSTORE PUSH1 0x40 DUP1 DUP3 KECCAK256 PUSH1 0x1 PUSH1 0x1 PUSH1 0xA0 SHL SUB DUP8 AND DUP4 MSTORE DUP15 MSTORE SWAP1 KECCAK256 SLOAD PUSH1 0xFF AND PUSH2 0x1D3E JUMPI PUSH1 0x0 DUP3 DUP2 MSTORE PUSH1 0xB DUP14 MSTORE PUSH1 0x40 DUP1 DUP3 KECCAK256 PUSH1 0x1 PUSH1 0x1 PUSH1 0xA0 SHL SUB DUP8 AND DUP1 DUP5 MSTORE SWAP1 DUP16 MSTORE SWAP1 DUP3 KECCAK256 DUP1 SLOAD SWAP1 SWAP4 AND PUSH1 0x1 OR SWAP1 SWAP3 SSTORE CALLER SWAP3 SWAP1 PUSH32 0x2F8788117E7EFF1D82E926EC794901D17C78024A50270940304540A733656F0D SWAP1 DUP1 LOG4 DUP11 DUP1 PUSH2 0x1D3E JUMP JUMPDEST PUSH1 0x1 PUSH1 0x20 DUP3 PUSH2 0x1E28 DUP4 SWAP5 MLOAD DUP7 PUSH2 0x3972 JUMP JUMPDEST ADD SWAP3 ADD SWAP3 ADD SWAP2 SWAP1 PUSH2 0x1BF7 JUMP JUMPDEST PUSH1 0xB DUP7 ADD PUSH1 0x0 MSTORE PUSH1 0x20 PUSH1 0x0 KECCAK256 SWAP1 DUP4 DUP3 ADD JUMPDEST DUP2 DUP4 ADD DUP2 LT PUSH2 0x1E55 JUMPI POP POP PUSH2 0x1BE3 JUMP JUMPDEST DUP1 PUSH2 0x1E62 PUSH1 0x1 SWAP3 SLOAD PUSH2 0x2CAD JUMP JUMPDEST DUP1 PUSH2 0x1E6F JUMPI JUMPDEST POP ADD PUSH2 0x1E45 JUMP JUMPDEST PUSH1 0x1F SWAP1 DUP2 DUP2 GT DUP5 EQ PUSH2 0x1E88 JUMPI POP POP PUSH1 0x0 DUP2 SSTORE JUMPDEST DUP14 PUSH2 0x1E68 JUMP JUMPDEST PUSH2 0x1EA4 PUSH1 0x0 SWAP3 DUP5 DUP5 MSTORE PUSH1 0x20 DUP5 KECCAK256 SWAP3 ADD PUSH1 0x5 SHR DUP3 ADD DUP6 DUP4 ADD PUSH2 0x395B JUMP JUMPDEST DUP2 DUP4 SSTORE SSTORE PUSH2 0x1E82 JUMP JUMPDEST PUSH1 0x40 MLOAD PUSH3 0x461BCD PUSH1 0xE5 SHL DUP2 MSTORE PUSH1 0x20 PUSH1 0x4 DUP3 ADD MSTORE PUSH1 0x24 DUP1 DUP3 ADD MSTORE PUSH32 0x4861727665737420646174652063616E6E6F7420626520696E20746865206675 PUSH1 0x44 DUP3 ADD MSTORE PUSH4 0x74757265 PUSH1 0xE0 SHL PUSH1 0x64 DUP3 ADD MSTORE PUSH1 0x84 SWAP1 REVERT JUMPDEST PUSH1 0x40 MLOAD PUSH3 0x461BCD PUSH1 0xE5 SHL DUP2 MSTORE PUSH1 0x20 PUSH1 0x4 DUP3 ADD MSTORE PUSH1 0x1D PUSH1 0x24 DUP3 ADD MSTORE PUSH32 0x576569676874206D7573742062652067726561746572207468616E2030000000 PUSH1 0x44 DUP3 ADD MSTORE PUSH1 0x64 SWAP1 REVERT JUMPDEST PUSH1 0x40 MLOAD PUSH3 0x461BCD PUSH1 0xE5 SHL DUP2 MSTORE PUSH1 0x20 PUSH1 0x4 DUP3 ADD MSTORE PUSH1 0x18 PUSH1 0x24 DUP3 ADD MSTORE PUSH32 0x496E76616C69642070726F647563657220616464726573730000000000000000 PUSH1 0x44 DUP3 ADD MSTORE PUSH1 0x64 SWAP1 REVERT JUMPDEST PUSH2 0x1F91 CALLER PUSH2 0x38B0 JUMP JUMPDEST PUSH1 0x40 MLOAD SWAP2 PUSH2 0x1F9E DUP4 PUSH2 0x2B00 JUMP JUMPDEST PUSH1 0x42 DUP4 MSTORE PUSH1 0x20 DUP4 ADD SWAP1 PUSH1 0x60 CALLDATASIZE DUP4 CALLDATACOPY DUP4 MLOAD ISZERO PUSH2 0x2107 JUMPI PUSH1 0x30 DUP3 MSTORE8 DUP4 MLOAD PUSH1 0x1 SWAP1 DUP2 LT ISZERO PUSH2 0x2107 JUMPI PUSH1 0x78 PUSH1 0x21 DUP7 ADD MSTORE8 PUSH1 0x41 SWAP1 JUMPDEST DUP1 DUP3 GT PUSH2 0x20C3 JUMPI POP POP PUSH2 0x207F JUMPI PUSH1 0x48 PUSH2 0x204C SWAP3 PUSH2 0x205B SWAP3 PUSH2 0x207B SWAP6 PUSH1 0x40 MLOAD SWAP6 DUP7 SWAP4 PUSH23 0x20B1B1B2B9B9A1B7B73A3937B61D1030B1B1B7BAB73A1 PUSH1 0x4D SHL PUSH1 0x20 DUP7 ADD MSTORE PUSH2 0x2023 DUP2 MLOAD DUP1 SWAP3 PUSH1 0x20 PUSH1 0x37 DUP10 ADD SWAP2 ADD PUSH2 0x2A36 JUMP JUMPDEST DUP5 ADD SWAP2 PUSH17 0x1034B99036B4B9B9B4B733903937B6329 PUSH1 0x7D SHL PUSH1 0x37 DUP5 ADD MSTORE MLOAD DUP1 SWAP4 DUP7 DUP5 ADD SWAP1 PUSH2 0x2A36 JUMP JUMPDEST ADD SUB PUSH1 0x28 DUP2 ADD DUP5 MSTORE ADD DUP3 PUSH2 0x2B1B JUMP JUMPDEST PUSH1 0x40 MLOAD PUSH3 0x461BCD PUSH1 0xE5 SHL DUP2 MSTORE PUSH1 0x20 PUSH1 0x4 DUP3 ADD MSTORE SWAP2 DUP3 SWAP2 PUSH1 0x24 DUP4 ADD SWAP1 PUSH2 0x2A59 JUMP JUMPDEST SUB SWAP1 REVERT JUMPDEST PUSH1 0x64 PUSH1 0x40 MLOAD PUSH3 0x461BCD PUSH1 0xE5 SHL DUP2 MSTORE PUSH1 0x20 PUSH1 0x4 DUP3 ADD MSTORE PUSH1 0x20 PUSH1 0x24 DUP3 ADD MSTORE PUSH32 0x537472696E67733A20686578206C656E67746820696E73756666696369656E74 PUSH1 0x44 DUP3 ADD MSTORE REVERT JUMPDEST SWAP1 SWAP2 PUSH1 0xF DUP2 AND SWAP1 PUSH1 0x10 DUP3 LT ISZERO PUSH2 0x2107 JUMPI PUSH2 0x2101 SWAP2 PUSH16 0x181899199A1A9B1B9C1CB0B131B232B3 PUSH1 0x81 SHL SWAP1 BYTE PUSH2 0x20F7 DUP6 DUP10 PUSH2 0x3892 JUMP JUMPDEST MSTORE8 PUSH1 0x4 SHR SWAP3 PUSH2 0x38A3 JUMP JUMPDEST SWAP1 PUSH2 0x1FCE JUMP JUMPDEST PUSH4 0x4E487B71 PUSH1 0xE0 SHL PUSH1 0x0 MSTORE PUSH1 0x32 PUSH1 0x4 MSTORE PUSH1 0x24 PUSH1 0x0 REVERT JUMPDEST PUSH1 0x1 PUSH1 0x1 PUSH1 0x40 SHL SUB DUP5 CALLDATALOAD GT PUSH2 0x26E JUMPI PUSH1 0x20 DUP1 SWAP2 PUSH2 0x2140 CALLDATASIZE PUSH1 0x24 DUP9 CALLDATALOAD DUP8 ADD ADD PUSH2 0x2B8E JUMP JUMPDEST DUP2 MSTORE ADD SWAP4 ADD SWAP3 PUSH2 0x17F6 JUMP JUMPDEST CALLVALUE PUSH2 0x26E JUMPI PUSH1 0x40 CALLDATASIZE PUSH1 0x3 NOT ADD SLT PUSH2 0x26E JUMPI PUSH2 0x2164 PUSH2 0x2A94 JUMP JUMPDEST CALLER PUSH1 0x1 PUSH1 0x1 PUSH1 0xA0 SHL SUB DUP3 AND SUB PUSH2 0x2180 JUMPI PUSH2 0x7A1 SWAP1 PUSH1 0x4 CALLDATALOAD PUSH2 0x3193 JUMP JUMPDEST PUSH1 0x40 MLOAD PUSH3 0x461BCD PUSH1 0xE5 SHL DUP2 MSTORE PUSH1 0x20 PUSH1 0x4 DUP3 ADD MSTORE PUSH1 0x2F PUSH1 0x24 DUP3 ADD MSTORE PUSH32 0x416363657373436F6E74726F6C3A2063616E206F6E6C792072656E6F756E6365 PUSH1 0x44 DUP3 ADD MSTORE PUSH15 0x103937B632B9903337B91039B2B633 PUSH1 0x89 SHL PUSH1 0x64 DUP3 ADD MSTORE PUSH1 0x84 SWAP1 REVERT JUMPDEST CALLVALUE PUSH2 0x26E JUMPI PUSH1 0x20 DUP1 PUSH1 0x3 NOT CALLDATASIZE ADD SLT PUSH2 0x26E JUMPI PUSH1 0x4 CALLDATALOAD SWAP1 PUSH2 0x21FB PUSH2 0x2D8D JUMP JUMPDEST PUSH2 0x2203 PUSH2 0x3B02 JUMP JUMPDEST DUP2 PUSH1 0x0 MSTORE PUSH1 0xE DUP2 MSTORE PUSH1 0xFF PUSH1 0xC PUSH1 0x40 PUSH1 0x0 KECCAK256 PUSH2 0x2223 DUP4 PUSH1 0x10 DUP4 ADD SLOAD AND PUSH2 0x3C51 JUMP JUMPDEST ADD SLOAD AND PUSH1 0x5 DUP2 LT ISZERO PUSH2 0x47F JUMPI PUSH1 0x3 SUB PUSH2 0x22A9 JUMPI PUSH1 0x40 PUSH1 0x0 DUP1 MLOAD PUSH1 0x20 PUSH2 0x3D63 DUP4 CODECOPY DUP2 MLOAD SWAP2 MSTORE SWAP2 DUP4 PUSH1 0x0 MSTORE PUSH1 0xE DUP2 MSTORE PUSH1 0x4 PUSH1 0xC DUP4 PUSH1 0x0 KECCAK256 ADD SWAP2 PUSH1 0xFF DUP4 SLOAD AND SWAP3 PUSH2 0x2269 DUP5 PUSH2 0x2C87 JUMP JUMPDEST PUSH2 0x2273 DUP2 SLOAD PUSH2 0x38A3 JUMP JUMPDEST SWAP1 SSTORE DUP3 PUSH1 0x0 MSTORE PUSH1 0x13 DUP3 MSTORE DUP5 PUSH1 0x0 KECCAK256 PUSH2 0x228B DUP2 SLOAD PUSH2 0x3AF3 JUMP JUMPDEST SWAP1 SSTORE DUP3 PUSH1 0xFF NOT DUP3 SLOAD AND OR SWAP1 SSTORE PUSH2 0x22A3 DUP5 MLOAD DUP1 SWAP5 PUSH2 0x2CA0 JUMP JUMPDEST DUP3 ADD MSTORE LOG2 STOP JUMPDEST PUSH1 0x64 SWAP1 PUSH1 0x40 MLOAD SWAP1 PUSH3 0x461BCD PUSH1 0xE5 SHL DUP3 MSTORE PUSH1 0x4 DUP3 ADD MSTORE PUSH1 0x19 PUSH1 0x24 DUP3 ADD MSTORE PUSH32 0x4C6F74206D757374206265207368697070656420666972737400000000000000 PUSH1 0x44 DUP3 ADD MSTORE REVERT JUMPDEST CALLVALUE PUSH2 0x26E JUMPI PUSH1 0x40 CALLDATASIZE PUSH1 0x3 NOT ADD SLT PUSH2 0x26E JUMPI PUSH2 0x2306 PUSH2 0x2A7E JUMP JUMPDEST PUSH1 0x24 CALLDATALOAD SWAP1 PUSH2 0x2313 DUP2 PUSH2 0x3209 JUMP JUMPDEST DUP3 LT ISZERO PUSH2 0x2346 JUMPI PUSH1 0x1 DUP1 PUSH1 0xA0 SHL SUB AND PUSH1 0x0 MSTORE PUSH1 0x7 PUSH1 0x20 MSTORE PUSH1 0x40 PUSH1 0x0 KECCAK256 SWAP1 PUSH1 0x0 MSTORE PUSH1 0x20 MSTORE PUSH1 0x20 PUSH1 0x40 PUSH1 0x0 KECCAK256 SLOAD PUSH1 0x40 MLOAD SWAP1 DUP2 MSTORE RETURN JUMPDEST PUSH1 0x40 MLOAD PUSH3 0x461BCD PUSH1 0xE5 SHL DUP2 MSTORE PUSH1 0x20 PUSH1 0x4 DUP3 ADD MSTORE PUSH1 0x2B PUSH1 0x24 DUP3 ADD MSTORE PUSH32 0x455243373231456E756D657261626C653A206F776E657220696E646578206F75 PUSH1 0x44 DUP3 ADD MSTORE PUSH11 0x74206F6620626F756E6473 PUSH1 0xA8 SHL PUSH1 0x64 DUP3 ADD MSTORE PUSH1 0x84 SWAP1 REVERT JUMPDEST CALLVALUE PUSH2 0x26E JUMPI PUSH1 0x40 CALLDATASIZE PUSH1 0x3 NOT ADD SLT PUSH2 0x26E JUMPI PUSH1 0x4 CALLDATALOAD PUSH2 0x23BB PUSH2 0x2A94 JUMP JUMPDEST DUP2 PUSH1 0x0 MSTORE PUSH1 0xB PUSH1 0x20 MSTORE PUSH2 0x23D5 PUSH1 0x1 PUSH1 0x40 PUSH1 0x0 KECCAK256 ADD SLOAD PUSH2 0x3093 JUMP JUMPDEST DUP2 PUSH1 0x0 MSTORE PUSH1 0xB PUSH1 0x20 MSTORE PUSH1 0x40 PUSH1 0x0 KECCAK256 SWAP1 PUSH1 0x1 DUP1 PUSH1 0xA0 SHL SUB AND SWAP1 DUP2 PUSH1 0x0 MSTORE PUSH1 0x20 MSTORE PUSH1 0xFF PUSH1 0x40 PUSH1 0x0 KECCAK256 SLOAD AND ISZERO PUSH2 0x2404 JUMPI STOP JUMPDEST DUP2 PUSH1 0x0 MSTORE PUSH1 0xB PUSH1 0x20 MSTORE PUSH1 0x40 PUSH1 0x0 KECCAK256 DUP2 PUSH1 0x0 MSTORE PUSH1 0x20 MSTORE PUSH1 0x40 PUSH1 0x0 KECCAK256 PUSH1 0x1 PUSH1 0xFF NOT DUP3 SLOAD AND OR SWAP1 SSTORE CALLER SWAP2 PUSH32 0x2F8788117E7EFF1D82E926EC794901D17C78024A50270940304540A733656F0D PUSH1 0x0 DUP1 LOG4 STOP JUMPDEST CALLVALUE PUSH2 0x26E JUMPI PUSH1 0x20 CALLDATASIZE PUSH1 0x3 NOT ADD SLT PUSH2 0x26E JUMPI PUSH1 0x4 CALLDATALOAD PUSH1 0x0 MSTORE PUSH1 0xB PUSH1 0x20 MSTORE PUSH1 0x20 PUSH1 0x1 PUSH1 0x40 PUSH1 0x0 KECCAK256 ADD SLOAD PUSH1 0x40 MLOAD SWAP1 DUP2 MSTORE RETURN JUMPDEST CALLVALUE PUSH2 0x26E JUMPI PUSH2 0x7A1 PUSH2 0x2492 CALLDATASIZE PUSH2 0x2BDE JUMP JUMPDEST SWAP2 PUSH2 0x3A0 PUSH2 0x9BE DUP5 CALLER PUSH2 0x3402 JUMP JUMPDEST CALLVALUE PUSH2 0x26E JUMPI PUSH1 0x20 CALLDATASIZE PUSH1 0x3 NOT ADD SLT PUSH2 0x26E JUMPI PUSH1 0x4 CALLDATALOAD PUSH1 0x1 PUSH1 0x1 PUSH1 0x40 SHL SUB DUP2 GT PUSH2 0x26E JUMPI PUSH2 0x24E9 PUSH1 0x20 PUSH2 0x24D6 DUP2 SWAP4 CALLDATASIZE SWAP1 PUSH1 0x4 ADD PUSH2 0x2B8E JUMP JUMPDEST DUP2 PUSH1 0x40 MLOAD SWAP4 DUP3 DUP6 DUP1 SWAP5 MLOAD SWAP4 DUP5 SWAP3 ADD PUSH2 0x2A36 JUMP JUMPDEST DUP2 ADD PUSH1 0x12 DUP2 MSTORE SUB ADD SWAP1 KECCAK256 SLOAD PUSH1 0x40 MLOAD SWAP1 DUP2 MSTORE RETURN JUMPDEST CALLVALUE PUSH2 0x26E JUMPI PUSH2 0x250A CALLDATASIZE PUSH2 0x2BAC JUMP JUMPDEST PUSH2 0x2515 SWAP3 SWAP2 SWAP3 PUSH2 0x2D8D JUMP JUMPDEST PUSH2 0x251D PUSH2 0x3B02 JUMP JUMPDEST DUP2 PUSH1 0x0 MSTORE PUSH1 0x20 PUSH1 0xE DUP2 MSTORE PUSH1 0x40 PUSH1 0x0 KECCAK256 PUSH2 0x253C PUSH1 0xFF PUSH1 0x10 DUP4 ADD SLOAD AND PUSH2 0x3C51 JUMP JUMPDEST PUSH1 0xFF PUSH1 0xC DUP3 ADD SLOAD AND PUSH1 0x5 DUP2 LT ISZERO PUSH2 0x47F JUMPI PUSH1 0x2 SUB PUSH2 0x265B JUMPI DUP5 ISZERO PUSH2 0x2620 JUMPI SWAP1 DUP5 PUSH1 0xE PUSH32 0xEE7206C02CF224CFDC7235AD5B927378909F9D4D311DCE8C1FFC6CF1EFF94110 SWAP5 SWAP4 ADD SSTORE DUP5 PUSH1 0x0 MSTORE PUSH1 0x11 DUP2 MSTORE PUSH2 0x2599 DUP5 PUSH1 0x40 PUSH1 0x0 KECCAK256 PUSH2 0x3ABE JUMP JUMPDEST DUP4 PUSH1 0x0 MSTORE PUSH1 0xE DUP2 MSTORE DUP4 PUSH1 0x0 DUP1 MLOAD PUSH1 0x20 PUSH2 0x3D63 DUP4 CODECOPY DUP2 MLOAD SWAP2 MSTORE PUSH1 0x40 PUSH1 0xC DUP2 PUSH1 0x0 KECCAK256 ADD PUSH1 0xFF DUP2 SLOAD AND SWAP1 PUSH2 0x25C9 DUP3 PUSH2 0x2C87 JUMP JUMPDEST PUSH2 0x25D3 DUP2 SLOAD PUSH2 0x38A3 JUMP JUMPDEST SWAP1 SSTORE PUSH1 0x3 PUSH1 0x0 MSTORE PUSH1 0x13 DUP7 MSTORE DUP3 PUSH1 0x0 KECCAK256 PUSH2 0x25EC DUP2 SLOAD PUSH2 0x3AF3 JUMP JUMPDEST SWAP1 SSTORE PUSH1 0x3 PUSH1 0xFF NOT DUP3 SLOAD AND OR SWAP1 SSTORE PUSH2 0x2605 DUP3 MLOAD DUP1 SWAP3 PUSH2 0x2CA0 JUMP JUMPDEST PUSH1 0x3 DUP6 DUP3 ADD MSTORE LOG2 PUSH2 0x14F0 PUSH1 0x40 MLOAD SWAP3 DUP3 DUP5 SWAP4 DUP5 MSTORE DUP4 ADD SWAP1 PUSH2 0x2A59 JUMP JUMPDEST PUSH1 0x40 MLOAD PUSH3 0x461BCD PUSH1 0xE5 SHL DUP2 MSTORE PUSH1 0x4 DUP2 ADD DUP4 SWAP1 MSTORE PUSH1 0x13 PUSH1 0x24 DUP3 ADD MSTORE PUSH19 0x125B9D985B1A59081CDA1A5C1B595B9D081251 PUSH1 0x6A SHL PUSH1 0x44 DUP3 ADD MSTORE PUSH1 0x64 SWAP1 REVERT JUMPDEST PUSH1 0x40 MLOAD PUSH3 0x461BCD PUSH1 0xE5 SHL DUP2 MSTORE PUSH1 0x4 DUP2 ADD DUP4 SWAP1 MSTORE PUSH1 0x23 PUSH1 0x24 DUP3 ADD MSTORE PUSH32 0x4C6F74206D75737420626520666978656420746F20636F6E7472616374206669 PUSH1 0x44 DUP3 ADD MSTORE PUSH3 0x1C9CDD PUSH1 0xEA SHL PUSH1 0x64 DUP3 ADD MSTORE PUSH1 0x84 SWAP1 REVERT JUMPDEST CALLVALUE PUSH2 0x26E JUMPI PUSH1 0x0 CALLDATASIZE PUSH1 0x3 NOT ADD SLT PUSH2 0x26E JUMPI PUSH1 0x20 PUSH1 0x9 SLOAD PUSH1 0x40 MLOAD SWAP1 DUP2 MSTORE RETURN JUMPDEST CALLVALUE PUSH2 0x26E JUMPI PUSH1 0x20 DUP1 PUSH1 0x3 NOT CALLDATASIZE ADD SLT PUSH2 0x26E JUMPI PUSH1 0x1 PUSH1 0x1 PUSH1 0xA0 SHL SUB PUSH2 0x26EC PUSH2 0x2A7E JUMP JUMPDEST AND PUSH1 0x0 MSTORE PUSH1 0xF DUP2 MSTORE PUSH1 0x40 PUSH1 0x0 KECCAK256 SWAP1 PUSH1 0x40 MLOAD SWAP1 DUP2 DUP2 DUP5 SLOAD SWAP2 DUP3 DUP2 MSTORE ADD SWAP4 PUSH1 0x0 MSTORE DUP2 PUSH1 0x0 KECCAK256 SWAP2 PUSH1 0x0 SWAP1 JUMPDEST DUP3 DUP3 LT PUSH2 0x272B JUMPI PUSH2 0x88B DUP6 PUSH2 0xD1A DUP2 DUP10 SUB DUP3 PUSH2 0x2B1B JUMP JUMPDEST DUP4 SLOAD DUP7 MSTORE SWAP5 DUP6 ADD SWAP5 PUSH1 0x1 SWAP4 DUP5 ADD SWAP4 SWAP1 SWAP2 ADD SWAP1 PUSH2 0x2714 JUMP JUMPDEST CALLVALUE PUSH2 0x26E JUMPI PUSH1 0x40 CALLDATASIZE PUSH1 0x3 NOT ADD SLT PUSH2 0x26E JUMPI PUSH2 0x275B PUSH2 0x2A7E JUMP JUMPDEST PUSH1 0x24 CALLDATALOAD SWAP1 PUSH1 0x1 PUSH1 0x1 PUSH1 0xA0 SHL SUB DUP1 DUP1 PUSH2 0x2772 DUP6 PUSH2 0x32CC JUMP JUMPDEST AND SWAP3 AND SWAP2 DUP1 DUP4 EQ PUSH2 0x286D JUMPI DUP1 CALLER EQ SWAP1 DUP2 ISZERO PUSH2 0x2848 JUMPI JUMPDEST POP ISZERO PUSH2 0x27DD JUMPI PUSH1 0x0 DUP4 DUP2 MSTORE PUSH1 0x4 PUSH1 0x20 MSTORE PUSH1 0x40 SWAP1 KECCAK256 DUP1 SLOAD PUSH1 0x1 PUSH1 0x1 PUSH1 0xA0 SHL SUB NOT AND DUP4 OR SWAP1 SSTORE PUSH2 0x27B5 DUP4 PUSH2 0x32CC JUMP JUMPDEST AND PUSH32 0x8C5BE1E5EBEC7D5BD14F71427D1E84F3DD0314C0F7B2291E5B200AC8C7C3B925 PUSH1 0x0 DUP1 LOG4 STOP JUMPDEST PUSH1 0x40 MLOAD PUSH3 0x461BCD PUSH1 0xE5 SHL DUP2 MSTORE PUSH1 0x20 PUSH1 0x4 DUP3 ADD MSTORE PUSH1 0x3D PUSH1 0x24 DUP3 ADD MSTORE PUSH32 0x4552433732313A20617070726F76652063616C6C6572206973206E6F7420746F PUSH1 0x44 DUP3 ADD MSTORE PUSH32 0x6B656E206F776E6572206F7220617070726F76656420666F7220616C6C000000 PUSH1 0x64 DUP3 ADD MSTORE PUSH1 0x84 SWAP1 REVERT JUMPDEST SWAP1 POP PUSH1 0x0 MSTORE PUSH1 0x5 PUSH1 0x20 MSTORE PUSH1 0x40 PUSH1 0x0 KECCAK256 CALLER PUSH1 0x0 MSTORE PUSH1 0x20 MSTORE PUSH1 0xFF PUSH1 0x40 PUSH1 0x0 KECCAK256 SLOAD AND DUP5 PUSH2 0x2788 JUMP JUMPDEST PUSH1 0x40 MLOAD PUSH3 0x461BCD PUSH1 0xE5 SHL DUP2 MSTORE PUSH1 0x20 PUSH1 0x4 DUP3 ADD MSTORE PUSH1 0x21 PUSH1 0x24 DUP3 ADD MSTORE PUSH32 0x4552433732313A20617070726F76616C20746F2063757272656E74206F776E65 PUSH1 0x44 DUP3 ADD MSTORE PUSH1 0x39 PUSH1 0xF9 SHL PUSH1 0x64 DUP3 ADD MSTORE PUSH1 0x84 SWAP1 REVERT JUMPDEST CALLVALUE PUSH2 0x26E JUMPI PUSH1 0x20 CALLDATASIZE PUSH1 0x3 NOT ADD SLT PUSH2 0x26E JUMPI PUSH1 0x20 PUSH2 0x112A PUSH1 0x4 CALLDATALOAD PUSH2 0x32EF JUMP JUMPDEST CALLVALUE PUSH2 0x26E JUMPI PUSH1 0x0 CALLDATASIZE PUSH1 0x3 NOT ADD SLT PUSH2 0x26E JUMPI PUSH1 0x40 MLOAD PUSH1 0x0 DUP1 SLOAD PUSH2 0x28FB DUP2 PUSH2 0x2CAD JUMP JUMPDEST DUP1 DUP5 MSTORE SWAP1 PUSH1 0x1 SWAP1 DUP2 DUP2 AND SWAP1 DUP2 ISZERO PUSH2 0xE90 JUMPI POP PUSH1 0x1 EQ PUSH2 0x2924 JUMPI PUSH2 0x88B DUP5 PUSH2 0xE23 DUP2 DUP7 SUB DUP3 PUSH2 0x2B1B JUMP JUMPDEST PUSH1 0x0 DUP1 DUP1 MSTORE SWAP3 POP PUSH32 0x290DECD9548B62A8D60345A988386FC84BA6BC95484008F6362F93160EF3E563 JUMPDEST DUP3 DUP5 LT PUSH2 0x2965 JUMPI POP POP POP DUP2 ADD PUSH1 0x20 ADD PUSH2 0xE23 DUP3 PUSH2 0xE13 JUMP JUMPDEST DUP1 SLOAD PUSH1 0x20 DUP6 DUP8 ADD DUP2 ADD SWAP2 SWAP1 SWAP2 MSTORE SWAP1 SWAP4 ADD SWAP3 DUP2 ADD PUSH2 0x294D JUMP JUMPDEST CALLVALUE PUSH2 0x26E JUMPI PUSH1 0x20 CALLDATASIZE PUSH1 0x3 NOT ADD SLT PUSH2 0x26E JUMPI PUSH1 0x4 CALLDATALOAD SWAP1 PUSH4 0xFFFFFFFF PUSH1 0xE0 SHL DUP3 AND DUP1 SWAP3 SUB PUSH2 0x26E JUMPI PUSH1 0x20 SWAP2 PUSH4 0x7965DB0B PUSH1 0xE0 SHL DUP2 EQ SWAP1 DUP2 ISZERO PUSH2 0x29BF JUMPI JUMPDEST POP ISZERO ISZERO DUP2 MSTORE RETURN JUMPDEST PUSH4 0x780E9D63 PUSH1 0xE0 SHL DUP2 EQ SWAP2 POP DUP2 ISZERO PUSH2 0x29D9 JUMPI JUMPDEST POP DUP4 PUSH2 0x29B8 JUMP JUMPDEST PUSH4 0x24832483 PUSH1 0xE1 SHL DUP2 EQ SWAP2 POP DUP2 ISZERO PUSH2 0x29F3 JUMPI JUMPDEST POP DUP4 PUSH2 0x29D2 JUMP JUMPDEST PUSH4 0x80AC58CD PUSH1 0xE0 SHL DUP2 EQ SWAP2 POP DUP2 ISZERO PUSH2 0x2A25 JUMPI JUMPDEST DUP2 ISZERO PUSH2 0x2A14 JUMPI JUMPDEST POP DUP4 PUSH2 0x29EC JUMP JUMPDEST PUSH4 0x1FFC9A7 PUSH1 0xE0 SHL EQ SWAP1 POP DUP4 PUSH2 0x2A0D JUMP JUMPDEST PUSH4 0x5B5E139F PUSH1 0xE0 SHL DUP2 EQ SWAP2 POP PUSH2 0x2A06 JUMP JUMPDEST PUSH1 0x0 JUMPDEST DUP4 DUP2 LT PUSH2 0x2A49 JUMPI POP POP PUSH1 0x0 SWAP2 ADD MSTORE JUMP JUMPDEST DUP2 DUP2 ADD MLOAD DUP4 DUP3 ADD MSTORE PUSH1 0x20 ADD PUSH2 0x2A39 JUMP JUMPDEST SWAP1 PUSH1 0x20 SWAP2 PUSH2 0x2A72 DUP2 MLOAD DUP1 SWAP3 DUP2 DUP6 MSTORE DUP6 DUP1 DUP7 ADD SWAP2 ADD PUSH2 0x2A36 JUMP JUMPDEST PUSH1 0x1F ADD PUSH1 0x1F NOT AND ADD ADD SWAP1 JUMP JUMPDEST PUSH1 0x4 CALLDATALOAD SWAP1 PUSH1 0x1 PUSH1 0x1 PUSH1 0xA0 SHL SUB DUP3 AND DUP3 SUB PUSH2 0x26E JUMPI JUMP JUMPDEST PUSH1 0x24 CALLDATALOAD SWAP1 PUSH1 0x1 PUSH1 0x1 PUSH1 0xA0 SHL SUB DUP3 AND DUP3 SUB PUSH2 0x26E JUMPI JUMP JUMPDEST PUSH1 0x20 SWAP1 DUP2 PUSH1 0x40 DUP2 DUP4 ADD SWAP3 DUP3 DUP2 MSTORE DUP6 MLOAD DUP1 SWAP5 MSTORE ADD SWAP4 ADD SWAP2 PUSH1 0x0 JUMPDEST DUP3 DUP2 LT PUSH2 0x2AD1 JUMPI POP POP POP POP SWAP1 JUMP JUMPDEST DUP4 MLOAD DUP6 MSTORE SWAP4 DUP2 ADD SWAP4 SWAP3 DUP2 ADD SWAP3 PUSH1 0x1 ADD PUSH2 0x2AC3 JUMP JUMPDEST PUSH1 0x20 DUP2 ADD SWAP1 DUP2 LT PUSH1 0x1 PUSH1 0x1 PUSH1 0x40 SHL SUB DUP3 GT OR PUSH2 0x123A JUMPI PUSH1 0x40 MSTORE JUMP JUMPDEST PUSH1 0x80 DUP2 ADD SWAP1 DUP2 LT PUSH1 0x1 PUSH1 0x1 PUSH1 0x40 SHL SUB DUP3 GT OR PUSH2 0x123A JUMPI PUSH1 0x40 MSTORE JUMP JUMPDEST SWAP1 PUSH1 0x1F DUP1 NOT SWAP2 ADD AND DUP2 ADD SWAP1 DUP2 LT PUSH1 0x1 PUSH1 0x1 PUSH1 0x40 SHL SUB DUP3 GT OR PUSH2 0x123A JUMPI PUSH1 0x40 MSTORE JUMP JUMPDEST PUSH1 0x1 PUSH1 0x1 PUSH1 0x40 SHL SUB DUP2 GT PUSH2 0x123A JUMPI PUSH1 0x1F ADD PUSH1 0x1F NOT AND PUSH1 0x20 ADD SWAP1 JUMP JUMPDEST SWAP3 SWAP2 SWAP3 PUSH2 0x2B63 DUP3 PUSH2 0x2B3C JUMP JUMPDEST SWAP2 PUSH2 0x2B71 PUSH1 0x40 MLOAD SWAP4 DUP5 PUSH2 0x2B1B JUMP JUMPDEST DUP3 SWAP5 DUP2 DUP5 MSTORE DUP2 DUP4 ADD GT PUSH2 0x26E JUMPI DUP3 DUP2 PUSH1 0x20 SWAP4 DUP5 PUSH1 0x0 SWAP7 ADD CALLDATACOPY ADD ADD MSTORE JUMP JUMPDEST SWAP1 DUP1 PUSH1 0x1F DUP4 ADD SLT ISZERO PUSH2 0x26E JUMPI DUP2 PUSH1 0x20 PUSH2 0x2BA9 SWAP4 CALLDATALOAD SWAP2 ADD PUSH2 0x2B57 JUMP JUMPDEST SWAP1 JUMP JUMPDEST PUSH1 0x60 PUSH1 0x3 NOT DUP3 ADD SLT PUSH2 0x26E JUMPI PUSH1 0x4 CALLDATALOAD SWAP2 PUSH1 0x24 CALLDATALOAD SWAP2 PUSH1 0x44 CALLDATALOAD SWAP1 PUSH1 0x1 PUSH1 0x1 PUSH1 0x40 SHL SUB DUP3 GT PUSH2 0x26E JUMPI PUSH2 0x2BA9 SWAP2 PUSH1 0x4 ADD PUSH2 0x2B8E JUMP JUMPDEST PUSH1 0x60 SWAP1 PUSH1 0x3 NOT ADD SLT PUSH2 0x26E JUMPI PUSH1 0x1 PUSH1 0x1 PUSH1 0xA0 SHL SUB SWAP1 PUSH1 0x4 CALLDATALOAD DUP3 DUP2 AND DUP2 SUB PUSH2 0x26E JUMPI SWAP2 PUSH1 0x24 CALLDATALOAD SWAP1 DUP2 AND DUP2 SUB PUSH2 0x26E JUMPI SWAP1 PUSH1 0x44 CALLDATALOAD SWAP1 JUMP JUMPDEST PUSH1 0x1 PUSH1 0x1 PUSH1 0x40 SHL SUB DUP2 GT PUSH2 0x123A JUMPI PUSH1 0x5 SHL PUSH1 0x20 ADD SWAP1 JUMP JUMPDEST SWAP1 PUSH1 0x40 PUSH1 0x3 NOT DUP4 ADD SLT PUSH2 0x26E JUMPI PUSH1 0x4 CALLDATALOAD SWAP2 PUSH1 0x24 CALLDATALOAD SWAP1 PUSH1 0x1 PUSH1 0x1 PUSH1 0x40 SHL SUB DUP3 GT PUSH2 0x26E JUMPI PUSH2 0x2BA9 SWAP2 PUSH1 0x4 ADD PUSH2 0x2B8E JUMP JUMPDEST PUSH1 0x40 SWAP1 PUSH1 0x3 NOT ADD SLT PUSH2 0x26E JUMPI PUSH1 0x4 CALLDATALOAD SWAP1 PUSH1 0x24 CALLDATALOAD SWAP1 JUMP JUMPDEST DUP1 SLOAD DUP3 LT ISZERO PUSH2 0x2107 JUMPI PUSH1 0x0 MSTORE PUSH1 0x20 PUSH1 0x0 KECCAK256 ADD SWAP1 PUSH1 0x0 SWAP1 JUMP JUMPDEST PUSH1 0x5 DUP2 LT ISZERO PUSH2 0x47F JUMPI PUSH1 0x0 MSTORE PUSH1 0x13 PUSH1 0x20 MSTORE PUSH1 0x40 PUSH1 0x0 KECCAK256 SWAP1 JUMP JUMPDEST SWAP1 PUSH1 0x5 DUP3 LT ISZERO PUSH2 0x47F JUMPI MSTORE JUMP JUMPDEST SWAP1 PUSH1 0x1 DUP3 DUP2 SHR SWAP3 AND DUP1 ISZERO PUSH2 0x2CDD JUMPI JUMPDEST PUSH1 0x20 DUP4 LT EQ PUSH2 0x2CC7 JUMPI JUMP JUMPDEST PUSH4 0x4E487B71 PUSH1 0xE0 SHL PUSH1 0x0 MSTORE PUSH1 0x22 PUSH1 0x4 MSTORE PUSH1 0x24 PUSH1 0x0 REVERT JUMPDEST SWAP2 PUSH1 0x7F AND SWAP2 PUSH2 0x2CBC JUMP JUMPDEST SWAP1 PUSH1 0x40 MLOAD SWAP2 DUP3 PUSH1 0x0 DUP3 SLOAD SWAP3 PUSH2 0x2CFB DUP5 PUSH2 0x2CAD JUMP JUMPDEST SWAP1 DUP2 DUP5 MSTORE PUSH1 0x1 SWAP5 DUP6 DUP2 AND SWAP1 DUP2 PUSH1 0x0 EQ PUSH2 0x2D6A JUMPI POP PUSH1 0x1 EQ PUSH2 0x2D27 JUMPI JUMPDEST POP POP PUSH2 0x2D25 SWAP3 POP SUB DUP4 PUSH2 0x2B1B JUMP JUMPDEST JUMP JUMPDEST SWAP1 SWAP4 SWAP2 POP PUSH1 0x0 MSTORE PUSH1 0x20 SWAP1 DUP2 PUSH1 0x0 KECCAK256 SWAP4 PUSH1 0x0 SWAP2 JUMPDEST DUP2 DUP4 LT PUSH2 0x2D52 JUMPI POP POP PUSH2 0x2D25 SWAP4 POP DUP3 ADD ADD CODESIZE DUP1 PUSH2 0x2D17 JUMP JUMPDEST DUP6 SLOAD DUP9 DUP5 ADD DUP6 ADD MSTORE SWAP5 DUP6 ADD SWAP5 DUP8 SWAP5 POP SWAP2 DUP4 ADD SWAP2 PUSH2 0x2D3A JUMP JUMPDEST SWAP2 POP POP PUSH2 0x2D25 SWAP5 POP PUSH1 0x20 SWAP3 POP PUSH1 0xFF NOT AND DUP3 DUP5 ADD MSTORE ISZERO ISZERO PUSH1 0x5 SHL DUP3 ADD ADD CODESIZE DUP1 PUSH2 0x2D17 JUMP JUMPDEST CALLER PUSH1 0x0 SWAP1 DUP2 MSTORE PUSH32 0xD5F503EE4E61C4714E2681CA3FC290BBE81241054797B89C10A34D87FA200221 PUSH1 0x20 SWAP1 DUP2 MSTORE PUSH1 0x40 DUP1 DUP4 KECCAK256 SLOAD SWAP1 SWAP3 PUSH32 0x97667070C54EF182B0F5858B034BEAC1B6F3089AA2D3188BB1E8929F4FA9B929 SWAP2 PUSH1 0xFF AND ISZERO PUSH2 0x2DF1 JUMPI POP POP POP POP JUMP JUMPDEST PUSH2 0x2DFA CALLER PUSH2 0x38B0 JUMP JUMPDEST SWAP2 DUP5 MLOAD SWAP1 PUSH2 0x2E07 DUP3 PUSH2 0x2B00 JUMP JUMPDEST PUSH1 0x42 DUP3 MSTORE DUP5 DUP3 ADD SWAP3 PUSH1 0x60 CALLDATASIZE DUP6 CALLDATACOPY DUP3 MLOAD ISZERO PUSH2 0x2F66 JUMPI PUSH1 0x30 DUP5 MSTORE8 DUP3 MLOAD PUSH1 0x1 SWAP1 DUP2 LT ISZERO PUSH2 0x2F52 JUMPI SWAP1 PUSH1 0x78 PUSH1 0x21 DUP6 ADD MSTORE8 PUSH1 0x41 SWAP2 JUMPDEST DUP1 DUP4 GT PUSH2 0x2EF8 JUMPI POP POP POP PUSH2 0x2EB6 JUMPI PUSH1 0x48 PUSH2 0x207B SWAP4 DUP7 SWAP4 PUSH2 0x2E9A SWAP4 PUSH2 0x2E8B SWAP9 MLOAD SWAP9 DUP10 SWAP4 PUSH23 0x20B1B1B2B9B9A1B7B73A3937B61D1030B1B1B7BAB73A1 PUSH1 0x4D SHL DUP11 DUP7 ADD MSTORE PUSH2 0x2023 DUP2 MLOAD DUP1 SWAP3 DUP13 PUSH1 0x37 DUP10 ADD SWAP2 ADD PUSH2 0x2A36 JUMP JUMPDEST ADD SUB PUSH1 0x28 DUP2 ADD DUP8 MSTORE ADD DUP6 PUSH2 0x2B1B JUMP JUMPDEST MLOAD SWAP3 DUP4 SWAP3 PUSH3 0x461BCD PUSH1 0xE5 SHL DUP5 MSTORE PUSH1 0x4 DUP5 ADD MSTORE PUSH1 0x24 DUP4 ADD SWAP1 PUSH2 0x2A59 JUMP JUMPDEST PUSH1 0x64 DUP5 DUP7 MLOAD SWAP1 PUSH3 0x461BCD PUSH1 0xE5 SHL DUP3 MSTORE DUP1 PUSH1 0x4 DUP4 ADD MSTORE PUSH1 0x24 DUP3 ADD MSTORE PUSH32 0x537472696E67733A20686578206C656E67746820696E73756666696369656E74 PUSH1 0x44 DUP3 ADD MSTORE REVERT JUMPDEST SWAP1 SWAP2 SWAP3 PUSH1 0xF DUP2 AND PUSH1 0x10 DUP2 LT ISZERO PUSH2 0x2F3E JUMPI PUSH2 0x2F37 SWAP2 SWAP1 PUSH16 0x181899199A1A9B1B9C1CB0B131B232B3 PUSH1 0x81 SHL SWAP1 BYTE PUSH2 0x2F2D DUP7 DUP9 PUSH2 0x3892 JUMP JUMPDEST MSTORE8 PUSH1 0x4 SHR SWAP4 PUSH2 0x38A3 JUMP JUMPDEST SWAP2 SWAP1 PUSH2 0x2E37 JUMP JUMPDEST PUSH4 0x4E487B71 PUSH1 0xE0 SHL DUP5 MSTORE PUSH1 0x32 PUSH1 0x4 MSTORE PUSH1 0x24 DUP5 REVERT JUMPDEST PUSH4 0x4E487B71 PUSH1 0xE0 SHL DUP3 MSTORE PUSH1 0x32 PUSH1 0x4 MSTORE PUSH1 0x24 DUP3 REVERT JUMPDEST PUSH4 0x4E487B71 PUSH1 0xE0 SHL DUP2 MSTORE PUSH1 0x32 PUSH1 0x4 MSTORE PUSH1 0x24 SWAP1 REVERT JUMPDEST CALLER PUSH1 0x0 SWAP1 DUP2 MSTORE PUSH32 0xDF7DE25B7F1FD6D0B5205F0E18F1F35BD7B8D84CCE336588D184533CE43A6F76 PUSH1 0x20 SWAP1 DUP2 MSTORE PUSH1 0x40 DUP1 DUP4 KECCAK256 SLOAD SWAP1 SWAP3 SWAP1 PUSH1 0xFF AND ISZERO PUSH2 0x2FBC JUMPI POP POP POP JUMP JUMPDEST PUSH2 0x2FC5 CALLER PUSH2 0x38B0 JUMP JUMPDEST SWAP1 DUP1 DUP5 MLOAD SWAP1 PUSH2 0x2FD3 DUP3 PUSH2 0x2B00 JUMP JUMPDEST PUSH1 0x42 DUP3 MSTORE DUP5 DUP3 ADD SWAP3 PUSH1 0x60 CALLDATASIZE DUP6 CALLDATACOPY DUP3 MLOAD ISZERO PUSH2 0x2F66 JUMPI PUSH1 0x30 DUP5 MSTORE8 DUP3 MLOAD PUSH1 0x1 SWAP1 DUP2 LT ISZERO PUSH2 0x2F52 JUMPI SWAP1 PUSH1 0x78 PUSH1 0x21 DUP6 ADD MSTORE8 PUSH1 0x41 SWAP2 JUMPDEST DUP1 DUP4 GT PUSH2 0x3057 JUMPI POP POP POP PUSH2 0x2EB6 JUMPI PUSH1 0x48 PUSH2 0x207B SWAP4 DUP7 SWAP4 PUSH2 0x2E9A SWAP4 PUSH2 0x2E8B SWAP9 MLOAD SWAP9 DUP10 SWAP4 PUSH23 0x20B1B1B2B9B9A1B7B73A3937B61D1030B1B1B7BAB73A1 PUSH1 0x4D SHL DUP11 DUP7 ADD MSTORE PUSH2 0x2023 DUP2 MLOAD DUP1 SWAP3 DUP13 PUSH1 0x37 DUP10 ADD SWAP2 ADD PUSH2 0x2A36 JUMP JUMPDEST SWAP1 SWAP2 SWAP3 PUSH1 0xF DUP2 AND PUSH1 0x10 DUP2 LT ISZERO PUSH2 0x2F3E JUMPI PUSH2 0x308C SWAP2 SWAP1 PUSH16 0x181899199A1A9B1B9C1CB0B131B232B3 PUSH1 0x81 SHL SWAP1 BYTE PUSH2 0x2F2D DUP7 DUP9 PUSH2 0x3892 JUMP JUMPDEST SWAP2 SWAP1 PUSH2 0x3003 JUMP JUMPDEST PUSH1 0x0 SWAP1 DUP1 DUP3 MSTORE PUSH1 0x20 SWAP1 PUSH1 0xB DUP3 MSTORE PUSH1 0x40 SWAP3 DUP4 DUP2 KECCAK256 CALLER DUP3 MSTORE DUP4 MSTORE PUSH1 0xFF DUP5 DUP3 KECCAK256 SLOAD AND ISZERO PUSH2 0x30BD JUMPI POP POP POP POP JUMP JUMPDEST PUSH2 0x30C6 CALLER PUSH2 0x38B0 JUMP JUMPDEST SWAP2 DUP5 MLOAD SWAP1 PUSH2 0x30D3 DUP3 PUSH2 0x2B00 JUMP JUMPDEST PUSH1 0x42 DUP3 MSTORE DUP5 DUP3 ADD SWAP3 PUSH1 0x60 CALLDATASIZE DUP6 CALLDATACOPY DUP3 MLOAD ISZERO PUSH2 0x2F66 JUMPI PUSH1 0x30 DUP5 MSTORE8 DUP3 MLOAD PUSH1 0x1 SWAP1 DUP2 LT ISZERO PUSH2 0x2F52 JUMPI SWAP1 PUSH1 0x78 PUSH1 0x21 DUP6 ADD MSTORE8 PUSH1 0x41 SWAP2 JUMPDEST DUP1 DUP4 GT PUSH2 0x3157 JUMPI POP POP POP PUSH2 0x2EB6 JUMPI PUSH1 0x48 PUSH2 0x207B SWAP4 DUP7 SWAP4 PUSH2 0x2E9A SWAP4 PUSH2 0x2E8B SWAP9 MLOAD SWAP9 DUP10 SWAP4 PUSH23 0x20B1B1B2B9B9A1B7B73A3937B61D1030B1B1B7BAB73A1 PUSH1 0x4D SHL DUP11 DUP7 ADD MSTORE PUSH2 0x2023 DUP2 MLOAD DUP1 SWAP3 DUP13 PUSH1 0x37 DUP10 ADD SWAP2 ADD PUSH2 0x2A36 JUMP JUMPDEST SWAP1 SWAP2 SWAP3 PUSH1 0xF DUP2 AND PUSH1 0x10 DUP2 LT ISZERO PUSH2 0x2F3E JUMPI PUSH2 0x318C SWAP2 SWAP1 PUSH16 0x181899199A1A9B1B9C1CB0B131B232B3 PUSH1 0x81 SHL SWAP1 BYTE PUSH2 0x2F2D DUP7 DUP9 PUSH2 0x3892 JUMP JUMPDEST SWAP2 SWAP1 PUSH2 0x3103 JUMP JUMPDEST SWAP1 PUSH1 0x0 SWAP2 DUP1 DUP4 MSTORE PUSH1 0xB PUSH1 0x20 MSTORE PUSH1 0x40 DUP4 KECCAK256 SWAP2 PUSH1 0x1 DUP1 PUSH1 0xA0 SHL SUB AND SWAP2 DUP3 DUP5 MSTORE PUSH1 0x20 MSTORE PUSH1 0xFF PUSH1 0x40 DUP5 KECCAK256 SLOAD AND PUSH2 0x31C4 JUMPI POP POP POP JUMP JUMPDEST DUP1 DUP4 MSTORE PUSH1 0xB PUSH1 0x20 MSTORE PUSH1 0x40 DUP4 KECCAK256 DUP3 DUP5 MSTORE PUSH1 0x20 MSTORE PUSH1 0x40 DUP4 KECCAK256 PUSH1 0xFF NOT DUP2 SLOAD AND SWAP1 SSTORE PUSH32 0xF6391F5C32D9C69D2A47EA670B442974B53935D1EDC7FD64EB21E047A839171B CALLER SWAP4 DUP1 LOG4 JUMP JUMPDEST PUSH1 0x1 PUSH1 0x1 PUSH1 0xA0 SHL SUB AND DUP1 ISZERO PUSH2 0x3229 JUMPI PUSH1 0x0 MSTORE PUSH1 0x3 PUSH1 0x20 MSTORE PUSH1 0x40 PUSH1 0x0 KECCAK256 SLOAD SWAP1 JUMP JUMPDEST PUSH1 0x40 MLOAD PUSH3 0x461BCD PUSH1 0xE5 SHL DUP2 MSTORE PUSH1 0x20 PUSH1 0x4 DUP3 ADD MSTORE PUSH1 0x29 PUSH1 0x24 DUP3 ADD MSTORE PUSH32 0x4552433732313A2061646472657373207A65726F206973206E6F742061207661 PUSH1 0x44 DUP3 ADD MSTORE PUSH9 0x3634B21037BBB732B9 PUSH1 0xB9 SHL PUSH1 0x64 DUP3 ADD MSTORE PUSH1 0x84 SWAP1 REVERT JUMPDEST ISZERO PUSH2 0x3287 JUMPI JUMP JUMPDEST PUSH1 0x40 MLOAD PUSH3 0x461BCD PUSH1 0xE5 SHL DUP2 MSTORE PUSH1 0x20 PUSH1 0x4 DUP3 ADD MSTORE PUSH1 0x18 PUSH1 0x24 DUP3 ADD MSTORE PUSH32 0x4552433732313A20696E76616C696420746F6B656E2049440000000000000000 PUSH1 0x44 DUP3 ADD MSTORE PUSH1 0x64 SWAP1 REVERT JUMPDEST PUSH1 0x0 SWAP1 DUP2 MSTORE PUSH1 0x2 PUSH1 0x20 MSTORE PUSH1 0x40 SWAP1 KECCAK256 SLOAD PUSH1 0x1 PUSH1 0x1 PUSH1 0xA0 SHL SUB AND PUSH2 0x2BA9 DUP2 ISZERO ISZERO PUSH2 0x3280 JUMP JUMPDEST PUSH1 0x0 DUP2 DUP2 MSTORE PUSH1 0x2 PUSH1 0x20 MSTORE PUSH1 0x40 SWAP1 KECCAK256 SLOAD PUSH2 0x3312 SWAP1 PUSH1 0x1 PUSH1 0x1 PUSH1 0xA0 SHL SUB AND ISZERO ISZERO PUSH2 0x3280 JUMP JUMPDEST PUSH1 0x0 SWAP1 DUP2 MSTORE PUSH1 0x4 PUSH1 0x20 MSTORE PUSH1 0x40 SWAP1 KECCAK256 SLOAD PUSH1 0x1 PUSH1 0x1 PUSH1 0xA0 SHL SUB AND SWAP1 JUMP JUMPDEST ISZERO PUSH2 0x3334 JUMPI JUMP JUMPDEST PUSH1 0x40 MLOAD PUSH3 0x461BCD PUSH1 0xE5 SHL DUP2 MSTORE PUSH1 0x20 PUSH1 0x4 DUP3 ADD MSTORE PUSH1 0x2D PUSH1 0x24 DUP3 ADD MSTORE PUSH32 0x4552433732313A2063616C6C6572206973206E6F7420746F6B656E206F776E65 PUSH1 0x44 DUP3 ADD MSTORE PUSH13 0x1C881BDC88185C1C1C9BDD9959 PUSH1 0x9A SHL PUSH1 0x64 DUP3 ADD MSTORE PUSH1 0x84 SWAP1 REVERT JUMPDEST PUSH1 0x80 SWAP1 PUSH1 0x20 DUP2 MSTORE PUSH1 0x32 PUSH1 0x20 DUP3 ADD MSTORE PUSH32 0x4552433732313A207472616E7366657220746F206E6F6E204552433732315265 PUSH1 0x40 DUP3 ADD MSTORE PUSH18 0x31B2B4BB32B91034B6B83632B6B2B73A32B9 PUSH1 0x71 SHL PUSH1 0x60 DUP3 ADD MSTORE ADD SWAP1 JUMP JUMPDEST ISZERO PUSH2 0x33E9 JUMPI JUMP JUMPDEST PUSH1 0x40 MLOAD PUSH3 0x461BCD PUSH1 0xE5 SHL DUP2 MSTORE DUP1 PUSH2 0x207B PUSH1 0x4 DUP3 ADD PUSH2 0x338F JUMP JUMPDEST SWAP1 PUSH1 0x1 PUSH1 0x1 PUSH1 0xA0 SHL SUB DUP1 DUP1 PUSH2 0x3416 DUP5 PUSH2 0x32CC JUMP JUMPDEST AND SWAP4 AND SWAP2 DUP4 DUP4 EQ SWAP4 DUP5 ISZERO PUSH2 0x3449 JUMPI JUMPDEST POP DUP4 ISZERO PUSH2 0x3433 JUMPI JUMPDEST POP POP POP SWAP1 JUMP JUMPDEST PUSH2 0x343F SWAP2 SWAP3 SWAP4 POP PUSH2 0x32EF JUMP JUMPDEST AND EQ CODESIZE DUP1 DUP1 PUSH2 0x342D JUMP JUMPDEST SWAP1 SWAP4 POP PUSH1 0x0 MSTORE PUSH1 0x5 PUSH1 0x20 MSTORE PUSH1 0x40 PUSH1 0x0 KECCAK256 DUP3 PUSH1 0x0 MSTORE PUSH1 0x20 MSTORE PUSH1 0xFF PUSH1 0x40 PUSH1 0x0 KECCAK256 SLOAD AND SWAP3 CODESIZE PUSH2 0x3425 JUMP JUMPDEST ISZERO PUSH2 0x3477 JUMPI JUMP JUMPDEST PUSH1 0x40 MLOAD PUSH3 0x461BCD PUSH1 0xE5 SHL DUP2 MSTORE PUSH1 0x20 PUSH1 0x4 DUP3 ADD MSTORE PUSH1 0x25 PUSH1 0x24 DUP3 ADD MSTORE PUSH32 0x4552433732313A207472616E736665722066726F6D20696E636F727265637420 PUSH1 0x44 DUP3 ADD MSTORE PUSH5 0x37BBB732B9 PUSH1 0xD9 SHL PUSH1 0x64 DUP3 ADD MSTORE PUSH1 0x84 SWAP1 REVERT JUMPDEST PUSH2 0x34EE SWAP2 PUSH2 0x34D7 DUP5 PUSH2 0x32CC JUMP JUMPDEST PUSH1 0x1 PUSH1 0x1 PUSH1 0xA0 SHL SUB SWAP4 DUP5 DUP5 AND SWAP4 SWAP2 DUP6 AND DUP5 EQ PUSH2 0x3470 JUMP JUMPDEST DUP4 DUP3 AND SWAP4 DUP5 ISZERO PUSH2 0x3696 JUMPI DUP4 SWAP2 PUSH2 0x3502 PUSH2 0x3B02 JUMP JUMPDEST DUP3 PUSH2 0x35F3 JUMPI POP PUSH2 0x3540 SWAP3 PUSH1 0x9 SLOAD DUP8 PUSH1 0x0 MSTORE PUSH1 0xA PUSH1 0x20 MSTORE PUSH1 0x40 PUSH1 0x0 KECCAK256 SSTORE PUSH2 0x3527 DUP8 PUSH2 0x3A76 JUMP JUMPDEST DUP3 DUP7 SUB PUSH2 0x35C0 JUMPI JUMPDEST POP PUSH2 0x3539 DUP7 PUSH2 0x32CC JUMP JUMPDEST AND EQ PUSH2 0x3470 JUMP JUMPDEST PUSH32 0xDDF252AD1BE2C89B69C2B068FC378DAA952BA7F163C4A11628F55A4DF523B3EF PUSH1 0x0 DUP5 DUP2 MSTORE PUSH1 0x4 PUSH1 0x20 MSTORE PUSH1 0x40 DUP2 KECCAK256 PUSH12 0xFFFFFFFFFFFFFFFFFFFFFFFF PUSH1 0xA0 SHL SWAP1 DUP2 DUP2 SLOAD AND SWAP1 SSTORE DUP4 DUP3 MSTORE PUSH1 0x3 PUSH1 0x20 MSTORE PUSH1 0x40 DUP3 KECCAK256 PUSH1 0x0 NOT DUP2 SLOAD ADD SWAP1 SSTORE DUP5 DUP3 MSTORE PUSH1 0x40 DUP3 KECCAK256 PUSH1 0x1 DUP2 SLOAD ADD SWAP1 SSTORE DUP6 DUP3 MSTORE PUSH1 0x2 PUSH1 0x20 MSTORE DUP5 PUSH1 0x40 DUP4 KECCAK256 SWAP2 DUP3 SLOAD AND OR SWAP1 SSTORE DUP1 LOG4 JUMP JUMPDEST PUSH2 0x35C9 SWAP1 PUSH2 0x3209 JUMP JUMPDEST PUSH1 0x40 PUSH1 0x0 DUP8 DUP2 MSTORE PUSH1 0x7 PUSH1 0x20 MSTORE DUP2 DUP2 KECCAK256 DUP4 DUP3 MSTORE PUSH1 0x20 MSTORE DUP9 DUP3 DUP3 KECCAK256 SSTORE DUP9 DUP2 MSTORE PUSH1 0x8 PUSH1 0x20 MSTORE KECCAK256 SSTORE CODESIZE PUSH2 0x352F JUMP JUMPDEST DUP6 DUP4 SUB PUSH2 0x3605 JUMPI JUMPDEST POP PUSH2 0x3540 SWAP3 PUSH2 0x3527 JUMP JUMPDEST PUSH2 0x3610 SWAP2 SWAP3 POP PUSH2 0x3209 JUMP JUMPDEST PUSH1 0x0 NOT DUP2 ADD SWAP2 SWAP1 DUP3 GT PUSH2 0x91F JUMPI PUSH2 0x3540 SWAP3 DUP5 SWAP3 PUSH1 0x0 SWAP1 DUP9 DUP3 MSTORE PUSH1 0x20 SWAP1 PUSH1 0x8 DUP3 MSTORE PUSH1 0x40 SWAP2 DUP3 DUP5 KECCAK256 SLOAD DUP3 DUP2 SUB PUSH2 0x365F JUMPI JUMPDEST POP DUP11 DUP5 MSTORE DUP4 DUP4 DUP2 KECCAK256 SSTORE DUP7 DUP5 MSTORE PUSH1 0x7 DUP2 MSTORE DUP3 DUP5 KECCAK256 SWAP2 DUP5 MSTORE MSTORE DUP2 KECCAK256 SSTORE SWAP3 PUSH2 0x35FB JUMP JUMPDEST DUP8 DUP6 MSTORE PUSH1 0x7 DUP3 MSTORE DUP4 DUP6 KECCAK256 DUP4 DUP7 MSTORE DUP3 MSTORE DUP4 DUP6 KECCAK256 SLOAD DUP9 DUP7 MSTORE PUSH1 0x7 DUP4 MSTORE DUP5 DUP7 KECCAK256 DUP3 DUP8 MSTORE DUP4 MSTORE DUP1 DUP6 DUP8 KECCAK256 SSTORE DUP6 MSTORE PUSH1 0x8 DUP3 MSTORE DUP4 DUP6 KECCAK256 SSTORE CODESIZE PUSH2 0x363F JUMP JUMPDEST PUSH1 0x40 MLOAD PUSH3 0x461BCD PUSH1 0xE5 SHL DUP2 MSTORE PUSH1 0x20 PUSH1 0x4 DUP3 ADD MSTORE PUSH1 0x24 DUP1 DUP3 ADD MSTORE PUSH32 0x4552433732313A207472616E7366657220746F20746865207A65726F20616464 PUSH1 0x44 DUP3 ADD MSTORE PUSH4 0x72657373 PUSH1 0xE0 SHL PUSH1 0x64 DUP3 ADD MSTORE PUSH1 0x84 SWAP1 REVERT JUMPDEST SWAP2 SWAP3 PUSH1 0x0 SWAP3 SWAP1 SWAP2 SWAP1 DUP1 EXTCODESIZE ISZERO PUSH2 0x37FD JUMPI PUSH2 0x3735 SWAP5 PUSH1 0x40 MLOAD DUP1 SWAP3 PUSH4 0xA85BD01 PUSH1 0xE1 SHL SWAP5 DUP6 DUP4 MSTORE CALLER PUSH1 0x4 DUP5 ADD MSTORE DUP8 PUSH1 0x24 DUP5 ADD MSTORE PUSH1 0x44 DUP4 ADD MSTORE PUSH1 0x80 PUSH1 0x64 DUP4 ADD MSTORE DUP2 DUP8 DUP2 PUSH1 0x20 SWAP11 DUP12 SWAP7 PUSH1 0x84 DUP4 ADD SWAP1 PUSH2 0x2A59 JUMP JUMPDEST SUB SWAP3 PUSH1 0x1 PUSH1 0x1 PUSH1 0xA0 SHL SUB AND GAS CALL DUP5 SWAP2 DUP2 PUSH2 0x37B9 JUMPI JUMPDEST POP PUSH2 0x37A8 JUMPI POP POP POP RETURNDATASIZE PUSH1 0x0 EQ PUSH2 0x37A0 JUMPI RETURNDATASIZE PUSH2 0x3764 DUP2 PUSH2 0x2B3C JUMP JUMPDEST SWAP1 PUSH2 0x3772 PUSH1 0x40 MLOAD SWAP3 DUP4 PUSH2 0x2B1B JUMP JUMPDEST DUP2 MSTORE DUP1 SWAP2 DUP4 RETURNDATASIZE SWAP3 ADD RETURNDATACOPY JUMPDEST DUP1 MLOAD SWAP2 DUP3 PUSH2 0x379D JUMPI PUSH1 0x40 MLOAD PUSH3 0x461BCD PUSH1 0xE5 SHL DUP2 MSTORE DUP1 PUSH2 0x207B PUSH1 0x4 DUP3 ADD PUSH2 0x338F JUMP JUMPDEST ADD REVERT JUMPDEST POP PUSH1 0x60 PUSH2 0x377C JUMP JUMPDEST PUSH1 0x1 PUSH1 0x1 PUSH1 0xE0 SHL SUB NOT AND EQ SWAP3 POP SWAP1 POP JUMP JUMPDEST SWAP1 SWAP2 POP DUP6 DUP2 DUP2 RETURNDATASIZE DUP4 GT PUSH2 0x37F6 JUMPI JUMPDEST PUSH2 0x37D1 DUP2 DUP4 PUSH2 0x2B1B JUMP JUMPDEST DUP2 ADD SUB SLT PUSH2 0x37F2 JUMPI MLOAD PUSH1 0x1 PUSH1 0x1 PUSH1 0xE0 SHL SUB NOT DUP2 AND DUP2 SUB PUSH2 0x37F2 JUMPI SWAP1 CODESIZE PUSH2 0x374A JUMP JUMPDEST DUP5 DUP1 REVERT JUMPDEST POP RETURNDATASIZE PUSH2 0x37C7 JUMP JUMPDEST POP POP SWAP2 POP POP PUSH1 0x1 SWAP1 JUMP JUMPDEST SWAP3 SWAP4 PUSH1 0x0 SWAP4 SWAP1 SWAP3 SWAP2 DUP1 EXTCODESIZE ISZERO PUSH2 0x3887 JUMPI SWAP5 DUP5 SWAP2 PUSH2 0x3861 SWAP7 PUSH1 0x40 MLOAD DUP1 SWAP5 DUP2 SWAP4 PUSH4 0xA85BD01 PUSH1 0xE1 SHL SWAP8 DUP9 DUP5 MSTORE CALLER PUSH1 0x4 DUP6 ADD MSTORE PUSH1 0x1 DUP1 PUSH1 0xA0 SHL SUB DUP1 SWAP3 AND PUSH1 0x24 DUP6 ADD MSTORE PUSH1 0x44 DUP5 ADD MSTORE PUSH1 0x80 PUSH1 0x64 DUP5 ADD MSTORE DUP3 PUSH1 0x20 SWAP12 DUP13 SWAP8 PUSH1 0x84 DUP4 ADD SWAP1 PUSH2 0x2A59 JUMP JUMPDEST SUB SWAP4 AND GAS CALL DUP5 SWAP2 DUP2 PUSH2 0x37B9 JUMPI POP PUSH2 0x37A8 JUMPI POP POP POP RETURNDATASIZE PUSH1 0x0 EQ PUSH2 0x37A0 JUMPI RETURNDATASIZE PUSH2 0x3764 DUP2 PUSH2 0x2B3C JUMP JUMPDEST POP POP POP SWAP2 POP POP PUSH1 0x1 SWAP1 JUMP JUMPDEST SWAP1 DUP2 MLOAD DUP2 LT ISZERO PUSH2 0x2107 JUMPI ADD PUSH1 0x20 ADD SWAP1 JUMP JUMPDEST DUP1 ISZERO PUSH2 0x91F JUMPI PUSH1 0x0 NOT ADD SWAP1 JUMP JUMPDEST PUSH1 0x40 MLOAD SWAP1 PUSH1 0x60 DUP3 ADD DUP3 DUP2 LT PUSH1 0x1 PUSH1 0x1 PUSH1 0x40 SHL SUB DUP3 GT OR PUSH2 0x123A JUMPI PUSH1 0x40 MSTORE PUSH1 0x2A DUP3 MSTORE PUSH1 0x20 DUP3 ADD PUSH1 0x40 CALLDATASIZE DUP3 CALLDATACOPY DUP3 MLOAD ISZERO PUSH2 0x2107 JUMPI PUSH1 0x30 SWAP1 MSTORE8 DUP2 MLOAD PUSH1 0x1 SWAP1 DUP2 LT ISZERO PUSH2 0x2107 JUMPI PUSH1 0x78 PUSH1 0x21 DUP5 ADD MSTORE8 PUSH1 0x29 SWAP1 JUMPDEST DUP1 DUP3 GT PUSH2 0x390C JUMPI POP POP PUSH2 0x207F JUMPI SWAP1 JUMP JUMPDEST SWAP1 SWAP2 PUSH1 0xF DUP2 AND SWAP1 PUSH1 0x10 DUP3 LT ISZERO PUSH2 0x3946 JUMPI PUSH2 0x3940 SWAP2 PUSH16 0x181899199A1A9B1B9C1CB0B131B232B3 PUSH1 0x81 SHL SWAP1 BYTE PUSH2 0x20F7 DUP6 DUP8 PUSH2 0x3892 JUMP JUMPDEST SWAP1 PUSH2 0x38FC JUMP JUMPDEST PUSH1 0x24 PUSH1 0x0 PUSH4 0x4E487B71 PUSH1 0xE0 SHL DUP2 MSTORE PUSH1 0x32 PUSH1 0x4 MSTORE REVERT JUMPDEST DUP2 DUP2 LT PUSH2 0x3966 JUMPI POP POP JUMP JUMPDEST PUSH1 0x0 DUP2 SSTORE PUSH1 0x1 ADD PUSH2 0x395B JUMP JUMPDEST SWAP2 SWAP1 SWAP2 DUP3 MLOAD PUSH1 0x1 PUSH1 0x1 PUSH1 0x40 SHL SUB DUP2 GT PUSH2 0x123A JUMPI PUSH2 0x398F DUP3 SLOAD PUSH2 0x2CAD JUMP JUMPDEST PUSH1 0x1F DUP2 GT PUSH2 0x3A39 JUMPI JUMPDEST POP PUSH1 0x20 DUP1 PUSH1 0x1F DUP4 GT PUSH1 0x1 EQ PUSH2 0x39D5 JUMPI POP DUP2 SWAP3 SWAP4 SWAP5 PUSH1 0x0 SWAP3 PUSH2 0x39CA JUMPI JUMPDEST POP POP DUP2 PUSH1 0x1 SHL SWAP2 PUSH1 0x0 NOT SWAP1 PUSH1 0x3 SHL SHR NOT AND OR SWAP1 SSTORE JUMP JUMPDEST ADD MLOAD SWAP1 POP CODESIZE DUP1 PUSH2 0x39B4 JUMP JUMPDEST SWAP1 PUSH1 0x1F NOT DUP4 AND SWAP6 DUP5 PUSH1 0x0 MSTORE DUP3 PUSH1 0x0 KECCAK256 SWAP3 PUSH1 0x0 SWAP1 JUMPDEST DUP9 DUP3 LT PUSH2 0x3A21 JUMPI POP POP DUP4 PUSH1 0x1 SWAP6 SWAP7 SWAP8 LT PUSH2 0x3A08 JUMPI JUMPDEST POP POP POP DUP2 SHL ADD SWAP1 SSTORE JUMP JUMPDEST ADD MLOAD PUSH1 0x0 NOT PUSH1 0xF8 DUP5 PUSH1 0x3 SHL AND SHR NOT AND SWAP1 SSTORE CODESIZE DUP1 DUP1 PUSH2 0x39FE JUMP JUMPDEST DUP1 PUSH1 0x1 DUP6 SWAP7 DUP3 SWAP5 SWAP7 DUP7 ADD MLOAD DUP2 SSTORE ADD SWAP6 ADD SWAP4 ADD SWAP1 PUSH2 0x39E9 JUMP JUMPDEST PUSH2 0x3A66 SWAP1 DUP4 PUSH1 0x0 MSTORE PUSH1 0x20 PUSH1 0x0 KECCAK256 PUSH1 0x1F DUP5 ADD PUSH1 0x5 SHR DUP2 ADD SWAP2 PUSH1 0x20 DUP6 LT PUSH2 0x3A6C JUMPI JUMPDEST PUSH1 0x1F ADD PUSH1 0x5 SHR ADD SWAP1 PUSH2 0x395B JUMP JUMPDEST CODESIZE PUSH2 0x3998 JUMP JUMPDEST SWAP1 SWAP2 POP DUP2 SWAP1 PUSH2 0x3A59 JUMP JUMPDEST PUSH1 0x9 SLOAD PUSH1 0x1 PUSH1 0x40 SHL DUP2 LT ISZERO PUSH2 0x123A JUMPI PUSH1 0x1 DUP2 ADD DUP1 PUSH1 0x9 SSTORE DUP2 LT ISZERO PUSH2 0x2107 JUMPI PUSH1 0x9 PUSH1 0x0 MSTORE PUSH32 0x6E1540171B6C0C960B71A7020D9F60077F6AF931A8BBF590DA0223DACF75C7AF ADD SSTORE JUMP JUMPDEST DUP1 SLOAD PUSH1 0x1 PUSH1 0x40 SHL DUP2 LT ISZERO PUSH2 0x123A JUMPI PUSH2 0x3ADB SWAP2 PUSH1 0x1 DUP3 ADD DUP2 SSTORE PUSH2 0x2C6F JUMP JUMPDEST DUP2 SWAP3 SWAP2 SLOAD SWAP1 PUSH1 0x3 SHL SWAP2 DUP3 SHL SWAP2 PUSH1 0x0 NOT SWAP1 SHL NOT AND OR SWAP1 SSTORE JUMP JUMPDEST PUSH1 0x0 NOT DUP2 EQ PUSH2 0x91F JUMPI PUSH1 0x1 ADD SWAP1 JUMP JUMPDEST PUSH1 0xFF PUSH1 0xC SLOAD AND PUSH2 0x3B0E JUMPI JUMP JUMPDEST PUSH1 0x40 MLOAD PUSH3 0x461BCD PUSH1 0xE5 SHL DUP2 MSTORE PUSH1 0x20 PUSH1 0x4 DUP3 ADD MSTORE PUSH1 0x10 PUSH1 0x24 DUP3 ADD MSTORE PUSH16 0x14185D5CD8589B194E881C185D5CD959 PUSH1 0x82 SHL PUSH1 0x44 DUP3 ADD MSTORE PUSH1 0x64 SWAP1 REVERT JUMPDEST ISZERO PUSH2 0x3B4D JUMPI JUMP JUMPDEST PUSH1 0x40 MLOAD PUSH3 0x461BCD PUSH1 0xE5 SHL DUP2 MSTORE PUSH1 0x20 PUSH1 0x4 DUP3 ADD MSTORE PUSH1 0x1C PUSH1 0x24 DUP3 ADD MSTORE PUSH32 0x4552433732313A20746F6B656E20616C7265616479206D696E74656400000000 PUSH1 0x44 DUP3 ADD MSTORE PUSH1 0x64 SWAP1 REVERT JUMPDEST PUSH1 0x0 DUP2 DUP2 MSTORE PUSH1 0x2 PUSH1 0x20 MSTORE PUSH1 0x40 SWAP1 KECCAK256 SLOAD SWAP1 SWAP2 SWAP1 PUSH1 0x1 PUSH1 0x1 PUSH1 0xA0 SHL SUB AND ISZERO PUSH2 0x3BF5 JUMPI DUP2 PUSH2 0x3BEC PUSH1 0x20 SWAP3 PUSH32 0xF8E1A15ABA9398E019F0B49DF1A4FDE98EE17AE345CB5F6B5E2C27F5033E8CE7 SWAP5 PUSH1 0x0 MSTORE PUSH1 0x6 DUP5 MSTORE PUSH1 0x40 PUSH1 0x0 KECCAK256 PUSH2 0x3972 JUMP JUMPDEST PUSH1 0x40 MLOAD SWAP1 DUP2 MSTORE LOG1 JUMP JUMPDEST PUSH1 0x40 MLOAD PUSH3 0x461BCD PUSH1 0xE5 SHL DUP2 MSTORE PUSH1 0x20 PUSH1 0x4 DUP3 ADD MSTORE PUSH1 0x2E PUSH1 0x24 DUP3 ADD MSTORE PUSH32 0x45524337323155524953746F726167653A2055524920736574206F66206E6F6E PUSH1 0x44 DUP3 ADD MSTORE PUSH14 0x32BC34B9BA32B73A103A37B5B2B7 PUSH1 0x91 SHL PUSH1 0x64 DUP3 ADD MSTORE PUSH1 0x84 SWAP1 REVERT JUMPDEST ISZERO PUSH2 0x3C58 JUMPI JUMP JUMPDEST PUSH1 0x40 MLOAD PUSH3 0x461BCD PUSH1 0xE5 SHL DUP2 MSTORE PUSH1 0x20 PUSH1 0x4 DUP3 ADD MSTORE PUSH1 0x12 PUSH1 0x24 DUP3 ADD MSTORE PUSH18 0x131BDD08191BD95CC81B9BDD08195E1A5CDD PUSH1 0x72 SHL PUSH1 0x44 DUP3 ADD MSTORE PUSH1 0x64 SWAP1 REVERT JUMPDEST DUP1 ISZERO PUSH2 0x3D34 JUMPI DUP1 DUP2 PUSH1 0x0 SWAP3 JUMPDEST PUSH2 0x3D1E JUMPI POP PUSH2 0x3CAC DUP3 PUSH2 0x2B3C JUMP JUMPDEST SWAP2 PUSH2 0x3CBA PUSH1 0x40 MLOAD SWAP4 DUP5 PUSH2 0x2B1B JUMP JUMPDEST DUP1 DUP4 MSTORE DUP2 PUSH1 0x1F NOT PUSH2 0x3CCA DUP4 PUSH2 0x2B3C JUMP JUMPDEST ADD CALLDATASIZE PUSH1 0x20 DUP7 ADD CALLDATACOPY JUMPDEST PUSH2 0x3CDB JUMPI POP POP SWAP1 JUMP JUMPDEST PUSH1 0x0 NOT DUP2 ADD SWAP1 DUP2 GT PUSH2 0x91F JUMPI DUP1 SWAP2 PUSH1 0xA SWAP2 PUSH1 0x30 DUP4 DUP4 MOD DUP2 ADD DUP1 SWAP2 GT PUSH2 0x91F JUMPI PUSH1 0xF8 SHL PUSH1 0x1 PUSH1 0x1 PUSH1 0xF8 SHL SUB NOT AND PUSH1 0x0 BYTE SWAP1 PUSH2 0x3D15 SWAP1 DUP7 PUSH2 0x3892 JUMP JUMPDEST MSTORE8 DIV SWAP1 DUP2 PUSH2 0x3CD2 JUMP JUMPDEST SWAP1 SWAP2 PUSH2 0x3D2B PUSH1 0xA SWAP2 PUSH2 0x3AF3 JUMP JUMPDEST SWAP3 SWAP2 DIV DUP1 PUSH2 0x3C9E JUMP JUMPDEST POP PUSH1 0x40 MLOAD PUSH1 0x40 DUP2 ADD DUP2 DUP2 LT PUSH1 0x1 PUSH1 0x1 PUSH1 0x40 SHL SUB DUP3 GT OR PUSH2 0x123A JUMPI PUSH1 0x40 MSTORE PUSH1 0x1 DUP2 MSTORE PUSH1 0x3 PUSH1 0xFC SHL PUSH1 0x20 DUP3 ADD MSTORE SWAP1 JUMP INVALID 0xC2 SWAP8 SELFBALANCE SWAP2 0xB4 TIMESTAMP 0xBD STATICCALL 0xB8 SWAP1 DUP13 0xAC 0x49 PUSH25 0xA6DEC7CD1F97DB200E89911EEE41B850FB0BA2646970667358 0x22 SLT KECCAK256 PUSH3 0xFFA12F EQ LOG1 0xE6 JUMPI MLOAD SWAP10 LOG2 EXTCODECOPY 0xCA CHAINID 0x5C RETURNDATASIZE MUL 0xCA 0xB5 PUSH23 0xD683A77E5C258ED3BB4C2B9B64736F6C63430008130033 0x2F DUP8 DUP9 GT PUSH31 0x7EFF1D82E926EC794901D17C78024A50270940304540A733656F0D00000000 "},"methodIdentifiers":{"DEFAULT_ADMIN_ROLE()":"a217fddf","MINTER_ROLE()":"d5391393","OPERATOR_ROLE()":"f5b541a6","PRODUCER_ROLE()":"cb3e1fe7","addCertification(uint256,string)":"52e4b6cf","approve(address,uint256)":"095ea7b3","balanceOf(address)":"70a08231","createLot(address,string,string,string,string,uint256,string,uint256,string[],string)":"3c0d4f2a","deliverLot(uint256)":"32ba489b","fixLotToContract(uint256,bytes32,string)":"5070b630","getApproved(uint256)":"081812fc","getLot(uint256)":"ab995d12","getLotStats()":"78385ae1","getLotsByContract(bytes32)":"99e53026","getLotsByProducer(address)":"102a4f15","getLotsByShipment(bytes32)":"a1c3ac78","getRoleAdmin(bytes32)":"248a9ca3","getTotalWeightByContract(bytes32)":"c84c4762","grantRole(bytes32,address)":"2f2ff15d","hasRole(bytes32,address)":"91d14854","isApprovedForAll(address,address)":"e985e9c5","isLotAvailableForFixation(uint256)":"f80a1fa7","lots(uint256)":"f1648e84","lotsByCode(string)":"217d4bf4","lotsByContract(bytes32,uint256)":"fe25e02d","lotsByProducer(address,uint256)":"dc29ec13","lotsByShipment(bytes32,uint256)":"85115629","lotsByStatus(uint8)":"96425932","name()":"06fdde03","ownerOf(uint256)":"6352211e","pause()":"8456cb59","paused()":"5c975abb","purchaseLot(uint256,address,uint256)":"f9acd81b","renounceRole(bytes32,address)":"36568abe","revokeRole(bytes32,address)":"d547741f","safeTransferFrom(address,address,uint256)":"42842e0e","safeTransferFrom(address,address,uint256,bytes)":"b88d4fde","setApprovalForAll(address,bool)":"a22cb465","shipLot(uint256,bytes32,string)":"1c5f4012","supportsInterface(bytes4)":"01ffc9a7","symbol()":"95d89b41","tokenByIndex(uint256)":"4f6ccce7","tokenOfOwnerByIndex(address,uint256)":"2f745c59","tokenURI(uint256)":"c87b56dd","totalSupply()":"18160ddd","transferFrom(address,address,uint256)":"23b872dd","unpause()":"3f4ba83a","updateMetadataURI(uint256,string)":"8fe86b3f"}},"storageLayout":{"storage":[{"astId":615,"contract":"contracts/ProducerLotNFT.sol:ProducerLotNFT","label":"_name","offset":0,"slot":"0","type":"t_string_storage"},{"astId":617,"contract":"contracts/ProducerLotNFT.sol:ProducerLotNFT","label":"_symbol","offset":0,"slot":"1","type":"t_string_storage"},{"astId":621,"contract":"contracts/ProducerLotNFT.sol:ProducerLotNFT","label":"_owners","offset":0,"slot":"2","type":"t_mapping(t_uint256,t_address)"},{"astId":625,"contract":"contracts/ProducerLotNFT.sol:ProducerLotNFT","label":"_balances","offset":0,"slot":"3","type":"t_mapping(t_address,t_uint256)"},{"astId":629,"contract":"contracts/ProducerLotNFT.sol:ProducerLotNFT","label":"_tokenApprovals","offset":0,"slot":"4","type":"t_mapping(t_uint256,t_address)"},{"astId":635,"contract":"contracts/ProducerLotNFT.sol:ProducerLotNFT","label":"_operatorApprovals","offset":0,"slot":"5","type":"t_mapping(t_address,t_mapping(t_address,t_bool))"},{"astId":2020,"contract":"contracts/ProducerLotNFT.sol:ProducerLotNFT","label":"_tokenURIs","offset":0,"slot":"6","type":"t_mapping(t_uint256,t_string_storage)"},{"astId":1665,"contract":"contracts/ProducerLotNFT.sol:ProducerLotNFT","label":"_ownedTokens","offset":0,"slot":"7","type":"t_mapping(t_address,t_mapping(t_uint256,t_uint256))"},{"astId":1669,"contract":"contracts/ProducerLotNFT.sol:ProducerLotNFT","label":"_ownedTokensIndex","offset":0,"slot":"8","type":"t_mapping(t_uint256,t_uint256)"},{"astId":1672,"contract":"contracts/ProducerLotNFT.sol:ProducerLotNFT","label":"_allTokens","offset":0,"slot":"9","type":"t_array(t_uint256)dyn_storage"},{"astId":1676,"contract":"contracts/ProducerLotNFT.sol:ProducerLotNFT","label":"_allTokensIndex","offset":0,"slot":"10","type":"t_mapping(t_uint256,t_uint256)"},{"astId":24,"contract":"contracts/ProducerLotNFT.sol:ProducerLotNFT","label":"_roles","offset":0,"slot":"11","type":"t_mapping(t_bytes32,t_struct(RoleData)19_storage)"},{"astId":434,"contract":"contracts/ProducerLotNFT.sol:ProducerLotNFT","label":"_paused","offset":0,"slot":"12","type":"t_bool"},{"astId":6041,"contract":"contracts/ProducerLotNFT.sol:ProducerLotNFT","label":"_tokenIdCounter","offset":0,"slot":"13","type":"t_struct(Counter)2584_storage"},{"astId":6089,"contract":"contracts/ProducerLotNFT.sol:ProducerLotNFT","label":"lots","offset":0,"slot":"14","type":"t_mapping(t_uint256,t_struct(ProducerLot)6084_storage)"},{"astId":6094,"contract":"contracts/ProducerLotNFT.sol:ProducerLotNFT","label":"lotsByProducer","offset":0,"slot":"15","type":"t_mapping(t_address,t_array(t_uint256)dyn_storage)"},{"astId":6099,"contract":"contracts/ProducerLotNFT.sol:ProducerLotNFT","label":"lotsByContract","offset":0,"slot":"16","type":"t_mapping(t_bytes32,t_array(t_uint256)dyn_storage)"},{"astId":6104,"contract":"contracts/ProducerLotNFT.sol:ProducerLotNFT","label":"lotsByShipment","offset":0,"slot":"17","type":"t_mapping(t_bytes32,t_array(t_uint256)dyn_storage)"},{"astId":6108,"contract":"contracts/ProducerLotNFT.sol:ProducerLotNFT","label":"lotsByCode","offset":0,"slot":"18","type":"t_mapping(t_string_memory_ptr,t_uint256)"},{"astId":6113,"contract":"contracts/ProducerLotNFT.sol:ProducerLotNFT","label":"lotsByStatus","offset":0,"slot":"19","type":"t_mapping(t_enum(LotStatus)6047,t_uint256)"}],"types":{"t_address":{"encoding":"inplace","label":"address","numberOfBytes":"20"},"t_array(t_string_storage)dyn_storage":{"base":"t_string_storage","encoding":"dynamic_array","label":"string[]","numberOfBytes":"32"},"t_array(t_uint256)dyn_storage":{"base":"t_uint256","encoding":"dynamic_array","label":"uint256[]","numberOfBytes":"32"},"t_bool":{"encoding":"inplace","label":"bool","numberOfBytes":"1"},"t_bytes32":{"encoding":"inplace","label":"bytes32","numberOfBytes":"32"},"t_enum(LotStatus)6047":{"encoding":"inplace","label":"enum ProducerLotNFT.LotStatus","numberOfBytes":"1"},"t_mapping(t_address,t_array(t_uint256)dyn_storage)":{"encoding":"mapping","key":"t_address","label":"mapping(address => uint256[])","numberOfBytes":"32","value":"t_array(t_uint256)dyn_storage"},"t_mapping(t_address,t_bool)":{"encoding":"mapping","key":"t_address","label":"mapping(address => bool)","numberOfBytes":"32","value":"t_bool"},"t_mapping(t_address,t_mapping(t_address,t_bool))":{"encoding":"mapping","key":"t_address","label":"mapping(address => mapping(address => bool))","numberOfBytes":"32","value":"t_mapping(t_address,t_bool)"},"t_mapping(t_address,t_mapping(t_uint256,t_uint256))":{"encoding":"mapping","key":"t_address","label":"mapping(address => mapping(uint256 => uint256))","numberOfBytes":"32","value":"t_mapping(t_uint256,t_uint256)"},"t_mapping(t_address,t_uint256)":{"encoding":"mapping","key":"t_address","label":"mapping(address => uint256)","numberOfBytes":"32","value":"t_uint256"},"t_mapping(t_bytes32,t_array(t_uint256)dyn_storage)":{"encoding":"mapping","key":"t_bytes32","label":"mapping(bytes32 => uint256[])","numberOfBytes":"32","value":"t_array(t_uint256)dyn_storage"},"t_mapping(t_bytes32,t_struct(RoleData)19_storage)":{"encoding":"mapping","key":"t_bytes32","label":"mapping(bytes32 => struct AccessControl.RoleData)","numberOfBytes":"32","value":"t_struct(RoleData)19_storage"},"t_mapping(t_enum(LotStatus)6047,t_uint256)":{"encoding":"mapping","key":"t_enum(LotStatus)6047","label":"mapping(enum ProducerLotNFT.LotStatus => uint256)","numberOfBytes":"32","value":"t_uint256"},"t_mapping(t_string_memory_ptr,t_uint256)":{"encoding":"mapping","key":"t_string_memory_ptr","label":"mapping(string => uint256)","numberOfBytes":"32","value":"t_uint256"},"t_mapping(t_uint256,t_address)":{"encoding":"mapping","key":"t_uint256","label":"mapping(uint256 => address)","numberOfBytes":"32","value":"t_address"},"t_mapping(t_uint256,t_string_storage)":{"encoding":"mapping","key":"t_uint256","label":"mapping(uint256 => string)","numberOfBytes":"32","value":"t_string_storage"},"t_mapping(t_uint256,t_struct(ProducerLot)6084_storage)":{"encoding":"mapping","key":"t_uint256","label":"mapping(uint256 => struct ProducerLotNFT.ProducerLot)","numberOfBytes":"32","value":"t_struct(ProducerLot)6084_storage"},"t_mapping(t_uint256,t_uint256)":{"encoding":"mapping","key":"t_uint256","label":"mapping(uint256 => uint256)","numberOfBytes":"32","value":"t_uint256"},"t_string_memory_ptr":{"encoding":"bytes","label":"string","numberOfBytes":"32"},"t_string_storage":{"encoding":"bytes","label":"string","numberOfBytes":"32"},"t_struct(Counter)2584_storage":{"encoding":"inplace","label":"struct Counters.Counter","members":[{"astId":2583,"contract":"contracts/ProducerLotNFT.sol:ProducerLotNFT","label":"_value","offset":0,"slot":"0","type":"t_uint256"}],"numberOfBytes":"32"},"t_struct(ProducerLot)6084_storage":{"encoding":"inplace","label":"struct ProducerLotNFT.ProducerLot","members":[{"astId":6049,"contract":"contracts/ProducerLotNFT.sol:ProducerLotNFT","label":"lotId","offset":0,"slot":"0","type":"t_uint256"},{"astId":6051,"contract":"contracts/ProducerLotNFT.sol:ProducerLotNFT","label":"producer","offset":0,"slot":"1","type":"t_address"},{"astId":6053,"contract":"contracts/ProducerLotNFT.sol:ProducerLotNFT","label":"producerName","offset":0,"slot":"2","type":"t_string_storage"},{"astId":6055,"contract":"contracts/ProducerLotNFT.sol:ProducerLotNFT","label":"farmName","offset":0,"slot":"3","type":"t_string_storage"},{"astId":6057,"contract":"contracts/ProducerLotNFT.sol:ProducerLotNFT","label":"location","offset":0,"slot":"4","type":"t_string_storage"},{"astId":6059,"contract":"contracts/ProducerLotNFT.sol:ProducerLotNFT","label":"productType","offset":0,"slot":"5","type":"t_string_storage"},{"astId":6061,"contract":"contracts/ProducerLotNFT.sol:ProducerLotNFT","label":"weightKg","offset":0,"slot":"6","type":"t_uint256"},{"astId":6063,"contract":"contracts/ProducerLotNFT.sol:ProducerLotNFT","label":"qualityGrade","offset":0,"slot":"7","type":"t_string_storage"},{"astId":6065,"contract":"contracts/ProducerLotNFT.sol:ProducerLotNFT","label":"harvestDate","offset":0,"slot":"8","type":"t_uint256"},{"astId":6067,"contract":"contracts/ProducerLotNFT.sol:ProducerLotNFT","label":"purchaseDate","offset":0,"slot":"9","type":"t_uint256"},{"astId":6069,"contract":"contracts/ProducerLotNFT.sol:ProducerLotNFT","label":"purchasePriceUSD","offset":0,"slot":"10","type":"t_uint256"},{"astId":6072,"contract":"contracts/ProducerLotNFT.sol:ProducerLotNFT","label":"certifications","offset":0,"slot":"11","type":"t_array(t_string_storage)dyn_storage"},{"astId":6075,"contract":"contracts/ProducerLotNFT.sol:ProducerLotNFT","label":"status","offset":0,"slot":"12","type":"t_enum(LotStatus)6047"},{"astId":6077,"contract":"contracts/ProducerLotNFT.sol:ProducerLotNFT","label":"contractId","offset":0,"slot":"13","type":"t_bytes32"},{"astId":6079,"contract":"contracts/ProducerLotNFT.sol:ProducerLotNFT","label":"shipmentId","offset":0,"slot":"14","type":"t_bytes32"},{"astId":6081,"contract":"contracts/ProducerLotNFT.sol:ProducerLotNFT","label":"metadataURI","offset":0,"slot":"15","type":"t_string_storage"},{"astId":6083,"contract":"contracts/ProducerLotNFT.sol:ProducerLotNFT","label":"exists","offset":0,"slot":"16","type":"t_bool"}],"numberOfBytes":"544"},"t_struct(RoleData)19_storage":{"encoding":"inplace","label":"struct AccessControl.RoleData","members":[{"astId":16,"contract":"contracts/ProducerLotNFT.sol:ProducerLotNFT","label":"members","offset":0,"slot":"0","type":"t_mapping(t_address,t_bool)"},{"astId":18,"contract":"contracts/ProducerLotNFT.sol:ProducerLotNFT","label":"adminRole","offset":0,"slot":"1","type":"t_bytes32"}],"numberOfBytes":"64"},"t_uint256":{"encoding":"inplace","label":"uint256","numberOfBytes":"32"}}}}}}