{
  "_format": "hh-sol-artifact-1",
  "contractName": "AgroExportContract",
  "sourceName": "contracts/AgroExportContract.sol",
  "abi": [
    {
      "inputs": [],
      "stateMutability": "nonpayable",
      "type": "constructor"
    },
    {
      "anonymous": false,
      "inputs": [
        {
          "indexed": true,
          "internalType": "bytes32",
          "name": "contractId",
          "type": "bytes32"
        },
        {
          "indexed": false,
          "internalType": "uint256",
          "name": "totalFixedVolume",
          "type": "uint256"
        },
        {
          "indexed": false,
          "internalType": "uint256",
          "name": "totalFixations",
          "type": "uint256"
        }
      ],
      "name": "ContractCompleted",
      "type": "event"
    },
    {
      "anonymous": false,
      "inputs": [
        {
          "indexed": true,
          "internalType": "bytes32",
          "name": "contractId",
          "type": "bytes32"
        },
        {
          "indexed": true,
          "internalType": "address",
          "name": "buyer",
          "type": "address"
        },
        {
          "indexed": true,
          "internalType": "address",
          "name": "exporter",
          "type": "address"
        },
        {
          "indexed": false,
          "internalType": "string",
          "name": "contractCode",
          "type": "string"
        },
        {
          "indexed": false,
          "internalType": "uint256",
          "name": "totalVolumeMT",
          "type": "uint256"
        }
      ],
      "name": "ContractCreated",
      "type": "event"
    },
    {
      "anonymous": false,
      "inputs": [
        {
          "indexed": true,
          "internalType": "bytes32",
          "name": "contractId",
          "type": "bytes32"
        },
        {
          "indexed": false,
          "internalType": "enum AgroExportContract.ContractStatus",
          "name": "oldStatus",
          "type": "uint8"
        },
        {
          "indexed": false,
          "internalType": "enum AgroExportContract.ContractStatus",
          "name": "newStatus",
          "type": "uint8"
        }
      ],
      "name": "ContractStatusChanged",
      "type": "event"
    },
    {
      "anonymous": false,
      "inputs": [
        {
          "indexed": true,
          "internalType": "bytes32",
          "name": "fixationId",
          "type": "bytes32"
        },
        {
          "indexed": true,
          "internalType": "bytes32",
          "name": "contractId",
          "type": "bytes32"
        },
        {
          "indexed": false,
          "internalType": "uint256",
          "name": "fixedQuantityMT",
          "type": "uint256"
        },
        {
          "indexed": false,
          "internalType": "uint256",
          "name": "spotPriceUSD",
          "type": "uint256"
        },
        {
          "indexed": false,
          "internalType": "uint256",
          "name": "finalPriceUSD",
          "type": "uint256"
        },
        {
          "indexed": false,
          "internalType": "uint256[]",
          "name": "lotIds",
          "type": "uint256[]"
        }
      ],
      "name": "FixationRegistered",
      "type": "event"
    },
    {
      "anonymous": false,
      "inputs": [
        {
          "indexed": false,
          "internalType": "address",
          "name": "account",
          "type": "address"
        }
      ],
      "name": "Paused",
      "type": "event"
    },
    {
      "anonymous": false,
      "inputs": [
        {
          "indexed": true,
          "internalType": "bytes32",
          "name": "role",
          "type": "bytes32"
        },
        {
          "indexed": true,
          "internalType": "bytes32",
          "name": "previousAdminRole",
          "type": "bytes32"
        },
        {
          "indexed": true,
          "internalType": "bytes32",
          "name": "newAdminRole",
          "type": "bytes32"
        }
      ],
      "name": "RoleAdminChanged",
      "type": "event"
    },
    {
      "anonymous": false,
      "inputs": [
        {
          "indexed": true,
          "internalType": "bytes32",
          "name": "role",
          "type": "bytes32"
        },
        {
          "indexed": true,
          "internalType": "address",
          "name": "account",
          "type": "address"
        },
        {
          "indexed": true,
          "internalType": "address",
          "name": "sender",
          "type": "address"
        }
      ],
      "name": "RoleGranted",
      "type": "event"
    },
    {
      "anonymous": false,
      "inputs": [
        {
          "indexed": true,
          "internalType": "bytes32",
          "name": "role",
          "type": "bytes32"
        },
        {
          "indexed": true,
          "internalType": "address",
          "name": "account",
          "type": "address"
        },
        {
          "indexed": true,
          "internalType": "address",
          "name": "sender",
          "type": "address"
        }
      ],
      "name": "RoleRevoked",
      "type": "event"
    },
    {
      "anonymous": false,
      "inputs": [
        {
          "indexed": false,
          "internalType": "address",
          "name": "account",
          "type": "address"
        }
      ],
      "name": "Unpaused",
      "type": "event"
    },
    {
      "inputs": [],
      "name": "BUYER_ROLE",
      "outputs": [
        {
          "internalType": "bytes32",
          "name": "",
          "type": "bytes32"
        }
      ],
      "stateMutability": "view",
      "type": "function"
    },
    {
      "inputs": [],
      "name": "DEFAULT_ADMIN_ROLE",
      "outputs": [
        {
          "internalType": "bytes32",
          "name": "",
          "type": "bytes32"
        }
      ],
      "stateMutability": "view",
      "type": "function"
    },
    {
      "inputs": [],
      "name": "EXPORTER_ROLE",
      "outputs": [
        {
          "internalType": "bytes32",
          "name": "",
          "type": "bytes32"
        }
      ],
      "stateMutability": "view",
      "type": "function"
    },
    {
      "inputs": [],
      "name": "OPERATOR_ROLE",
      "outputs": [
        {
          "internalType": "bytes32",
          "name": "",
          "type": "bytes32"
        }
      ],
      "stateMutability": "view",
      "type": "function"
    },
    {
      "inputs": [
        {
          "internalType": "bytes32",
          "name": "_contractId",
          "type": "bytes32"
        },
        {
          "internalType": "enum AgroExportContract.ContractStatus",
          "name": "_newStatus",
          "type": "uint8"
        }
      ],
      "name": "changeContractStatus",
      "outputs": [],
      "stateMutability": "nonpayable",
      "type": "function"
    },
    {
      "inputs": [
        {
          "internalType": "bytes32",
          "name": "",
          "type": "bytes32"
        }
      ],
      "name": "contracts",
      "outputs": [
        {
          "internalType": "bytes32",
          "name": "contractId",
          "type": "bytes32"
        },
        {
          "internalType": "address",
          "name": "buyer",
          "type": "address"
        },
        {
          "internalType": "address",
          "name": "exporter",
          "type": "address"
        },
        {
          "internalType": "string",
          "name": "contractCode",
          "type": "string"
        },
        {
          "internalType": "string",
          "name": "productType",
          "type": "string"
        },
        {
          "internalType": "string",
          "name": "productGrade",
          "type": "string"
        },
        {
          "internalType": "uint256",
          "name": "totalVolumeMT",
          "type": "uint256"
        },
        {
          "internalType": "int256",
          "name": "differentialUSD",
          "type": "int256"
        },
        {
          "internalType": "uint256",
          "name": "contractDate",
          "type": "uint256"
        },
        {
          "internalType": "uint256",
          "name": "startDate",
          "type": "uint256"
        },
        {
          "internalType": "uint256",
          "name": "endDate",
          "type": "uint256"
        },
        {
          "internalType": "uint256",
          "name": "deliveryDate",
          "type": "uint256"
        },
        {
          "internalType": "uint256",
          "name": "fixedVolumeMT",
          "type": "uint256"
        },
        {
          "internalType": "enum AgroExportContract.ContractStatus",
          "name": "status",
          "type": "uint8"
        },
        {
          "internalType": "bool",
          "name": "exists",
          "type": "bool"
        }
      ],
      "stateMutability": "view",
      "type": "function"
    },
    {
      "inputs": [
        {
          "internalType": "address",
          "name": "",
          "type": "address"
        },
        {
          "internalType": "uint256",
          "name": "",
          "type": "uint256"
        }
      ],
      "name": "contractsByBuyer",
      "outputs": [
        {
          "internalType": "bytes32",
          "name": "",
          "type": "bytes32"
        }
      ],
      "stateMutability": "view",
      "type": "function"
    },
    {
      "inputs": [
        {
          "internalType": "address",
          "name": "",
          "type": "address"
        },
        {
          "internalType": "uint256",
          "name": "",
          "type": "uint256"
        }
      ],
      "name": "contractsByExporter",
      "outputs": [
        {
          "internalType": "bytes32",
          "name": "",
          "type": "bytes32"
        }
      ],
      "stateMutability": "view",
      "type": "function"
    },
    {
      "inputs": [
        {
          "internalType": "address",
          "name": "_buyer",
          "type": "address"
        },
        {
          "internalType": "address",
          "name": "_exporter",
          "type": "address"
        },
        {
          "internalType": "string",
          "name": "_contractCode",
          "type": "string"
        },
        {
          "internalType": "string",
          "name": "_productType",
          "type": "string"
        },
        {
          "internalType": "string",
          "name": "_productGrade",
          "type": "string"
        },
        {
          "internalType": "uint256",
          "name": "_totalVolumeMT",
          "type": "uint256"
        },
        {
          "internalType": "int256",
          "name": "_differentialUSD",
          "type": "int256"
        },
        {
          "internalType": "uint256",
          "name": "_startDate",
          "type": "uint256"
        },
        {
          "internalType": "uint256",
          "name": "_endDate",
          "type": "uint256"
        },
        {
          "internalType": "uint256",
          "name": "_deliveryDate",
          "type": "uint256"
        }
      ],
      "name": "createContract",
      "outputs": [
        {
          "internalType": "bytes32",
          "name": "",
          "type": "bytes32"
        }
      ],
      "stateMutability": "nonpayable",
      "type": "function"
    },
    {
      "inputs": [
        {
          "internalType": "bytes32",
          "name": "",
          "type": "bytes32"
        }
      ],
      "name": "fixations",
      "outputs": [
        {
          "internalType": "bytes32",
          "name": "fixationId",
          "type": "bytes32"
        },
        {
          "internalType": "bytes32",
          "name": "contractId",
          "type": "bytes32"
        },
        {
          "internalType": "uint256",
          "name": "fixedQuantityMT",
          "type": "uint256"
        },
        {
          "internalType": "uint256",
          "name": "spotPriceUSD",
          "type": "uint256"
        },
        {
          "internalType": "uint256",
          "name": "finalPriceUSD",
          "type": "uint256"
        },
        {
          "internalType": "uint256",
          "name": "fixationDate",
          "type": "uint256"
        },
        {
          "internalType": "string",
          "name": "notes",
          "type": "string"
        },
        {
          "internalType": "address",
          "name": "registeredBy",
          "type": "address"
        },
        {
          "internalType": "bool",
          "name": "exists",
          "type": "bool"
        }
      ],
      "stateMutability": "view",
      "type": "function"
    },
    {
      "inputs": [
        {
          "internalType": "bytes32",
          "name": "",
          "type": "bytes32"
        },
        {
          "internalType": "uint256",
          "name": "",
          "type": "uint256"
        }
      ],
      "name": "fixationsByContract",
      "outputs": [
        {
          "internalType": "bytes32",
          "name": "",
          "type": "bytes32"
        }
      ],
      "stateMutability": "view",
      "type": "function"
    },
    {
      "inputs": [
        {
          "internalType": "bytes32",
          "name": "_contractId",
          "type": "bytes32"
        }
      ],
      "name": "getContract",
      "outputs": [
        {
          "internalType": "address",
          "name": "buyer",
          "type": "address"
        },
        {
          "internalType": "address",
          "name": "exporter",
          "type": "address"
        },
        {
          "internalType": "string",
          "name": "contractCode",
          "type": "string"
        },
        {
          "internalType": "string",
          "name": "productType",
          "type": "string"
        },
        {
          "internalType": "string",
          "name": "productGrade",
          "type": "string"
        },
        {
          "internalType": "uint256",
          "name": "totalVolumeMT",
          "type": "uint256"
        },
        {
          "internalType": "int256",
          "name": "differentialUSD",
          "type": "int256"
        },
        {
          "internalType": "uint256",
          "name": "contractDate",
          "type": "uint256"
        },
        {
          "internalType": "uint256",
          "name": "startDate",
          "type": "uint256"
        },
        {
          "internalType": "uint256",
          "name": "endDate",
          "type": "uint256"
        },
        {
          "internalType": "uint256",
          "name": "deliveryDate",
          "type": "uint256"
        },
        {
          "internalType": "uint256",
          "name": "fixedVolumeMT",
          "type": "uint256"
        },
        {
          "internalType": "enum AgroExportContract.ContractStatus",
          "name": "status",
          "type": "uint8"
        }
      ],
      "stateMutability": "view",
      "type": "function"
    },
    {
      "inputs": [
        {
          "internalType": "address",
          "name": "_buyer",
          "type": "address"
        }
      ],
      "name": "getContractsByBuyer",
      "outputs": [
        {
          "internalType": "bytes32[]",
          "name": "",
          "type": "bytes32[]"
        }
      ],
      "stateMutability": "view",
      "type": "function"
    },
    {
      "inputs": [
        {
          "internalType": "address",
          "name": "_exporter",
          "type": "address"
        }
      ],
      "name": "getContractsByExporter",
      "outputs": [
        {
          "internalType": "bytes32[]",
          "name": "",
          "type": "bytes32[]"
        }
      ],
      "stateMutability": "view",
      "type": "function"
    },
    {
      "inputs": [
        {
          "internalType": "bytes32",
          "name": "_fixationId",
          "type": "bytes32"
        }
      ],
      "name": "getFixation",
      "outputs": [
        {
          "internalType": "bytes32",
          "name": "contractId",
          "type": "bytes32"
        },
        {
          "internalType": "uint256",
          "name": "fixedQuantityMT",
          "type": "uint256"
        },
        {
          "internalType": "uint256",
          "name": "spotPriceUSD",
          "type": "uint256"
        },
        {
          "internalType": "uint256",
          "name": "finalPriceUSD",
          "type": "uint256"
        },
        {
          "internalType": "uint256",
          "name": "fixationDate",
          "type": "uint256"
        },
        {
          "internalType": "uint256[]",
          "name": "lotIds",
          "type": "uint256[]"
        },
        {
          "internalType": "string",
          "name": "notes",
          "type": "string"
        },
        {
          "internalType": "address",
          "name": "registeredBy",
          "type": "address"
        }
      ],
      "stateMutability": "view",
      "type": "function"
    },
    {
      "inputs": [
        {
          "internalType": "bytes32",
          "name": "_contractId",
          "type": "bytes32"
        }
      ],
      "name": "getFixationsByContract",
      "outputs": [
        {
          "internalType": "bytes32[]",
          "name": "",
          "type": "bytes32[]"
        }
      ],
      "stateMutability": "view",
      "type": "function"
    },
    {
      "inputs": [
        {
          "internalType": "bytes32",
          "name": "_contractId",
          "type": "bytes32"
        }
      ],
      "name": "getPendingVolume",
      "outputs": [
        {
          "internalType": "uint256",
          "name": "",
          "type": "uint256"
        }
      ],
      "stateMutability": "view",
      "type": "function"
    },
    {
      "inputs": [
        {
          "internalType": "bytes32",
          "name": "role",
          "type": "bytes32"
        }
      ],
      "name": "getRoleAdmin",
      "outputs": [
        {
          "internalType": "bytes32",
          "name": "",
          "type": "bytes32"
        }
      ],
      "stateMutability": "view",
      "type": "function"
    },
    {
      "inputs": [],
      "name": "getStats",
      "outputs": [
        {
          "internalType": "uint256",
          "name": "_totalContracts",
          "type": "uint256"
        },
        {
          "internalType": "uint256",
          "name": "_totalFixations",
          "type": "uint256"
        },
        {
          "internalType": "uint256",
          "name": "activeContracts",
          "type": "uint256"
        },
        {
          "internalType": "uint256",
          "name": "completedContracts",
          "type": "uint256"
        }
      ],
      "stateMutability": "view",
      "type": "function"
    },
    {
      "inputs": [
        {
          "internalType": "bytes32",
          "name": "role",
          "type": "bytes32"
        },
        {
          "internalType": "address",
          "name": "account",
          "type": "address"
        }
      ],
      "name": "grantRole",
      "outputs": [],
      "stateMutability": "nonpayable",
      "type": "function"
    },
    {
      "inputs": [
        {
          "internalType": "bytes32",
          "name": "role",
          "type": "bytes32"
        },
        {
          "internalType": "address",
          "name": "account",
          "type": "address"
        }
      ],
      "name": "hasRole",
      "outputs": [
        {
          "internalType": "bool",
          "name": "",
          "type": "bool"
        }
      ],
      "stateMutability": "view",
      "type": "function"
    },
    {
      "inputs": [
        {
          "internalType": "bytes32",
          "name": "_contractId",
          "type": "bytes32"
        }
      ],
      "name": "isContractExpired",
      "outputs": [
        {
          "internalType": "bool",
          "name": "",
          "type": "bool"
        }
      ],
      "stateMutability": "view",
      "type": "function"
    },
    {
      "inputs": [
        {
          "internalType": "bytes32[]",
          "name": "_contractIds",
          "type": "bytes32[]"
        }
      ],
      "name": "markExpiredContracts",
      "outputs": [],
      "stateMutability": "nonpayable",
      "type": "function"
    },
    {
      "inputs": [],
      "name": "pause",
      "outputs": [],
      "stateMutability": "nonpayable",
      "type": "function"
    },
    {
      "inputs": [],
      "name": "paused",
      "outputs": [
        {
          "internalType": "bool",
          "name": "",
          "type": "bool"
        }
      ],
      "stateMutability": "view",
      "type": "function"
    },
    {
      "inputs": [
        {
          "internalType": "bytes32",
          "name": "_contractId",
          "type": "bytes32"
        },
        {
          "internalType": "uint256",
          "name": "_fixedQuantityMT",
          "type": "uint256"
        },
        {
          "internalType": "uint256",
          "name": "_spotPriceUSD",
          "type": "uint256"
        },
        {
          "internalType": "uint256[]",
          "name": "_lotIds",
          "type": "uint256[]"
        },
        {
          "internalType": "string",
          "name": "_notes",
          "type": "string"
        }
      ],
      "name": "registerFixation",
      "outputs": [
        {
          "internalType": "bytes32",
          "name": "",
          "type": "bytes32"
        }
      ],
      "stateMutability": "nonpayable",
      "type": "function"
    },
    {
      "inputs": [
        {
          "internalType": "bytes32",
          "name": "role",
          "type": "bytes32"
        },
        {
          "internalType": "address",
          "name": "account",
          "type": "address"
        }
      ],
      "name": "renounceRole",
      "outputs": [],
      "stateMutability": "nonpayable",
      "type": "function"
    },
    {
      "inputs": [
        {
          "internalType": "bytes32",
          "name": "role",
          "type": "bytes32"
        },
        {
          "internalType": "address",
          "name": "account",
          "type": "address"
        }
      ],
      "name": "revokeRole",
      "outputs": [],
      "stateMutability": "nonpayable",
      "type": "function"
    },
    {
      "inputs": [
        {
          "internalType": "bytes4",
          "name": "interfaceId",
          "type": "bytes4"
        }
      ],
      "name": "supportsInterface",
      "outputs": [
        {
          "internalType": "bool",
          "name": "",
          "type": "bool"
        }
      ],
      "stateMutability": "view",
      "type": "function"
    },
    {
      "inputs": [],
      "name": "totalContracts",
      "outputs": [
        {
          "internalType": "uint256",
          "name": "",
          "type": "uint256"
        }
      ],
      "stateMutability": "view",
      "type": "function"
    },
    {
      "inputs": [],
      "name": "totalFixations",
      "outputs": [
        {
          "internalType": "uint256",
          "name": "",
          "type": "uint256"
        }
      ],
      "stateMutability": "view",
      "type": "function"
    },
    {
      "inputs": [],
      "name": "unpause",
      "outputs": [],
      "stateMutability": "nonpayable",
      "type": "function"
    }
  ],
  "bytecode": "0x6080604081815234620000f8576001805560ff1980600254166002556000908180526020828152838320338452815260ff848420541615620000c2575b7f97667070c54ef182b0f5858b034beac1b6f3089aa2d3188bb1e8929f4fa9b92993848452838252808420338552825260ff81852054161562000087575b612d1f8681620000fe8239f35b6001918585528481528185209033865252832091825416179055339160008051602062002e1d833981519152339280a438808080806200007a565b828052828152838320338452815283832060018382541617905533338460008051602062002e1d8339815191528180a46200003c565b600080fdfe608080604052600436101561001357600080fd5b60003560e01c90816301ffc9a7146122e2575080632380d7871461219e578063248a9ca31461216f57806326519e3b146120c55780632b8793601461205b5780632f2ff15d14611fa857806333897e5214611f3057806336568abe14611e9e5780633731151014611d055780633f4ba83a14611c715780634dc5e23714611c205780635c975abb14611bfd5780637a01a1da14611bc25780638456cb5914611b68578063851c79bf14611b1e5780639100c28f14611b0057806391d1485414611ab35780639cb977f8146110e4578063a09037a9146110c6578063a217fddf146110aa578063a3662c4b146106e0578063b70e3a931461064a578063c59d484714610616578063c6c49a3614610592578063ce25dade14610548578063d547741f14610507578063dd8bc056146104c0578063e16c7d981461039e578063ec56a37314610276578063f2a6a2411461023b578063f5b541a6146102005763ff5e90d91461017f57600080fd5b346101fb5760203660031901126101fb5760043560005260036020526040600020600a600d820154916101b760ff8460081c16612c7c565b0154421190816101cf575b6020826040519015158152f35b60ff91501660048110156101e5571560206101c2565b634e487b7160e01b600052602160045260246000fd5b600080fd5b346101fb5760003660031901126101fb5760206040517f97667070c54ef182b0f5858b034beac1b6f3089aa2d3188bb1e8929f4fa9b9298152f35b346101fb5760003660031901126101fb5760206040517faf60a13a1620ed8606730e7105f2af60851db04bb2ce1a068e80262de457512a8152f35b346101fb5760203660031901126101fb57600435600052600360205260406000208054600160a01b60019003918260018201541692600282015416600382016102be90612427565b916102cb60048201612427565b926102d860058301612427565b936006830154946007840154600885015490600986015492600a87015494600b88015496600c89015498600d0154996040519d8e809e81526020015260408d01528b6101e06060819201528c0161032e9161238c565b8b810360808d015261033f9161238c565b8a810360a08c01526103509161238c565b9760c08a015260e08901526101008801526101208701526101408601526101608501526101808401526101a0830160ff82169061038c916125cf565b60081c60ff1615156101c08301520390f35b346101fb5760203660031901126101fb5760043560005260036020526040600020600d810154908160081c60ff166103d590612c7c565b600160a01b6001900390816001820154169160028201541692600682015491600781015460088201546009830154600a84015491600b85015493600c860154956003810161042290612427565b9061042f60048201612427565b9060050161043c90612427565b916040519c8d9c8d5260208d01528b6101a06040819201528c0161045f9161238c565b8b810360608d01526104709161238c565b8a810360808c01526104819161238c565b9760a08a015260c089015260e088015261010087015261012086015261014085015261016084015261018083019060ff16906104bc916125cf565b0390f35b346101fb5760403660031901126101fb576024356004356000526007602052604060002080548210156101fb576020916104f99161254b565b90546040519160031b1c8152f35b346101fb5760403660031901126101fb57610546600435610526612508565b9080600052600060205261054160016040600020015461291b565b612a25565b005b346101fb5760403660031901126101fb5761056161251e565b6001600160a01b03166000908152600660205260409020805460243591908210156101fb576020916104f99161254b565b346101fb576020806003193601126101fb576001600160a01b036105b461251e565b1660005260058152604060002090604051908181845491828152019360005281600020916000905b8282106105ff576104bc856105f381890382612406565b604051918291826124cd565b8354865294850194600193840193909101906105dc565b346101fb5760003660031901126101fb57608060085460095460405191825260208201526000604082015260006060820152f35b346101fb5760403660031901126101fb5760043560243560048110156101fb57604060ff6106dd7f8f653db3ccbf47ee40d4981327f8f8312f93ed155f95a74b4e303c56e175fdf39361069b6125dc565b8560005260036020526106d3600d85600020016106c8838254926106c3888560081c16612c7c565b612bdc565b8551948591166125cf565b60208301906125cf565ba2005b346101fb5760a03660031901126101fb576064356001600160401b0381116101fb57366023820112156101fb5780600401359061071c82612534565b9161072a6040519384612406565b8083526024602084019160051b830101913683116101fb57602401905b82821061109a57836084356001600160401b0381116101fb5761076e903690600401612579565b90610777612c38565b600435600052600360205260406000209060ff600d83015461079d828260081c16612c7c565b1660048110156101e55761105f573360009081527f718ad431c81a35702f677df6ec573a839eda3d7f28cae8ab8b4da05bf770462f60205260409020547faf60a13a1620ed8606730e7105f2af60851db04bb2ce1a068e80262de457512a9060ff168015611027575b15610fd657600052600060205260406000203360005260205260ff60406000205416610f7d575b60243515610f2a5760443515610edb576108506006830154600c84015490612cc8565b60243511610e885760098201544210610e4357600a8201544211610dfe57600782015460008112610d6c5761088790604435612a99565b600954926040519360043560208601526024356040860152604435606086015242608086015260a085015260a084528360c08101106001600160401b0360c086011117610cda5760c08401604052835160208501209384600052600460205260ff60086040600020015460a01c16610d24575060405194856101408101106001600160401b0361014088011117610cda5761014086016040528486526004356020870152602435604087015260443560608701528260808701524260a08701528360c087015260e0860152336101008601526001610120860152836000526004602052604060002091855183556020860151600184015560408601516002840155606086015160038401556080860151600484015560a0860151600584015560c08601518051906001600160401b038211610cda57600160401b8211610cda576020906006860154836006880155808410610d04575b500160068501600052602060002060005b838110610cf0575050505060e0860151918251966001600160401b038811610cda576020978794610a2260078801546123b1565b601f8111610c9c575b508990601f8311600114610c045791807ff08afb8b6fc52012f5f4ad81e3faa058d1affc795b7b72dd94aaa56d958d1f17979892600894600092610bf9575b50508160011b916000199060031b1c19161760078201555b019060018060a01b036101008201511682549161012060ff60a01b910151151560a01b16916affffffffffffffffffffff60a81b1617179055610acb602435600c830154612a99565b600c82015560043560005260078752610ae8846040600020612bf4565b610af3600954612c29565b600955600c81015460068201541115610b41575b506040519060243582526044358783015260408201526080606082015280610b36600435956080830190612335565b0390a3604051908152f35b600c906004356000526003885260ff610b81600d604060002001805490610b6c848360081c16612c7c565b600184198316179055604051928391166125cf565b6001898201527f8f653db3ccbf47ee40d4981327f8f8312f93ed155f95a74b4e303c56e175fdf3604060043592a2015460043560005260078752604060002054604051918252878201527f1dd5beda64ff3819c22a6139dac47a530a6b6f29efa6f9c9db8e39bc6027f89e604060043592a286610b07565b015190508c80610a6a565b600788939298016000528a6000209060005b601f1984168110610c825750916001917ff08afb8b6fc52012f5f4ad81e3faa058d1affc795b7b72dd94aaa56d958d1f1798996008959483601f19811610610c69575b505050811b016007820155610a82565b015160001960f88460031b161c191690558c8080610c59565b818a01518355988c01988b98506001909201918c01610c16565b610cca90600789016000528b600020601f850160051c8101918d8610610cd0575b601f0160051c0190612bc5565b8a610a2b565b9091508190610cbd565b634e487b7160e01b600052604160045260246000fd5b6001906020845194019381840155016109ee565b610d1e906006880160005284846000209182019101612bc5565b896109dd565b60c060649162461bcd60e51b82820152602060c4820152601760e48201527f4669786174696f6e20616c72656164792065786973747300000000000000000061010482015201fd5b600160ff1b8114610de8578060000360443510610d9757610d9290600003604435612cc8565b610887565b60405162461bcd60e51b815260206004820152602360248201527f53706f7420707269636520746f6f206c6f7720666f7220646966666572656e746044820152621a585b60ea1b6064820152608490fd5b634e487b7160e01b600052601160045260246000fd5b60405162461bcd60e51b815260206004820152601760248201527f436f6e747261637420706572696f6420657870697265640000000000000000006044820152606490fd5b60405162461bcd60e51b815260206004820152601b60248201527f436f6e747261637420706572696f64206e6f74207374617274656400000000006044820152606490fd5b60405162461bcd60e51b815260206004820152602560248201527f4669786564207175616e7469747920657863656564732070656e64696e6720766044820152646f6c756d6560d81b6064820152608490fd5b60405162461bcd60e51b815260206004820152602160248201527f53706f74207072696365206d7573742062652067726561746572207468616e206044820152600360fc1b6064820152608490fd5b60405162461bcd60e51b815260206004820152602560248201527f4669786564207175616e74697479206d75737420626520677265617465722074604482015264068616e20360dc1b6064820152608490fd5b60028201546001600160a01b0316331461082d5760405162461bcd60e51b815260206004820152601960248201527f4e6f742074686520636f6e7472616374206578706f72746572000000000000006044820152606490fd5b60405162461bcd60e51b8152602060048201526024808201527f4e6f7420617574686f72697a656420746f207265676973746572206669786174604482015263696f6e7360e01b6064820152608490fd5b503360009081527fee57cd81e84075558e8fcc182a1f4393f91fc97f963a136e66b7f949a62f319f602052604090205460ff16610806565b60405162461bcd60e51b8152602060048201526013602482015272436f6e7472616374206e6f742061637469766560681b6044820152606490fd5b8135815260209182019101610747565b346101fb5760003660031901126101fb57602060405160008152f35b346101fb5760003660031901126101fb576020600854604051908152f35b346101fb576101403660031901126101fb576110fe61251e565b611106612508565b6044356001600160401b0381116101fb57611125903690600401612579565b916064356001600160401b0381116101fb57611145903690600401612579565b916084356001600160401b0381116101fb57611165903690600401612579565b9261116e6125dc565b611176612c38565b6001600160a01b03831615611a76576001600160a01b03821615611a315760a435156119ec576101043560e43510156119b25761010435610124351061196157600854604051611218608882602081019460206111d98c88815193849201612369565b8201906bffffffffffffffffffffffff19808b60601b1660208401528960601b1660348301524260488301526068820152036068810184520182612406565b5190209384600052600360205260ff600d6040600020015460081c1661191c5760405191826101e08101106001600160401b036101e085011117610cda576101e0830160405285835260018060a01b038516602084015260018060a01b0384166040840152866060840152608083015260a082015260a43560c082015260c43560e08201524261010082015260e4356101208201526101043561014082015261012435610160820152600061018082015260006101a082015260016101c08201528360005260036020526040600020815181556001810160018060a01b03602084015116906bffffffffffffffffffffffff60a01b9182825416179055600282019060018060a01b036040850151169082541617905560608201518051906001600160401b038211610cda57819061135360038501546123b1565b601f81116118e7575b50602090601f83116001146118755760009261186a575b50508160011b916000199060031b1c19161760038201555b60808201518051906001600160401b038211610cda5781906113b060048501546123b1565b601f8111611835575b50602090601f83116001146117c3576000926117b8575b50508160011b916000199060031b1c19161760048201555b60a08201518051906001600160401b038211610cda5761140b60058401546123b1565b601f8111611783575b50602090601f831160011461171057600d93929160009183611705575b50508160011b916000199060031b1c19161760058201555b60c0830151600682015560e0830151600782015561010083015160088201556101208301516009820155610140830151600a820155610160830151600b820155610180830151600c82015501906101a08101519060048210156101e557602096836101c06115e7936114dd7f099b6e7580b5e1d29d5758e803e27bc7803c885d863eaf29fb91e124d37022e0968b98612bdc565b0151815461ff00191690151560081b61ff00161790556001600160a01b03851660009081526005895260409020611515908590612bf4565b60018060a01b03861660005260068852611533846040600020612bf4565b61153e600854612c29565b6008557ff8cd32ed93fc2f9fc78152a14807c9609af3d99c5fe4dc6b106a801aaddfe90e6000818152808a5260408082206001600160a01b038a1683528b5290205460ff1615611687575b507faf60a13a1620ed8606730e7105f2af60851db04bb2ce1a068e80262de457512a6000818152808a5260408082206001600160a01b03891683528b5290205460ff1615611609575b5060405191829160408352604083019061238c565b60a435828a01526001600160a01b0395861696909516940390a4604051908152f35b6000818152808a5260408082206001600160a01b03891683528b5290205460ff166115d2576000818152808a5260408082206001600160a01b038916808452908c52908220805460ff19166001179055339290917f2f8788117e7eff1d82e926ec794901d17c78024a50270940304540a733656f0d9080a4886115d2565b6000818152808a5260408082206001600160a01b038a1683528b5290205460ff16611589576000818152808a5260408082206001600160a01b038a16808452908c52908220805460ff19166001179055339290917f2f8788117e7eff1d82e926ec794901d17c78024a50270940304540a733656f0d9080a488611589565b015190508980611431565b906005840160005260206000209160005b601f198516811061176b5750918391600193600d9695601f19811610611752575b505050811b016005820155611449565b015160001960f88460031b161c19169055898080611742565b91926020600181928685015181550194019201611721565b6117b290600585016000526020600020601f850160051c81019160208610610cd057601f0160051c0190612bc5565b88611414565b0151905088806113d0565b9250600484016000526020600020906000935b601f198416851061181a576001945083601f19811610611801575b505050811b0160048201556113e8565b015160001960f88460031b161c191690558880806117f1565b818101518355602094850194600190930192909101906117d6565b61186490600486016000526020600020601f850160051c81019160208610610cd057601f0160051c0190612bc5565b896113b9565b015190508880611373565b9250600384016000526020600020906000935b601f19841685106118cc576001945083601f198116106118b3575b505050811b01600382015561138b565b015160001960f88460031b161c191690558880806118a3565b81810151835560209485019460019093019290910190611888565b61191690600386016000526020600020601f850160051c81019160208610610cd057601f0160051c0190612bc5565b8961135c565b60405162461bcd60e51b815260206004820152601760248201527f436f6e747261637420616c7265616479206578697374730000000000000000006044820152606490fd5b60405162461bcd60e51b8152602060048201526024808201527f44656c69766572792064617465206d75737420626520616674657220656e64206044820152636461746560e01b6064820152608490fd5b60405162461bcd60e51b8152602060048201526012602482015271496e76616c696420646174652072616e676560701b6044820152606490fd5b60405162461bcd60e51b815260206004820152601d60248201527f566f6c756d65206d7573742062652067726561746572207468616e20300000006044820152606490fd5b60405162461bcd60e51b815260206004820152601860248201527f496e76616c6964206578706f72746572206164647265737300000000000000006044820152606490fd5b60405162461bcd60e51b8152602060048201526015602482015274496e76616c6964206275796572206164647265737360581b6044820152606490fd5b346101fb5760403660031901126101fb57611acc612508565b600435600052600060205260406000209060018060a01b0316600052602052602060ff604060002054166040519015158152f35b346101fb5760003660031901126101fb576020600954604051908152f35b346101fb5760403660031901126101fb57611b3761251e565b6001600160a01b03166000908152600560205260409020805460243591908210156101fb576020916104f99161254b565b346101fb5760003660031901126101fb57611b816127f7565b611b89612c38565b600160ff1960025416176002557f62e78cea01bee320cd4e420270b5ea74000d11b0c9f74754ebdbfc544b05a2586020604051338152a1005b346101fb5760003660031901126101fb5760206040517ff8cd32ed93fc2f9fc78152a14807c9609af3d99c5fe4dc6b106a801aaddfe90e8152f35b346101fb5760003660031901126101fb57602060ff600254166040519015158152f35b346101fb5760203660031901126101fb5760043560005260036020526020611c696040600020611c5960ff600d83015460081c16612c7c565b600c600682015491015490612cc8565b604051908152f35b346101fb5760003660031901126101fb57611c8a6127f7565b60025460ff811615611cc95760ff19166002557f5db9ee0a495bf2e6ff9c91a7834c1ba4fdd244a5e8aa4e537bd38aeae4b073aa6020604051338152a1005b60405162461bcd60e51b815260206004820152601460248201527314185d5cd8589b194e881b9bdd081c185d5cd95960621b6044820152606490fd5b346101fb576020806003193601126101fb57600435906001600160401b0382116101fb57366023830112156101fb57816004013590611d4382612534565b92611d516040519485612406565b8284528184016024809460051b830101913683116101fb5784849101915b838310611e8e5750505050611d826125dc565b60005b835181101561054657611d988185612cd5565b51906040519163ff5e90d960e01b8352600483015282828581305afa8015611e8257600090611e48575b611dd09250611dd557612c29565b611d85565b611ddf8186612cd5565b51806000527f8f653db3ccbf47ee40d4981327f8f8312f93ed155f95a74b4e303c56e175fdf360406003808752600d826000200190611e3e825460ff93611e2a858360081c16612c7c565b60ff198216841790558451938491166125cf565b87820152a2612c29565b50908281813d8311611e7b575b611e5f8183612406565b810103126101fb57519081151582036101fb57611dd091611dc2565b503d611e55565b6040513d6000823e3d90fd5b8235815291810191849101611d6f565b346101fb5760403660031901126101fb57611eb7612508565b336001600160a01b03821603611ed35761054690600435612a25565b60405162461bcd60e51b815260206004820152602f60248201527f416363657373436f6e74726f6c3a2063616e206f6e6c792072656e6f756e636560448201526e103937b632b9903337b91039b2b63360891b6064820152608490fd5b346101fb576020806003193601126101fb576001600160a01b03611f5261251e565b1660005260068152604060002090604051908181845491828152019360005281600020916000905b828210611f91576104bc856105f381890382612406565b835486529485019460019384019390910190611f7a565b346101fb5760403660031901126101fb57600435611fc4612508565b816000526000602052611fde60016040600020015461291b565b81600052600060205260406000209060018060a01b0316908160005260205260ff604060002054161561200d57005b8160005260006020526040600020816000526020526040600020600160ff1982541617905533917f2f8788117e7eff1d82e926ec794901d17c78024a50270940304540a733656f0d600080a4005b346101fb576020806003193601126101fb5760043560005260078152604060002090604051908181845491828152019360005281600020916000905b8282106120ae576104bc856105f381890382612406565b835486529485019460019384019390910190612097565b346101fb5760203660031901126101fb5760043560005260046020526040600020805460018201549160ff61214d60028301549260038101546004820154600583015491600861211760078601612427565b94015496604051998a998a5260208a015260408901526060880152608087015260a08601526101208060c087015285019061238c565b6001600160a01b03831660e085015260a09290921c1615156101008301520390f35b346101fb5760203660031901126101fb5760043560005260006020526020600160406000200154604051908152f35b346101fb576020806003193601126101fb57600435600052600481526040600020600881015460ff8160a01c161561229d57600191828101549260028201549160038101546004820154906005830154926006810160405180968b83549283815201926000528b6000209160005b8d82821061228a5750505050509161223c60078795936122366122769a9961226899970388612406565b01612427565b956040519a8b9a8b528a01526040890152606088015260808701526101008060a0880152860190612335565b9084820360c086015261238c565b6001600160a01b0390911660e08301520390f35b845486529094019392820192820161220c565b60405162461bcd60e51b815260048101849052601760248201527f4669786174696f6e20646f6573206e6f742065786973740000000000000000006044820152606490fd5b346101fb5760203660031901126101fb576004359063ffffffff60e01b82168092036101fb57602091637965db0b60e01b8114908115612324575b5015158152f35b6301ffc9a760e01b1490508361231d565b90815180825260208080930193019160005b828110612355575050505090565b835185529381019392810192600101612347565b60005b83811061237c5750506000910152565b818101518382015260200161236c565b906020916123a581518092818552858086019101612369565b601f01601f1916010190565b90600182811c921680156123e1575b60208310146123cb57565b634e487b7160e01b600052602260045260246000fd5b91607f16916123c0565b608081019081106001600160401b03821117610cda57604052565b90601f801991011681019081106001600160401b03821117610cda57604052565b906040519182600082549261243b846123b1565b9081845260019485811690816000146124aa5750600114612467575b505061246592500383612406565b565b9093915060005260209081600020936000915b81831061249257505061246593508201013880612457565b8554888401850152948501948794509183019161247a565b91505061246594506020925060ff191682840152151560051b8201013880612457565b6020908160408183019282815285518094520193019160005b8281106124f4575050505090565b8351855293810193928101926001016124e6565b602435906001600160a01b03821682036101fb57565b600435906001600160a01b03821682036101fb57565b6001600160401b038111610cda5760051b60200190565b80548210156125635760005260206000200190600090565b634e487b7160e01b600052603260045260246000fd5b81601f820112156101fb578035906001600160401b038211610cda57604051926125ad601f8401601f191660200185612406565b828452602083830101116101fb57816000926020809301838601378301015290565b9060048210156101e55752565b3360009081527fee57cd81e84075558e8fcc182a1f4393f91fc97f963a136e66b7f949a62f319f602090815260408083205490927f97667070c54ef182b0f5858b034beac1b6f3089aa2d3188bb1e8929f4fa9b9299160ff16156126405750505050565b61264933612ab7565b91845190612656826123eb565b604282528482019260603685378251156127e357603084538251906001918210156127e35790607860218501536041915b8183116127755750505061273357604861272f93869361271393612704985198899376020b1b1b2b9b9a1b7b73a3937b61d1030b1b1b7bab73a1604d1b8a8601526126db815180928c603789019101612369565b8401917001034b99036b4b9b9b4b733903937b6329607d1b603784015251809386840190612369565b01036028810187520185612406565b5192839262461bcd60e51b84526004840152602483019061238c565b0390fd5b60648486519062461bcd60e51b825280600483015260248201527f537472696e67733a20686578206c656e67746820696e73756666696369656e746044820152fd5b909192600f811660108110156127cf576f181899199a1a9b1b9c1cb0b131b232b360811b901a6127a58587612aa6565b5360041c9280156127bb57600019019190612687565b634e487b7160e01b82526011600452602482fd5b634e487b7160e01b83526032600452602483fd5b634e487b7160e01b81526032600452602490fd5b3360009081527fad3228b676f7d3cd4284a5443f17f1962b36e491b30a40b2405849e597ba5fb5602090815260408083205490929060ff161561283957505050565b61284233612ab7565b9080845190612850826123eb565b604282528482019260603685378251156127e357603084538251906001918210156127e35790607860218501536041915b8183116128d55750505061273357604861272f93869361271393612704985198899376020b1b1b2b9b9a1b7b73a3937b61d1030b1b1b7bab73a1604d1b8a8601526126db815180928c603789019101612369565b909192600f811660108110156127cf576f181899199a1a9b1b9c1cb0b131b232b360811b901a6129058587612aa6565b5360041c9280156127bb57600019019190612881565b600090808252602090828252604092838120338252835260ff8482205416156129445750505050565b61294d33612ab7565b9184519061295a826123eb565b604282528482019260603685378251156127e357603084538251906001918210156127e35790607860218501536041915b8183116129df5750505061273357604861272f93869361271393612704985198899376020b1b1b2b9b9a1b7b73a3937b61d1030b1b1b7bab73a1604d1b8a8601526126db815180928c603789019101612369565b909192600f811660108110156127cf576f181899199a1a9b1b9c1cb0b131b232b360811b901a612a0f8587612aa6565b5360041c9280156127bb5760001901919061298b565b9060009180835282602052604083209160018060a01b03169182845260205260ff604084205416612a5557505050565b80835282602052604083208284526020526040832060ff1981541690557ff6391f5c32d9c69d2a47ea670b442974b53935d1edc7fd64eb21e047a839171b339380a4565b91908201809211610de857565b908151811015612563570160200190565b60405190606082018281106001600160401b03821117610cda57604052602a82526020820160403682378251156125635760309053815160019081101561256357607860218401536029905b808211612b57575050612b135790565b606460405162461bcd60e51b815260206004820152602060248201527f537472696e67733a20686578206c656e67746820696e73756666696369656e746044820152fd5b9091600f81166010811015612bb0576f181899199a1a9b1b9c1cb0b131b232b360811b901a612b868486612aa6565b5360041c918015612b9b576000190190612b03565b60246000634e487b7160e01b81526011600452fd5b60246000634e487b7160e01b81526032600452fd5b818110612bd0575050565b60008155600101612bc5565b9060048110156101e55760ff80198354169116179055565b8054600160401b811015610cda57612c119160018201815561254b565b819291549060031b91821b91600019901b1916179055565b6000198114610de85760010190565b60ff60025416612c4457565b60405162461bcd60e51b815260206004820152601060248201526f14185d5cd8589b194e881c185d5cd95960821b6044820152606490fd5b15612c8357565b60405162461bcd60e51b815260206004820152601760248201527f436f6e747261637420646f6573206e6f742065786973740000000000000000006044820152606490fd5b91908203918211610de857565b80518210156125635760209160051b01019056fea2646970667358221220a2cf1273c2fb637889d20d73cce962af944d14d70f970bd1f179b4eb6b45d22a64736f6c634300081300332f8788117e7eff1d82e926ec794901d17c78024a50270940304540a733656f0d",
  "linkReferences": {},
  "deployedLinkReferences": {}
}